00000479343030000253000199520251126                                                                                                                                                                                                                                                                                                                    
301MXBIGO000XI90        0      BI  CETES  260401 0         0000010000000000373702190000036424475919007300000000009746926000003643186199300000000073860740000036431861993000000000101000000001000000040044                    00110000041000000000000000                                                                                                
301MXBIGO000YD80        0      BI  CETES  260514 0         0000010000000000236080250000022812517186007280000000009663035000002281713038400000000046131980000022817130384000000000101000000001000000040012                    00110000041000000000000000                                                                                                
301MX0MGO0000P20        0      M   BONOS  310529 0         0000010000000000019548310000019688897768007280000000100719181000001969287930100000000039815330000019692879301000000000101000000001000000040014                    00410000051000000000000000                                                                                                
302001000106MX54XX0N00230        0      54  XXI9599B2     0         2025112600000006154000000001705323600000001705323600000001049456140000000000000100000000100000018801160                    000000001000                    0                                                                                                                       
3020021201100           0        0      EF  EFECTIV990101 00000000002025112600000525544900000000100000000000000000000000000005255449720000000000000100000000000000018000000                    000000001000                    0                                                                                                                       
3020031201100           0        0      EF  EFECTIV990101 00000000002025112600002349812200000000100000000000000000000000000023498122860000000000000100000000000000018000000                    000000001000                    0                                                                                                                       
302501010102MX0MGO0000P20        0      M   BONOS  310529 0         2025112600000225318400000010061011700000010063063000000226739325140020100073400100000000100000018040014                    000000001000                    0                                                                                                                       
302502010102MX0MGO0001C80MGO0001C0      M   BONOS  270304 0         2025112600000163768100000009887372100000009889388000000161956628710004630073400100000000100000018040012                    000000001000                    0                                                                                                                       
302503010101MXBIGO000X350        0      BI  CETES  260108 0         2025112600003628552800000000991092600000000991295200000359696705830000430073600100000000100000018040044                    000000001000                    0                                                                                                                       
302504000106MX54XX0N00230        0      54  XXI9599B2     0         2025112600000135867600000001705323600000001705323600000023169822480000000000000100000000100000018801160                    000000001000                    0                                                                                                                       
302004010101MXBIGO000XI90        0      BI  CETES  260401 0         2025112600003737021900000000974692600000000974692600000364244759190001260073000100000000100000018040044                    074702062000                    0                                                                                                                       
302005010101MXBIGO000YD80        0      BI  CETES  260514 0         2025112600002360802500000000966303500000000966303500000228125171860001690072800100000000100000018040012                    074702062000                    0                                                                                                                       
302006010102MX0MGO0000P20        0      M   BONOS  310529 0         2025112600000195483100000009697334800000010071918100000196888977680020100072800100000000100000018040014                    074702062000                    0                                                                                                                       
3020071202100           0        0      *CSPMXPUSD SPOT   0         2025112700000000130000000001834350000000000000000000000000023846550000000000000200000001834350008801197                    090000002000                    0                                                                                                                       
3020081202100           0        0      *CSPMXPUSD SPOT   0         2025112700000078120000000001834350000000000000000000000014329942200000000000000200000001834350008801197                    090000002000                    0                                                                                                                       
3020091202100           0        0      *CSPMXPUSD SPOT   0         2025112700000002325000000001834350000000000000000000000000426486380000000000000200000001834350008801197                    090000002000                    0                                                                                                                       
3020101202100           0        0      *CSPMXPUSD SPOT   0         2025112700000002557500000001834350000000000000000000000000469135010000000000000200000001834350008801197                    090000002000                    0                                                                                                                       
3020111202100           0        0      *CSPMXPUSD SPOT   0         2025112700000003952500000001834350000000000000000000000000725026840000000000000200000001834350008801197                    090000002000                    0                                                                                                                       
3020121202100           0        0      *CSPMXPUSD SPOT   0         2025112700000003255000000001834350000000000000000000000000597080930000000000000200000001834350008801197                    090000002000                    0                                                                                                                       
302505000111MXFEFI2900020        0      FESPFIEMEX 25-2D  0         2025112600000000000100000000000000000000000000000000000000000000000000000000000200000001838320018025002                    090002061000                    0                                                                                                                       
3025061302100           0        0      *CSPMXPUSD SPOT   0         2025112700000001137500000001834350000000000000000000000000208657310000000000000200000001834350008801197                    090000002000                    0                                                                                                                       
302507000206MX01R00000060        0      1   R      A      0         2025112700000000289700000013947370000000013947370000000000403820960000000000000100000000100000018013109                    151902061000                    0                                                                                                                       
3030011MX1RMO0R00090        0      1R  MOTAPI 18     0         0000021535870000000274421780000005909911736000000031397982000000676182858600000000000000000156921800000000000000000000000000000000000000000000000000000000000000000000000000000000000000000000074523989000000000000000000000000000600000000000000000000000000000000000                  
3030001XS25396083360        0      JI  IBRD336520930 0         0000000006760000083100000000000000561756000000008250743512000000055775026100000000000000000098040800110280051028001102800410280000000000000000000000000000000000000000000000010000000000000000000200000000000001000000000000000000020000000000000000000000000000000000                  
3030011MX1RBL0300020        0      1RSPBLKAGPI18D    0         0000042451710000000075731000000003214910443000000010380518000000440670739800000000000000000029311800000000000000000000000000000000000000000000000000000000000000000000000000000000000000000000234451959000000000000000000000000000023000000000000000000000000000000000                  
3030003MX90ED0A00080        0      90  EDOMEX 22X    0         0000000648640000000934889410000000606406669000000097080500000000062970295500000000045508190043261800410000051000005100300410010000000000000000000000000000000000000000000000000009103724600000028900000000000000001000000000000002890000000000000000000000000000000000                  
3030002MXCDNA0R00860        0      CD  NAFF   23S    0         0000001985830000001000000000000001985830000000000102199001000000202949842200000000085148020016211800110000041000001100000410000000000000000000000000000000000000000000000000000010000000000000054670000000000000001000000000000005467000000000000000000000000000000000                  
3030002MX91KO0000D50        0      91  KOF    20     0         0000000360700000001000000000000000360700000000000097427830000000035142218300000000086898650007921800110000041000001100000410000000000000000000000000000000000000000000000000000010000000000000030000000000000000001000000000000003000000000000000000000000000000000000                  
3030011MX1RFI0Q00060        0      1R  FIMMCK 09     0         0000000151690000000385665480000000058501597000000156321867000000023712464000000000000000000000201800000000000000000000000000000000000000000000000000000000000000000000000000000003857632300000034150000000000000001000000000000003415000000000000000000000000000000000                  
3030002MX0MGO0001F10MGO0001F0      M   BONOS  290301 0         0000002932230000000998831080000002928802469000000101463755000000297515066300000000581558850011901800110000041000001100000410000000000000000000000000000000000000000000000000000010000000000004379558151000000000001000000000000350893113900000000000000000000000000000                  
3030003MX91CP0300090        0      91  CPXACB 24U    0         0000000349820000008150167400000002851091560000000939149131000000328533149000000000922482410104271800410000061000000000000000000000000000000000000000000000000000000000000000000009967000000000005778295000000000001000000000000000577829500000000000000000000000000000                  
3030011MX1REX0F00010        0      1R  EXICK  14     0         0000000004210000223122600240000000939346147000001755414318000000007390294300000000000000000003711800000000000000000000000000000000000000000000000000000000000000000000000000000000000000000000000101031000000000000000000000000000000163800000000000000000000000000000                  
3030003MX91FR0500020        0      91  FRISACB17     0         0000000076000000000612299970000000046534798000000059406378000000004514884700000000003827490023441800410000061000000000000000000000000000000000000000000000000000000000000000000006122999900000010000000000000000001000000000000001000000000000000000000000000000000000                  
3030002MX2UCB1D00042UCB1D0000      2U  CBIC006321125 0         0000000002210000006286881450000000013894008000000920801030000000002034970300000000005199410025551800110000041000001100000410000000000000000000000000000000000000000000000000000010000000000000021498080000000000001000000000000002149808000000000000000000000000000000                  
3030006MXP3706410130        28223981   GFINBURO      0         0000003476390000000451661380000001570151110000000044150000000000153482618500000000000000000000001800000000000000000000000000000000000000000000000000000000000000000000000000000000000000000006050956195000000000000000000000000608312390200000000000000000000000000000                  
3030002MX91AL2F00750        0      91  ALSEA  17-2   0         0000000017520000000953871180000000016711823000000098538527000000001726395000000000002756480006641800610040041003006100400410030000000000000000000000000000000000000000000000000010000000000000020000000000000000001000000000000002000000000000000000000000000000000000                  
3030006MX01RL0000160        0      1   RLH    A      0         0000006256770000000138741100000000868071173000000016750000000000104800897500000000000000000000001800000000000000000000000000000000000000000000000000000000000000000000000000000000000000000001249145002000000000000000000000000111591852600000000000000000000000000000                  
3030011MX1RIN3100250        0      1R  INFRACK17     0         0000000003230000469281836220000001515780331000050769742780000000163986269200000000000000000145091800000000000000000000000000000000000000000000000000000000000000000000000000000000000000000000000031141000000000000000000000000000000389800000000000000000000000000000                  
3030002USP3691NBM130        0      D2SPLIVEM13370122 0         0000000015240000206565098430000003148052100000019650932960000000299480218300000000646276660040741800110360041035001103600410350000000000000000000000000000000000000000000000000100000000000000000500000000000000010000000000000000050000000000000000000000000000000000                  
3030007IE00B4L5YX210        0      1ISPIJPA   N      0         0000000681000000010320296330000007028121800000001255429140000000854947244300000000000000000000001600000000000000000000000000000000000000000000000000000000000000000000000000000000000000000000100385796000000000000000000000000009627948300000000000000000000000000000                  
3030011MX1RCA1S00150        0      1R  CARZACK18     0         0000275707230000000001015400000000279953480000000000056543000000015589313900000000000000000007881800000000000000000000000000000000000000000000000000000000000000000000000000000000000000000024199495862000000000000000000000000000494000000000000000000000000000000000                  
3030002MX0SGO0000E30        0      S   UDIBONO461108 0         0000000471880000006821116550000003218748478000000809798869000000382127890300000000789461560076511800110000041000001100000410000000000000000000000000000000000000000000000000000010000000000000423454300000000000001000000000000040612403900000000000000000000000000000                  
3030011MX1RAC1700160        0      1R  ACONCK 19     0         0000000002600000066751063080000000173552764000005585997531000000014523593600000000000000000003611800000000000000000000000000000000000000000000000000000000000000000000000000000000000000000000000126994000000000000000000000000000000900000000000000000000000000000000                  
3030011MXCFAG0600160        0      CF  AGRO   22     0         0000000198040000000400000000000000079216000000000021190000000000004196467600000000000000000000001800000000000000000000000000000000000000000000000000000000000000000000000000000000000000000000028082400000000000000000000000000002808240000000000000000000000000000000                  
3030002MX95CF0500C20        0      95  CFE    20-2   0         0000000122980000001000000000000000122980000000000099993932000000012297253800000000011456950003231800110000041000004100000510000000000000000000000000000000000000000000000000000010000000000000032750000000000000001000000000000003275000000000000000000000000000000000                  
3030011MX1RCA2600070        0      1R  CATMRCK17     0         0000002656040000000167018610000000443608101000000009690134000000025737383500000000000000000006201800000000000000000000000000000000000000000000000000000000000000000000000000000000000000000000378286039000000000000000000000000001151850000000000000000000000000000000                  
3030003MX91TO0000G90        0      91  TOYOTA 24-2   0         0000000677980000001000000000000000677980000000000105158881000000071295618100000000028106070010781800110000041000001100000410000000000000000000000000000000000000000000000000000010000000000000010000000000000000001000000000000001000000000000000000000000000000000000                  
3030006MXP0016610180        26393491   ASUR   B      0         0000000635660000004671697670000002969611344000000552050000000000350916103000000000000000000000001800000000000000000000000000000120251126000001000000000000000000015000000000000000000000000000277050000000000000000000000000000030000000000000000000000000000000000000                  
3030006MXP4952112620        23924711   BIMBO  A      0         0000001429530000000562358840000000803908840000000057590000000000082326632700000000000000000000001800000000000000000000000000000000000000000000000000000000000000000000000000000000000000000004304744119000000000000000000000000432748233300000000000000000000000000000                  
3030006MX01TE0A00010        0      1   TEAK   CPO    0         0000001321020000000118910230000000157082790000000000253000000000000334218100000000000000000000001800000000000000000000000000000000000000000000000000000000000000000000000000000000000000000000374359656000000000000000000000000145211195400000000000000000000000000000                  
3030011MX1RGR0500090        0      1R  GRANDCK18     0         0000040000020000000007346160000000293846655000000000800410000000032016416000000000000000000009931800000000000000000000000000000000000000000000000000000000000000000000000000000000000000000005445090577000000000000000000000000000800000000000000000000000000000000000                  
3030006MX01VI0C00060        0      1   VISTA  A      0         0000000160190000001716356080000000274943081000000888250000000000142288767500000000000000000000001800000000000000000000000000000000000000000000000000000000000000000000000000000000000000000000104256410000000000000000000000000009519588500000000000000000000000000000                  
3030002MX95CF0500A60        0      95  CFE    17U    0         0000000021160000005831077790000000123385606000000831421448000000017592877800000000011250430024991800110000041000004100000510000000000000000000000000000000000000000000000000000010000000000000022864142000000000001000000000000002286414200000000000000000000000000000                  
3030002MX91FU0000I10        0      91  FUNO   25-2L  0         0000000670150000001000000000000000670150000000000104457719000000070002340400000000382759930023671800410000061000004100000610000000000000000000000000000000000000000000000000000010000000000000090000000000000000001000000000000009000000000000000000000000000000000000                  
3030006MX01TR0H00060        0      1   TRAXIONA      0         0000002483800000000226648110000000562948578000000013870000000000034450306000000000000000000000001800000000000000000000000000000000000000000000000000000000000000000000000000000000000000000000555689835000000000000000000000000056195218000000000000000000000000000000                  
3030007US78463X20270        0      1ISPFEZ    *      0         0000000494770000007252999510000003588566568000001150687755000000569325780500000000000000000000000800000000000000000000000000000000000000000000000000000000000000000000000000000000000000000000075500967000000000000000000000000006500096700000000000000000000000000000                  
3030002MX91GA0000960        0      91  GAP    21-2   0         0000000575990000000977857500000000563236142000000099683871000000057416912900000000034170610008831800110000051000001100000510000000000000000000000000000000000000000000000000000010000000000000030000000000000000001000000000000003000000000000000000000000000000000000                  
3030002MX91OR0100210        0      91  ORBIA  22-2L  0         0000001799650000000999068690000001797973961000000102938924000000185254034600000000929944120025551800410010061000001100200410010000000000000000000000000000000000000000000000000010000000000000155600000000000000001000000000000015560000000000000000000000000000000000                  
3030011MX1RGA0500160        0      1RSPGAPI   18-D   0         0000004878480000001055779890000005150601084000000104069628000000507701598800000000000000000051221800000000000000000000000000000000000000000000000000000000000000000000000000000000000000000000041399999000000000000000000000000000045000000000000000000000000000000000                  
3030006MX01AM0500190        0      1   AMX    B      0         0000060027810000000144507170000008674448899000000021020000000001261784566200000000000000000000001800000000000000000000000000000000000000000000000000000000000000000000000000000000000000000060305400000000000000000000000000006103600000000000000000000000000000000000                  
3030002MXCDBA1C00C90        0      CD  BANOB  21-3X  0         0000000505330000001000000000000000505330000000000093641318000000047319767200000000072446080019291800110000041000001100000410000000000000000000000000000000000000000000000000000010000000000000043000000000000000001000000000000004300000000000000000000000000000000000                  
3030002MX91FI0V00150        0      91  FINN   18     0         0000000141140000001000000000000000141140000000000099601954000000014057819800000000043992170007971800410060061004004100600610040000000000000000000000000000000000000000000000000010000000000000032000000000000000001000000000000003200000000000000000000000000000000000                  
3030002MX91GA0000H30        0      91  GAP    24-2L  0         0000000111090000001000000000000000111090000000000102298952000000011364390600000000021777960019311800110000051000001100000510000000000000000000000000000000000000000000000000000010000000000000016151317000000000001000000000000001615131700000000000000000000000000000                  
3030011MXCFFU0000010        0      CF  FUNO   11     0         0000032751640000000246117190000008060741608000000026800000000000877743952000000000000000000000001800000000000000000000000000000000000000000000000000000000000000000000000000000000000000000003810649852000000000000000000000000381445806400000000000000000000000000000                  
3030011MX1RFC0700050        0      1R  FCICK  16     0         0000000005480000049018176460000000268619607000005700446916000000031238449100000000000000000013441800000000000000000000000000000000000000000000000000000000000000000000000000000000000000000000000692997000000000000000000000000000000700000000000000000000000000000000                  
3030002MXCDBA0300O30        0      CD  BACMEXT24-4X  0         0000003304110000001000000000000003304110000000000106268545000000351122962200000000960449600031691800510000061000001100000410000000000000000000000000000000000000000000000000000010000000000000064063532000000000001000000000000006406353200000000000000000000000000000                  
3030002MX91AM0500P30        0      91  AMX    22X    0         0000004760750000001000000000000004760750000000000102831845000000489556706100000000037768460025451800110000041000001100000410000000000000000000000000000000000000000000000000000010000000000000146791657000000000001000000000000014679165700000000000000000000000000000                  
3030001XS25530721530        0      D8  IFC1147ZERO   0         0000000014170000031500000000000000446355000000003582802421000000050768310300000000000000000080150800110280051028001102800510280000000000000000000000000000000000000000000000002500000000000000000200000000000000250000000000000000020000000000000000000000000000000000                  
3030011MX1RNE0200080        0      1R  NEXX6CK13     0         0000000044450000002643066300000000117484297000000082090000000000003648900500000000000000000002121800000000000000000000000000000000000000000000000000000000000000000000000000000000000000000000015122649000000000000000000000000000000816300000000000000000000000000000                  
3030011MXCFDA0200050        0      CF  DANHOS 13     0         0000013426240000000232841000000003126179143000000028650000000000384661776000000000000000000000001800000000000000000000000000000000000000000000000000000000000000000000000000000000000000000001604073701000000000000000000000000158230934300000000000000000000000000000                  
3030011MXCFFI0V00010        0      CF  FINN   13     0         0000019520000000000054105800000001056145285000000004710000000000091939200000000000000000000000001800000000000000000000000000001120251125000001000000100000000000000090000000000000000000000000735760773000000000000000000000000074900082600000000000000000000000000000                  
3030002USP26054AB590        0      D2SPTERRB59290718 0         0000000009820000170863618530000001677880734000018336916524000000180068520300000000320285780013291800510370041036000000000000000000000000000000000000000000000000000000000000000100000000000000000500000000000000010000000000000000050000000000000000000000000000000000                  
3030011MX1RBL0200030        0      1RSPBLKCPI 18     0         0000002902520000001495333290000004340234780000000134142695000000389351855100000000000000000028471800000000000000000000000000000000000000000000000000000000000000000000000000000000000000000000027149956000000000000000000000000000055000000000000000000000000000000000                  
3030002MX91FI1700170        0      91SPFIBRAPL21DV   0         0000000007140000020183500000000000144110190000001668143039000000011910541300000000004071070019721800410000061000001100000410000000000000000000000000000000000000000000000000000010000000000000000700000000000000001000000000000000070000000000000000000000000000000000                  
3030002MX91DA0200060        0      91  DANHOS 16     0         0000000127090000001000000000000000127090000000000099567738000000012654063800000000041304250002141800410000061000004100000610000000000000000000000000000000000000000000000000000010000000000000030000000000000000001000000000000003000000000000000000000000000000000000                  
3030002MX91KO0000F00        0      91  KOF    21L    0         0000000067030000001000000000000000067030000000000098188243000000006581557900000000009592740010221800510000061000001100000410000000000000000000000000000000000000000000000000000010000000000000069650000000000000001000000000000006965000000000000000000000000000000000                  
3030003MX95CI0Y00020        0      95  CIENCB 15     0         0000000548430000000824502840000000452182095000000081940689000000044938732100000000145507030047921800110000041000004100300000000000000000000000000000000000000000000000000000000008528000000000400000000000000000001000000000000040000000000000000000000000000000000000                  
3030002MX94BI0000G30        0      94  BINTER 16U    0         0000000023470000005476172900000000128525778000000863269329000000020260931200000000015612010003081800410000061000005100500410040000000000000000000000000000000000000000000000000010000000000000003652185000000000001000000000000000365218500000000000000000000000000000                  
3030011MX1RRR0000010        0      1R  RRGCK  18     0         0000160378390000000026962300000004324170345000000002889038000000463339263100000000000000000026861800000000000000000000000000000000000000000000000000000000000000000000000000000000000000000001483553325000000000000000000000000000800000000000000000000000000000000000                  
3030011MXFFFE0K00060        0      FF  FEXI   21     0         0000012103600000000190000000000002299684000000000017500000000000211813000000000000000000000000001800000000000000000000000000000000000000000000000000000000000000000000000000000000000000000001166260453000000000000000000000000116626045300000000000000000000000000000                  
3030011MX1RTH0000190        0      1R  THERMCK19     0         0000000000740000336482558110000000248997093000028747664734000000021273271900000000000000000005541800000000000000000000000000000000000000000000000000000000000000000000000000000000000000000000000036521000000000000000000000000000000600200000000000000000000000000000                  
3030011MX1RIG0700080        0      1R  IGS3CK 17     0         0000641816200000000000748740000000480553718000000000106728000000068499759400000000000000000005291800000000000000000000000000000000000000000000000000000000000000000000000000000000000000000062772097640000000000000000000000000000540000000000000000000000000000000000                  
3030007US81369Y10010        0      1ISPXLB    *      0         0000000091050000017107610090000001557647899000001630553715000000148461915800000000000000000000000800000000000000000000000000000000000000000000000000000000000000000000000000000000000000000000057823725000000000000000000000000006492372500000000000000000000000000000                  
3030002US91086QBE700        0      D1SPMEXE70 450121 0         0000000000360000170672522220000000061442108000017085631168000000006150827200000000012827610069951800410370011036004103700110360000000000000000000000000000000000000000000000000100000000000000002764306000000000010000000000000000276430600000000000000000000000000000                  
3030004MX91LA0100640        0      91  LAB    23-2   0         0000001020990000000999986310000001020976022000000100379432000000102486396300000000037844730004881800410010061001004100100610010000000000000000000000000000000000000000000000000010000000000000022000000000000000001000000000000002200000000000000000000000000000000000                  
3030011MXFFFM0400120        0      FF  FMX    23     0         0000001610790000002485213660000004003157318000000035310000000000056876994900000000000000000000001800000000000000000000000000000000000000000000000000000000000000000000000000000000000000000000418124540000000000000000000000000026527647500000000000000000000000000000                  
3030002MX91OM0000350        0      91  OMA    21-2   0         0000000349440000001000000000000000349440000000000099428905000000034744436600000000036481540008621800410000051000004100000510000000000000000000000000000000000000000000000000000010000000000000025000000000000000001000000000000002500000000000000000000000000000000000                  
3030003MX95CD0000770        0      95  CDVITOT14U    0         0000000010770000000151088950000000001627228000000024554730000000000264454400000000000243280060801800510000061000000000000000000000000000000000000000000000000000000000000000000000294242300000005541417000000000001000000000000000554141700000000000000000000000000000                  
3030011MXFEFC0C00030        0      FE  FCFE   18     0         0000034891310000000236648690000008256982910000000021800000000000760630558000000000000000000000001800000000000000000000000000000000000000000000000000000000000000000000000000000000000000000000853195411000000000000000000000000085319541100000000000000000000000000000                  
3030002MX95CF0500X80        0      95  CFE    25UX   0         0000000726650000008429136000000006125031674000000893418409000000649202486900000000521654840041371800110000041000004100000510000000000000000000000000000000000000000000000000000010000000000000008269108000000000001000000000000000826910800000000000000000000000000000                  
3030011MX1RPM0500110        0      1R  PMCAPCK20     0         0000006654970000000068242310000000454150522000000005504920000000036635077500000000000000000015101800000000000000000000000000000000000000000000000000000000000000000000000000000000000000000000880638703000000000000000000000000000012000000000000000000000000000000000                  
3030003MX95CF1600A30        0      95  CFECB  12     0         0000000336720000000566811080000000190856626000000051935663000000017487776400000000032649380061081800410000051000004100000510000000000000000000000000000000000000000000000000000005666666700000135000000000000000001000000000000013500000000000000000000000000000000000                  
3030002MX94HS0M00D80        0      94SPHSBC   24D    0         0000000108320000016784500000000001818097040000001864935099000000202009769900000000045617470005301800410000051000001100000410000000000000000000000000000000000000000000000000000010000000000000001500000000000000001000000000000000150000000000000000000000000000000000                  
3030011MX1RNG0100070        0      1R  NGPE2CK17     0         0000028197620000000011619280000000327635929000000001308440000000036894893900000000000000000007341800000000000000000000000000000000000000000000000000000000000000000000000000000000000000000001600799930000000000000000000000000000266666600000000000000000000000000000                  
3030002MX94BB1U00470        0      94  BBVAMX 23-3   0         0000001195570000001000000000000001195570000000000105874961000000126580927100000000071415340017991800110000041000001100000410000000000000000000000000000000000000000000000000000010000000000000036000000000000000001000000000000003600000000000000000000000000000000000                  
3030006MX01R00000060        0      1   R      A      0         0000001435600000001285509310000001845477164000000139130000000000199735028000000000000000000000001800000000000000000000000000000120251126000001000000000000000000003350000000000000000000000000327931333000000000000000000000000038924841900000000000000000000000000000                  
3030002MX0MGO0001E40MGO0001E0      M   BONOS  530731 0         0000050456420000000868603990000043826647978000000087088033000004394150370000000009418533420101081800110000041000001100000410000000000000000000000000000000000000000000000000000010000000000004355900795000000000001000000000000344441494800000000000000000000000000000                  
3030003MX91TO0000C80        0      91  TOYOTA 22-2   0         0000000791340000001000000000000000791340000000000101296744000000080160165400000000294765370004141800110000041000001100000410000000000000000000000000000000000000000000000000000010000000000000010000000000000000001000000000000001000000000000000000000000000000000000                  
3030002MX91AM0500R90        0      91  AMX    22UX   0         0000000315220000007610446000000002398964788000000884673849000000278866890700000000010939110043651800110000041000001100000410000000000000000000000000000000000000000000000000000010000000000000013262478000000000001000000000000001326247800000000000000000000000000000                  
3030011MX1RVE0T00090        0      1R  VEXCK  17     0         0000004573400000000033721020000000154219690000000002698355000000012340656800000000000000000006511800000000000000000000000000000000000000000000000000000000000000000000000000000000000000000000680599922000000000000000000000000000600000000000000000000000000000000000                  
3030002MX91ED0900210        0      91  EDUCA  23UL   0         0000000299500000007852133990000002351714130000000936719424000000280547467500000000496056850028071800510010061000005100100610000000000000000000000000000000000000000000000000000010000000000000006505847000000000001000000000000000650584700000000000000000000000000000                  
3030002MX91OR0100470        0      91  ORBIA  25-2   0         0000004551190000001000000000000004551190000000000107550763000000489483957100000000711806120034101800410010061000001100200410010000000000000000000000000000000000000000000000000010000000000000030341250000000000001000000000000003034125000000000000000000000000000000                  
3030002MX94BA0A00100        0      94  BACOMER07U    0         0000000078180000003886013230000000303808514000000862625845000000067440088600000000114054280002241800410000051000001100000410000000000000000000000000000000000000000000000000000010000000000000022403077000000000001000000000000002240307700000000000000000000000000000                  
3030006MX01CT0G00090        0      1   CTALPEKA      0         0000009685700000000032261560000000312475745000000002810000000000027216817000000000000000000000001800000000000000000000000000000000000000000000000000000000000000000000000000000000000000000005558536508000000000000000000000000555853650800000000000000000000000000000                  
3030011MX1RLE0300090        0      1RSPLEXPI  18D    0         0000011427400000000687032830000007850998904000000068814460000000786370360200000000000000000065741800000000000000000000000000000000000000000000000000000000000000000000000000000000000000000000072926987000000000000000000000000000032800000000000000000000000000000000                  
3030011MX1RRS0200080        0      1R  RSRENCK17     0         0005293782810000000000095250000000504230629000000000010307000000054563019400000000000000000007291800000000000000000000000000000000000000000000000000000000000000000000000000000000000000000753109040632000000000000000000000000001600000000000000000000000000000000000                  
3030002MX91AC1J00300        0      91  ACBE   21-2V  0         0000000517620000001000000000000000517620000000000096836195000000050124351300000000022322360008871800110000041000001100000410000000000000000000000000000000000000000000000000000010000000000000030000000000000000001000000000000003000000000000000000000000000000000000                  
3030002MX91GA0000D20        0      91  GAP    22-2   0         0000000757280000001000000000000000757280000000000103358604000000078271403600000000156628680022891800110000051000001100000510000000000000000000000000000000000000000000000000000010000000000000060000000000000000001000000000000003000000000000000000000000000000000000                  
3030003MX91PR1C00170        0      91  PROIN  10     0         0000000068880000000431063560000000029691658000000042292214000000002913087700000000005899230017351800110000041000001100400410040000000000000000000000000000000000000000000000000004310635300000027650000000000000001000000000000002765000000000000000000000000000000000                  
3030002MXCDBA1C01520        0      CD  BANOB  25-2X  0         0000000049870000001000000000000000049870000000000101208907000000005047288200000000002110050043521800110000041000001100000410000000000000000000000000000000000000000000000000000010000000000000102000000000000000001000000000000010200000000000000000000000000000000000                  
3030011MX1RLE0300170        0      1RSPLEXPI  22D    0         0000000081340000018129807890000001474678574000002177762564000000177139207000000000000000000041411800000000000000000000000000000000000000000000000000000000000000000000000000000000000000000000001112717000000000000000000000000000000260000000000000000000000000000000                  
3030006MX01GC2M00060        29466631   GCC    *      0         0000001089490000001704082420000001856580760000000180420000000000196565785800000000000000000000001800000000000000000000000000000000000000000000000000000000000000000000000000000000000000000000337400000000000000000000000000000033740000000000000000000000000000000000                  
3030002MX91AC1J00480        0      91  ACBE   24-2L  0         0000002594560000001000000000000002594560000000000104850022000000272039673100000000369148290023141800110000041000001100000410000000000000000000000000000000000000000000000000000010000000000000064000000000000000001000000000000006400000000000000000000000000000000000                  
3030002MX91TL0000310        0      91  TLEVISA17     0         0000000314870000001005296180000000316537607000000098479433000000031008219100000000045359640006691800410010011000005100200410010000000000000000000000000000000000000000000000000010000000000000045000000000000000001000000000000004500000000000000000000000000000000000                  
3030002MX0SGO0000M60        0      S   UDIBONO261203 0         0000001854290000008327813810000015442181868000000859191025000001593189325700000002326689110003711800110000041000001100000410000000000000000000000000000000000000000000000000000010000000000000407413571000000000001000000000000048988557000000000000000000000000000000                  
3030002MX0SGO0000980        0      S   UDIBONO401115 0         0000006209130000007392402260000045900386629000000815256376000005062032821900000010387957690054671800110000041000001100000410000000000000000000000000000000000000000000000000000010000000000000446926530000000000001000000000000045639201700000000000000000000000000000                  
3030011MX1RPB0300080        0      1R  PBFF1CK12     0         0000000071390000000485233520000000034640821000000055175173000000003938955600000000000000000002481800000000000000000000000000000000000000000000000000000000000000000000000000000009306830400000026812471000000000001000000000000000422000000000000000000000000000000000                  
3030002USP30179BQ040        0      D2SPCFELQ04290515 0         0000000002070000204768038160000000423869839000018140085252000000037549976500000000005933610012651800410370011036004103700110360000000000000000000000000000000000000000000000000100000000000000001250000000000000010000000000000000125000000000000000000000000000000000                  
3030002XS26160755730        0      JI  CABEI  2-23S  0         0000001538320000000970862130000001493496627000000101210566000000155694237900000000711716520027351800110000051000001100000410000000000000000000000000000000000000000000000000000010000000000000035000000000000000001000000000000003500000000000000000000000000000000000                  
3030002MX91BI0Y00C60        0      91  BIMBO  25     0         0000003115000000001000000000000003115000000000000105512909000000328672711500000000905288150022621800110000041000005100200110000000000000000000000000000000000000000000000000000010000000000000127620000000000000001000000000000012762000000000000000000000000000000000                  
3030011MX1RAR1E00010        0      1RSPARAGOPI20D    0         0000001375670000001263818440000001738597114000000099078508000000136299331100000000000000000035201800000000000000000000000000000000000000000000000000000000000000000000000000000000000000000000020139982000000000000000000000000000030000000000000000000000000000000000                  
3030002MX0SGO0000H60        0      S   UDIBONO501103 0         0000006244880000007229838070000045149471149000000806945353000005039276896000000010447767920091071800110000041000001100000410000000000000000000000000000000000000000000000000000010000000000000665309292000000000001000000000000067568909900000000000000000000000000000                  
3030011MX1REX0I00160        0      1R  EXICPI 19     0         0000000109460000010000000000000001094600000000001715672409000000187797501900000000000000000028551800000000000000000000000000000000000000000000000000000000000000000000000000000000000000000000000550000000000000000000000000000000055000000000000000000000000000000000                  
3030002MX95CF0500S80        0      95  CFE    23-3X  0         0000000183130000000990375390000000181367445000000108135694000000019802889600000000094641580015581800110000041000004100000510000000000000000000000000000000000000000000000000000010000000000000059928782000000000001000000000000005992878200000000000000000000000000000                  
3030002MX90GD0200010        0      90  GDFECB 12     0         0000000122130000001001033670000000122256242000000099818740000000012190862700000000003021020007151800410000051000004100000510000000000000000000000000000000000000000000000000000010000000000000025000000000000000001000000000000002500000000000000000000000000000000000                  
3030011MX1RCI0C00090        0      1R  CI3CK  11     0         0000000093790000000459409830000000043088048000000009556275000000000896283000000000000000000000001800000000000000000000000000000000000000000000000000000000000000000000000000000004594098200000015300000000000000001000000000000001530000000000000000000000000000000000                  
3030006MX01AC1000060        28238851   AC     *      0         0000002333530000001849671340000004316263563000000182890000000000426779301700000000000000000000001800000000000000000000000000000000000000000000000000000000000000000000000000000000000000000001698192061000000000000000000000000169819206100000000000000000000000000000                  
3030006MXP3708410190        26436741   GMEXICOB      0         0000010620090000000923838980000009811253085000000158270000000001680841644300000000000000000000001800000000000000000000000000000000000000000000000000000000000000000000000000000000000000000007785000000000000000000000000000000778500000000000000000000000000000000000                  
3030003MX95MX0E00120        0      95  MXPUCB 18U    0         0000000116950000005136278090000000600687723000000743541131000000086957135300000000151243150044421800410000061000000000000000000000000000000000000000000000000000000000000000000008538000000000027376210000000000001000000000000002737621000000000000000000000000000000                  
3030002MX2UCB1700012UCB170000      2U  CBIC002300117 0         0000000000540000005682959260000000003068798000000979832981000000000529109800000000000914720015121800110000041000001100000410000000000000000000000000000000000000000000000000000010000000000000034826576000000000001000000000000003482657600000000000000000000000000000                  
3030006MXP2256115670        24064571   CEMEX  CPO    0         0000057301760000000126718740000007261206657000000019340000000001108216038400000000000000000000001800000000000000000000000000000000000000000000000000000000000000000000000000000000000000000015137459907000000000000000000000001513745990700000000000000000000000000000                  
3030002MX91SA1R00100        0      91  SAKLY  25-2   0         0000004247520000001000000000000004247520000000000100444038000000426638060300000000160721480025341800410000061000000000000000000000000000000000000000000000000000000000000000000010000000000000022000000000000000001000000000000002200000000000000000000000000000000000                  
3030003MX95TF0300990        0      95  TFOVICB21U    0         0000000239050000004178863010000000998957202000000500848543000000119727844200000000033668850091941800410000061000001100000000000000000000000000000000000000000000000000000000000006015745600000014395651000000000001000000000000001439565100000000000000000000000000000                  
3030003MX91ZO0000300        0      91  ZONALCB06-2U  0         0000000004970000001878910060000000009338183000000438382917000000002178763100000000005640220033041800410040061004000000000000000000000000000000000000000000000000000000000000000005297076400000000846958000000000001000000000000000084695800000000000000000000000000000                  
3030011MX1RAR0Z00070        0      1R  ARTHACK10     0         0000000058250000000544406590000000031711684000000111190840000000006476866400000000000000000000001800000000000000000000000000000000000000000000000000000000000000000000000000000005444066000000024400000000000000001000000000000002440000000000000000000000000000000000                  
3030011MX1RAM2000010        0      1R  AMICK  18     0         0000063749490000000100969330000006436743013000000009739557000000620891791600000000000000000081001800000000000000000000000000000000000000000000000000000000000000000000000000000000000000000000247600034000000000000000000000000000500000000000000000000000000000000000                  
3030011MX1RBX0C00260        0      1RSPBXMXPI 18-3D  0         0000000153480000019918861700000003057146894000002942445542000000451606541800000000000000000084151800000000000000000000000000000000000000000000000000000000000000000000000000000000000000000000000559281000000000000000000000000000020000000000000000000000000000000000                  
3030002MX95CF0500U40        0      95  CFE    24UX   0         0000000058560000008335986000000000488155340000000962223929000000056347833300000000162210290032911800110000041000004100000510000000000000000000000000000000000000000000000000000010000000000000004370744000000000001000000000000000437074400000000000000000000000000000                  
3030002MX94BS0600A20        0      94  BSMX   23-2   0         0000001560020000001000000000000001560020000000000103118873000000160867504300000000257117350026681800410000051000004100000510000000000000000000000000000000000000000000000000000010000000000000032300000000000000001000000000000003230000000000000000000000000000000000                  
3030003MX91CA1100140        0      91  CASCB  22U    0         0000000352340000007368805570000002596324953000000842059267000000296691162100000000047284940096661800410000061000004100000610000000000000000000000000000000000000000000000000000009703000000000006847188000000000001000000000000000684718800000000000000000000000000000                  
3030002USP3691NBF610        0      D2SPLIVEF61261006 0         0000000007500000174512975870000001308847319000018295836242000000137218771800000000075523630003131800110360041035001103600410350000000000000000000000000000000000000000000000000100000000000000000525144000000000010000000000000000052514400000000000000000000000000000                  
3030006MX01VE0M00030        0      1   VESTA  *      0         0000002891140000000478320540000001382891639000000057520000000000166298372800000000000000000000001800000000000000000000000000000000000000000000000000000000000000000000000000000000000000000000882613451000000000000000000000000088248722500000000000000000000000000000                  
3030002MX0MGO0000B20        0      M   BONOS  361120 0         0000000876730000001139974070000000999449469000000107596505000000094333083800000000426188180040111800110000041000001100000410000000000000000000000000000000000000000000000000000010000000000000941343545000000000001000000000000090943008700000000000000000000000000000                  
3030011MX1RF10000030        0      1R  F1CC   15     0         0000000090730000000327586220000000029721897000000059965327000000005440654100000000000000000002091800000000000000000000000000000000000000000000000000000000000000000000000000000010000000000000115999985000000000001000000000000001200000000000000000000000000000000000                  
3030011MX1RAC1700080        0      1R  ACONCK 14     0         0000000001270000124405616540000000157995133000008523793097000000010825217200000000000000000003611800000000000000000000000000000000000000000000000000000000000000000000000000000000000000000000000161501000000000000000000000000000000400000000000000000000000000000000                  
3030002MX91SI0100850        0      91  SIGMA  24-3   0         0000002589240000001000000000000002589240000000000105163777000000272294258000000000112200310038071800410000051000001100000410000000000000000000000000000000000000000000000000000010000000000000048000000000000000001000000000000004800000000000000000000000000000000000                  
3030011MX1RIN3900010        0      1R  INMOBCK18     0         0008619195510000000000081270000000700465834000000000008978000000077383137300000000000000000009711800000000000000000000000000000000000000000000000000000000000000000000000000000000000000000334185209684000000000000000000000000000550000000000000000000000000000000000                  
3030002MX91KO0000B90        0      91  KOF    17     0         0000000107780000001000000000000000107780000000000099497736000000010723866000000000037699050005681800110000051000001100000410000000000000000000000000000000000000000000000000000010000000000000085000000000000000001000000000000008500000000000000000000000000000000000                  
3030003MX91ZO0000060        0      91  ZONALCB06U    0         0000000018570000000484498870000000008997144000000102589523000000001905087400000000004985300029391800410010061001000000000000000000000000000000000000000000000000000000000000000001253072400000004092038000000000001000000000000000329158000000000000000000000000000000                  
3030011MX1RKK0100380        0      1RSPKKRPI  18D    0         0000000208290000020342250380000004237087331000002717039220000000565932099100000000000000000157131800000000000000000000000000000000000000000000000000000000000000000000000000000000000000000000000799978000000000000000000000000000020000000000000000000000000000000000                  
3030002MX91HE0100660        0      91  HERDEZ 17     0         0000000007070000000965294200000000006824630000000101016534000000000714186900000000000126750005391800110020041002001100300410020000000000000000000000000000000000000000000000000010000000000000020000000000000000001000000000000002000000000000000000000000000000000000                  
3030002US191241AJ700        0      D2SPKOFJ70 320901 0         0000000002500000167720020400000000419300051000015489763192000000038724408000000000020267020024701800510340041033001103400510340000000000000000000000000000000000000000000000000100000000000000000705000000000000010000000000000000070500000000000000000000000000000000                  
3030011MX1RLO0800360        0      1RSPLOCKXPI22-4   0         0000000161010000018604817770000002995561709000002098612957000000337897672200000000000000000022411800000000000000000000000000000000000000000000000000000000000000000000000000000000000000000000000811459000000000000000000000000000000095700000000000000000000000000000                  
3030002MX91KO0000H60        0      91  KOF    22S    0         0000001574470000001000000000000001574470000000000105279461000000165759353000000000226286290014041800110000051000001100000410000000000000000000000000000000000000000000000000000010000000000000055000000000000000001000000000000005500000000000000000000000000000000000                  
3030002MX91HE0100820        0      91  HERDEZ 20     0         0000000286700000000948947490000000272063245000000091565468000000026251819700000000061959050017201800110020041002001100300410020000000000000000000000000000000000000000000000000010000000000000025000000000000000001000000000000002500000000000000000000000000000000000                  
3030011MX1RTU0500090        0      1R  TUCK   18     0         0000039319030000000067861060000002668230920000000005342861000000210076111900000000000000000081101800000000000000000000000000000000000000000000000000000000000000000000000000000000000000000000368399958000000000000000000000000000500000000000000000000000000000000000                  
3030002MX0MGO0000P20        0      M   BONOS  310529 0         0000000742020000000964155230000000715422461000000097191338000000072117916600000000279545720020091800110000041000001100000410000000000000000000000000000000000000000000000000000010000000000004771900237000000000001000000000000381893550600000000000000000000000000000                  
3030011MXFFFV0000070        0      FF  FVIA   16     0         0000001625700000000298323050000000484983787000000018950000000000030807015000000000000000000000001800000000000000000000000000000000000000000000000000000000000000000000000000000000000000000001231460484000000000000000000000000123146048400000000000000000000000000000                  
3030006MX01Q00000080        0      1   Q      *      0         0000000179280000001661094490000000297801021000000180660000000000032388724800000000000000000000001800000000000000000000000000000000000000000000000000000000000000000000000000000000000000000000400000000000000000000000000000000040000000000000000000000000000000000000                  
3030002MX91SI0100770        0      91  SIGMA  24-2   0         0000004040600000001000000000000004040600000000000103657828000000418839819800000000879952980030141800410000051000001100000410000000000000000000000000000000000000000000000000000010000000000000084800000000000000001000000000000008480000000000000000000000000000000000                  
3030011MX1RPL0Q00090        0      1R  PLA2CK 17     0         0000014921890000000027881710000000416047753000000000764231000000011403770900000000000000000005231800000000000000000000000000000000000000000000000000000000000000000000000000000000000000000001521485188000000000000000000000000000884400000000000000000000000000000000                  
3030002MX94BB1U00130        0      94  BBVAMX 23     0         0000003327270000001000000000000003327270000000000104648183000000348192759900000000890543820015371800110000041000001100000410000000000000000000000000000000000000000000000000000010000000000000061310000000000000001000000000000006131000000000000000000000000000000000                  
3030002MX95CF0500T60        0      95  CFE    23UX   0         0000000270600000007939585410000002148451811000000909050454000000245989052900000000674613650036511800110000041000004100000510000000000000000000000000000000000000000000000000000010000000000000005823507000000000001000000000000000582350700000000000000000000000000000                  
3030002MX95CF0500700        0      95  CFE    15U    0         0000000031860000005351250970000000170490856000000856363976000000027283756300000000004991370007131800110000041000004100000510000000000000000000000000000000000000000000000000000010000000000000009343609000000000001000000000000000934360900000000000000000000000000000                  
3030011MX1RPL0400050        0      1R  PLANICK12     0         0000000085210000000077614260000000006613511000000001890000000000000161046900000000000000000000031800000000000000000000000000000000000000000000000000000000000000000000000000000010000000000000011545200000000000001000000000000002475200000000000000000000000000000000                  
3030002USP29595AD080        0      D2SPCFELD08310209 0         0000000003200000201355000000000000644336000000016562822164000000053001030900000000058957480019001800410370011036004103700110360000000000000000000000000000000000000000000000000100000000000000001200000000000000010000000000000000120000000000000000000000000000000000                  
3030006MX41BB0000000        0      41  BBAJIO O      0         0000000932550000000369224630000000344320425000000047150000000000043969732500000000000000000000001800000000000000000000000000000000000000000000000000000000000000000000000000000000000000000001189931687000000000000000000000000118993168700000000000000000000000000000                  
3030002MX91LI0500960        0      91  LIVEPOL20     0         0000001945920000000905492670000001762016299000000095403326000000185647240100000000464431560017131800110000041000001100000410000000000000000000000000000000000000000000000000000010000000000000050000000000000000001000000000000005000000000000000000000000000000000000                  
3030006MX01LA0500100        0      1   LACOMERUBC    0         0000002366640000000376166740000000890251254000000040750000000000096440580000000000000000000000001800000000000000000000000000000000000000000000000000000000000000000000000000000000000000000000500679496000000000000000000000000049990540000000000000000000000000000000                  
3030002MX95CF0500O70        0      95  CFE    222UV  0         0000000139240000008597406080000001197102822000001004384099000000139850441900000000029072210061751800410000051000004100000510000000000000000000000000000000000000000000000000000010000000000000004344727000000000001000000000000000434472700000000000000000000000000000                  
3030011MX1REX0I00080        0      1R  EXICPI 18     0         0000048714600000000089343650000004352340187000000010142332000000494079646400000000000000000028551800000000000000000000000000000000000000000000000000000000000000000000000000000000000000000000246799983000000000000000000000000000600000000000000000000000000000000000                  
3030011MX1RPR1M00170        0      1R  PRANACK15-2   0         0000001221130000000256048550000000312668564000000010892200000000013300792200000000000000000000001800000000000000000000000000000000000000000000000000000000000000000000000000000000000000000000125937105000000000000000000000000000577476000000000000000000000000000000                  
3030002MX95CF0500P40        0      95  CFE    22UV   0         0000000232410000007914033940000001839300627000000920688427000000213977197300000000045492540026571800110000041000004100000510000000000000000000000000000000000000000000000000000010000000000000007701097000000000001000000000000000770109700000000000000000000000000000                  
3030003MX91AC0P00170        0      91  ACOSTCB15     0         0000000133140000000637274250000000084846693000000060343630000000008034150900000000002262580033671800410000061000000000000000000000000000000000000000000000000000000000000000000006372742600000030000000000000000001000000000000003000000000000000000000000000000000000                  
3030002MX95FO0M00070        0      95  FONADIN20-2U  0         0000000055030000006600247990000000363211647000000721236590000000039689649500000000055681470055161800110000041000001100000410000000000000000000000000000000000000000000000000000010000000000000014204714000000000001000000000000001420471400000000000000000000000000000                  
3030003MX91FI1700090        0      91SPFIBRAPL20DV   0         0000000057880000019845500000000001148657540000001684954527000000097525168000000000215069440025531800410000061000001100000410000000000000000000000000000000000000000000000000000010000000000000003750000000000000001000000000000000375000000000000000000000000000000000                  
3030011MX1RCA2700060        0      1R  CAT2CK 15     0         0000008745350000000107368410000000938974306000000004935000000000043158302200000000000000000003051800000000000000000000000000001120251126000001000000000000000000000130000000000000000000000001187499901000000000000000000000000002550000000000000000000000000000000000                  
3030002MX91FU0000850        0      91  FUNO   17     0         0000000216650000000971203240000000210411182000000099979033000000021660457500000000098551680007321800410000061000004100000610000000000000000000000000000000000000000000000000000010000000000000047996000000000000001000000000000004799600000000000000000000000000000000                  
3030011MXCFSO0F00020        0      CF  SOMA   21     0         0000006365140000000500000000000003182570000000000054000000000000343717560000000000000000000000001800000000000000000000000000000000000000000000000000000000000000000000000000000000000000000000989656721000000000000000000000000088962864000000000000000000000000000000                  
3030011MX1RTH0000010        0      1R  THERMCK17     0         0000004024140000000105376430000000424049517000000007535761000000030324957300000000000000000005541800000000000000000000000000000000000000000000000000000000000000000000000000000000000000000000307739691000000000000000000000000000661250000000000000000000000000000000                  
3030002MX94BB1U00620        0      94  BBVAMX 24-2   0         0000006028690000000998687160000006020775284000000105720752000000637357640400000000831959220019541800110000041000001100000410000000000000000000000000000000000000000000000000000010000000000000128860000000000000001000000000000012886000000000000000000000000000000000                  
3030007US46654Q60980        0      1ISPJGRO   US     0         0000000206200000017402857490000003588469215000001714933815000000353619352700000000000000000000000800000000000000000000000000000000000000000000000000000000000000000000000000000000000000000000088100000000000000000000000000000008045000000000000000000000000000000000                  
3030006MX01GA0000040        B0ZV1041   GAP    B      0         0000001694360000003462206060000005866223456000000434790000000000736690784400000000000000000000001800000000000000000000000000000000000000000000000000000000000000000000000000000000000000000000429485845000000000000000000000000056100000000000000000000000000000000000                  
3030002USP3146DAB930        0      D2SPVESTB93330130 0         0000000008800000184005114320000001619245006000018477224123000000162599572300000000140572360026211800110370041037001103700410370000000000000000000000000000000000000000000000000100000000000000000500000000000000010000000000000000050000000000000000000000000000000000                  
3030002USP4948KAH880        0      D2SPGRUMH88341209 0         0000000015000000201818772410000003027281586000018819724773000000282295871600000000692100260032991800110360041035001103600410360000000000000000000000000000000000000000000000000100000000000000000500000000000000010000000000000000050000000000000000000000000000000000                  
3030003MX95TF0300080        0      95  TFOVICB15U    0         0000000048190000001087975260000000052429528000000175787791000000008471213600000000002345910070011800110000041000001100000000000000000000000000000000000000000000000000000000000002046851900000019259506000000000001000000000000001925950600000000000000000000000000000                  
3030002MX0SGO0000P90SGO0000P0      S   UDIBONO340824 0         0000003700390000007914133140000029285379141000000827973169000003063823634800000002971584870031921800110000041000001100000410000000000000000000000000000000000000000000000000000010000000000000346714898000000000001000000000000018215743800000000000000000000000000000                  
3030011MX1RBL0300100        0      1RSPBLKAGPI23D    0         0000001222720000002329006760000002847723143000000289989934000000354576492100000000000000000029311800000000000000000000000000000000000000000000000000000000000000000000000000000000000000000000004220984000000000000000000000000000022500000000000000000000000000000000                  
3030011MX1RCL0100110        0      1R  CLNYCK 15-2   0         0000000506770000000606947610000000307582842000000000528095000000000267622700000000000000000003071800000000000000000000000000000000000000000000000000000000000000000000000000000000000000000000045713126000000000000000000000000000609400000000000000000000000000000000                  
3030011MX1RLO0800020        0      1RSPLOCKXPI22     0         0000000348330000018874846230000006574675189000002258530508000000786713931900000000000000000022411800000000000000000000000000000000000000000000000000000000000000000000000000000000000000000000002140397000000000000000000000000000001018500000000000000000000000000000                  
3030002XS02801442200        0      D8  MER    5-06   0         0000000000290001000000000000000000290000000000100240424159000000029069723000000000118021940003650800110340051032005103600000000000000000000000000000000000000000000000000000010000000000000000000015000000000001000000000000000000001500000000000000000000000000000000                  
3030002MXCDNA0R00600        0      CD  NAFF   21X    0         0000000153380000001000000000000000153380000000000097199145000000014908404900000000002987080021741800110000041000001100000410000000000000000000000000000000000000000000000000000010000000000000065000000000000000001000000000000006500000000000000000000000000000000000                  
3030002MX91ME0900120        0      91  MEGA   22-2   0         0000003877570000001000000000000003877570000000000104034422000000403400753700000001470223710024091800410000061000004100000610000000000000000000000000000000000000000000000000000010000000000000044724000000000000001000000000000004472400000000000000000000000000000000                  
3030702MX0SGO0000230        0      S   UDIBONO351122 0         0000000417450000007787942290000003251076507000000859012443000000358594744300000000785699380036471800110000041000001100000410000000000000000000000000000000000000000000000000000010000000000000520582129000000000001000000000000046773419600000000000000000000000000000                  
3030002MX91AC1J00060        0      91  ACBE   17     0         0000000283210000000995581380000000281958602000000099669221000000028227320100000000051191790006451800110000041000001100000410000000000000000000000000000000000000000000000000000010000000000000060000000000000000001000000000000006000000000000000000000000000000000000                  
3030002MX91GC0000940        0      91  GCARSO 24-2   0         0000002723170000001000000000000002723170000000000107470179000000292659567300000000015915290020001800410000061000004100000610000000000000000000000000000000000000000000000000000010000000000000055000000000000000001000000000000005500000000000000000000000000000000000                  
3030003MX95MX0E00040        0      95  MXPUCB 18     0         0000000148820000000853800000000000127062516000000085993625000000012797571300000000040236460044421800410000061000000000000000000000000000000000000000000000000000000000000000000008538000000000049523945000000000001000000000000004952394500000000000000000000000000000                  
3030002MXCDBA1C01290        0      CD  BANOB  25-2   0         0000002000000000001000000000000002000000000000000103697679000000207395358000000000084000000023501800110000041000001100000410000000000000000000000000000000000000000000000000000010000000000000101500000000000000001000000000000010150000000000000000000000000000000000                  
3030003MX95CF1800000        0      95  CFEHCB 06     0         0000000180950000000368075050000000066603181000000035805253000000006478960500000000006483330039631800410000051000004100000510000000000000000000000000000000000000000000000000000003666666700000025000000000000000001000000000000002500000000000000000000000000000000000                  
3030002MXCDBA0300Q80        0      CD  BACMEXT25-2X  0         0000000500000000001000000000000000500000000000000106318078000000053159039000000000109666650033781800410000061000001100000410000000000000000000000000000000000000000000000000000010000000000000110427671000000000001000000000000011042767100000000000000000000000000000                  
3030011MX1RAX0700050        0      1R  AXIS2CK14     0         0000002423020000000263791480000000639172042000000042818063000000103749023000000000000000000003281800000000000000000000000000000000000000000000000000000000000000000000000000000000000000000000098044705000000000000000000000000001200000000000000000000000000000000000                  
3030006MX01GA0600080        0      1   GAV    A      0         0000000080120000001588655480000000127283077000000175679639000000014075452700000000000000000000001800000000000000000000000000000000000000000000000000000000000000000000000000000000000000000000060033332000000000000000000000000006003333200000000000000000000000000000                  
3030011MX1RFF0100080        0      1R  FFLA1CK15     0         0000000172190000001484662470000000255644031000000115129886000000019824215100000000000000000011911800000000000000000000000000000000000000000000000000000000000000000000000000000000000000000000016501568000000000000000000000000000006563300000000000000000000000000000                  
3030002MXCDBA1C00L00        0      CD  BANOB  22-3   0         0000001081070000001000000000000001081070000000000104476493000000112946402300000000087972070023351800110000041000001100000410000000000000000000000000000000000000000000000000000010000000000000047000000000000000001000000000000004700000000000000000000000000000000000                  
3030011MX1RPM0500030        0      1R  PMCAPCK14     0         0000000130900000001989938230000000260482914000000013050383000000001708295100000000000000000000221800000000000000000000000000000000000000000000000000000000000000000000000000000000000000000000017587934000000000000000000000000000007000000000000000000000000000000000                  
3030003MX95TF0300160        0      95  TFOVICB15-2U  0         0000000030990000001616955370000000050109447000000263538209000000008167049100000000002349660071201800110000041000001100000000000000000000000000000000000000000000000000000000000003054743600000010887119000000000001000000000000001088711900000000000000000000000000000                  
3030011MX1RMR0100050        0      1R  MRP2CK 16     0         0000498752980000000008367750000004173438574000000000691544000000344909630800000000000000000021041800000000000000000000000000000000000000000000000000000000000000000000000000000000000000000008358879659000000000000000000000000001700000000000000000000000000000000000                  
3030002XS03169895230        0      D2  TELV523110537 0         0000000000400001005413482500000000402165393000070731659351000000028292663700000000014150000041831800410010011000005100200410010000000000000000000000000000000000000000000000010000000000000000000044691000000001000000000000000000004469100000000000000000000000000000                  
3030007MX1BNA0600140        0      1B  NAFTRACISHRS  0         0000072782230000000461805680000033611247001000000063200000000004599836936000000000000000000000001800000000000000000000000000000000000000000000000000000000000000000000000000000000000000000001574600000000000000000000000000000750000000000000000000000000000000000000                  
3030007US09290C10360        0      1ISPDYNF   US     0         0000000654900000010850858720000007106227377000001109231445000000726435673300000000000000000000000800000000000000000000000000000000000000000000000000000000000000000000000000000000000000000000490425000000000000000000000000000035467500000000000000000000000000000000                  
3030003MX95TF0300730        0      95  TFOVICB20U    0         0000000025620000004034655040000000103367862000000503815227000000012907746100000000004260390087081800410000061000001100000000000000000000000000000000000000000000000000000000000006234543400000009271489000000000001000000000000000927148900000000000000000000000000000                  
3030007US46434G77230        0      1ISPEWT    *      0         0000001588040000010663930610000016934748360000001167747210000001854429279400000000000000000000000800000000000000000000000000000000000000000000000000000000000000000000000000000000000000000000107100000000000000000000000000000010140000000000000000000000000000000000                  
3030011MX1RLO0800C00        0      1RSPLOCKXPI23-7   0         0000001177040000018929799530000022281131237000001957732523000002304329488900000000000000000022411800000000000000000000000000000000000000000000000000000000000000000000000000000000000000000000000136089000000000000000000000000000000021400000000000000000000000000000                  
3030011MXCFNE0400150        0      CF  NEXT   25     0         0000003060000000001000000000000003060000000000000098950000000000302787000000000000000000000000001800000000000000000000000000000000000000000000000000000000000000000000000000000000000000000000271567713000000000000000000000000019815000000000000000000000000000000000                  
3030011MX1REX0G00000        0      1R  EXI2CK 17     0         0000050030970000000096127370000004809345735000000006519229000000326163350500000000000000000023741800000000000000000000000000000000000000000000000000000000000000000000000000000000000000000000728200818000000000000000000000000001113402100000000000000000000000000000                  
3030002US91086QAN880        0      D1SPUMS33F 2033F  0         0000000000180000177354322220000000031923778000021090056663000000003796210200000000003370620026891800410370011036004103700110360000000000000000000000000000000000000000000000000100000000000000000769896000000000010000000000000000076989600000000000000000000000000000                  
3030011MXFFIN3800000        0      FF  INFRAEX18     0         0000002097060000000185000000000000387956100000000011695797000000024526788100000000000000000000001800000000000000000000000000000000000000000000000000000000000000000000000000000000000000000000472698639000000000000000000000000047269863900000000000000000000000000000                  
3030014LU22150862940        0      56SPGSEPPIJLX     0         0000000388570000023653767980000009191144623000002549296707000000990580221400000000000000000000001700000000000000000000000000000000000000000000000000000000000000000000000000000000000000000000000000000000000000000000000000000000000000000000000000000002000000000000                  
3030011MXFFXF0000050        0      FF  XFRA   22     0         0000054828130000000200000000000010965626000000000019629121000001076227998000000000000000000000001800000000000000000000000000000000000000000000000000000000000000000000000000000000000000000000679104513000000000000000000000000042167980900000000000000000000000000000                  
3030002MX0MGO0001N50MGO0001N0      M   BONOS  550429 0         0000020011990000000861109890000017232522449000000086768103000001736402409600000007782440780107451800110000041000001100000410000000000000000000000000000000000000000000000000000010000000000000274911011000000000001000000000000180000000000000000000000000000000000000                  
3030011MX1RAL1B00070        0      1R  ALLVPCK18     0         0000006133250000000021071710000000129238062000000002506217000000015371255400000000000000000010831800000000000000000000000000000000000000000000000000000000000000000000000000000000000000000000474586856000000000000000000000000000200000000000000000000000000000000000                  
3030002MX91FS0000220        0      91  FSHOP  17-2   0         0000000077720000001000000000000000077720000000000098539407000000007658482700000000026609390005931800410040061002004100400610020000000000000000000000000000000000000000000000000010000000000000016000000000000000001000000000000001600000000000000000000000000000000000                  
3030011MX1RGA0500400        0      1RSPGAPI   21-3D  0         0000009643820000000193799900000001868971342000000022203641000000214127917100000000000000000060401800000000000000000000000000000000000000000000000000000000000000000000000000000000000000000000111566690000000000000000000000000000006000000000000000000000000000000000                  
3030003MX95FO0C00330        0      95  FOVISCB18U    0         0000000075810000002083357380000000157939323000000301523190000000022858473000000000008922980078861800510000061000001100000000000000000000000000000000000000000000000000000000000003453524100000019892100000000000001000000000000001989210000000000000000000000000000000                  
3030002MX95FE0402L80        0      95  FEFA   24B    0         0000004296000000001000000000000004296000000000000106253378000000456464511900000002150219740018251800110000061000001100000610000000000000000000000000000000000000000000000000000010000000000000045000000000000000001000000000000004500000000000000000000000000000000000                  
3030011MX1RNI0100700        0      1R  NIKEPI 25-7   0         0000004316100000001000000000000004316100000000000099991954000000431575272700000000000000000047701800000000000000000000000000000000000000000000000000000000000000000000000000000000000000000000000431610000000000000000000000000000040450000000000000000000000000000000                  
3030002MX91ME0900460        0      91  MEGA   24-2X  0         0000001759990000001000000000000001759990000000000103821948000000182725590300000000317776050019371800410000061000004100000610000000000000000000000000000000000000000000000000000010000000000000023230714000000000001000000000000002323071400000000000000000000000000000                  
3030007US92290836320        0      1ISPVOO    *      0         0000000138410000110967703830000015359039887000011463770325000001586700450700000000000000000000000800000000000000000000000000000000000000000000000000000000000000000000000000000000000000000001300259089000000000000000000000000106621269100000000000000000000000000000                  
3030002MX95FO0M00230        0      95  FONADIN20U    0         0000000065270000006649139650000000433989345000000822331210000000053673558100000000061696640010991800110000041000001100000410000000000000000000000000000000000000000000000000000010000000000000011312340000000000001000000000000001131234000000000000000000000000000000                  
3030002MXCDBA1C00Z00        0      CD  BANOB  24-3   0         0000000748120000001000000000000000748120000000000109872565000000082197863300000000372058780040151800110000041000001100000410000000000000000000000000000000000000000000000000000010000000000000089000000000000000001000000000000008900000000000000000000000000000000000                  
3030002MX95CF0500880        0      95  CFE    17     0         0000000274080000000962219580000000263725143000000099441318000000027254876400000000095906680007561800110000041000004100000510000000000000000000000000000000000000000000000000000010000000000000125500000000000000001000000000000012550000000000000000000000000000000000                  
3030011MX1RDE0800040        0      1R  DELTACK18     0         0000007006620000000062906980000000440765339000000006462513000000045280372800000000000000000010131800000000000000000000000000000000000000000000000000000000000000000000000000000000000000000000374316202000000000000000000000000000470940000000000000000000000000000000                  
3030003XS10032651510        0      D2  CONM151351215 0         0000000019010000149617227770000002844223500000017947253038000000341177280300000000892101780036701800110000041000000000000000000000000000000000000000000000000000000000000000000200000000000000000816812000000000020000000000000000081681200000000000000000000000000000                  
3030011MX1RIN3100090        0      1R  INFRACK15     0         0000033899850000000539446930000018287170156000000049244308000001669374654600000000000000000145091800000000000000000000000000000000000000000000000000000000000000000000000000000000000000000000262582173000000000000000000000000003443000000000000000000000000000000000                  
3030002MX0SGO0000S30        0      S   UDIBONO290830 0         0000005032440000008410133780000042323493622000000858256629000004319124990000000004041282830013721800110000041000001100000410000000000000000000000000000000000000000000000000000010000000000000157820169000000000001000000000000000950000000000000000000000000000000000                  
3030002MX91CE0200P30        0      91  CEMEX  23-2L  0         0000006156680000001038249600000006392170567000000108070161000000665353398800000001099446370017641800410010011000004100100110000000000000000000000000000000000000000000000000000010000000000000085000000000000000001000000000000008500000000000000000000000000000000000                  
3030003MX91CA1500280        0      91  CAMSCB 24U    0         0000000287220000008317154950000002388853244000000983108767000000282368500100000000679053020106241800410000061000000000000000000000000000000000000000000000000000000000000000000009992000000000006006861000000000001000000000000000600686100000000000000000000000000000                  
3030002MXCDBA0300J30        0      CD  BACMEXT23-4X  0         0000001337620000001000000000000001337620000000000110271746000000147501692900000000158585950028711800410000051000001100000410000000000000000000000000000000000000000000000000000010000000000000059486108000000000001000000000000005948610800000000000000000000000000000                  
3030006MX01GE0E00040        0      1   GENTERA*      0         0000006115260000000337068430000002061261101000000044200000000000270294492000000000000000000000001800000000000000000000000000000000000000000000000000000000000000000000000000000000000000000001579243876000000000000000000000000164821153600000000000000000000000000000                  
3030006MX01ES0500190        0      1   ESENTIAII     0         0000017054470000000450000000000007674511500000000046620000000000795079391400000000000000000000001800000000000000000000000000000000000000000000000000000000000000000000000000000000000000000000534016903000000000000000000000000053401690300000000000000000000000000000                  
3030006MX01OM0000180        B1KFX131   OMA    B      0         0000001232400000001723629110000002124200509000000244550000000000301383420000000000000000000000001800000000000000000000000000000120251126000001000000000000000000005770000000000000000000000000340345556000000000000000000000000034131410000000000000000000000000000000                  
3030007US92204286610        0      1ISPVPL    *      0         0000004019120000013417534830000053926682603000001666140105000006696417018800000000000000000000000800000000000000000000000000000000000000000000000000000000000000000000000000000000000000000000092081871000000000000000000000000009386821900000000000000000000000000000                  
3030002MX94HS0M00F30        0      94  HSBC   24-2   0         0000000451700000001000000000000000451700000000000105484619000000047647402400000000020758140012581800410000051000001100000410000000000000000000000000000000000000000000000000000010000000000000025000000000000000001000000000000002500000000000000000000000000000000000                  
3030011MXCFED0900040        0      CF  EDUCA  18     0         0000001910100000000200000000000000382020000000000049870000000000095256687000000000000000000000001800000000000000000000000000000000000000000000000000000000000000000000000000000000000000000001227724832000000000000000000000000150000000000000000000000000000000000000                  
3030002XS27015594400        0      JE  AMX    0134X  0         0000000051780000103033335790000005335066127000010578740132000000547767164000000001733335500029861800110000041000001100000410000000000000000000000000000000000000000000000000001000000000000000003000000000000000100000000000000000200000000000000000000000000000000000                  
3030007US46428720000        0      1ISPIVV    *      0         0000000105620000121709583930000012854966255000012529711110000001323388087400000000000000000000000800000000000000000000000000000000000000000000000000000000000000000000000000000000000000000001064450000000000000000000000000000100015000000000000000000000000000000000                  
3030006MXP0005110160        20434231   ALFA   A      0         0000011555230000000119494590000001380787448000000014250000000000164662027500000000000000000000001800000000000000000000000000000000000000000000000000000000000000000000000000000000000000000005558536508000000000000000000000000555853650800000000000000000000000000000                  
3030002MX2UCB1900090        0      2U  CBIC004310116 0         0000000000200000005578515000000000001115703000000932685336000000000186537100000000000338790018761800110000041000001100000410000000000000000000000000000000000000000000000000000010000000000000053189973000000000001000000000000005318997300000000000000000000000000000                  
3030002MXCDBA0300H70        0      CD  BACMEXT23-2X  0         0000002989350000001000000000000002989350000000000104252282000000311646559200000000814365300015341800410000051000001100000410000000000000000000000000000000000000000000000000000010000000000000060000000000000000001000000000000006000000000000000000000000000000000000                  
3030002MX0MGO0001020        0      M   BONOS  471107 0         0000055827570000000891459220000049768001872000000087782049000004900658485300000021710722290080151800110000041000001100000410000000000000000000000000000000000000000000000000000010000000000002623898085000000000001000000000000261989518000000000000000000000000000000                  
3030011MXFHFH0200010        0      FH  FHIPO  14     0         0000001782420000000251456150000000448200479000000013650000000000024330033000000000000000000000001800000000000000000000000000000000000000000000000000000000000000000000000000000000000000000000373350259000000000000000000000000037335025900000000000000000000000000000                  
3030011MXFEFI2900020        0      FESPFIEMEX 25-2D  0         0000000532370000009755501740000005193536462000001893046485000001007801157200000000000000000000001800000000000000000000000000000000000000000000000000000000000000000000000000000000000000000000021393045000000000000000000000000002139304500000000000000000000000000000                  
3030002XS28007201090        0      JI  CABEI  2-24S  0         0000002081620000001008941350000002100232491000000105524999000000219662948400000000005955720030931800110000051000001100000410000000000000000000000000000000000000000000000000000010000000000000030000000000000000001000000000000003000000000000000000000000000000000000                  
3030007US92290873690        0      1ISPVUG    *      0         0000000040280000088463842060000003563323558000008958598530000000360852348800000000000000000000000800000000000000000000000000000000000000000000000000000000000000000000000000000000000000000000413109599000000000000000000000000037873615900000000000000000000000000000                  
3030002MX91BB1R00140        0      91  BBPEN  21-2   0         0000000091670000001000000000000000091670000000000097911656000000008975561500000000034426670011001800410010061001004100100610010000000000000000000000000000000000000000000000000010000000000000020000000000000000001000000000000002000000000000000000000000000000000000                  
3030002MXCDBA1C00V90        0      CD  BANOB  23-5   0         0000001850790000001000000000000001850790000000000104146381000000192753080500000000863239360029201800110000041000001100000410000000000000000000000000000000000000000000000000000010000000000000074600000000000000001000000000000007460000000000000000000000000000000000                  
3030002MX91LI0500880        0      91  LIVEPOL19     0         0000000287700000001000451050000000287829767000000096410866000000027737406100000000013358860014351800110000041000001100000410000000000000000000000000000000000000000000000000000010000000000000050000000000000000001000000000000005000000000000000000000000000000000000                  
3030002MX91ED0900050        0      91  EDUCA  23-2L  0         0000000263260000001000000000000000263260000000000111988606000000029482120400000000086919690017151800510010061000005100100610000000000000000000000000000000000000000000000000000010000000000000007070769000000000001000000000000000707076900000000000000000000000000000                  
3030007IE00B9F5YL180        0      1ISPVDPX   N      0         0000000609610000004149908440000002529825687000000570345274000000347688182500000000000000000000000800000000000000000000000000000000000000000000000000000000000000000000000000000000000000000000046898090000000000000000000000000004484778700000000000000000000000000000                  
3030007US46428520440        0      1ISPIAU    *      0         0000002282310000011956754300000027289019905000001438864140000003283934015400000000000000000000000800000000000000000000000000000000000000000000000000000000000000000000000000000000000000000000826000000000000000000000000000000066845000000000000000000000000000000000                  
3030002MX0SGO0000Q70        0      S   UDIBONO541029 0         0000003072310000006930100000000021291415524000000801313889000002461884674300000005140015800105631800110000041000001100000410000000000000000000000000000000000000000000000000000010000000000000393729686000000000001000000000000015667792300000000000000000000000000000                  
3030001XS17746945970        0      D8  IFCN38 2-20   0         0000000007720000345087300000000002664073956000034075170921000000263060319500000000000000000044700800110280051028001102800510280000000000000000000000000000000000000000000000010000000000000000000120000000000001000000000000000000016750000000000000000000000000000000                  
3030002MXCDNA0R00520        0      CD  NAFF   310620 0         0000001026150000001000000000000001026150000000000093859663000000096314093200000000320543610020311800110000041000001100000410000000000000000000000000000000000000000000000000000010000000000000075000000000000000001000000000000007500000000000000000000000000000000000                  
3030002MX91TE0000710        0      91  TELMEX 07     0         0000000362080000000996801880000000360922025000000089903169000000032552139400000000049608980041271800510010011000005100100110000000000000000000000000000000000000000000000000000010000000000000050000000000000000001000000000000005000000000000000000000000000000000000                  
3030002MX91FU0000G50        0      91  FUNO   23L    0         0000000738150000001000000000000000738150000000000103270827000000076229361000000000192308600026471800410000061000004100000610000000000000000000000000000000000000000000000000000010000000000000049700000000000000001000000000000004970000000000000000000000000000000000                  
3030002MXCDBA1C00H80        0      CD  BANOB  21-5X  0         0000000324490000001000000000000000324490000000000094053255000000030519340700000000052351040021041800110000041000001100000410000000000000000000000000000000000000000000000000000010000000000000028000000000000000001000000000000002800000000000000000000000000000000000                  
3030002MX0MGO0001D60        0      M   BONOS  330526 0         0000003372480000000896659130000003023964992000000093950574000000316846431800000001229549890027371800110000041000001100000410000000000000000000000000000000000000000000000000000010000000000003342836866000000000001000000000000318682022000000000000000000000000000000                  
3030002MXCDBA1C00S50        0      CD  BANOB  23-3   0         0000003113470000001000000000000003113470000000000100650396000000313371988400000001162933040034941800410000051000001100000410000000000000000000000000000000000000000000000000000010000000000000080000000000000000001000000000000008000000000000000000000000000000000000                  
3030002USP30179CQ940        0      D2SPCFELQ94300124 0         0000000002300000190981750000000000439258025000018601918649000000042784412900000000082165120015191800410370011036004103700110360000000000000000000000000000000000000000000000000100000000000000000500000000000000010000000000000000050000000000000000000000000000000000                  
3030002MX0MGO0000R80        0      M   BONOS  421113 0         0000052856070000000847772680000044809932299000000086742108000004584846932400000019912789670061951800110000041000001100000410000000000000000000000000000000000000000000000000000010000000000004416163464000000000001000000000000386431503400000000000000000000000000000                  
3030002MXMSGO000001MSGO000000      MS  BONOS  350524 0         0000007062000000000942668170000006657122610000000094014127000000663927764900000002746333410034651800110000041000001100000410000000000000000000000000000000000000000000000000000010000000000000230000000000000000001000000000000023000000000000000000000000000000000000                  
3030002XS03295796000        0      D2  AMXL600181236 0         0000000000730001002966423290000000732165489000087623082710000000063964850400000000277911000040391800510350011034005103500410340000000000000000000000000000000000000000000000010000000000000000000073555000000001000000000000000000007355500000000000000000000000000000                  
3030002MX91AM0500T50        0      91  AMX    23-2   0         0000002006460000001000000000000002006460000000000103197685000000207062027000000000343940750008441800110000041000001100000410000000000000000000000000000000000000000000000000000010000000000000110160860000000000001000000000000011016086000000000000000000000000000000                  
3030002MX94BS0600500        0      94  BSMX   21-2   0         0000000793980000001000000000000000793980000000000099263638000000078813343300000000003564100010901800410000051000004100000510000000000000000000000000000000000000000000000000000010000000000000065000000000000000001000000000000006500000000000000000000000000000000000                  
3030002XS26457370030        0      JE  AMX    0131X  0         0000000057240000100068612090000005727927356000010250222003000000586722707500000001812600000018871800110000041000001100000410000000000000000000000000000000000000000000000000001000000000000000002300000000000000100000000000000000170000000000000000000000000000000000                  
3030002MX2UCB1J00162UCB1J0010      2U  CBIC009331124 0         0000000024630000005669729350000000139645434000000828612467000000020408725100000000041206320029191800110000041000001100000410000000000000000000000000000000000000000000000000000010000000000000050139000000000000001000000000000005013900000000000000000000000000000000                  
3030011MX1RWS0000030        0      1R  WSMXCK 13     0         0000000004710000064098485140000000301903865000004210628905000000019832062100000000000000000003161800000000000000000000000000000000000000000000000000000000000000000000000000000000000000000000000676886000000000000000000000000000000874000000000000000000000000000000                  
3030002MX94HS0M00C00        0      94  HSBC   20-2   0         0000000259460000001000000000000000259460000000000094095062000000024413904800000000092220020016571800410000051000001100000410000000000000000000000000000000000000000000000000000010000000000000060000000000000000001000000000000006000000000000000000000000000000000000                  
3030003MX90CH1C00000        0      90  CHIACB 07U    0         0000000045480000002404692630000000109365421000000554350819000000025211875200000000037597570042281800110000041000005100500110040000000000000000000000000000000000000000000000000006224065300000010999149000000000001000000000000001099914900000000000000000000000000000                  
3030002MX91AG0500180        0      91  AGUA   17-2X  0         0000000212750000001042464250000000221784269000000098959947000000021053728700000000082812940005661800110040041003001100400410030000000000000000000000000000000000000000000000000010000000000000040000000000000000001000000000000004000000000000000000000000000000000000                  
3030011MX1RIN3100170        0      1R  INFRACK16     0         0000000000100009999990000000000000999999000000011941417005000000001194141700000000000000000145091800000000000000000000000000000000000000000000000000000000000000000000000000000000000000000000000001289000000000000000000000000000000128900000000000000000000000000000                  
3030011MXCFFM0100000        0      CF  FMTY   14     0         0000048069610000000113139130000005438553855000000014300000000000687395423000000000000000000000001800000000000000000000000000000000000000000000000000000000000000000000000000000000000000000002437674664000000000000000000000000063802478500000000000000000000000000000                  
3030011MX1RRR0000190        0      1R  RRGCK  21     0         0000000547880000000583797690000000319851080000000074044059000000040567259000000000000000000026861800000000000000000000000000000000000000000000000000000000000000000000000000000000000000000000011482384000000000000000000000000000192439300000000000000000000000000000                  
3030006MX01WA0000380        0      1   WALMEX *      0         0000019242110000000555466710000010688351623000000061810000000001189354819100000000000000000000001800000000000000000000000000000000000000000000000000000000000000000000000000000000000000000017299727303000000000000000000000001744632217700000000000000000000000000000                  
3030002USP3146DAA110        0      D2SPVESTA11310513 0         0000000008050000166881053660000001343392482000016869869428000000135802448900000000020816690019931800110370051037001103700410370000000000000000000000000000000000000000000000000100000000000000000350000000000000010000000000000000035000000000000000000000000000000000                  
3030002MXCDBA1C00O40        0      CD  BANOB  22-2X  0         0000000983240000001000000000000000983240000000000107371804000000105572252600000000114891590014151800110000041000001100000410000000000000000000000000000000000000000000000000000010000000000000024720000000000000001000000000000002472000000000000000000000000000000000                  
3030011MX1RFF0500040        0      1R  FFBANCK18     0         0000004146190000000680180460000002820157428000000048137419000000199586885300000000000000000082261800000000000000000000000000000000000000000000000000000000000000000000000000000000000000000000022199995000000000000000000000000000800000000000000000000000000000000000                  
3030002MX95FN0000J50        0      95  FNCOT  25-3   0         0000003576000000001000000000000003576000000000000099391025000000355422305400000000364096520017791800510000061000005100000000000000000000000000000000000000000000000000000000000010000000000000046660000000000000001000000000000004666000000000000000000000000000000000                  
