00000528343030000253000196520251126                                                                                                                                                                                                                                                                                                                    
301MXBIGO000X350        0      BI  CETES  260108 0         0000010000000003361871730000333258579298007300000000009912888000033332615673200000000675774340000333326156732000000000101000000001000000040044                    00110000041000000000000000                                                                                                
301MX0MGO0001F10MGO0001F0      M   BONOS  290301 0         0000010000000000173322960000180139768100007280000000103933009000018017619636400000000364282640000180176196364000000000101000000001000000040014                    00410000051000000000000000                                                                                                
301MXBIGO000YD80        0      BI  CETES  260514 0         0000010000000000473553260000045759617256007280000000009663035000004576887086700000000092536110000045768870867000000000101000000001000000040012                    00110000041000000000000000                                                                                                
301MXLFGO0003870        0      LF  BONDESF270722 0         0000010000000000162939110000162959021158007280000000100012220000016299197509300000000329539350000162991975093000000000101000000001000000040012                    00110000041000000000000000                                                                                                
302001000106MX54XX0M00080        0      54  XXI6569B2     0         2025112600000970459300000001559887200000001559887200000151380704020000000000000100000000100000018801160                    000000001000                    0                                                                                                                       
3020021201100           0        0      EF  EFECTIV990101 00000000002025112600001628840200000000100000000000000000000000000016288402830000000000000100000000000000018000000                    000000001000                    0                                                                                                                       
302501010102MX0MGO0001C80MGO0001C0      M   BONOS  270304 0         2025112600000592207600000009910153900000009912174500000587006504200004630073400100000000100000018040014                    000000001000                    0                                                                                                                       
302502010102MX0MGO0001G90MGO0001G0      M   BONOS  280302 0         2025112600001575916000000010380776700000010382893200001636256750760008270073400100000000100000018040014                    000000001000                    0                                                                                                                       
302503010101MXBIGO000X350        0      BI  CETES  260108 0         2025112600035579302600000000991092600000000991295200003526959271840000430073600100000000100000018040044                    000000001000                    0                                                                                                                       
302504010102MX0MGO0001L90MGO0001L0      M   BONOS  360221 0         2025112600001667676900000009520558000000009522499100001588045183940037390073400100000000100000018040012                    000000001000                    0                                                                                                                       
302505000106MX54XX0M00080        0      54  XXI6569B2     0         2025112600000105979700000001559887200000001559887200000016531637750000000000000100000000100000018801160                    000000001000                    0                                                                                                                       
3025061301100           0        0      EF  EFECTIV990101 00000000002025112600009410192400000000100000000000000000000000000094101924310000000000000100000000000000018000000                    000000001000                    0                                                                                                                       
302003010101MXBIGO000X350        0      BI  CETES  260108 0         2025112600033618717300000000991288800000000991288800003332585792980000430073000100000000100000018040044                    074702062000                    0                                                                                                                       
302004010102MX0MGO0001F10MGO0001F0      M   BONOS  290301 0         2025112600001733229600000010197328700000010393300900001801397681000011910072800100000000100000018040014                    074702062000                    0                                                                                                                       
302005010101MXBIGO000YD80        0      BI  CETES  260514 0         2025112600004735532600000000966303500000000966303500000457596172560001690072800100000000100000018040012                    074702062000                    0                                                                                                                       
302006010104MXLFGO0003870        0      LF  BONDESF270722 0         2025112600001629391100000009974897000000010001222000001629590211580006030072800100000000100000018040012                    074702062000                    0                                                                                                                       
3020071202100           0        0      *CSPMXPUSD SPOT   0         2025112700000003185000000001834350000000000000000000000000584240480000000000000200000001834350008801197                    090000002000                    0                                                                                                                       
3020081202100           0        0      *CSPMXPUSD SPOT   0         2025112700000608917500000001834350000000000000000000000111696781610000000000000200000001834350008801197                    090000002000                    0                                                                                                                       
3020091202100           0        0      *CSPMXPUSD SPOT   0         2025112700000036735000000001834350000000000000000000000006738484730000000000000200000001834350008801197                    090000002000                    0                                                                                                                       
3020101202100           0        0      *CSPMXPUSD SPOT   0         2025112700000019065000000001834350000000000000000000000003497188280000000000000200000001834350008801197                    090000002000                    0                                                                                                                       
3020111202100           0        0      *CSPMXPUSD SPOT   0         2025112700000007905000000001834350000000000000000000000001450053680000000000000200000001834350008801197                    090000002000                    0                                                                                                                       
302507000111MXFEFI2900020        0      FESPFIEMEX 25-2D  0         2025112600000000000100000000000000000000000000000000000000000000000000000000000200000001838320018025002                    090002061000                    0                                                                                                                       
3025081302100           0        0      *CSPMXPUSD SPOT   0         2025112700000003862500000001834350000000000000000000000000708517690000000000000200000001834350008801197                    090000002000                    0                                                                                                                       
302509000306MX01VI0C00060        0      1   VISTA  A      0         2025112800000000885800000088617000000000088617000000000007845141030000000000000100000000100000018013001                    145302061000                    0                                                                                                                       
302012000206MX01AC1000060        28238851   AC     *      0         2025112700000000140600000018321349900000018321349900000000257747590000000000000100000000100000018013001                    145402062000                    0                                                                                                                       
302013000206MXP0005110160        20434231   ALFA   A      0         2025112700000000791700000001425259900000001425259900000000112903280000000000000100000000100000018013001                    145402062000                    0                                                                                                                       
302014000206MXP0013910120        25630171   ALSEA  *      0         2025112700000000025200000004971500000000004971500000000000012535440000000000000100000000100000018013001                    145402062000                    0                                                                                                                       
302015000206MX01AM0500190        0      1   AMX    B      0         2025112700000003440600000002113200000000002113200000000000727489280000000000000100000000100000018013001                    145402062000                    0                                                                                                                       
302016000206MXP0016610180        26393491   ASUR   B      0         2025112700000000036100000054931670400000054931670400000000198418340000000000000100000000100000018013001                    145402062000                    0                                                                                                                       
302017000206MXP4952112620        23924711   BIMBO  A      0         2025112700000000108300000005770399800000005770399800000000062529680000000000000100000000100000018013001                    145402062000                    0                                                                                                                       
302018000206MXP4948K10560        23925451   GRUMA  B      0         2025112700000000031800000031620440300000031620440300000000100611320000000000000100000000100000018013001                    145402062000                    0                                                                                                                       
302019000206MXP3708410190        26436741   GMEXICOB      0         2025112700000000658000000015694579900000015694579900000001033302330000000000000100000000100000018013001                    145402062000                    0                                                                                                                       
302020000206MX01SI0C00020        0      1   SITES1 A-1    0         2025112700000000095200000001524690100000001524690100000000014523470000000000000100000000100000018013001                    145402062000                    0                                                                                                                       
302021000206MX01TR0H00060        0      1   TRAXIONA      0         2025112700000000201200000001395160000000001395160000000000028086910000000000000100000000100000018013001                    145402062000                    0                                                                                                                       
302022000206MXP5540914150        0      1   PE&OLES*      0         2025112700000000039900000077878568900000077878568900000000310915720000000000000100000000100000018013001                    145402062000                    0                                                                                                                       
302023000206MX01LA0500100        0      1   LACOMERUBC    0         2025112700000000151500000004096190100000004096190100000000062093270000000000000100000000100000018013001                    145402062000                    0                                                                                                                       
302024000206MX01VO0000090        0      1   VOLAR  A      0         2025112700000000129900000001317440300000001317440300000000017123480000000000000100000000100000018013001                    145402062000                    0                                                                                                                       
302025000206MXP6069411790        24919141   KIMBER A      0         2025112700000000164500000003679590300000003679590300000000060564360000000000000100000000100000018013001                    145402062000                    0                                                                                                                       
302026000206MX01GA0000040        B0ZV1041   GAP    B      0         2025112700000000099300000043243229600000043243229600000000429654320000000000000100000000100000018013001                    145402062000                    0                                                                                                                       
302027000206MX01OM0000180        B1KFX131   OMA    B      0         2025112700000000080500000024394320500000024394320500000000196488180000000000000100000000100000018013001                    145402062000                    0                                                                                                                       
302028000206MX01ME0900030        B292SM81   MEGA   CPO    0         2025112700000000168600000005075800100000005075800100000000085627630000000000000100000000100000018013001                    145402062000                    0                                                                                                                       
302029000206MX01VE0M00030        0      1   VESTA  *      0         2025112700000000191500000005765279900000005765279900000000110469140000000000000100000000100000018013001                    145402062000                    0                                                                                                                       
302030000206MXP3203213100        22420591   FEMSA  UBD    0         2025112700000000354700000017422570100000017422570100000000618336990000000000000100000000100000018013001                    145402062000                    0                                                                                                                       
302031000206MX01WA0000380        0      1   WALMEX *      0         2025112700000001129700000006182640000000006182640000000000698857950000000000000100000000100000018013001                    145402062000                    0                                                                                                                       
302032000206MX01CT0G00090        0      1   CTALPEKA      0         2025112700000000656200000000278950000000000278950000000000018315310000000000000100000000100000018013001                    145402062000                    0                                                                                                                       
302033000206MX01Q00000080        0      1   Q      *      0         2025112700000000016400000018144817100000018144817100000000029774760000000000000100000000100000018013001                    145402062000                    0                                                                                                                       
302034000206MX01GE0E00040        0      1   GENTERA*      0         2025112700000000365900000004388370000000004388370000000000160663600000000000000100000000100000018013001                    145402062000                    0                                                                                                                       
302035000206MX01PI0000050        0      1   PINFRA *      0         2025112700000000040900000025065960900000025065960900000000102579240000000000000100000000100000018013001                    145402062000                    0                                                                                                                       
302036000206MXP3707110140        24210411   GFNORTEO      0         2025112700000000553600000017827240100000017827240100000000987488420000000000000100000000100000018013001                    145402062000                    0                                                                                                                       
302037000206MX01GC2M00060        29466631   GCC    *      0         2025112700000000064600000018020379300000018020379300000000116479170000000000000100000000100000018013001                    145402062000                    0                                                                                                                       
302038000206MX01KO0000020        0      1   KOF    UBL    0         2025112700000000134700000016149199700000016149199700000000217655880000000000000100000000100000018013001                    145402062000                    0                                                                                                                       
302039000206MX01CH1700020        B457NQ01   CHDRAUIB      0         2025112700000000082300000013340820200000013340820200000000109858630000000000000100000000100000018013001                    145402062000                    0                                                                                                                       
302040000206MXP4611810850        23934521   GCARSO A1     0         2025112700000000054400000012681790400000012681790400000000069028950000000000000100000000100000018013001                    145402062000                    0                                                                                                                       
302041000206MXP3706410130        28223981   GFINBURO      0         2025112700000000251100000004397820000000004397820000000000110493300000000000000100000000100000018013001                    145402062000                    0                                                                                                                       
302042000206MX41BB0000000        0      41  BBAJIO O      0         2025112700000000059600000004705729900000004705729900000000028062410000000000000100000000100000018013001                    145402062000                    0                                                                                                                       
302043000206MXP2256115670        24064571   CEMEX  CPO    0         2025112700000003347100000001924100000000001924100000000000644389040000000000000100000000100000018013001                    145402062000                    0                                                                                                                       
302510000206MX01R00000060        0      1   R      A      0         2025112700000003404300000013947370000000013947370000000004745349270000000000000100000000100000018013109                    151902061000                    0                                                                                                                       
3030011MX1REX0G00000        0      1R  EXI2CK 17     0         0000406840630000000096127320000039108499053000000006519229000002652287233500000000000000000023741800000000000000000000000000000000000000000000000000000000000000000000000000000000000000000000728200818000000000000000000000000001113402100000000000000000000000000000                  
3030002MX94BA0A00100        0      94  BACOMER07U    0         0000006339620000003883218420000024618129135000000862625845000005468720059500000009248666850002241800410000051000001100000410000000000000000000000000000000000000000000000000000010000000000000022403077000000000001000000000000002240307700000000000000000000000000000                  
3030002USP29595AD080        0      D2SPCFELD08310209 0         0000000081560000201355000000000016422513800000016562822164000001350863775700000001502678680019001800410370011036004103700110360000000000000000000000000000000000000000000000000100000000000000001200000000000000010000000000000000120000000000000000000000000000000000                  
3030002MX91BB1R00140        0      91  BBPEN  21-2   0         0000001804270000001000000000000001804270000000000097911656000000176659063600000000677593600011001800410010061001004100100610010000000000000000000000000000000000000000000000000010000000000000020000000000000000001000000000000002000000000000000000000000000000000000                  
3030002MX91OR0100210        0      91  ORBIA  22-2L  0         0000014357580000000998146430000014330967242000000102938924000001477953836400000007419079890025551800410010061000001100200410010000000000000000000000000000000000000000000000000010000000000000155600000000000000001000000000000015560000000000000000000000000000000000                  
3030006MX01RL0000160        0      1   RLH    A      0         0000444337480000000138341220000061470191166000000016750000000007442652790000000000000000000000001800000000000000000000000000000000000000000000000000000000000000000000000000000000000000000001249145002000000000000000000000000111591852600000000000000000000000000000                  
3030002MX95CF0500X80        0      95  CFE    25UX   0         0000005190330000008429136000000043749997455000000893418409000004637136370800000003726086520041371800110000041000004100000510000000000000000000000000000000000000000000000000000010000000000000008269108000000000001000000000000000826910800000000000000000000000000000                  
3030002US91086QAV050        0      D1SPUMS40F 2040F  0         0000000002790000429459445160000001198191852000036747498697000000102525521400000000233941990051581800410370011036004103700110360000000000000000000000000000000000000000000000000200000000000000001408998000000000020000000000000000140899800000000000000000000000000000                  
3030002MX91SI0100770        0      91  SIGMA  24-2   0         0000023360000000001000000000000023360000000000000103657828000002421446862100000005087289410030141800410000051000001100000410000000000000000000000000000000000000000000000000000010000000000000084800000000000000001000000000000008480000000000000000000000000000000000                  
3030002MX0MGO0000B20        0      M   BONOS  361120 0         0000038027630000001266613810000048166321225000000107596505000004091640081400000018485653050040111800110000041000001100000410000000000000000000000000000000000000000000000000000010000000000000941343545000000000001000000000000090943008700000000000000000000000000000                  
3030014LU22150862940        0      56SPGSEPPIJLX     0         0000002889460000022496824480000065003674449000002549296707000007366090863000000000000000000000001700000000000000000000000000000000000000000000000000000000000000000000000000000000000000000000000000000000000000000000000000000000000000000000000000000002000000000000                  
3030011MX1RKK0100380        0      1RSPKKRPI  18D    0         0000000854610000020342184840000017384634585000002717039220000002322008887800000000000000000157131800000000000000000000000000000000000000000000000000000000000000000000000000000000000000000000000799978000000000000000000000000000020000000000000000000000000000000000                  
3030011MXCFFI0V00010        0      CF  FINN   13     0         0000157757310000000093076260000014683460152000000004710000000000743036930100000000000000000000001800000000000000000000000000001120251125000001000000100000000000000090000000000000000000000000735760773000000000000000000000000074900082600000000000000000000000000000                  
3030003MX91PR1C00170        0      91  PROIN  10     0         0000009597390000000431063530000004137084812000000042292214000000405894871700000000821969430017351800110000041000001100400410040000000000000000000000000000000000000000000000000004310635300000027650000000000000001000000000000002765000000000000000000000000000000000                  
30314120           0        0      MDT ALLIANC00000012         0000000000010000000000000000000071421468148000000000000000000024062691141300000000000000000000000800000000000000000000000000000000000000000000000000000000000000000000000000000000000000000000000000000000000000000000000000000000000000000000000000000002000233165343                  
3030003MX91AC0P00170        0      91  ACOSTCB15     0         0000012725030000000637274260000008109334113000000060343630000000767874502100000000216249160033671800410000061000000000000000000000000000000000000000000000000000000000000000000006372742600000030000000000000000001000000000000003000000000000000000000000000000000000                  
3030002USP3691NBF610        0      D2SPLIVEF61261006 0         0000000138840000190818576220000026493251123000018295836242000002540193903800000001398093420003131800110360041035001103600410350000000000000000000000000000000000000000000000000100000000000000000525144000000000010000000000000000052514400000000000000000000000000000                  
3030002MX91AC1J00480        0      91  ACBE   24-2L  0         0000006000000000001000000000000006000000000000000104850022000000629100132000000000853666800023141800110000041000001100000410000000000000000000000000000000000000000000000000000010000000000000064000000000000000001000000000000006400000000000000000000000000000000000                  
3030011MX1RAR0Z00070        0      1R  ARTHACK10     0         0000008796150000000544406600000004788682094000000111190840000000978051307300000000000000000000001800000000000000000000000000000000000000000000000000000000000000000000000000000005444066000000024400000000000000001000000000000002440000000000000000000000000000000000                  
3030001XS25530721530        0      D8  IFC1147ZERO   0         0000000117320000031500000000000003695580000000003582802421000000420334380000000000000000000080150800110280051028001102800510280000000000000000000000000000000000000000000000002500000000000000000200000000000000250000000000000000020000000000000000000000000000000000                  
3030002MX91BI0Y00B80        0      91  BIMBO  23L    0         0000054483860000001000000000000054483860000000000101612816000005536258441100000025311387040027311800110000041000005100200110000000000000000000000000000000000000000000000000000010000000000000120000000000000000001000000000000012000000000000000000000000000000000000                  
3030003MX91LE0100030        0      91  LEPCB  18     0         0000020614220000000747251460000015404006063000000073943247000001524282361200000001321150930076311800410000061000000000000000000000000000000000000000000000000000000000000000000007472514700000045000000000000000001000000000000004500000000000000000000000000000000000                  
3030003MX91FR0500020        0      91  FRISACB17     0         0000007235140000000612300000000004430076228000000059406378000000429813461700000000364373950023441800410000061000000000000000000000000000000000000000000000000000000000000000000006122999900000010000000000000000001000000000000001000000000000000000000000000000000000                  
3030011MX1RTU0500090        0      1R  TUCK   18     0         0000162721080000000067861020000011042418208000000005342861000000869396112200000000000000000081101800000000000000000000000000000000000000000000000000000000000000000000000000000000000000000000368399958000000000000000000000000000500000000000000000000000000000000000                  
3030002MX94BB1U00470        0      94  BBVAMX 23-3   0         0000008841600000001000000000000008841600000000000105874961000000936104055200000000528137950017991800110000041000001100000410000000000000000000000000000000000000000000000000000010000000000000036000000000000000001000000000000003600000000000000000000000000000000000                  
3030011MX1RPB0300080        0      1R  PBFF1CK12     0         0000008508420000000485233520000004128570623000000055175173000000469453545500000000000000000002481800000000000000000000000000000000000000000000000000000000000000000000000000000009306830400000026812471000000000001000000000000000422000000000000000000000000000000000                  
3030004MX91LA0100640        0      91  LAB    23-2   0         0000004429250000000999986310000004429189361000000100379432000000444605599200000000164177680004881800410010061001004100100610010000000000000000000000000000000000000000000000000010000000000000022000000000000000001000000000000002200000000000000000000000000000000000                  
3030002MX91HE0100B40        0      91  HERDEZ 22L    0         0000007875000000001000000000000007875000000000000102623407000000808159330100000003316030990023931800110020041002001100300410020000000000000000000000000000000000000000000000000010000000000000015000000000000000001000000000000001500000000000000000000000000000000000                  
3030002MX0MGO0000P20        0      M   BONOS  310529 0         0000252948550000000985549710000249293369044000000097191338000024584408019700000095294850230020091800110000041000001100000410000000000000000000000000000000000000000000000000000010000000000004771900237000000000001000000000000381893550600000000000000000000000000000                  
3030002MX91AC1J00060        0      91  ACBE   17     0         0000023316950000000995204490000023205133384000000099669221000002323982242600000004214669290006451800110000041000001100000410000000000000000000000000000000000000000000000000000010000000000000060000000000000000001000000000000006000000000000000000000000000000000000                  
3030002MX91FU0000I10        0      91  FUNO   25-2L  0         0000005946430000001000000000000005946430000000000104457719000000621150514000000003396336790023671800410000061000004100000610000000000000000000000000000000000000000000000000000010000000000000090000000000000000001000000000000009000000000000000000000000000000000000                  
3030011MX1RAX0700050        0      1R  AXIS2CK14     0         0000174670840000000263791480000046076679798000000042818063000007479067031400000000000000000003281800000000000000000000000000000000000000000000000000000000000000000000000000000000000000000000098044705000000000000000000000000001200000000000000000000000000000000000                  
3030004MX91ME0900040        0      91  MEGA   22     0         0000006167340000001000000000000006167340000000000100061744000000617114796200000000372815700005891800410000061000004100000610000000000000000000000000000000000000000000000000000010000000000000025276000000000000001000000000000002527600000000000000000000000000000000                  
3030002MX91DA0200220        0      91  DANHOS 17     0         0000014271180000000998434150000014248833411000000098549616000001406419308900000005078161070005781800410000061000004100000610000000000000000000000000000000000000000000000000000010000000000000025000000000000000001000000000000002500000000000000000000000000000000000                  
3030002USP3691NBM130        0      D2SPLIVEM13370122 0         0000000045690000208187000000000009512064030000019650932960000000897851126900000001937557790040741800110360041035001103600410350000000000000000000000000000000000000000000000000100000000000000000500000000000000010000000000000000050000000000000000000000000000000000                  
3030011MXFFFE0K00060        0      FF  FEXI   21     0         0000345025170000000190000000000065554782300000000017500000000006037940475000000000000000000000001800000000000000000000000000000000000000000000000000000000000000000000000000000000000000000001166260453000000000000000000000000116626045300000000000000000000000000000                  
3030011MX1RLO0800280        0      1RSPLOCKXPI22-3   0         0000010913710000018422920110000201062407468000002217766196000024204057110900000000000000000022411800000000000000000000000000000000000000000000000000000000000000000000000000000000000000000000001091371000000000000000000000000000000493800000000000000000000000000000                  
3030002USP26054AB590        0      D2SPTERRB59290718 0         0000000117010000192887978870000022569822408000018336916524000002145602602500000003816358400013291800510370041036000000000000000000000000000000000000000000000000000000000000000100000000000000000500000000000000010000000000000000050000000000000000000000000000000000                  
3030011MX1RAC1700160        0      1R  ACONCK 19     0         0000000226250000066737912010000015099452593000005585997531000001263831941400000000000000000003611800000000000000000000000000000000000000000000000000000000000000000000000000000000000000000000000126994000000000000000000000000000000900000000000000000000000000000000                  
3030011MX1RWS0000030        0      1R  WSMXCK 13     0         0000000492670000063989667070000031525789275000004210628905000002074450542600000000000000000003161800000000000000000000000000000000000000000000000000000000000000000000000000000000000000000000000676886000000000000000000000000000000874000000000000000000000000000000                  
3030006MXP4952112620        23924711   BIMBO  A      0         0000009785000000000472957040000004627884620000000057590000000000563518150000000000000000000000001800000000000000000000000000000000000000000000000000000000000000000000000000000000000000000004304744119000000000000000000000000432748233300000000000000000000000000000                  
3030002MX91ME0900460        0      91  MEGA   24-2X  0         0000003484610000001000000000000003484610000000000103821948000000361778998200000000629165850019371800410000061000004100000610000000000000000000000000000000000000000000000000000010000000000000023230714000000000001000000000000002323071400000000000000000000000000000                  
3030002MX91GP0200220        0      91  GPH    20     0         0000002406430000001000000000000002406430000000000098386356000000236759878700000000307621890006631800410000061000004100000610000000000000000000000000000000000000000000000000000010000000000000025000000000000000001000000000000002500000000000000000000000000000000000                  
3030006MX01ME0900030        B292SM81   MEGA   CPO    0         0000015229070000000448242620000006826318233000000051430000000000783231070100000000000000000000001800000000000000000000000000000000000000000000000000000000000000000000000000000000000000000000471262594000000000000000000000000172135567300000000000000000000000000000                  
3030003MX95CF1800000        0      95  CFEHCB 06     0         0000015797050000000366808760000005794496255000000035805253000000565617371900000000565998820039631800410000051000004100000510000000000000000000000000000000000000000000000000000003666666700000025000000000000000001000000000000002500000000000000000000000000000000000                  
3030011MX1RVM0000000        0      1R  VMZCK  17     0         0000194009390000000037671120000007308551953000000001346567000000261246642300000000000000000007531800000000000000000000000000000000000000000000000000000000000000000000000000000000000000000000367243700000000000000000000000000000034000000000000000000000000000000000                  
3030006MX01VI0C00060        0      1   VISTA  A      0         0000005889100000001737013680000010229447280000000888250000000005230993075000000000000000000000001800000000000000000000000000000000000000000000000000000000000000000000000000000000000000000000104256410000000000000000000000000009519588500000000000000000000000000000                  
3030011MXCFFU0000010        0      CF  FUNO   11     0         0000392793360000000279211650000109672481171000000026800000000010526862048000000000000000000000001800000000000000000000000000000000000000000000000000000000000000000000000000000000000000000003810649852000000000000000000000000381445806400000000000000000000000000000                  
3030002XS24171102150        0      JI  CABEI  2-21   0         0000018960000000001000000000000018960000000000000094563606000001792925969800000006809010000021973600110000051000001100000410000000000000000000000000000000000000000000000000000010000000000000034285710000000000001000000000000003428571000000000000000000000000000000                  
3030002MX95CF0500D00        0      95  CFE    20U    0         0000000340720000006554856000000002233370536000000866489914000000295230443500000000162262860010511800110000041000004100000510000000000000000000000000000000000000000000000000000010000000000000005682979000000000001000000000000000568297900000000000000000000000000000                  
3030002MX91FS0000220        0      91  FSHOP  17-2   0         0000007213430000001000000000000007213430000000000098539407000000710807114600000002469698100005931800410040061002004100400610020000000000000000000000000000000000000000000000000010000000000000016000000000000000001000000000000001600000000000000000000000000000000000                  
3030006MX01PI0000050        0      1   PINFRA *      0         0000003692990000001637734150000006048135843000000250550000000000925278644500000000000000000000001800000000000000000000000000000000000000000000000000000000000000000000000000000000000000000000380123523000000000000000000000000038012352300000000000000000000000000000                  
3030002US91086QBB320        0      D1SPUMS44F 2044F  0         0000000000530000268419026420000000142262084000030569404222000000016201784200000000020267780066761800410370011036004103700110360000000000000000000000000000000000000000000000000200000000000000001857696000000000020000000000000000185769600000000000000000000000000000                  
3030002MX94SC3O00L60        0      94  SCOTIAB24-3   0         0000001984810000001000000000000001984810000000000104548383000000207508676100000000414406300021081800110000041000001100000410000000000000000000000000000000000000000000000000000010000000000000039696111000000000001000000000000003969611100000000000000000000000000000                  
3030003MX95CF1600A30        0      95  CFECB  12     0         0000033226010000000566712870000018829607608000000051935663000001725614858200000003221693610061081800410000051000004100000510000000000000000000000000000000000000000000000000000005666666700000135000000000000000001000000000000013500000000000000000000000000000000000                  
3030002USP1507SAL180        0      D2SPBSMXL18291210 0         0000000028650000203001000000000005815978650000019024273152000000545045425800000001370359090014741800410350051034004103500510340000000000000000000000000000000000000000000000000100000000000000000700000000000000010000000000000000070000000000000000000000000000000000                  
3030011MX1RCA2700060        0      1R  CAT2CK 15     0         0000563919470000000107368410000060547134944000000004935000000002782942584400000000000000000003051800000000000000000000000000001120251126000001000000000000000000000130000000000000000000000001187499901000000000000000000000000002550000000000000000000000000000000000                  
3030011MX1RAC1700080        0      1R  ACONCK 14     0         0000000111630000123821809460000013822228590000008523793097000000951511023400000000000000000003611800000000000000000000000000000000000000000000000000000000000000000000000000000000000000000000000161501000000000000000000000000000000400000000000000000000000000000000                  
3030006MXP0016610180        26393491   ASUR   B      0         0000003257560000003097226820000010089402202000000552050000000001798335998000000000000000000000001800000000000000000000000000000120251126000001000000000000000000015000000000000000000000000000277050000000000000000000000000000030000000000000000000000000000000000000                  
3030003USP66208AA020        0      D2SPMEXGA02061232 0         0000000123940000069741932190000008643815076000010304582680000001277149977400000003258351120025661800510360011035005103600000000000000000000000000000000000000000000000000000000054859000000000000964576000000000010000000000000000091619400000000000000000000000000000                  
30314120           0        0      MDT INVESTC00000012         0000000000010000000000000000000049646178860000000000000000000009709744635000000000000000000000000800000000000000000000000000000000000000000000000000000000000000000000000000000000000000000000000000000000000000000000000000000000000000000000000000000002000135781857                  
3030002MXCDNA0R00600        0      CD  NAFF   21X    0         0000004676480000001000000000000004676480000000000097199145000000454549857600000000091074450021741800110000041000001100000410000000000000000000000000000000000000000000000000000010000000000000065000000000000000001000000000000006500000000000000000000000000000000000                  
3030002MX0SGO0000E30        0      S   UDIBONO461108 0         0000028434830000006682927790000190027915715000000809798869000023026493174200000047571851620076511800110000041000001100000410000000000000000000000000000000000000000000000000000010000000000000423454300000000000001000000000000040612403900000000000000000000000000000                  
3030011MXFEFI2900020        0      FESPFIEMEX 25-2D  0         0000010797180000009755501730000105331908134000001893046485000020439563646900000000000000000000001800000000000000000000000000000000000000000000000000000000000000000000000000000000000000000000021393045000000000000000000000000002139304500000000000000000000000000000                  
3030011MXFFXF0000050        0      FF  XFRA   22     0         0000145558360000000200000000000029111672000000000019629121000002857182661000000000000000000000001800000000000000000000000000000000000000000000000000000000000000000000000000000000000000000000679104513000000000000000000000000042167980900000000000000000000000000000                  
3030002MX91GA0000D20        0      91  GAP    22-2   0         0000012530390000001000000000000012530390000000000103358604000001295123618000000002591668080022891800110000051000001100000510000000000000000000000000000000000000000000000000000010000000000000060000000000000000001000000000000003000000000000000000000000000000000000                  
3030011MX1RAM2000010        0      1R  AMICK  18     0         0000258980620000000100969290000026149089155000000009739557000002522356510400000000000000000081001800000000000000000000000000000000000000000000000000000000000000000000000000000000000000000000247600034000000000000000000000000000500000000000000000000000000000000000                  
3030006MXP3706410130        28223981   GFINBURO      0         0000022677210000000381303130000008646891178000000044150000000001001198821500000000000000000000001800000000000000000000000000000000000000000000000000000000000000000000000000000000000000000006050956195000000000000000000000000608312390200000000000000000000000000000                  
30314120           0        0      MDT BLACKRK00000012         0000000000010000000000000000000125837714589000000000000000000020192536501300000000000000000000000800000000000000000000000000000000000000000000000000000000000000000000000000000000000000000000000000000000000000000000000000000000000000000000000000000002000163467090                  
3030002MX91AC1J00300        0      91  ACBE   21-2V  0         0000019792500000001000000000000019792500000000000096836195000001916630389500000000853551560008871800110000041000001100000410000000000000000000000000000000000000000000000000000010000000000000030000000000000000001000000000000003000000000000000000000000000000000000                  
3030011MX1RTH0000010        0      1R  THERMCK17     0         0000178681260000000105375960000018828709046000000007535761000001346499270500000000000000000005541800000000000000000000000000000000000000000000000000000000000000000000000000000000000000000000307739691000000000000000000000000000661250000000000000000000000000000000                  
3030006MX01GE0E00040        0      1   GENTERA*      0         0000033045140000000210066850000006941688370000000044200000000001460595188000000000000000000000001800000000000000000000000000000000000000000000000000000000000000000000000000000000000000000001579243876000000000000000000000000164821153600000000000000000000000000000                  
3030002MX91FE0100760        0      91  FERROMX21     0         0000008823780000001000000000000008823780000000000096814870000000854273113600000000281969180008941800110000041000001100000410000000000000000000000000000000000000000000000000000010000000000000016920000000000000001000000000000001692000000000000000000000000000000000                  
3030011MX1RIN3100250        0      1R  INFRACK17     0         0000000012600000469269722040000005912798498000050769742780000000639698759000000000000000000145091800000000000000000000000000000000000000000000000000000000000000000000000000000000000000000000000031141000000000000000000000000000000389800000000000000000000000000000                  
3030002MXCDKE0500010        0      CD  KEXIM  19     0         0000036436230000001000000000000036436230000000000100063201000003645925806200000009551050830002454300510000061000006100000000000000000000000000000000000000000000000000000000000010000000000000070000000000000000001000000000000007000000000000000000000000000000000000                  
3030002MX91BI0Y00C60        0      91  BIMBO  25     0         0000017500000000001000000000000017500000000000000105512909000001846475907500000005085888500022621800110000041000005100200110000000000000000000000000000000000000000000000000000010000000000000127620000000000000001000000000000012762000000000000000000000000000000000                  
3030002MX95CF0500O70        0      95  CFE    222UV  0         0000000385710000008597406100000003316105508000001004384099000000387400990800000000080533200061751800410000051000004100000510000000000000000000000000000000000000000000000000000010000000000000004344727000000000001000000000000000434472700000000000000000000000000000                  
3030011MXFEFC0C00030        0      FE  FCFE   18     0         0000341740420000000204774090000069979582425000000021800000000007449941156000000000000000000000001800000000000000000000000000000000000000000000000000000000000000000000000000000000000000000000853195411000000000000000000000000085319541100000000000000000000000000000                  
3030002MX91GC0000940        0      91  GCARSO 24-2   0         0000013671270000001000000000000013671270000000000107470179000001469253834100000000079900370020001800410000061000004100000610000000000000000000000000000000000000000000000000000010000000000000055000000000000000001000000000000005500000000000000000000000000000000000                  
3030003MX95FO0C00330        0      95  FOVISCB18U    0         0000003324110000002083357390000006925309125000000301523190000001002296251100000000391254060078861800510000061000001100000000000000000000000000000000000000000000000000000000000003453524100000019892100000000000001000000000000001989210000000000000000000000000000000                  
3030011MXFFFM0400120        0      FF  FMX    23     0         0000092158460000000562510410000051840093535000000035310000000003254115222600000000000000000000001800000000000000000000000000000000000000000000000000000000000000000000000000000000000000000000418124540000000000000000000000000026527647500000000000000000000000000000                  
3030002MX91AM0500P30        0      91  AMX    22X    0         0000054826670000001000000000000054826670000000000102831845000005637927631300000000434956420025451800110000041000001100000410000000000000000000000000000000000000000000000000000010000000000000146791657000000000001000000000000014679165700000000000000000000000000000                  
3030007IE00B9F5YL180        0      1ISPVDPX   N      0         0000001404640000004169062480000005856031918000000570345274000000801129785700000000000000000000000800000000000000000000000000000000000000000000000000000000000000000000000000000000000000000000046898090000000000000000000000000004484778700000000000000000000000000000                  
3030002XS13693231490        0      D1SPMEX149 310223 0         0000000037100000202306183290000007505559400000021002679116000000779199395200000002020750250019141800410370011036004103700110360000000000000000000000000000000000000000000000000100000000000000001700000000000000010000000000000000170000000000000000000000000000000000                  
3030002MX91LI0500960        0      91  LIVEPOL20     0         0000004000000000001000000000000004000000000000000095403326000000381613304000000000954677600017131800110000041000001100000410000000000000000000000000000000000000000000000000000010000000000000050000000000000000001000000000000005000000000000000000000000000000000000                  
3030003MX95CD0000020        0      95  CDVITOT11U    0         0000000441640000000230228490000000101678109000000041411203000000018288843700000000030969120049831800110000051000000000000000000000000000000000000000000000000000000000000000000000505425100000004381081000000000001000000000000000438108100000000000000000000000000000                  
3030002MX91BW0200100        0      91  BWMX   21-2X  0         0000005894970000001000000000000005894970000000000097488433000000574691387900000001285267340009981800410020061002004100200610020000000000000000000000000000000000000000000000000010000000000000010000000000000000001000000000000001000000000000000000000000000000000000                  
3030002MX95CF0500A60        0      95  CFE    17U    0         0000001327860000005831077800000007742854971000000831421448000001104011283900000000706001520024991800110000041000004100000510000000000000000000000000000000000000000000000000000010000000000000022864142000000000001000000000000002286414200000000000000000000000000000                  
3030002MXCDBA1C00C90        0      CD  BANOB  21-3X  0         0000018816590000001000000000000018816590000000000093641318000001762010287900000002697619730019291800110000041000001100000410000000000000000000000000000000000000000000000000000010000000000000043000000000000000001000000000000004300000000000000000000000000000000000                  
3030002XS02801442200        0      D8  MER    5-06   0         0000000006950001000000000000000006950000000000100240424159000000696670947900000002828456940003650800110340051032005103600000000000000000000000000000000000000000000000000000010000000000000000000015000000000001000000000000000000001500000000000000000000000000000000                  
3030002MX95FE0402I40        0      95  FEFA   24V    0         0000008400000000001000000000000008400000000000000106237380000000892393992000000002080749720020971800110000061000001100000610000000000000000000000000000000000000000000000000000010000000000000067653839000000000001000000000000006765383900000000000000000000000000000                  
3030006MXP4611810850        23934521   GCARSO A1     0         0000004914030000001319101620000006482104943000000125810000000000618234114300000000000000000000001800000000000000000000000000000000000000000000000000000000000000000000000000000000000000000002254549737000000000000000000000000274500000000000000000000000000000000000                  
3030011MX1RNI0100130        0      1R  NIKEPI 25     0         0000051208200000001000000000000051208200000000000099997488000005120691365000000000000000000047701800000000000000000000000000000000000000000000000000000000000000000000000000000000000000000000005120820000000000000000000000000000512080000000000000000000000000000000                  
3030011MX1RCA1S00150        0      1R  CARZACK18     0         0009983886640000000001015390000010137569666000000000056543000000564518902300000000000000000007881800000000000000000000000000000000000000000000000000000000000000000000000000000000000000000024199495862000000000000000000000000000494000000000000000000000000000000000                  
3030002MX95CF0500C20        0      95  CFE    20-2   0         0000001425000000001000000000000001425000000000000099993932000000142491353100000000132754570003231800110000041000004100000510000000000000000000000000000000000000000000000000000010000000000000032750000000000000001000000000000003275000000000000000000000000000000000                  
3030002MXCDBA0300990        0      CD  BACMEXT21-3   0         0000009490000000001000000000000009490000000000000093598892000000888253485100000000328933840019851800110000051000001100000410000000000000000000000000000000000000000000000000000010000000000000045360000000000000001000000000000004536000000000000000000000000000000000                  
3030002MX91FE0200670        0      91  FEMSA  22-2L  0         0000018480000000001000000000000018480000000000000103481902000001912345549000000000792586870025321800110000041000001100000410000000000000000000000000000000000000000000000000000010000000000000084463846000000000001000000000000008446384600000000000000000000000000000                  
3030002XS28007201090        0      JI  CABEI  2-24S  0         0000006204700000001006193750000006243130337000000105524999000000654750961300000000017752270030931800110000051000001100000410000000000000000000000000000000000000000000000000000010000000000000030000000000000000001000000000000003000000000000000000000000000000000000                  
3030011MX1RF10000030        0      1R  F1CC   15     0         0000009920160000000327586220000003249707675000000059965327000000594865638300000000000000000002091800000000000000000000000000000000000000000000000000000000000000000000000000000010000000000000115999985000000000001000000000000001200000000000000000000000000000000000                  
3030003MX91FI1700090        0      91SPFIBRAPL20DV   0         0000002799570000019845500000000055558866435000001684954527000004717148145200000010402590690025531800410000061000001100000410000000000000000000000000000000000000000000000000000010000000000000003750000000000000001000000000000000375000000000000000000000000000000000                  
3030002MX90GD0000520        0      90  GDFCB  07     0         0000003137830000001000000000000003137830000000000101467502000000318387771800000000022618420007251800110000041000004100000510000000000000000000000000000000000000000000000000000010000000000000005750000000000000001000000000000000575000000000000000000000000000000000                  
3030002MX91ME0900120        0      91  MEGA   22-2   0         0000012740000000001000000000000012740000000000000104034422000001325398536300000004830512410024091800410000061000004100000610000000000000000000000000000000000000000000000000000010000000000000044724000000000000001000000000000004472400000000000000000000000000000000                  
3030006MX01GC2M00060        29466631   GCC    *      0         0000005833590000001228244790000007165076532000000180420000000001052496307800000000000000000000001800000000000000000000000000000000000000000000000000000000000000000000000000000000000000000000337400000000000000000000000000000033740000000000000000000000000000000000                  
3030003MX91CP0300090        0      91  CPXACB 24U    0         0000001089210000008150167400000008877243832000000939149131000001022930625000000002872268770104271800410000061000000000000000000000000000000000000000000000000000000000000000000009967000000000005778295000000000001000000000000000577829500000000000000000000000000000                  
3030002MX94BI0000G30        0      94  BINTER 16U    0         0000001230910000005476173000000006740676107000000863269329000001062606849800000000818789150003081800410000061000005100500410040000000000000000000000000000000000000000000000000010000000000000003652185000000000001000000000000000365218500000000000000000000000000000                  
3030002MX91DA0200300        0      91  DANHOS 23L    0         0000003337770000001000000000000003337770000000000104992524000000350440896800000001028848910017161800410000061000004100000610000000000000000000000000000000000000000000000000000010000000000000025000000000000000001000000000000002500000000000000000000000000000000000                  
3030002MX91TE0000710        0      91  TELMEX 07     0         0000032559770000001001030630000032593327053000000089903169000002927226504900000004461049900041271800510010011000005100100110000000000000000000000000000000000000000000000000000010000000000000050000000000000000001000000000000005000000000000000000000000000000000000                  
3030011MX1RFF0500040        0      1R  FFBANCK18     0         0000017375960000000680180240000011818784651000000048137419000000836433867000000000000000000082261800000000000000000000000000000000000000000000000000000000000000000000000000000000000000000000022199995000000000000000000000000000800000000000000000000000000000000000                  
3030002MX95FO0M00230        0      95  FONADIN20U    0         0000010059910000006634884070000066746336569000000822331210000008272577962800000009509156080010991800110000041000001100000410000000000000000000000000000000000000000000000000000010000000000000011312340000000000001000000000000001131234000000000000000000000000000000                  
3030002MX95PE1X00J50        0      95  PEMEX  14-2   0         0000009963370000000975771380000009721971324000000099334769000000989709057400000000289435900003501800110000051000005100600110000000000000000000000000000000000000000000000000000010000000000000314013888000000000001000000000000031401388800000000000000000000000000000                  
3030007IE00B4L5YX210        0      1ISPIJPA   N      0         0000009265370000009455384270000087607633745000001255429140000011632015490900000000000000000000001600000000000000000000000000000000000000000000000000000000000000000000000000000000000000000000100385796000000000000000000000000009627948300000000000000000000000000000                  
3030002XS11981034560        0      D1SPMEX456 450306 0         0000000010630000164296413920000001746470880000015746110255000000167381152000000000494221170070391800410370011036004103700110360000000000000000000000000000000000000000000000000100000000000000000992891000000000010000000000000000099289100000000000000000000000000000                  
3030006MXP0013910120        25630171   ALSEA  *      0         0000002271850000000528841950000001201449592000000049900000000000113365315000000000000000000000001800000000000000000000000000000000000000000000000000000000000000000000000000000000000000000000802139384000000000000000000000000080955847000000000000000000000000000000                  
3030011MX1RWS0100020        0      1R  WSMX2CK16     0         0000000388800000094606503330000036783008493000011947232726000004645084083900000000000000000003861800000000000000000000000000000000000000000000000000000000000000000000000000000000000000000000000704688000000000000000000000000000001400000000000000000000000000000000                  
3030002MX2UCB1900090        0      2U  CBIC004310116 0         0000013528600000006790628030000091867690396000000932685336000012617926836600000022916448640018761800110000041000001100000410000000000000000000000000000000000000000000000000000010000000000000053189973000000000001000000000000005318997300000000000000000000000000000                  
3030002XS26457370030        0      JE  AMX    0131X  0         0000000348620000099931604930000034838156110000010250222003000003573432394700000011039633340018871800110000041000001100000410000000000000000000000000000000000000000000000000001000000000000000002300000000000000100000000000000000170000000000000000000000000000000000                  
3030006MX01R00000060        0      1   R      A      0         0000008172800000001076456820000008797666264000000139130000000001137081664000000000000000000000001800000000000000000000000000000120251126000001000000000000000000003350000000000000000000000000327931333000000000000000000000000038924841900000000000000000000000000000                  
3030002MXCDBA0300H70        0      CD  BACMEXT23-2X  0         0000025941450000001000000000000025941450000000000104252282000002704455360900000007067026880015341800410000051000001100000410000000000000000000000000000000000000000000000000000010000000000000060000000000000000001000000000000006000000000000000000000000000000000000                  
3030002MX94BB1U00130        0      94  BBVAMX 23     0         0000028135800000001000000000000028135800000000000104648183000002944360347300000007530546870015371800110000041000001100000410000000000000000000000000000000000000000000000000000010000000000000061310000000000000001000000000000006131000000000000000000000000000000000                  
3030003MX91ZO0000060        0      91  ZONALCB06U    0         0000001630220000000497357100000000810801499000000102589523000000167243492200000000437648700029391800410010061001000000000000000000000000000000000000000000000000000000000000000001253072400000004092038000000000001000000000000000329158000000000000000000000000000000                  
3030011MX1RPM0500110        0      1R  PMCAPCK20     0         0000407732640000000068128230000027778104830000000005504920000002244535564600000000000000000015101800000000000000000000000000000000000000000000000000000000000000000000000000000000000000000000880638703000000000000000000000000000012000000000000000000000000000000000                  
3030011MX1RCI0C00090        0      1R  CI3CK  11     0         0000008725240000000459409820000004008460963000000009556275000000083380792900000000000000000000001800000000000000000000000000000000000000000000000000000000000000000000000000000004594098200000015300000000000000001000000000000001530000000000000000000000000000000000                  
3030011MX1RWS0100100        0      1R  WSMX2CK18     0         0000000001970006639784263960000013080375000000595610624666000001173352930600000000000000000009931800000000000000000000000000000000000000000000000000000000000000000000000000000000000000000000000003043000000000000000000000000000000182000000000000000000000000000000                  
3030003USP23210AA820        0      D2SPCEOAA82311231 0         0000000038450000076459466630000002939866492000010259529008000000394478890400000001213097090022251800410370011036000000000000000000000000000000000000000000000000000000000000000058098400000000000235096000000000010000000000000000021473400000000000000000000000000000                  
3030011MX1RFF0400050        0      1R  FFLA4CK15     0         0000001663850000000000027600000000000045930000002272542460000003781169772100000000000000000014881800000000000000000000000000000000000000000000000000000000000000000000000000000000000000000000001114259000000000000000000000000000007800000000000000000000000000000000                  
3030002XS02788597710        0      D2  AMXL771181236 0         0000000001680000958192077380000001609762690000087623082710000000147206779000000000639576000040391800510350011034005103500410340000000000000000000000000000000000000000000000010000000000000000000006445000000001000000000000000000000644500000000000000000000000000000                  
3030011MX1RCA2600070        0      1R  CATMRCK17     0         0000134077640000000167018550000022393452993000000009690134000001299230298000000000000000000006201800000000000000000000000000000000000000000000000000000000000000000000000000000000000000000000378286039000000000000000000000000001151850000000000000000000000000000000                  
3030006MX01WA0000380        0      1   WALMEX *      0         0000102038660000000396995910000040508931077000000061810000000006307009574600000000000000000000001800000000000000000000000000000000000000000000000000000000000000000000000000000000000000000017299727303000000000000000000000001744632217700000000000000000000000000000                  
3030003MX91TO0000C80        0      91  TOYOTA 22-2   0         0000002500000000001000000000000002500000000000000101296744000000253241860000000000931222250004141800110000041000001100000410000000000000000000000000000000000000000000000000000010000000000000010000000000000000001000000000000001000000000000000000000000000000000000                  
3030006MXP3707110140        24210411   GFNORTEO      0         0000050004440000000848722420000042439889126000000176700000000008835784548000000000000000000000001800000000000000000000000000000000000000000000000000000000000000000000000000000000000000000002813156594000000000000000000000000288345659400000000000000000000000000000                  
3030011MX1RAI0100260        0      1R  AINDACK18A    0         0002244252980000000008202710000018408956362000000001142122000002563210702000000000000000000026591800000000000000000000000000000000000000000000000000000000000000000000000000000000000000000005364078356000000000000000000000000000880000000000000000000000000000000000                  
3030011MX1RAR1B00040        0      1R  ARTH5CK17     0         0000004736180000000808468010000003829050000000000046755225000000221441161500000000000000000007431800000000000000000000000000000000000000000000000000000000000000000000000000000000000000000000014426125000000000000000000000000000890000000000000000000000000000000000                  
3030002MX0SGO0000F00        0      S   UDIBONO281130 0         0000145468150000007121599470001035965899287000000866303619000126019584794200000243370164220010991800110000041000001100000410000000000000000000000000000000000000000000000000000010000000000000453980590000000000001000000000000048756982600000000000000000000000000000                  
3030011MX1RCL0100110        0      1R  CLNYCK 15-2   0         0000032665910000000606928260000019825863945000000000528095000000017250703700000000000000000003071800000000000000000000000000000000000000000000000000000000000000000000000000000000000000000000045713126000000000000000000000000000609400000000000000000000000000000000                  
3030002MXCDBA1C00P10        0      CD  BANOB  23-2X  0         0000014694340000001000000000000014694340000000000104065390000001529172222900000002937724780015621800410000051000001100000410000000000000000000000000000000000000000000000000000010000000000000036900000000000000001000000000000003690000000000000000000000000000000000                  
3030006MXP2256115670        24064571   CEMEX  CPO    0         0000302321750000000128944230000038982644483000000019340000000005846902645000000000000000000000001800000000000000000000000000000000000000000000000000000000000000000000000000000000000000000015137459907000000000000000000000001513745990700000000000000000000000000000                  
3030003MX90CH1C00000        0      90  CHIACB 07U    0         0000003866110000002404837850000009297367652000000554350819000002143181244800000003196050120042281800110000041000005100500110040000000000000000000000000000000000000000000000000006224065300000010999149000000000001000000000000001099914900000000000000000000000000000                  
3030002XS09310637790        0      JE  TLEVISA0443   0         0000000137910000092431127000000012747176725000006144649492000000847408611400000000361056050063771800510020041001005100200410010000000000000000000000000000000000000000000000001000000000000000000650000000000000100000000000000000065000000000000000000000000000000000                  
3030007US46432F38810        0      1ISPVLUE   *      0         0000006676890000022502427590000150246233755000002422259175000016173158063000000000000000000000000800000000000000000000000000000000000000000000000000000000000000000000000000000000000000000000065900000000000000000000000000000006540000000000000000000000000000000000                  
3030002MXMSGO000001MSGO000000      MS  BONOS  350524 0         0000092136480000000943027060000086887193444000000094014127000008662130732100000035830854360034651800110000041000001100000410000000000000000000000000000000000000000000000000000010000000000000230000000000000000001000000000000023000000000000000000000000000000000000                  
3030011MXCFDA0200050        0      CF  DANHOS 13     0         0000125810400000000257652090000032415311994000000028650000000003604467960000000000000000000000001800000000000000000000000000000000000000000000000000000000000000000000000000000000000000000001604073701000000000000000000000000158230934300000000000000000000000000000                  
3030007US35473P76930        0      1ISPFLIN   *      0         0000010915640000007036650540000076809544126000000717414285000007831036065900000000000000000000000800000000000000000000000000000000000000000000000000000000000000000000000000000000000000000000066650000000000000000000000000000004515000000000000000000000000000000000                  
3030002US91086QAZ190        0      D1SPUMS110F2110F  0         0000000010040000304521009660000003057390937000031589124905000000317154814000000000264742560309991800410370011036004103700110360000000000000000000000000000000000000000000000000200000000000000001338997000000000020000000000000000133899700000000000000000000000000000                  
3030007IE00BKX55S420        0      1ISPVERX   N      0         0000002873630000004484276140000012886150440000000947915011000002723957013100000000000000000000002100000000000000000000000000000000000000000000000000000000000000000000000000000000000000000000071775694000000000000000000000000005156104800000000000000000000000000000                  
3030002XS27015594400        0      JE  AMX    0134X  0         0000000425330000101503791430000043172607608000010578740132000004499455540300000014237921750029861800110000041000001100000410000000000000000000000000000000000000000000000000001000000000000000003000000000000000100000000000000000200000000000000000000000000000000000                  
3030011MXCFFM0100000        0      CF  FMTY   14     0         0000237318650000000118584240000028142250692000000014300000000003393656695000000000000000000000001800000000000000000000000000000000000000000000000000000000000000000000000000000000000000000002437674664000000000000000000000000063802478500000000000000000000000000000                  
30314120           0        0      MDT LOOMISS00000012         0000000000010000000000000000000034133973508000000000000000000013344986382600000000000000000000000800000000000000000000000000000000000000000000000000000000000000000000000000000000000000000000000000000000000000000000000000000000000000000000000000000002000262630423                  
3030002MXCDBA0300Q80        0      CD  BACMEXT25-2X  0         0000008010000000001000000000000008010000000000000106318078000000851607804800000001756859730033781800410000061000001100000410000000000000000000000000000000000000000000000000000010000000000000110427671000000000001000000000000011042767100000000000000000000000000000                  
3030003MX95TF0300160        0      95  TFOVICB15-2U  0         0000005529570000001614020140000008924837318000000263538209000001457252974300000000419250890071201800110000041000001100000000000000000000000000000000000000000000000000000000000003054743600000010887119000000000001000000000000001088711900000000000000000000000000000                  
3030002MXCDBA0300E40        0      CD  BACMEXT22-3X  0         0000010616260000001000000000000010616260000000000101488656000001077429959100000001667637150023011800410000051000001100000410000000000000000000000000000000000000000000000000000010000000000000081140000000000000001000000000000008114000000000000000000000000000000000                  
3030007US92290836320        0      1ISPVOO    *      0         0000004449330000084067001390000374041831286000011463770325000051006097220100000000000000000000000800000000000000000000000000000000000000000000000000000000000000000000000000000000000000000001300259089000000000000000000000000106621269100000000000000000000000000000                  
3030011MX1RVE0T00090        0      1R  VEXCK  17     0         0000204151920000000033720240000006884052500000000002698355000000550874354100000000000000000006511800000000000000000000000000000000000000000000000000000000000000000000000000000000000000000000680599922000000000000000000000000000600000000000000000000000000000000000                  
3030011MXCFNE0400150        0      CF  NEXT   25     0         0000033235000000001000000000000033235000000000000098950000000003288603250000000000000000000000001800000000000000000000000000000000000000000000000000000000000000000000000000000000000000000000271567713000000000000000000000000019815000000000000000000000000000000000                  
3030011MX1RNG0100070        0      1R  NGPE2CK17     0         0001136494150000000011619190000013205141496000000001308440000001487034405600000000000000000007341800000000000000000000000000000000000000000000000000000000000000000000000000000000000000000001600799930000000000000000000000000000266666600000000000000000000000000000                  
3030002MX95FE0402L80        0      95  FEFA   24B    0         0000002148000000001000000000000002148000000000000106253378000000228232255900000001075109870018251800110000061000001100000610000000000000000000000000000000000000000000000000000010000000000000045000000000000000001000000000000004500000000000000000000000000000000000                  
3030006MXP4948K10560        23925451   GRUMA  B      0         0000002869420000002245153070000006442287113000000316890000000000909290503800000000000000000000001800000000000000000000000000000000000000000000000000000000000000000000000000000000000000000000345268815000000000000000000000000056335670900000000000000000000000000000                  
3030002MX91TR0H00070        0      91  TRAXION20     0         0000004139780000001000000000000004139780000000000096971237000000401439587500000000867421760006441800410040061002004100400610020000000000000000000000000000000000000000000000000010000000000000025000000000000000001000000000000002500000000000000000000000000000000000                  
3030002MX91AL2F00750        0      91  ALSEA  17-2   0         0000000443230000000953871190000000422784328000000098538527000000043675231300000000069734840006641800610040041003006100400410030000000000000000000000000000000000000000000000000010000000000000020000000000000000001000000000000002000000000000000000000000000000000000                  
3030002MX0SGO0000N40SGO0000N0      S   UDIBONO431112 0         0000113175750000006497653200000735376774382000000725738413000082135989195100000153842445290065591800110000041000001100000410000000000000000000000000000000000000000000000000000010000000000000400403112000000000001000000000000028786219600000000000000000000000000000                  
3030011MX1RIN3900010        0      1R  INMOBCK18     0         0488900704780000000000081270000039731635433000000000008978000004389350527500000000000000000009711800000000000000000000000000000000000000000000000000000000000000000000000000000000000000000334185209684000000000000000000000000000550000000000000000000000000000000000                  
3030002MX0SGO0000H60        0      S   UDIBONO501103 0         0000169245480000007318033220001238544045258000000806945353000136571853602300000283149955930091071800110000041000001100000410000000000000000000000000000000000000000000000000000010000000000000665309292000000000001000000000000067568909900000000000000000000000000000                  
3030002USP57908AF580        0      D2SPMXCHF58440917 0         0000000027520000131516526020000003619334796000014052052856000000386712494600000000576678880068691800510380011037005103800110370000000000000000000000000000000000000000000000000100000000000000000750000000000000010000000000000000075000000000000000000000000000000000                  
3030003XS10032651510        0      D2  CONM151351215 0         0000000331100000103427389890000034244808793000017947253038000005942335480900000015537869510036701800110000041000000000000000000000000000000000000000000000000000000000000000000200000000000000000816812000000000020000000000000000081681200000000000000000000000000000                  
3030011MX1RPL0Q00090        0      1R  PLA2CK 17     0         0000681136010000000027881680000018991215077000000000764231000000520545254100000000000000000005231800000000000000000000000000000000000000000000000000000000000000000000000000000000000000000001521485188000000000000000000000000000884400000000000000000000000000000000                  
3030011MXFFFV0000070        0      FF  FVIA   16     0         0000146721580000000298323050000043770429613000000018950000000002780373941000000000000000000000001800000000000000000000000000000000000000000000000000000000000000000000000000000000000000000001231460484000000000000000000000000123146048400000000000000000000000000000                  
3030007US46428720000        0      1ISPIVV    *      0         0000000222410000121709583960000027069428569000012529711110000002786733048000000000000000000000000800000000000000000000000000000000000000000000000000000000000000000000000000000000000000000001064450000000000000000000000000000100015000000000000000000000000000000000                  
3030006MXP0005110160        20434231   ALFA   A      0         0000071509140000000101849960000007283203030000000014250000000001019005245000000000000000000000001800000000000000000000000000000000000000000000000000000000000000000000000000000000000000000005558536508000000000000000000000000555853650800000000000000000000000000000                  
3030011MX1RTH0000190        0      1R  THERMCK19     0         0000000037100000328520889490000012188125000000028747664734000001066538361600000000000000000005541800000000000000000000000000000000000000000000000000000000000000000000000000000000000000000000000036521000000000000000000000000000000600200000000000000000000000000000                  
3030011MXFFIN3800000        0      FF  INFRAEX18     0         0000188185710000000185000000000034814356350000000011695797000002200981862500000000000000000000001800000000000000000000000000000000000000000000000000000000000000000000000000000000000000000000472698639000000000000000000000000047269863900000000000000000000000000000                  
3030003MX95MX0E00040        0      95  MXPUCB 18     0         0000011341680000000853800000000009683526384000000085993625000000975312176800000003066450020044421800410000061000000000000000000000000000000000000000000000000000000000000000000008538000000000049523945000000000001000000000000004952394500000000000000000000000000000                  
3030011MX1RIG0700080        0      1R  IGS3CK 17     0         0028035090790000000000748740000020991002487000000000106728000002992129169800000000000000000005291800000000000000000000000000000000000000000000000000000000000000000000000000000000000000000062772097640000000000000000000000000000540000000000000000000000000000000000                  
3030011MX1RDA0800080        0      1R  DAIVCK 16     0         0004049415620000000005200680000021059713988000000000695797000002817571240100000000000000000003281800000000000000000000000000000000000000000000000000000000000000000000000000000000000000000008650352932000000000000000000000000000900000000000000000000000000000000000                  
3030002US91086QBF460        0      D1SPMEXF46 460123 0         0000000005420000179513450550000000972962902000014666821501000000079494172500000000157528270073621800410370011036004103700110360000000000000000000000000000000000000000000000000100000000000000002344948000000000010000000000000000234494800000000000000000000000000000                  
3030003MX91ZO0000300        0      91  ZONALCB06-2U  0         0000000329100000001878910350000000618349396000000438382917000000144271818000000000373479990033041800410040061004000000000000000000000000000000000000000000000000000000000000000005297076400000000846958000000000001000000000000000084695800000000000000000000000000000                  
3030002MXCDNA0R00520        0      CD  NAFF   310620 0         0000041343750000001000000000000041343750000000000093859663000003880510442200000012914753910020311800110000041000001100000410000000000000000000000000000000000000000000000000000010000000000000075000000000000000001000000000000007500000000000000000000000000000000000                  
3030003MX91AP1Y00090        0      91  APPCVCB17     0         0000007467870000000237000000000001769885190000000023149184000000172875096700000000433179770003371800110090061002000000000000000000000000000000000000000000000000000000000000000002370000000000019500000000000000001000000000000001950000000000000000000000000000000000                  
3030002MX95FO0M00640        0      95  FONADIN22-2U  0         0000006603500000007396120740000048840283296000000772629371000005102058051400000011600131380098351800110000041000001100000410000000000000000000000000000000000000000000000000000010000000000000022448775000000000001000000000000002244877500000000000000000000000000000                  
3030002MX91AC1000720        0      91  AC     24-2   0         0000001270030000001000000000000001270030000000000103467902000000131407339600000000425989270029691800410000051000001100000410000000000000000000000000000000000000000000000000000010000000000000030500000000000000001000000000000003050000000000000000000000000000000000                  
3030006MX01OM0000180        B1KFX131   OMA    B      0         0000007267440000001212506080000008811815151000000244550000000001777252452000000000000000000000001800000000000000000000000000000120251126000001000000000000000000005770000000000000000000000000340345556000000000000000000000000034131410000000000000000000000000000000                  
3030011MXCFED0900040        0      CF  EDUCA  18     0         0000174593420000000200000000000034918684000000000049870000000008706973855400000000000000000000001800000000000000000000000000000000000000000000000000000000000000000000000000000000000000000001227724832000000000000000000000000150000000000000000000000000000000000000                  
3030006MX01AM0500190        0      1   AMX    B      0         0000310763250000000119377660000037098188299000000021020000000006532243515000000000000000000000001800000000000000000000000000000000000000000000000000000000000000000000000000000000000000000060305400000000000000000000000000006103600000000000000000000000000000000000                  
3030002MXCDBA0300O30        0      CD  BACMEXT24-4X  0         0000008884730000001000000000000008884730000000000106268545000000944167329800000002582642640031691800510000061000001100000410000000000000000000000000000000000000000000000000000010000000000000064063532000000000001000000000000006406353200000000000000000000000000000                  
3030002MX95FO0M00490        0      95  FONADIN21U    0         0000003864810000006773013380000026176409846000000761316081000002942342003000000005156538490038291800110000041000001100000410000000000000000000000000000000000000000000000000000010000000000000005109955000000000001000000000000000510995500000000000000000000000000000                  
3030002MX95FO0M00800        0      95  FONADIN23U    0         0000000421390000007914336000000003335022047000000875299379000000368842405300000000893576250047391800110000041000001100000410000000000000000000000000000000000000000000000000000010000000000000002375423000000000001000000000000000237542300000000000000000000000000000                  
3030002MX95CF0500V20        0      95  CFE    25-2X  0         0000002108450000001000000000000002108450000000000105300456000000222020746500000000315681770030451800110000041000004100000510000000000000000000000000000000000000000000000000000010000000000000043383750000000000001000000000000004338375000000000000000000000000000000                  
3030007US46428677290        0      1ISPEWY    *      0         0000001093010000011822974310000012922629155000001679347425000001835543529000000000000000000000000800000000000000000000000000000000000000000000000000000000000000000000000000000000000000000000076850000000000000000000000000000006205000000000000000000000000000000000                  
3030006MX01AC1000060        28238851   AC     *      0         0000012699690000001503844760000019098362240000000182890000000002322646304100000000000000000000001800000000000000000000000000000000000000000000000000000000000000000000000000000000000000000001698192061000000000000000000000000169819206100000000000000000000000000000                  
3030002XS26160755730        0      JI  CABEI  2-23S  0         0000016773660000000970804640000016283946963000000101210566000001697671622500000007760473020027351800110000051000001100000410000000000000000000000000000000000000000000000000000010000000000000035000000000000000001000000000000003500000000000000000000000000000000000                  
3030011MX1RFI0Q00060        0      1R  FIMMCK 09     0         0000018137150000000385732530000006996088753000000156321867000002835233150100000000000000000000201800000000000000000000000000000000000000000000000000000000000000000000000000000003857632300000034150000000000000001000000000000003415000000000000000000000000000000000                  
3030002MX0SGO0000230        0      S   UDIBONO351122 0         0000069324100000007756888170000537739291040000000859012443000059550264499800000130477668510036471800110000041000001100000410000000000000000000000000000000000000000000000000000010000000000000520582129000000000001000000000000046773419600000000000000000000000000000                  
3030011MX1RPM0500030        0      1R  PMCAPCK14     0         0000009472050000001989948210000018848888961000000013050383000000123613880300000000000000000000221800000000000000000000000000000000000000000000000000000000000000000000000000000000000000000000017587934000000000000000000000000000007000000000000000000000000000000000                  
3030002MX0MGO0001D60        0      M   BONOS  330526 0         0000229825390000000897119010000206180727007000000093950574000021592227310300000083790499110027371800110000041000001100000410000000000000000000000000000000000000000000000000000010000000000003342836866000000000001000000000000318682022000000000000000000000000000000                  
3030007US46429B67190        0      1ISPMCHI   *      0         0000010284380000010116806190000104045079226000001135646085000011679415883700000000000000000000000800000000000000000000000000000000000000000000000000000000000000000000000000000000000000000000128200000000000000000000000000000011580000000000000000000000000000000000                  
3030002MX91OR0100470        0      91  ORBIA  25-2   0         0000003868510000001000000000000003868510000000000107550763000000416061202200000000605034960034101800410010061000001100200410010000000000000000000000000000000000000000000000000010000000000000030341250000000000001000000000000003034125000000000000000000000000000000                  
3030002MX95CF0500700        0      95  CFE    15U    0         0000002565090000005351251000000013726440428000000856363976000002196650671200000000401861880007131800110000041000004100000510000000000000000000000000000000000000000000000000000010000000000000009343609000000000001000000000000000934360900000000000000000000000000000                  
3030002MX0MGO0001E40MGO0001E0      M   BONOS  530731 0         0000363889390000000867446840000315654701475000000087088033000031690411204700000067926031600101081800110000041000001100000410000000000000000000000000000000000000000000000000000010000000000004355900795000000000001000000000000344441494800000000000000000000000000000                  
3030011MXCFFI0T00050        0      CF  FIHO   12     0         0000121788100000000180725420000022010205012000000008300000000001010841230000000000000000000000001800000000000000000000000000000000000000000000000000000000000000000000000000000000000000000000789194295000000000000000000000000078722245900000000000000000000000000000                  
3030002USP4948KAH880        0      D2SPGRUMH88341209 0         0000000032560000203001000000000006609712560000018819724773000000612770238600000001502318950032991800110360041035001103600410360000000000000000000000000000000000000000000000000100000000000000000500000000000000010000000000000000050000000000000000000000000000000000                  
3030002MXCDBA1C00H80        0      CD  BANOB  21-5X  0         0000009968000000001000000000000009968000000000000094053255000000937522845800000001608170330021041800110000041000001100000410000000000000000000000000000000000000000000000000000010000000000000028000000000000000001000000000000002800000000000000000000000000000000000                  
3030005MX90CB1400030        0      90  CBPF   48     0         0000012225330000001040128440000012715913421000000102664533000001255107795200000000055013990079731800410000051000000000000000000000000000000000000000000000000000000000000000000010000000000000070000000000000000001000000000000007000000000000000000000000000000000000                  
3030002MXCDBA1C00O40        0      CD  BANOB  22-2X  0         0000004833600000001000000000000004833600000000000107371804000000518992351800000000564806160014151800110000041000001100000410000000000000000000000000000000000000000000000000000010000000000000024720000000000000001000000000000002472000000000000000000000000000000000                  
3030003MX95TF0300990        0      95  TFOVICB21U    0         0000005160840000004178863010000021566443382000000500848543000002584799194700000000726875410091941800410000061000001100000000000000000000000000000000000000000000000000000000000006015745600000014395651000000000001000000000000001439565100000000000000000000000000000                  
30314120           0        0      MDT JPMORGA00000012         0000000000010000000000000000000085657996810000000000000000000017441272452300000000000000000000000800000000000000000000000000000000000000000000000000000000000000000000000000000000000000000000000000000000000000000000000000000000000000000000000000000002000148361680                  
3030011MX1REX0I00080        0      1R  EXICPI 18     0         0000416342570000000089343590000037197541875000000010142332000004222684570700000000000000000028551800000000000000000000000000000000000000000000000000000000000000000000000000000000000000000000246799983000000000000000000000000000600000000000000000000000000000000000                  
3030002MX91DA0200060        0      91  DANHOS 16     0         0000013094350000001000000000000013094350000000000099567738000001303774810100000004255663750002141800410000061000004100000610000000000000000000000000000000000000000000000000000010000000000000030000000000000000001000000000000003000000000000000000000000000000000000                  
3030002MXCDBA0300J30        0      CD  BACMEXT23-4X  0         0000004672440000001000000000000004672440000000000110271746000000515238116900000000553956540028711800410000051000001100000410000000000000000000000000000000000000000000000000000010000000000000059486108000000000001000000000000005948610800000000000000000000000000000                  
3030006MX01CH1700020        B457NQ01   CHDRAUIB      0         0000007437710000001340461880000009969966758000000133470000000000992711153700000000000000000000001800000000000000000000000000000000000000000000000000000000000000000000000000000000000000000000960282670000000000000000000000000096391721100000000000000000000000000000                  
3030006MX01SI0C00020        0      1   SITES1 A-1    0         0000008598060000000128694620000001106524104000000015030000000000129228841800000000000000000000001800000000000000000000000000000000000000000000000000000000000000000000000000000000000000000002980967275000000000000000000000000313372271100000000000000000000000000000                  
3030002MX0SGO0000S30        0      S   UDIBONO290830 0         0000035034690000008394684700000294105176249000000858256629000030068754937500000028134481680013721800110000041000001100000410000000000000000000000000000000000000000000000000000010000000000000157820169000000000001000000000000000950000000000000000000000000000000000                  
3030011MX1RFI2600220        0      1RSPFIECK  24D    0         0000011340000000000957407800000010857004403000000000233641000000002649488900000000000000000174841800000000000000000000000000000000000000000000000000000000000000000000000000000000000000000000015425991000000000000000000000000000732599200000000000000000000000000000                  
3030002USP9406GAB430        0      D8SPFUN0144695C   0         0000000110350000144926492410000015992638437000018292882021000002018619531000000004572173550066381800410370051037004103700510370000000000000000000000000000000000000000000000000100000000000000000700000000000000010000000000000000070000000000000000000000000000000000                  
3030011MX1RIN3100170        0      1R  INFRACK16     0         0000000000420009999990000000000004199995800000011941417005000000005015395100000000000000000145091800000000000000000000000000000000000000000000000000000000000000000000000000000000000000000000000001289000000000000000000000000000000128900000000000000000000000000000                  
3030011MX1RBL0300020        0      1RSPBLKAGPI18D    0         0000343501730000000075727660000026012583478000000010380518000003565725891300000000000000000029311800000000000000000000000000000000000000000000000000000000000000000000000000000000000000000000234451959000000000000000000000000000023000000000000000000000000000000000                  
3030002MXCDBA1C00S50        0      CD  BANOB  23-3   0         0000029400000000001000000000000029400000000000000100650396000002959121642400000010981390980034941800410000051000001100000410000000000000000000000000000000000000000000000000000010000000000000080000000000000000001000000000000008000000000000000000000000000000000000                  
3030002MX94HS0M00F30        0      94  HSBC   24-2   0         0000003238840000001000000000000003238840000000000105484619000000341647803400000000148842840012581800410000051000001100000410000000000000000000000000000000000000000000000000000010000000000000025000000000000000001000000000000002500000000000000000000000000000000000                  
3030003MX95MX0E00120        0      95  MXPUCB 18U    0         0000008871590000005136278090000045566953312000000743541131000006596392062400000011472999240044421800410000061000000000000000000000000000000000000000000000000000000000000000000008538000000000027376210000000000001000000000000002737621000000000000000000000000000000                  
3030002MX91GP0200140        0      91  GPH    19-2   0         0000016081820000001000000000000016081820000000000096784978000001556478594900000001681085710014081800410000061000004100000610000000000000000000000000000000000000000000000000000010000000000000040000000000000000001000000000000004000000000000000000000000000000000000                  
3030002MX91ST2700090        0      91  STORAGE21V    0         0000003805750000001000000000000003805750000000000096988979000000369115806800000001616682600009151800410030061001004100300610010000000000000000000000000000000000000000000000000010000000000000011710000000000000001000000000000001171000000000000000000000000000000000                  
3030011MX1REX0I00160        0      1R  EXICPI 19     0         0000000940130000010000000000000009401300000000001715672409000001612955101900000000000000000028551800000000000000000000000000000000000000000000000000000000000000000000000000000000000000000000000550000000000000000000000000000000055000000000000000000000000000000000                  
3030002MX91LI0500880        0      91  LIVEPOL19     0         0000015999870000001000000000000015999870000000000096410866000001542561322600000000742926760014351800110000041000001100000410000000000000000000000000000000000000000000000000000010000000000000050000000000000000001000000000000005000000000000000000000000000000000000                  
3030002MXCDBA1C01290        0      CD  BANOB  25-2   0         0000006580000000001000000000000006580000000000000103697679000000682330727800000000276360000023501800110000041000001100000410000000000000000000000000000000000000000000000000000010000000000000101500000000000000001000000000000010150000000000000000000000000000000000                  
3030002MXCDNA0R00A90        0      CD  NAFF   24-2S  0         0000010220850000001000000000000010220850000000000105895757000001082344647900000002354117280033751800410000061000001100000410000000000000000000000000000000000000000000000000000010000000000000068138975000000000001000000000000006813897500000000000000000000000000000                  
3030002MX91LI0500620        0      91  LIVEPOL17     0         0000003313680000001000000000000003313680000000000099204501000000328731970900000000760084630006241800110000041000001100000410000000000000000000000000000000000000000000000000000010000000000000035000000000000000001000000000000003500000000000000000000000000000000000                  
3030007US81369Y60590        0      1ISPXLF    *      0         0000012068250000010017494380000120893626605000000971288325000011721750328200000000000000000000000800000000000000000000000000000000000000000000000000000000000000000000000000000000000000000000986345427000000000000000000000000099794542700000000000000000000000000000                  
3030011MX1RAL1B00070        0      1R  ALLVPCK18     0         0000285859570000000021070960000006023336720000000002506217000000716426113900000000000000000010831800000000000000000000000000000000000000000000000000000000000000000000000000000000000000000000474586856000000000000000000000000000200000000000000000000000000000000000                  
3030011MX1RNI0100050        0      1R  NIKEPI 18     0         0000928177160000000047409930000044004809763000000006600500000006126433344600000000000000000047701800000000000000000000000000000000000000000000000000000000000000000000000000000000000000000000750823608000000000000000000000000000401780000000000000000000000000000000                  
3030002MXCDBA0300S40        0      CD  BACMEXT25-2   0         0000008420000000001000000000000008420000000000000100926782000000849803504400000002291362390035361800410000051000001100000410000000000000000000000000000000000000000000000000000010000000000000062887000000000000001000000000000006288700000000000000000000000000000000                  
3030011MX1RMR0000060        0      1R  MRPCK  12     0         0000008678470000000000000000000000000000000000000040360000000000350263049200000000000000000004891800000000000000000000000000000000000000000000000000000000000000000000000000000000001000000000050000000000000000001000000000000005000000000000000000000000000000000000                  
3030007US92204286610        0      1ISPVPL    *      0         0000019150530000012659182580000242430055838000001666140105000031907466065000000000000000000000000800000000000000000000000000000000000000000000000000000000000000000000000000000000000000000000092081871000000000000000000000000009386821900000000000000000000000000000                  
3030007MX1BNA0600140        0      1B  NAFTRACISHRS  0         0000719064210000000424678480000305371098588000000063200000000045444858072000000000000000000000001800000000000000000000000000000000000000000000000000000000000000000000000000000000000000000001574600000000000000000000000000000750000000000000000000000000000000000000                  
3030002MX94HS0M00D80        0      94SPHSBC   24D    0         0000000258000000016784500000000004330401000000001864935099000000481153255500000000108653140005301800410000051000001100000410000000000000000000000000000000000000000000000000000010000000000000001500000000000000001000000000000000150000000000000000000000000000000000                  
