00000484343030000253000100020251126                                                                                                                                                                                                                                                                                                                    
301MXBIGO000X350        0      BI  CETES  260108 0         0000010000000000075941310000007527977006007300000000009912888000000752950351200000000015265060000007529503512000000000101000000001000000040044                    00110000041000000000000000                                                                                                
301MXBIGO000YD80        0      BI  CETES  260514 0         0000010000000000048791550000004714744553007280000000009663035000000471569797900000000009534260000004715697979000000000101000000001000000040012                    00110000041000000000000000                                                                                                
301MX0MGO0000P20        0      M   BONOS  310529 0         0000010000000000004040120000004069175782007280000000100719181000000406999866000000000008228780000004069998660000000000101000000001000000040014                    00410000051000000000000000                                                                                                
302001000106MX54XX0I00200        0      54  XXI-INIB2     0         2025112600000004738600000001706086800000001706086800000000808446290000000000000100000000100000018801160                    000000001000                    0                                                                                                                       
3020021201100           0        0      EF  EFECTIV990101 00000000002025112600000265923200000000100000000000000000000000000002659232770000000000000100000000000000018000000                    000000001000                    0                                                                                                                       
3020031201100           0        0      EF  EFECTIV990101 00000000002025112600000183501500000000100000000000000000000000000001835015260000000000000100000000000000018000000                    000000001000                    0                                                                                                                       
302501010102MX0MGO0000P20        0      M   BONOS  310529 0         2025112600000038552900000010061011700000010063063000000038796026110020100073400100000000100000018040014                    000000001000                    0                                                                                                                       
302502010102MX0MGO0001C80MGO0001C0      M   BONOS  270304 0         2025112600000028021400000009887372100000009889388000000027711449750004630073400100000000100000018040012                    000000001000                    0                                                                                                                       
302503010101MXBIGO000YD80        0      BI  CETES  260514 0         2025112600000637017600000000965954900000000966152400000061545607300001690073600100000000100000018040044                    000000001000                    0                                                                                                                       
302504000106MX54XX0I00200        0      54  XXI-INIB2     0         2025112600000024486200000001706086800000001706086800000004177558260000000000000100000000100000018801160                    000000001000                    0                                                                                                                       
302505000111MXFEFI2900020        0      FESPFIEMEX 25-2D  0         2025112600000000000100000000000000000000000000000000000000000000000000000000000200000001838320018025002                    060002061000                    0                                                                                                                       
302004010101MXBIGO000X350        0      BI  CETES  260108 0         2025112600000759413100000000991288800000000991288800000075279770060000430073000100000000100000018040044                    074702062000                    0                                                                                                                       
302005010101MXBIGO000YD80        0      BI  CETES  260514 0         2025112600000487915500000000966303500000000966303500000047147445530001690072800100000000100000018040012                    074702062000                    0                                                                                                                       
302006010102MX0MGO0000P20        0      M   BONOS  310529 0         2025112600000040401200000009697334800000010071918100000040691757820020100072800100000000100000018040014                    074702062000                    0                                                                                                                       
3020071202100           0        0      *CSPMXPUSD SPOT   0         2025112700000000032500000001834350000000000000000000000000005961640000000000000200000001834350008801197                    090000002000                    0                                                                                                                       
3020081202100           0        0      *CSPMXPUSD SPOT   0         2025112700000033480000000001834350000000000000000000000006141403800000000000000200000001834350008801197                    090000002000                    0                                                                                                                       
3020091202100           0        0      *CSPMXPUSD SPOT   0         2025112700000000697500000001834350000000000000000000000000127945910000000000000200000001834350008801197                    090000002000                    0                                                                                                                       
3020101202100           0        0      *CSPMXPUSD SPOT   0         2025112700000001395000000001834350000000000000000000000000255891830000000000000200000001834350008801197                    090000002000                    0                                                                                                                       
3020111202100           0        0      *CSPMXPUSD SPOT   0         2025112700000000930000000001834350000000000000000000000000170594550000000000000200000001834350008801197                    090000002000                    0                                                                                                                       
3020121202100           0        0      *CSPMXPUSD SPOT   0         2025112700000001162500000001834350000000000000000000000000213243190000000000000200000001834350008801197                    090000002000                    0                                                                                                                       
3025061302100           0        0      *CSPMXPUSD SPOT   0         2025112700000000025000000001834350000000000000000000000000004585880000000000000200000001834350008801197                    090000002000                    0                                                                                                                       
302507000206MX01R00000060        0      1   R      A      0         2025112700000000072100000013947370300000013947370300000000100502220000000000000100000000100000018013109                    151902061000                    0                                                                                                                       
3030002MX0SGO0000K00        0      S   UDIBONO311127 0         0000000730260000007522217290000005493174399000000786190693000000574123615500000000839942640021911800110000041000001100000410000000000000000000000000000000000000000000000000000010000000000000612692245000000000001000000000000062285455300000000000000000000000000000                  
3030011MX1RAX0700050        0      1R  AXIS2CK14     0         0000000378630000000263791480000000099879370000000042818063000000016212203200000000000000000003281800000000000000000000000000000000000000000000000000000000000000000000000000000000000000000000098044705000000000000000000000000001200000000000000000000000000000000000                  
3030002USP3146DAA110        0      D2SPVESTA11310513 0         0000000002000000166881053630000000333762107000016869869428000000033739738900000000005171850019931800110370051037001103700410370000000000000000000000000000000000000000000000000100000000000000000350000000000000010000000000000000035000000000000000000000000000000000                  
3030011MX1RGA0500400        0      1RSPGAPI   21-3D  0         0000001506920000000193801130000000292042796000000022203641000000033459110700000000000000000060401800000000000000000000000000000000000000000000000000000000000000000000000000000000000000000000111566690000000000000000000000000000006000000000000000000000000000000000                  
3030002MXCDKE0500010        0      CD  KEXIM  19     0         0000000154020000001000000000000000154020000000000100063201000000015411734200000000040373360002454300510000061000006100000000000000000000000000000000000000000000000000000000000010000000000000070000000000000000001000000000000007000000000000000000000000000000000000                  
3030002MX0SGO0000980        0      S   UDIBONO401115 0         0000003886290000007576025800000029442633287000000815256376000003168322701500000006501815250054671800110000041000001100000410000000000000000000000000000000000000000000000000000010000000000000446926530000000000001000000000000045639201700000000000000000000000000000                  
3030002MX0SGO0000F00        0      S   UDIBONO281130 0         0000000872260000008240467490000007187830170000000866303619000000755641994700000001459302670010991800110000041000001100000410000000000000000000000000000000000000000000000000000010000000000000453980590000000000001000000000000048756982600000000000000000000000000000                  
3030007US78463X20270        0      1ISPFEZ    *      0         0000000077320000007252999350000000560801910000001150687755000000088971177200000000000000000000000800000000000000000000000000000000000000000000000000000000000000000000000000000000000000000000075500967000000000000000000000000006500096700000000000000000000000000000                  
3030011MX1RFF0500040        0      1R  FFBANCK18     0         0000000647900000000680180460000000440688921000000048137419000000031188233800000000000000000082261800000000000000000000000000000000000000000000000000000000000000000000000000000000000000000000022199995000000000000000000000000000800000000000000000000000000000000000                  
3030002MX91GA0000D20        0      91  GAP    22-2   0         0000000118340000001000000000000000118340000000000103358604000000012231457200000000024476330022891800110000051000001100000510000000000000000000000000000000000000000000000000000010000000000000060000000000000000001000000000000003000000000000000000000000000000000000                  
3030002XS03169895230        0      D2  TELV523110537 0         0000000000100001005413482000000000100541348000070731659351000000007073165900000000003537500041831800410010011000005100200410010000000000000000000000000000000000000000000000010000000000000000000044691000000001000000000000000000004469100000000000000000000000000000                  
3030011MX1RDE0800040        0      1R  DELTACK18     0         0000001094880000000062906980000000068875599000000006462513000000007075676200000000000000000010131800000000000000000000000000000000000000000000000000000000000000000000000000000000000000000000374316202000000000000000000000000000470940000000000000000000000000000000                  
3030011MX1RLE0300170        0      1RSPLEXPI  22D    0         0000000012710000018129660190000000230427981000002177762564000000027679362200000000000000000041411800000000000000000000000000000000000000000000000000000000000000000000000000000000000000000000001112717000000000000000000000000000000260000000000000000000000000000000                  
3030002MX91FI0V00150        0      91  FINN   18     0         0000000022060000001000000000000000022060000000000099601954000000002197219100000000006875920007971800410060061004004100600610040000000000000000000000000000000000000000000000000010000000000000032000000000000000001000000000000003200000000000000000000000000000000000                  
3030002MX91BW0200100        0      91  BWMX   21-2X  0         0000000300640000001000000000000000300640000000000097488433000000029308922500000000065547880009981800410020061002004100200610020000000000000000000000000000000000000000000000000010000000000000010000000000000000001000000000000001000000000000000000000000000000000000                  
3030011MX1RAM2000010        0      1R  AMICK  18     0         0000009961770000000100969330000001005833198000000009739557000000097023226700000000000000000081001800000000000000000000000000000000000000000000000000000000000000000000000000000000000000000000247600034000000000000000000000000000500000000000000000000000000000000000                  
3030002MX0MGO0001E40MGO0001E0      M   BONOS  530731 0         0000009539940000000865843710000008260097085000000087088033000000830814609500000001780789120101081800110000041000001100000410000000000000000000000000000000000000000000000000000010000000000004355900795000000000001000000000000344441494800000000000000000000000000000                  
3030006MX01VO0000090        0      1   VOLAR  A      0         0000000548020000000128291190000000070306138000000013190000000000007228383800000000000000000000001800000000000000000000000000000000000000000000000000000000000000000000000000000000000000000001165976677000000000000000000000000116597667700000000000000000000000000000                  
3030006MX01AM0500190        0      1   AMX    B      0         0000020016530000000146459740000002931615867000000021020000000000420747460600000000000000000000001800000000000000000000000000000000000000000000000000000000000000000000000000000000000000000060305400000000000000000000000000006103600000000000000000000000000000000000                  
3030002MXCDBA1C01520        0      CD  BANOB  25-2X  0         0000002498960000001000000000000002498960000000000101208907000000252917010200000000105733750043521800110000041000001100000410000000000000000000000000000000000000000000000000000010000000000000102000000000000000001000000000000010200000000000000000000000000000000000                  
3030002MX95CF0500X80        0      95  CFE    25UX   0         0000000394470000008429136000000003325041278000000893418409000000352426759800000000283186110041371800110000041000004100000510000000000000000000000000000000000000000000000000000010000000000000008269108000000000001000000000000000826910800000000000000000000000000000                  
3030011MX1REX0I00160        0      1R  EXICPI 19     0         0000000017100000010000000000000000171000000000001715672409000000029337998200000000000000000028551800000000000000000000000000000000000000000000000000000000000000000000000000000000000000000000000550000000000000000000000000000000055000000000000000000000000000000000                  
3030002XS03295796000        0      D2  AMXL600181236 0         0000000000110001002966423810000000110326307000087623082710000000009638539100000000041877000040391800510350011034005103500410340000000000000000000000000000000000000000000000010000000000000000000073555000000001000000000000000000007355500000000000000000000000000000                  
3030011MX1RMO0R00090        0      1R  MOTAPI 18     0         0000003365290000000274422200000000923510285000000031397982000000105663314800000000000000000156921800000000000000000000000000000000000000000000000000000000000000000000000000000000000000000000074523989000000000000000000000000000600000000000000000000000000000000000                  
3030011MX1RWS0000030        0      1R  WSMXCK 13     0         0000000000740000064098485140000000047432879000004210628905000000003115865400000000000000000003161800000000000000000000000000000000000000000000000000000000000000000000000000000000000000000000000676886000000000000000000000000000000874000000000000000000000000000000                  
3030011MXCFAG0600160        0      CF  AGRO   22     0         0000000030950000000400000000000000012380000000000021190000000000000655830500000000000000000000001800000000000000000000000000000000000000000000000000000000000000000000000000000000000000000000028082400000000000000000000000000002808240000000000000000000000000000000                  
3030002MX0SGO0000Q70        0      S   UDIBONO541029 0         0000000660700000007037017220000004649357277000000801313889000000529428086500000001105359950105631800110000041000001100000410000000000000000000000000000000000000000000000000000010000000000000393729686000000000001000000000000015667792300000000000000000000000000000                  
3030002MX95CF0500D00        0      95  CFE    20U    0         0000000002220000006554855950000000014551780000000866489914000000001923607600000000001057240010511800110000041000004100000510000000000000000000000000000000000000000000000000000010000000000000005682979000000000001000000000000000568297900000000000000000000000000000                  
3030002US191241AJ700        0      D2SPKOFJ70 320901 0         0000000001500000167720020250000000251580030000015489763192000000023234644800000000012160210024701800510340041033001103400510340000000000000000000000000000000000000000000000000100000000000000000705000000000000010000000000000000070500000000000000000000000000000000                  
3030007US92290836320        0      1ISPVOO    *      0         0000000010830000111299981170000001205378796000011463770325000000124152632600000000000000000000000800000000000000000000000000000000000000000000000000000000000000000000000000000000000000000001300259089000000000000000000000000106621269100000000000000000000000000000                  
3030003MX91FI1700090        0      91SPFIBRAPL20DV   0         0000000009050000019845500000000000179601775000001684954527000000015248838500000000033627820025531800410000061000001100000410000000000000000000000000000000000000000000000000000010000000000000003750000000000000001000000000000000375000000000000000000000000000000000                  
3030002MX95CF0500C20        0      95  CFE    20-2   0         0000000019220000001000000000000000019220000000000099993932000000001921883400000000001790560003231800110000041000004100000510000000000000000000000000000000000000000000000000000010000000000000032750000000000000001000000000000003275000000000000000000000000000000000                  
3030011MXFFFE0K00060        0      FF  FEXI   21     0         0000001891360000000190000000000000359358400000000017500000000000033098800000000000000000000000001800000000000000000000000000000000000000000000000000000000000000000000000000000000000000000001166260453000000000000000000000000116626045300000000000000000000000000000                  
3030002MX90GD0200010        0      90  GDFECB 12     0         0000000019090000001001033670000000019109733000000099818740000000001905539700000000000472210007151800410000051000004100000510000000000000000000000000000000000000000000000000000010000000000000025000000000000000001000000000000002500000000000000000000000000000000000                  
3030002MX91HE0100660        0      91  HERDEZ 17     0         0000000001100000000965294250000000001061824000000101016534000000000111118200000000000019720005391800110020041002001100300410020000000000000000000000000000000000000000000000000010000000000000020000000000000000001000000000000002000000000000000000000000000000000000                  
3030002MXCDBA0300S40        0      CD  BACMEXT25-2   0         0000001500000000001000000000000001500000000000000100926782000000151390173000000000408199950035361800410000051000001100000410000000000000000000000000000000000000000000000000000010000000000000062887000000000000001000000000000006288700000000000000000000000000000000                  
3030006MXP3706410130        28223981   GFINBURO      0         0000001225450000000461925400000000566066485000000044150000000000054103617500000000000000000000001800000000000000000000000000000000000000000000000000000000000000000000000000000000000000000006050956195000000000000000000000000608312390200000000000000000000000000000                  
3030011MX1RIN3100170        0      1R  INFRACK16     0         0000000000010009999990000000000000099999900000011941417005000000000119414200000000000000000145091800000000000000000000000000000000000000000000000000000000000000000000000000000000000000000000000001289000000000000000000000000000000128900000000000000000000000000000                  
3030002MXCDNA0R00600        0      CD  NAFF   21X    0         0000000023970000001000000000000000023970000000000097199145000000002329863500000000000466820021741800110000041000001100000410000000000000000000000000000000000000000000000000000010000000000000065000000000000000001000000000000006500000000000000000000000000000000000                  
3030011MX1RMR0100050        0      1R  MRP2CK 16     0         0000077937270000000008367750000000652159527000000000691544000000053897051400000000000000000021041800000000000000000000000000000000000000000000000000000000000000000000000000000000000000000008358879659000000000000000000000000001700000000000000000000000000000000000                  
3030002MX91ED0900050        0      91  EDUCA  23-2L  0         0000000041140000001000000000000000041140000000000111988606000000004607211300000000013583060017151800510010061000005100100610000000000000000000000000000000000000000000000000000010000000000000007070769000000000001000000000000000707076900000000000000000000000000000                  
3030002MXMSGO000001MSGO000000      MS  BONOS  350524 0         0000001085460000000942549750000001023100057000000094014127000000102048574300000000422123350034651800110000041000001100000410000000000000000000000000000000000000000000000000000010000000000000230000000000000000001000000000000023000000000000000000000000000000000000                  
3030002MX91FU0000I10        0      91  FUNO   25-2L  0         0000000781840000001000000000000000781840000000000104457719000000081669223000000000446552290023671800410000061000004100000610000000000000000000000000000000000000000000000000000010000000000000090000000000000000001000000000000009000000000000000000000000000000000000                  
3030001XS17746945970        0      D8  IFCN38 2-20   0         0000000004840000345087300000000001670222532000034075170921000000164923827300000000000000000044700800110280051028001102800510280000000000000000000000000000000000000000000000010000000000000000000120000000000001000000000000000000016750000000000000000000000000000000                  
3030006MX01Q00000080        0      1   Q      *      0         0000000061330000001695087510000000103959717000000180660000000000011079877800000000000000000000001800000000000000000000000000000000000000000000000000000000000000000000000000000000000000000000400000000000000000000000000000000040000000000000000000000000000000000000                  
3030002MX0SGO0000H60        0      S   UDIBONO501103 0         0000000980880000007234730700000007096402647000000806945353000000791516557900000001641025380091071800110000041000001100000410000000000000000000000000000000000000000000000000000010000000000000665309292000000000001000000000000067568909900000000000000000000000000000                  
3030002MX91HE0100820        0      91  HERDEZ 20     0         0000000044800000000948947490000000042512848000000091565468000000004102133000000000009681780017201800110020041002001100300410020000000000000000000000000000000000000000000000000010000000000000025000000000000000001000000000000002500000000000000000000000000000000000                  
3030006MX01GC2M00060        29466631   GCC    *      0         0000000361310000001741288890000000629145088000000180420000000000065187550200000000000000000000001800000000000000000000000000000000000000000000000000000000000000000000000000000000000000000000337400000000000000000000000000000033740000000000000000000000000000000000                  
3030003MX95MX0E00120        0      95  MXPUCB 18U    0         0000000018270000005136278110000000093839801000000743541131000000013584496500000000023627300044421800410000061000000000000000000000000000000000000000000000000000000000000000000008538000000000027376210000000000001000000000000002737621000000000000000000000000000000                  
3030002MXCDNA0R00520        0      CD  NAFF   310620 0         0000000160350000001000000000000000160350000000000093859663000000015050397000000000050089330020311800110000041000001100000410000000000000000000000000000000000000000000000000000010000000000000075000000000000000001000000000000007500000000000000000000000000000000000                  
3030003MX95CI0Y00020        0      95  CIENCB 15     0         0000000085700000000824502840000000070659893000000081940689000000007022317000000000022737550047921800110000041000004100300000000000000000000000000000000000000000000000000000000008528000000000400000000000000000001000000000000040000000000000000000000000000000000000                  
3030011MX1RRS0200080        0      1R  RSRENCK17     0         0000827229300000000000095250000000078793240000000000010307000000008526252400000000000000000007291800000000000000000000000000000000000000000000000000000000000000000000000000000000000000000753109040632000000000000000000000000001600000000000000000000000000000000000                  
3030002MX95CF0500S80        0      95  CFE    23-3X  0         0000000070430000000990375380000000069752138000000108135694000000007615996900000000036398220015581800110000041000004100000510000000000000000000000000000000000000000000000000000010000000000000059928782000000000001000000000000005992878200000000000000000000000000000                  
3030002MX91AL2F00750        0      91  ALSEA  17-2   0         0000000002740000000953871170000000002613607000000098538527000000000269995600000000000431090006641800610040041003006100400410030000000000000000000000000000000000000000000000000010000000000000020000000000000000001000000000000002000000000000000000000000000000000000                  
3030011MX1RCL0100110        0      1R  CLNYCK 15-2   0         0000000079190000000606953490000000048064647000000000528095000000000041819800000000000000000003071800000000000000000000000000000000000000000000000000000000000000000000000000000000000000000000045713126000000000000000000000000000609400000000000000000000000000000000                  
3030002MX91KO0000D50        0      91  KOF    20     0         0000000056360000001000000000000000056360000000000097427830000000005491032500000000013578070007921800110000041000001100000410000000000000000000000000000000000000000000000000000010000000000000030000000000000000001000000000000003000000000000000000000000000000000000                  
3030011MX1RWS0100100        0      1R  WSMX2CK18     0         0000000000010007215743442860000000072157434000595610624666000000005956106200000000000000000009931800000000000000000000000000000000000000000000000000000000000000000000000000000000000000000000000003043000000000000000000000000000000182000000000000000000000000000000                  
3030011MX1RBX0C00260        0      1RSPBXMXPI 18-3D  0         0000000023980000019918861700000000477654304000002942445542000000070559844100000000000000000084151800000000000000000000000000000000000000000000000000000000000000000000000000000000000000000000000559281000000000000000000000000000020000000000000000000000000000000000                  
3030011MX1RAL1B00070        0      1R  ALLVPCK18     0         0000000958410000000021071830000000020195454000000002506217000000002401983400000000000000000010831800000000000000000000000000000000000000000000000000000000000000000000000000000000000000000000474586856000000000000000000000000000200000000000000000000000000000000000                  
3030011MX1RRR0000010        0      1R  RRGCK  18     0         0000025061420000000026962300000000675713536000000002889038000000072403394700000000000000000026861800000000000000000000000000000000000000000000000000000000000000000000000000000000000000000001483553325000000000000000000000000000800000000000000000000000000000000000                  
3030011MX1RLO0800020        0      1RSPLOCKXPI22     0         0000000054380000018874049230000001026370797000002258530508000000122818889000000000000000000022411800000000000000000000000000000000000000000000000000000000000000000000000000000000000000000000002140397000000000000000000000000000001018500000000000000000000000000000                  
3030002MX0MGO0001020        0      M   BONOS  471107 0         0000026292650000000848643770000022313093531000000087782049000002308022690600000010224919740080151800110000041000001100000410000000000000000000000000000000000000000000000000000010000000000002623898085000000000001000000000000261989518000000000000000000000000000000                  
3030011MXCFFU0000010        0      CF  FUNO   11     0         0000010870340000000251473310000002733600364000000026800000000000291325112000000000000000000000001800000000000000000000000000000000000000000000000000000000000000000000000000000000000000000003810649852000000000000000000000000381445806400000000000000000000000000000                  
3030003MX95TF0300730        0      95  TFOVICB20U    0         0000000004000000004034655000000000016138620000000503815227000000002015260900000000000665170087081800410000061000001100000000000000000000000000000000000000000000000000000000000006234543400000009271489000000000001000000000000000927148900000000000000000000000000000                  
3030011MX1RTH0000010        0      1R  THERMCK17     0         0000000628830000000105376430000000066263862000000007535761000000004738712600000000000000000005541800000000000000000000000000000000000000000000000000000000000000000000000000000000000000000000307739691000000000000000000000000000661250000000000000000000000000000000                  
3030002MX91FE0100760        0      91  FERROMX21     0         0000000044020000001000000000000000044020000000000096814870000000004261790600000000001406690008941800110000041000001100000410000000000000000000000000000000000000000000000000000010000000000000016920000000000000001000000000000001692000000000000000000000000000000000                  
3030002MX0MGO0001N50MGO0001N0      M   BONOS  550429 0         0000004605500000000861162800000003966085294000000086768103000000399610498400000001791027830107451800110000041000001100000410000000000000000000000000000000000000000000000000000010000000000000274911011000000000001000000000000180000000000000000000000000000000000000                  
3030002MX91LI0500960        0      91  LIVEPOL20     0         0000000304080000000905492670000000275342211000000095403326000000029010243400000000072574590017131800110000041000001100000410000000000000000000000000000000000000000000000000000010000000000000050000000000000000001000000000000005000000000000000000000000000000000000                  
3030002MX91FU0000G50        0      91  FUNO   23L    0         0000000115350000001000000000000000115350000000000103270827000000011912289900000000030051880026471800410000061000004100000610000000000000000000000000000000000000000000000000000010000000000000049700000000000000001000000000000004970000000000000000000000000000000000                  
3030011MX1RLO0800C00        0      1RSPLOCKXPI23-7   0         0000000183850000018929645300000003480215289000001957732523000000359929124400000000000000000022411800000000000000000000000000000000000000000000000000000000000000000000000000000000000000000000000136089000000000000000000000000000000021400000000000000000000000000000                  
3030002MXCDBA1C00O40        0      CD  BANOB  22-2X  0         0000000153650000001000000000000000153650000000000107371804000000016497677700000000017954000014151800110000041000001100000410000000000000000000000000000000000000000000000000000010000000000000024720000000000000001000000000000002472000000000000000000000000000000000                  
3030006MX01RL0000160        0      1   RLH    A      0         0000000974760000000138745070000000135243145000000016750000000000016327230000000000000000000000001800000000000000000000000000000000000000000000000000000000000000000000000000000000000000000001249145002000000000000000000000000111591852600000000000000000000000000000                  
3030006MXP3203213100        22420591   FEMSA  UBD    0         0000001964820000001812460770000003561159163000000172570000000000339068987400000000000000000000001800000000000000000000000000000000000000000000000000000000000000000000000000000000000000000002021336251000000000000000000000000864471108000000000000000000000000000000                  
3030011MX1RCA1S00150        0      1R  CARZACK18     0         0000043083030000000001015400000000043746665000000000056543000000002436043800000000000000000007881800000000000000000000000000000000000000000000000000000000000000000000000000000000000000000024199495862000000000000000000000000000494000000000000000000000000000000000                  
3030011MX1RTU0500090        0      1R  TUCK   18     0         0000006144160000000067861060000000416949188000000005342861000000032827392800000000000000000081101800000000000000000000000000000000000000000000000000000000000000000000000000000000000000000000368399958000000000000000000000000000500000000000000000000000000000000000                  
3030007MX1BNA0600140        0      1B  NAFTRACISHRS  0         0000008571010000000461805680000003958141080000000063200000000000541687832000000000000000000000001800000000000000000000000000000000000000000000000000000000000000000000000000000000000000000001574600000000000000000000000000000750000000000000000000000000000000000000                  
3030002MXCDNA0R00860        0      CD  NAFF   23S    0         0000000310310000001000000000000000310310000000000102199001000000031713372000000000013305410016211800110000041000001100000410000000000000000000000000000000000000000000000000000010000000000000054670000000000000001000000000000005467000000000000000000000000000000000                  
3030002MX91FI1700170        0      91SPFIBRAPL21DV   0         0000000001120000020183500000000000022605520000001668143039000000001868320200000000000638600019721800410000061000001100000410000000000000000000000000000000000000000000000000000010000000000000000700000000000000001000000000000000070000000000000000000000000000000000                  
3030006MXP3708410190        26436741   GMEXICOB      0         0000003650190000001001762780000003656624469000000158270000000000577715571300000000000000000000001800000000000000000000000000000000000000000000000000000000000000000000000000000000000000000007785000000000000000000000000000000778500000000000000000000000000000000000                  
3030011MXCFNE0400150        0      CF  NEXT   25     0         0000000933600000001000000000000000933600000000000098950000000000092379720000000000000000000000001800000000000000000000000000000000000000000000000000000000000000000000000000000000000000000000271567713000000000000000000000000019815000000000000000000000000000000000                  
3030002MX91ME0900120        0      91  MEGA   22-2   0         0000000605930000001000000000000000605930000000000104034422000000063037577300000000229745090024091800410000061000004100000610000000000000000000000000000000000000000000000000000010000000000000044724000000000000001000000000000004472400000000000000000000000000000000                  
3030002MX91LI0500880        0      91  LIVEPOL19     0         0000000044960000001000451050000000044980279000000096410866000000004334632500000000002087640014351800110000041000001100000410000000000000000000000000000000000000000000000000000010000000000000050000000000000000001000000000000005000000000000000000000000000000000000                  
3030011MX1RAR1B00040        0      1R  ARTH5CK17     0         0000000020560000000808473570000000016622217000000046755225000000000961287400000000000000000007431800000000000000000000000000000000000000000000000000000000000000000000000000000000000000000000014426125000000000000000000000000000890000000000000000000000000000000000                  
3030002MXCDBA0300Q80        0      CD  BACMEXT25-2X  0         0000000300000000001000000000000000300000000000000106318078000000031895423400000000065799990033781800410000061000001100000410000000000000000000000000000000000000000000000000000010000000000000110427671000000000001000000000000011042767100000000000000000000000000000                  
3030002MX91OR0100470        0      91  ORBIA  25-2   0         0000002389370000001000000000000002389370000000000107550763000000256978566600000000373697470034101800410010061000001100200410010000000000000000000000000000000000000000000000000010000000000000030341250000000000001000000000000003034125000000000000000000000000000000                  
3030002MX91AC1000720        0      91  AC     24-2   0         0000000010380000001000000000000000010380000000000103467902000000001073996800000000003481630029691800410000051000001100000410000000000000000000000000000000000000000000000000000010000000000000030500000000000000001000000000000003050000000000000000000000000000000000                  
3030002MX91AG0500180        0      91  AGUA   17-2X  0         0000000033250000001042464250000000034661936000000098959947000000003290418200000000012942560005661800110040041003001100400410030000000000000000000000000000000000000000000000000010000000000000040000000000000000001000000000000004000000000000000000000000000000000000                  
3030002MX0MGO0001L90MGO0001L0      M   BONOS  360221 0         0000005972360000000931891780000005565593164000000093896627000000560784459200000001114840730037381800110000041000001100000410000000000000000000000000000000000000000000000000000010000000000001113079650000000000001000000000000150000000000000000000000000000000000000                  
3030011MX1RIC0P00040        0      1R  ICUA2CK14     0         0000000356840000000139990320000000049954145000000010714702000000003823434300000000000000000013481800000000000000000000000000000000000000000000000000000000000000000000000000000000000000000000413599949000000000000000000000000002000000000000000000000000000000000000                  
3030002MX91AC1J00480        0      91  ACBE   24-2L  0         0000000405440000001000000000000000405440000000000104850022000000042510392900000000057685110023141800110000041000001100000410000000000000000000000000000000000000000000000000000010000000000000064000000000000000001000000000000006400000000000000000000000000000000000                  
3030006MXP4948K10560        23925451   GRUMA  B      0         0000000173040000003444409430000000596020607000000316890000000000054834645600000000000000000000001800000000000000000000000000000000000000000000000000000000000000000000000000000000000000000000345268815000000000000000000000000056335670900000000000000000000000000000                  
3030003MX95TF0300160        0      95  TFOVICB15-2U  0         0000000004840000001616955790000000007826066000000263538209000000001275524900000000000366970071201800110000041000001100000000000000000000000000000000000000000000000000000000000003054743600000010887119000000000001000000000000001088711900000000000000000000000000000                  
3030002MX94BB1U00620        0      94  BBVAMX 24-2   0         0000000653150000001000000000000000653150000000000105720752000000069051509200000000090134700019541800110000041000001100000410000000000000000000000000000000000000000000000000000010000000000000128860000000000000001000000000000012886000000000000000000000000000000000                  
3030003MX95TF0300080        0      95  TFOVICB15U    0         0000000007530000001087975300000000008192454000000175787791000000001323682100000000000366560070011800110000041000001100000000000000000000000000000000000000000000000000000000000002046851900000019259506000000000001000000000000001925950600000000000000000000000000000                  
3030011MXFFXF0000050        0      FF  XFRA   22     0         0000024374960000000200000000000004874992000000000019629121000000478459039200000000000000000000001800000000000000000000000000000000000000000000000000000000000000000000000000000000000000000000679104513000000000000000000000000042167980900000000000000000000000000000                  
3030002MX91GA0000H30        0      91  GAP    24-2L  0         0000000017360000001000000000000000017360000000000102298952000000001775909800000000003403240019311800110000051000001100000510000000000000000000000000000000000000000000000000000010000000000000016151317000000000001000000000000001615131700000000000000000000000000000                  
3030011MX1RFI0Q00060        0      1R  FIMMCK 09     0         0000000023700000000385665490000000009140272000000156321867000000003704828200000000000000000000201800000000000000000000000000000000000000000000000000000000000000000000000000000003857632300000034150000000000000001000000000000003415000000000000000000000000000000000                  
3030002US91086QAN880        0      D1SPUMS33F 2033F  0         0000000000030000177354323810000000005320630000021090056663000000000632701700000000000561770026891800410370011036004103700110360000000000000000000000000000000000000000000000000100000000000000000769896000000000010000000000000000076989600000000000000000000000000000                  
3030011MX1RFI2600220        0      1RSPFIECK  24D    0         0000000087370000000957169410000000083627891000000000233641000000000020413200000000000000000174841800000000000000000000000000000000000000000000000000000000000000000000000000000000000000000000015425991000000000000000000000000000732599200000000000000000000000000000                  
3030011MX1RF10000030        0      1R  F1CC   15     0         0000000014180000000327586220000000004645173000000059965327000000000850308300000000000000000002091800000000000000000000000000000000000000000000000000000000000000000000000000000010000000000000115999985000000000001000000000000001200000000000000000000000000000000000                  
3030002US91086QAV050        0      D1SPUMS40F 2040F  0         0000000000010000434378200000000000004343782000036747498697000000000367475000000000000838500051581800410370011036004103700110360000000000000000000000000000000000000000000000000200000000000000001408998000000000020000000000000000140899800000000000000000000000000000                  
3030011MXCFDA0200050        0      CF  DANHOS 13     0         0000004783200000000235944920000001128571739000000028650000000000137038680000000000000000000000001800000000000000000000000000000000000000000000000000000000000000000000000000000000000000000001604073701000000000000000000000000158230934300000000000000000000000000000                  
3030002MX95FN0000J50        0      95  FNCOT  25-3   0         0000003600000000001000000000000003600000000000000099391025000000357807690000000000366540120017791800510000061000005100000000000000000000000000000000000000000000000000000000000010000000000000046660000000000000001000000000000004666000000000000000000000000000000000                  
3030006MX01TR0H00060        0      1   TRAXIONA      0         0000000767950000000198441620000000152393244000000013870000000000010651466500000000000000000000001800000000000000000000000000000000000000000000000000000000000000000000000000000000000000000000555689835000000000000000000000000056195218000000000000000000000000000000                  
3030011MX1RBL0200030        0      1RSPBLKCPI 18     0         0000000453550000001495345580000000678213987000000134142695000000060840419300000000000000000028471800000000000000000000000000000000000000000000000000000000000000000000000000000000000000000000027149956000000000000000000000000000055000000000000000000000000000000000                  
3030011MXCFFI1700080        0      CF  FIBRAPL14     0         0000002178420000000680749840000001482959076000000076540000000000166736266800000000000000000000001800000000000000000000000000000000000000000000000000000000000000000000000000000000000000000001605627494000000000000000000000000159521731600000000000000000000000000000                  
3030006MX01ME0900030        B292SM81   MEGA   CPO    0         0000000901580000000449414090000000405182751000000051430000000000046368259400000000000000000000001800000000000000000000000000000000000000000000000000000000000000000000000000000000000000000000471262594000000000000000000000000172135567300000000000000000000000000000                  
3030011MXCFFI0T00050        0      CF  FIHO   12     0         0000000232930000000182942840000000042612876000000008300000000000001933319000000000000000000000001800000000000000000000000000000000000000000000000000000000000000000000000000000000000000000000789194295000000000000000000000000078722245900000000000000000000000000000                  
3030002MXCDBA1C00P10        0      CD  BANOB  23-2X  0         0000000331630000001000000000000000331630000000000104065390000000034511205300000000066300200015621800410000051000001100000410000000000000000000000000000000000000000000000000000010000000000000036900000000000000001000000000000003690000000000000000000000000000000000                  
3030011MX1RAR1E00010        0      1RSPARAGOPI20D    0         0000000214970000001263818440000000271683050000000099078508000000021298906900000000000000000035201800000000000000000000000000000000000000000000000000000000000000000000000000000000000000000000020139982000000000000000000000000000030000000000000000000000000000000000                  
3030002MX91XI0000710        0      91  XIGNUX 24-2   0         0000000492860000001107643220000000545913035000000109464450000000053950648800000000067460210039591800510000061000001100400410040000000000000000000000000000000000000000000000000010000000000000062500000000000000001000000000000006250000000000000000000000000000000000                  
3030002MX91FU0000850        0      91  FUNO   17     0         0000000033860000000971203240000000032884942000000099979033000000003385290100000000015402540007321800410000061000004100000610000000000000000000000000000000000000000000000000000010000000000000047996000000000000001000000000000004799600000000000000000000000000000000                  
3030011MX1REX0F00010        0      1R  EXICK  14     0         0000000000660000223122600210000000147260916000001755414318000000001158573400000000000000000003711800000000000000000000000000000000000000000000000000000000000000000000000000000000000000000000000101031000000000000000000000000000000163800000000000000000000000000000                  
3030002MXCDBA0300C80        0      CD  BACMEXT21-3X  0         0000000033790000001000000000000000033790000000000097398995000000003291112000000000002498770021501800410000051000001100000410000000000000000000000000000000000000000000000000000010000000000000060000000000000000001000000000000006000000000000000000000000000000000000                  
3030001XS25396083360        0      JI  IBRD336520930 0         0000000001060000083100000000000000088086000000008250743512000000008745788100000000000000000098040800110280051028001102800410280000000000000000000000000000000000000000000000010000000000000000000200000000000001000000000000000000020000000000000000000000000000000000                  
3030007US35473P76930        0      1ISPFLIN   *      0         0000000339290000007292780340000002474367441000000717414285000000243411492800000000000000000000000800000000000000000000000000000000000000000000000000000000000000000000000000000000000000000000066650000000000000000000000000000004515000000000000000000000000000000000                  
3030011MX1RIN3900010        0      1R  INMOBCK18     0         0001346872590000000000081270000000109457958000000000008978000000012092222100000000000000000009711800000000000000000000000000000000000000000000000000000000000000000000000000000000000000000334185209684000000000000000000000000000550000000000000000000000000000000000                  
3030002MX91CE0200P30        0      91  CEMEX  23-2L  0         0000000962070000001038249600000000998868796000000108070161000000103971059800000000171804340017641800410010011000004100100110000000000000000000000000000000000000000000000000000010000000000000085000000000000000001000000000000008500000000000000000000000000000000000                  
3030011MX1RAC1700080        0      1R  ACONCK 14     0         0000000000200000124405616330000000024881123000008523793097000000001704758600000000000000000003611800000000000000000000000000000000000000000000000000000000000000000000000000000000000000000000000161501000000000000000000000000000000400000000000000000000000000000000                  
3030002MX91GA0000960        0      91  GAP    21-2   0         0000000090010000000977857500000000088016954000000099683871000000008972545200000000005339840008831800110000051000001100000510000000000000000000000000000000000000000000000000000010000000000000030000000000000000001000000000000003000000000000000000000000000000000000                  
3030011MX1RLO0800360        0      1RSPLOCKXPI22-4   0         0000000025120000018603614610000000467322799000002098612957000000052717157500000000000000000022411800000000000000000000000000000000000000000000000000000000000000000000000000000000000000000000000811459000000000000000000000000000000095700000000000000000000000000000                  
3030002MX94HS0M00C00        0      94  HSBC   20-2   0         0000000040540000001000000000000000040540000000000094095062000000003814613800000000014409160016571800410000051000001100000410000000000000000000000000000000000000000000000000000010000000000000060000000000000000001000000000000006000000000000000000000000000000000000                  
3030002MX94BS0600A20        0      94  BSMX   23-2   0         0000000243780000001000000000000000243780000000000103118873000000025138318900000000040179020026681800410000051000004100000510000000000000000000000000000000000000000000000000000010000000000000032300000000000000001000000000000003230000000000000000000000000000000000                  
3030014LU22150862940        0      56SPGSEPPIJLX     0         0000000055260000023656713260000001307269975000002549296707000000140874136000000000000000000000001700000000000000000000000000000000000000000000000000000000000000000000000000000000000000000000000000000000000000000000000000000000000000000000000000000002000000000000                  
3030006MX01R00000060        0      1   R      A      0         0000000475540000001301624810000000618974660000000139130000000000066161880200000000000000000000001800000000000000000000000000000120251126000001000000000000000000003350000000000000000000000000327931333000000000000000000000000038924841900000000000000000000000000000                  
3030011MX1RNX0000070        0      1R  NXXMFCK18     0         0000000030370000004267943180000000129617434000000216766019000000006583184000000000000000000008941800000000000000000000000000000000000000000000000000000000000000000000000000000000000000000000007165328000000000000000000000000000006900000000000000000000000000000000                  
3030002MX0SGO0000E30        0      S   UDIBONO461108 0         0000000073740000006821116550000000502989135000000809798869000000059714568600000000123368010076511800110000041000001100000410000000000000000000000000000000000000000000000000000010000000000000423454300000000000001000000000000040612403900000000000000000000000000000                  
3030002MX94BB1U00470        0      94  BBVAMX 23-3   0         0000000186830000001000000000000000186830000000000105874961000000019780619000000000011159970017991800110000041000001100000410000000000000000000000000000000000000000000000000000010000000000000036000000000000000001000000000000003600000000000000000000000000000000000                  
3030007US46432F38810        0      1ISPVLUE   *      0         0000000251760000022694932990000005713676330000002422259175000000609827969900000000000000000000000800000000000000000000000000000000000000000000000000000000000000000000000000000000000000000000065900000000000000000000000000000006540000000000000000000000000000000000                  
3030007US46434V73850        0      1ISPIEUR   *      0         0000001135740000012011893670000013642388115000001267168980000001439174497300000000000000000000000100000000000000000000000000000000000000000000000000000000000000000000000000000000000000000000098000000000000000000000000000000007660000000000000000000000000000000000                  
3030002MXCDBA1C00H80        0      CD  BANOB  21-5X  0         0000000050710000001000000000000000050710000000000094053255000000004769440600000000008181210021041800110000041000001100000410000000000000000000000000000000000000000000000000000010000000000000028000000000000000001000000000000002800000000000000000000000000000000000                  
3030002MXCDBA0300990        0      CD  BACMEXT21-3   0         0000000039190000001000000000000000039190000000000093598892000000003668140600000000001358370019851800110000051000001100000410000000000000000000000000000000000000000000000000000010000000000000045360000000000000001000000000000004536000000000000000000000000000000000                  
3030003MX95CF1600A30        0      95  CFECB  12     0         0000000052620000000566811060000000029825598000000051935663000000002732854600000000005102190061081800410000051000004100000510000000000000000000000000000000000000000000000000000005666666700000135000000000000000001000000000000013500000000000000000000000000000000000                  
3030011MXFFIN3800000        0      FF  INFRAEX18     0         0000000327700000000185000000000000060624500000000011695797000000003832712700000000000000000000001800000000000000000000000000000000000000000000000000000000000000000000000000000000000000000000472698639000000000000000000000000047269863900000000000000000000000000000                  
3030011MX1RFF0100080        0      1R  FFLA1CK15     0         0000000026910000001484662470000000039952267000000115129886000000003098145200000000000000000011911800000000000000000000000000000000000000000000000000000000000000000000000000000000000000000000016501568000000000000000000000000000006563300000000000000000000000000000                  
3030002MX91KO0000F00        0      91  KOF    21L    0         0000000010470000001000000000000000010470000000000098188243000000001028030900000000001498370010221800510000061000001100000410000000000000000000000000000000000000000000000000000010000000000000069650000000000000001000000000000006965000000000000000000000000000000000                  
3030002MX91DA0200220        0      91  DANHOS 17     0         0000000022400000001000000000000000022400000000000098549616000000002207511400000000007970670005781800410000061000004100000610000000000000000000000000000000000000000000000000000010000000000000025000000000000000001000000000000002500000000000000000000000000000000000                  
3030011MXFFFM0400120        0      FF  FMX    23     0         0000000251720000002485360720000000625615000000000035310000000000008888233200000000000000000000001800000000000000000000000000000000000000000000000000000000000000000000000000000000000000000000418124540000000000000000000000000026527647500000000000000000000000000000                  
3030006MX41BB0000000        0      41  BBAJIO O      0         0000000311580000000403315080000000125664912000000047150000000000014690997000000000000000000000001800000000000000000000000000000000000000000000000000000000000000000000000000000000000000000001189931687000000000000000000000000118993168700000000000000000000000000000                  
3030007US46654Q60980        0      1ISPJGRO   US     0         0000000056620000017402857590000000985349797000001714933815000000097099552600000000000000000000000800000000000000000000000000000000000000000000000000000000000000000000000000000000000000000000088100000000000000000000000000000008045000000000000000000000000000000000                  
3030002MXCDBA0300J30        0      CD  BACMEXT23-4X  0         0000000209020000001000000000000000209020000000000110271746000000023049000300000000024781060028711800410000051000001100000410000000000000000000000000000000000000000000000000000010000000000000059486108000000000001000000000000005948610800000000000000000000000000000                  
3030002MX95CF0500700        0      95  CFE    15U    0         0000000004980000005351250980000000026649230000000856363976000000004264692600000000000780200007131800110000041000004100000510000000000000000000000000000000000000000000000000000010000000000000009343609000000000001000000000000000934360900000000000000000000000000000                  
3030002MX95CF0500H10        0      95  CFE    21U    0         0000000002580000006811070980000000017572563000000872520849000000002251103800000000000235240019951800110000041000004100000510000000000000000000000000000000000000000000000000000010000000000000003725726000000000001000000000000000372572600000000000000000000000000000                  
3030007US81369Y10010        0      1ISPXLB    *      0         0000000024950000017107610500000000426834882000001630553715000000040682315200000000000000000000000800000000000000000000000000000000000000000000000000000000000000000000000000000000000000000000057823725000000000000000000000000006492372500000000000000000000000000000                  
3030006MX01WA0000380        0      1   WALMEX *      0         0000006402700000000568376400000003639143574000000061810000000000395750887000000000000000000000001800000000000000000000000000000000000000000000000000000000000000000000000000000000000000000017299727303000000000000000000000001744632217700000000000000000000000000000                  
3030006MX01SI0C00020        0      1   SITES1 A-1    0         0000000544090000000154354100000000083982521000000015030000000000008177672700000000000000000000001800000000000000000000000000000000000000000000000000000000000000000000000000000000000000000002980967275000000000000000000000000313372271100000000000000000000000000000                  
3030011MX1RFN0600030        0      1RSPFNSA3CK21D    0         0000000366790000000465983120000000170917948000000049504659000000018157813900000000000000000018881800000000000000000000000000000000000000000000000000000000000000000000000000000000000000000000030848519000000000000000000000000000015000000000000000000000000000000000                  
3030011MXCFFM0100000        0      CF  FMTY   14     0         0000021290300000000117818770000002508397009000000014300000000000304451290000000000000000000000001800000000000000000000000000000000000000000000000000000000000000000000000000000000000000000002437674664000000000000000000000000063802478500000000000000000000000000000                  
3030003MX95CF1800000        0      95  CFEHCB 06     0         0000000028280000000368075040000000010409162000000035805253000000001012572600000000001013260039631800410000051000004100000510000000000000000000000000000000000000000000000000000003666666700000025000000000000000001000000000000002500000000000000000000000000000000000                  
3030002MX91AM0500P30        0      91  AMX    22X    0         0000000743930000001000000000000000743930000000000102831845000000076499694500000000005901820025451800110000041000001100000410000000000000000000000000000000000000000000000000000010000000000000146791657000000000001000000000000014679165700000000000000000000000000000                  
3030011MX1RPR1M00170        0      1R  PRANACK15-2   0         0000000190820000000256048550000000048859184000000010892200000000002078449600000000000000000000001800000000000000000000000000000000000000000000000000000000000000000000000000000000000000000000125937105000000000000000000000000000577476000000000000000000000000000000                  
3030003MX91LE0100030        0      91  LEPCB  18     0         0000000035950000000747251460000000026863690000000073943247000000002658259700000000002304010076311800410000061000000000000000000000000000000000000000000000000000000000000000000007472514700000045000000000000000001000000000000004500000000000000000000000000000000000                  
3030002MXCDBA0300H70        0      CD  BACMEXT23-2X  0         0000000467130000001000000000000000467130000000000104252282000000048699368500000000127256580015341800410000051000001100000410000000000000000000000000000000000000000000000000000010000000000000060000000000000000001000000000000006000000000000000000000000000000000000                  
3030011MXFEFC0C00030        0      FE  FCFE   18     0         0000007533700000000238204710000001794562805000000021800000000000164234660000000000000000000000001800000000000000000000000000000000000000000000000000000000000000000000000000000000000000000000853195411000000000000000000000000085319541100000000000000000000000000000                  
3030002MX94HS0M00F30        0      94  HSBC   24-2   0         0000000070590000001000000000000000070590000000000105484619000000007446159300000000003244010012581800410000051000001100000410000000000000000000000000000000000000000000000000000010000000000000025000000000000000001000000000000002500000000000000000000000000000000000                  
3030002MX91OM0000760        0      91  OMA    23-2L  0         0000000058110000001000000000000000058110000000000105930460000000006155619000000000013745920015551800110000041000004100000510000000000000000000000000000000000000000000000000000010000000000000025600000000000000001000000000000002560000000000000000000000000000000000                  
3030002MX95CF0500880        0      95  CFE    17     0         0000000042830000000962219580000000041211865000000099441318000000004259071600000000014987170007561800110000041000004100000510000000000000000000000000000000000000000000000000000010000000000000125500000000000000001000000000000012550000000000000000000000000000000000                  
3030011MXFFFV0000070        0      FF  FVIA   16     0         0000000254040000000298323050000000075785988000000018950000000000004814058000000000000000000000001800000000000000000000000000000000000000000000000000000000000000000000000000000000000000000001231460484000000000000000000000000123146048400000000000000000000000000000                  
3030011MX1REX0J00070        0      1R  EXI3CK 20     0         0000000674690000000238216780000000160722478000000053778314000000036283690700000000000000000033491800000000000000000000000000000000000000000000000000000000000000000000000000000000000000000000116100000000000000000000000000000001922800000000000000000000000000000000                  
3030007US09290C10360        0      1ISPDYNF   US     0         0000000184260000010850858690000001999379223000001109231445000000204386986100000000000000000000000800000000000000000000000000000000000000000000000000000000000000000000000000000000000000000000490425000000000000000000000000000035467500000000000000000000000000000000                  
3030002MX91ST2700090        0      91  STORAGE21V    0         0000000032050000001000000000000000032050000000000096988979000000003108496800000000013614840009151800410030061001004100300610010000000000000000000000000000000000000000000000000010000000000000011710000000000000001000000000000001171000000000000000000000000000000000                  
3030002MX91BI0Y00940        0      91  BIMBO  17     0         0000000046880000001000000000000000046880000000000100569964000000004714719900000000006604350006661800110000041000005100200110000000000000000000000000000000000000000000000000000010000000000000100000000000000000001000000000000010000000000000000000000000000000000000                  
3030002MX94HS0M00D80        0      94SPHSBC   24D    0         0000000016930000016784500000000000284161585000001864935099000000031573351200000000007129840005301800410000051000001100000410000000000000000000000000000000000000000000000000000010000000000000001500000000000000001000000000000000150000000000000000000000000000000000                  
3030011MX1RGR0500090        0      1R  GRANDCK18     0         0000006250570000000007346160000000045917703000000000800410000000005003018700000000000000000009931800000000000000000000000000000000000000000000000000000000000000000000000000000000000000000005445090577000000000000000000000000000800000000000000000000000000000000000                  
3030007FR00134167160        0      1ISPAMGOLD N      0         0000000180620000030342990790000005480550997000003027617604000000546848291600000000000000000000002100000000000000000000000000000000000000000000000000000000000000000000000000000000000000000000066219758000000000000000000000000005068715500000000000000000000000000000                  
3030002MX2UCB1J00162UCB1J0010      2U  CBIC009331124 0         0000000003850000005669729350000000021828458000000828612467000000003190158000000000006441100029191800110000041000001100000410000000000000000000000000000000000000000000000000000010000000000000050139000000000000001000000000000005013900000000000000000000000000000000                  
3030006MX01VI0C00060        0      1   VISTA  A      0         0000000025030000001716356080000000042960393000000888250000000000022232897500000000000000000000001800000000000000000000000000000000000000000000000000000000000000000000000000000000000000000000104256410000000000000000000000000009519588500000000000000000000000000000                  
3030006MXP4611810850        23934521   GCARSO A1     0         0000000287880000001260169560000000362777614000000125810000000000036218182800000000000000000000001800000000000000000000000000000000000000000000000000000000000000000000000000000000000000000002254549737000000000000000000000000274500000000000000000000000000000000000                  
3030002MXCDBA1C00S50        0      CD  BANOB  23-3   0         0000000486530000001000000000000000486530000000000100650396000000048969437200000000181727080034941800410000051000001100000410000000000000000000000000000000000000000000000000000010000000000000080000000000000000001000000000000008000000000000000000000000000000000000                  
3030002MX0MGO0000R80        0      M   BONOS  421113 0         0000004796830000000833113460000003996303656000000086742108000000416087145900000001807139030061951800110000041000001100000410000000000000000000000000000000000000000000000000000010000000000004416163464000000000001000000000000386431503400000000000000000000000000000                  
3030011MX1RNE0200080        0      1R  NEXX6CK13     0         0000000006950000002643066300000000018369311000000082090000000000000570525500000000000000000002121800000000000000000000000000000000000000000000000000000000000000000000000000000000000000000000015122649000000000000000000000000000000816300000000000000000000000000000                  
3030002MX90GD0000520        0      90  GDFCB  07     0         0000000003360000001000000000000000003360000000000101467502000000000340930800000000000024220007251800110000041000004100000510000000000000000000000000000000000000000000000000000010000000000000005750000000000000001000000000000000575000000000000000000000000000000000                  
3030006MX01GA0600080        0      1   GAV    A      0         0000000012520000001588655510000000019889967000000175679639000000002199509100000000000000000000001800000000000000000000000000000000000000000000000000000000000000000000000000000000000000000000060033332000000000000000000000000006003333200000000000000000000000000000                  
3030002MX91AM0500R90        0      91  AMX    22UX   0         0000000049260000007610446000000000374890570000000884673849000000043579033800000000001709470043651800110000041000001100000410000000000000000000000000000000000000000000000000000010000000000000013262478000000000001000000000000001326247800000000000000000000000000000                  
3030002XS27015594400        0      JE  AMX    0134X  0         0000000016300000102776580740000001675258266000010578740132000000172433464200000000545642500029861800110000041000001100000410000000000000000000000000000000000000000000000000001000000000000000003000000000000000100000000000000000200000000000000000000000000000000000                  
3030002MX91OM0000350        0      91  OMA    21-2   0         0000000054600000001000000000000000054600000000000099428905000000005428818200000000005700240008621800410000051000004100000510000000000000000000000000000000000000000000000000000010000000000000025000000000000000001000000000000002500000000000000000000000000000000000                  
3030006MX01KO0000020        0      1   KOF    UBL    0         0000000776830000001707470640000001326414419000000161090000000000125139544700000000000000000000001800000000000000000000000000000000000000000000000000000000000000000000000000000000000000000000525207645000000000000000000000000052520764500000000000000000000000000000                  
3030002USP4948KAH880        0      D2SPGRUMH88341209 0         0000000001040000200633388000000000208658724000018819724773000000019572513800000000047985620032991800110360041035001103600410360000000000000000000000000000000000000000000000000100000000000000000500000000000000010000000000000000050000000000000000000000000000000000                  
3030002MX91TR0H00070        0      91  TRAXION20     0         0000000038250000001000000000000000038250000000000096971237000000003709149800000000008014650006441800410040061002004100400610020000000000000000000000000000000000000000000000000010000000000000025000000000000000001000000000000002500000000000000000000000000000000000                  
3030002MX2UCB1900090        0      2U  CBIC004310116 0         0000000000030000005578517390000000000167356000000932685336000000000027980600000000000050820018761800110000041000001100000410000000000000000000000000000000000000000000000000000010000000000000053189973000000000001000000000000005318997300000000000000000000000000000                  
3030011MX1RVE0T00090        0      1R  VEXCK  17     0         0000000714660000000033721010000000024099060000000002698355000000001928406400000000000000000006511800000000000000000000000000000000000000000000000000000000000000000000000000000000000000000000680599922000000000000000000000000000600000000000000000000000000000000000                  
3030006MXP0005110160        20434231   ALFA   A      0         0000003501470000000125089910000000437998584000000014250000000000049895947500000000000000000000001800000000000000000000000000000000000000000000000000000000000000000000000000000000000000000005558536508000000000000000000000000555853650800000000000000000000000000000                  
3030002MX91LI0500620        0      91  LIVEPOL17     0         0000000012980000001000000000000000012980000000000099204501000000001287674400000000002977320006241800110000041000001100000410000000000000000000000000000000000000000000000000000010000000000000035000000000000000001000000000000003500000000000000000000000000000000000                  
3030002MX0MGO0001F10MGO0001F0      M   BONOS  290301 0         0000018902910000000990975650000018732323554000000101463755000001917960229000000003749076520011901800110000041000001100000410000000000000000000000000000000000000000000000000000010000000000004379558151000000000001000000000000350893113900000000000000000000000000000                  
3030002MX95CF0500O70        0      95  CFE    222UV  0         0000000021760000008597406070000000187079556000001004384099000000021855398000000000004543320061751800410000051000004100000510000000000000000000000000000000000000000000000000000010000000000000004344727000000000001000000000000000434472700000000000000000000000000000                  
3030011MX1RGA0500160        0      1RSPGAPI   18-D   0         0000000762330000001055779890000000804852684000000104069628000000079335399500000000000000000051221800000000000000000000000000000000000000000000000000000000000000000000000000000000000000000000041399999000000000000000000000000000045000000000000000000000000000000000                  
3030002US91086QBE700        0      D1SPMEXE70 450121 0         0000000000060000170672521430000000010240351000017085631168000000001025137900000000002137930069951800410370011036004103700110360000000000000000000000000000000000000000000000000100000000000000002764306000000000010000000000000000276430600000000000000000000000000000                  
3030011MX1RNI0100880        0      1R  NIKEPI 25-8   0         0000001053300000001000000000000001053300000000000099991757000000105321317600000000000000000047701800000000000000000000000000000000000000000000000000000000000000000000000000000000000000000000000105330000000000000000000000000000009840000000000000000000000000000000                  
3030011MX1RPL0Q00090        0      1R  PLA2CK 17     0         0000002331760000000027881710000000065013447000000000764231000000001782003300000000000000000005231800000000000000000000000000000000000000000000000000000000000000000000000000000000000000000001521485188000000000000000000000000000884400000000000000000000000000000000                  
3030006MX01ES0500190        0      1   ESENTIAII     0         0000007613840000000450000000000003426228000000000046620000000000354957220800000000000000000000001800000000000000000000000000000000000000000000000000000000000000000000000000000000000000000000534016903000000000000000000000000053401690300000000000000000000000000000                  
3030004MX91LA0100640        0      91  LAB    23-2   0         0000000159540000000999986310000000159537816000000100379432000000016014534600000000005913620004881800410010061001004100100610010000000000000000000000000000000000000000000000000010000000000000022000000000000000001000000000000002200000000000000000000000000000000000                  
3030011MX1RKK0100380        0      1RSPKKRPI  18D    0         0000000032550000020342250380000000662140250000002717039220000000088439626600000000000000000157131800000000000000000000000000000000000000000000000000000000000000000000000000000000000000000000000799978000000000000000000000000000020000000000000000000000000000000000                  
3030011MX1RPM0500110        0      1R  PMCAPCK20     0         0000001039910000000068243380000000070966970000000005504920000000005724621400000000000000000015101800000000000000000000000000000000000000000000000000000000000000000000000000000000000000000000880638703000000000000000000000000000012000000000000000000000000000000000                  
3030002MX94BA0A00100        0      94  BACOMER07U    0         0000000012220000003886013230000000047487082000000862625845000000010541287800000000017827360002241800410000051000001100000410000000000000000000000000000000000000000000000000000010000000000000022403077000000000001000000000000002240307700000000000000000000000000000                  
3030011MX1RFF0400050        0      1R  FFLA4CK15     0         0000000031210000000001465040000000000045724000002272542460000000070926050200000000000000000014881800000000000000000000000000000000000000000000000000000000000000000000000000000000000000000000001114259000000000000000000000000000007800000000000000000000000000000000                  
3030003MX91CP0300090        0      91  CPXACB 24U    0         0000000054660000008150167400000000445488150000000939149131000000051333891500000000144139520104271800410000061000000000000000000000000000000000000000000000000000000000000000000009967000000000005778295000000000001000000000000000577829500000000000000000000000000000                  
3030007IE00B9F5YL180        0      1ISPVDPX   N      0         0000000095260000004149908320000000395320267000000570345274000000054331090800000000000000000000000800000000000000000000000000000000000000000000000000000000000000000000000000000000000000000000046898090000000000000000000000000004484778700000000000000000000000000000                  
3030002MX91TE0000710        0      91  TELMEX 07     0         0000000056580000000996801880000000056399050000000089903169000000005086721300000000007752090041271800510010011000005100100110000000000000000000000000000000000000000000000000000010000000000000050000000000000000001000000000000005000000000000000000000000000000000000                  
3030002MX95CF0500A60        0      95  CFE    17U    0         0000000003310000005831077810000000019300868000000831421448000000002752005000000000001759870024991800110000041000004100000510000000000000000000000000000000000000000000000000000010000000000000022864142000000000001000000000000002286414200000000000000000000000000000                  
3030007US92204286610        0      1ISPVPL    *      0         0000001574930000014375681840000022640692606000001666140105000002624054035600000000000000000000000800000000000000000000000000000000000000000000000000000000000000000000000000000000000000000000092081871000000000000000000000000009386821900000000000000000000000000000                  
3030006MX01CH1700020        B457NQ01   CHDRAUIB      0         0000000454750000001328497820000000604134384000000133470000000000060695482500000000000000000000001800000000000000000000000000000000000000000000000000000000000000000000000000000000000000000000960282670000000000000000000000000096391721100000000000000000000000000000                  
3030002MX91BB1R00140        0      91  BBPEN  21-2   0         0000000014330000001000000000000000014330000000000097911656000000001403074000000000005381630011001800410010061001004100100610010000000000000000000000000000000000000000000000000010000000000000020000000000000000001000000000000002000000000000000000000000000000000000                  
3030002MX91BI0Y00B80        0      91  BIMBO  23L    0         0000000782350000001000000000000000782350000000000101612816000000079496786600000000363453760027311800110000041000005100200110000000000000000000000000000000000000000000000000000010000000000000120000000000000000001000000000000012000000000000000000000000000000000000                  
3030002MX91TL0000310        0      91  TLEVISA17     0         0000000049200000001005296180000000049460572000000098479433000000004845188100000000007087670006691800410010011000005100200410010000000000000000000000000000000000000000000000000010000000000000045000000000000000001000000000000004500000000000000000000000000000000000                  
3030002MX2UCB1700012UCB170000      2U  CBIC002300117 0         0000000000090000005682958730000000000511466000000979832981000000000088185000000000000152450015121800110000041000001100000410000000000000000000000000000000000000000000000000000010000000000000034826576000000000001000000000000003482657600000000000000000000000000000                  
3030002MX91FS0000220        0      91  FSHOP  17-2   0         0000000012150000001000000000000000012150000000000098539407000000001197253800000000004159860005931800410040061002004100400610020000000000000000000000000000000000000000000000000010000000000000016000000000000000001000000000000001600000000000000000000000000000000000                  
3030002MX91BS0700030        0      91  BSMXCB 25     0         0000002206320000001000000000000002206320000000000099871764000000220349070300000000220852630031961800410000061000000000000000000000000000000000000000000000000000000000000000000010000000000000027900000000000000001000000000000002790000000000000000000000000000000000                  
3030006MX01LA0500100        0      1   LACOMERUBC    0         0000000776810000000379914160000000295121121000000040750000000000031655007500000000000000000000001800000000000000000000000000000000000000000000000000000000000000000000000000000000000000000000500679496000000000000000000000000049990540000000000000000000000000000000                  
3030006MXP6069411790        24919141   KIMBER A      0         0000001011680000000311655530000000315295671000000036740000000000037169123200000000000000000000001800000000000000000000000000000000000000000000000000000000000000000000000000000000000000000001564014737000000000000000000000000158418257300000000000000000000000000000                  
3030003MX91AP1Y00090        0      91  APPCVCB17     0         0000000019380000000237000000000000004593060000000023149184000000000448631200000000001124150003371800110090061002000000000000000000000000000000000000000000000000000000000000000002370000000000019500000000000000001000000000000001950000000000000000000000000000000000                  
3030003MX91CA1500280        0      91  CAMSCB 24U    0         0000000023940000008317154930000000199112689000000983108767000000023535623900000000056599570106241800410000061000000000000000000000000000000000000000000000000000000000000000000009992000000000006006861000000000001000000000000000600686100000000000000000000000000000                  
3030003MX91TO0000C80        0      91  TOYOTA 22-2   0         0000000123660000001000000000000000123660000000000101296744000000012526355400000000046061980004141800110000041000001100000410000000000000000000000000000000000000000000000000000010000000000000010000000000000000001000000000000001000000000000000000000000000000000000                  
3030011MX1RAI0100260        0      1R  AINDACK18A    0         0000044519130000000008202720000000365178093000000001142122000000050846277800000000000000000026591800000000000000000000000000000000000000000000000000000000000000000000000000000000000000000005364078356000000000000000000000000000880000000000000000000000000000000000                  
3030002MX91ED0900210        0      91  EDUCA  23UL   0         0000000046800000007852133990000000367479871000000936719424000000043838469000000000077514060028071800510010061000005100100610000000000000000000000000000000000000000000000000000010000000000000006505847000000000001000000000000000650584700000000000000000000000000000                  
3030002US91086QAZ190        0      D1SPUMS110F2110F  0         0000000000510000304104560780000000155093326000031589124905000000016110453700000000013448080309991800410370011036004103700110360000000000000000000000000000000000000000000000000200000000000000001338997000000000020000000000000000133899700000000000000000000000000000                  
3030002MX91KO0000H60        0      91  KOF    22S    0         0000000246030000001000000000000000246030000000000105279461000000025901905800000000035359970014041800110000051000001100000410000000000000000000000000000000000000000000000000000010000000000000055000000000000000001000000000000005500000000000000000000000000000000000                  
3030007US92290873690        0      1ISPVUG    *      0         0000000011320000088463841700000001001410688000008958598530000000101411335400000000000000000000000800000000000000000000000000000000000000000000000000000000000000000000000000000000000000000000413109599000000000000000000000000037873615900000000000000000000000000000                  
3030002MX91GP0200140        0      91  GPH    19-2   0         0000000062360000001000000000000000062360000000000096784978000000006035511200000000006518700014081800410000061000004100000610000000000000000000000000000000000000000000000000000010000000000000040000000000000000001000000000000004000000000000000000000000000000000000                  
3030006MX01AC1000060        28238851   AC     *      0         0000000779750000001941633680000001513988859000000182890000000000142608477500000000000000000000001800000000000000000000000000000000000000000000000000000000000000000000000000000000000000000001698192061000000000000000000000000169819206100000000000000000000000000000                  
3030011MX1RAC1700160        0      1R  ACONCK 19     0         0000000000410000066751063120000000027367936000005585997531000000002290259000000000000000000003611800000000000000000000000000000000000000000000000000000000000000000000000000000000000000000000000126994000000000000000000000000000000900000000000000000000000000000000                  
3030003MX91PR1C00170        0      91  PROIN  10     0         0000000010760000000431063480000000004638243000000042292214000000000455064200000000000921540017351800110000041000001100400410040000000000000000000000000000000000000000000000000004310635300000027650000000000000001000000000000002765000000000000000000000000000000000                  
3030007US46434G77230        0      1ISPEWT    *      0         0000000444300000011151536420000004954627630000001167747210000000518830085400000000000000000000000800000000000000000000000000000000000000000000000000000000000000000000000000000000000000000000107100000000000000000000000000000010140000000000000000000000000000000000                  
3030002MX91AC1J00060        0      91  ACBE   17     0         0000000044250000000995581380000000044054476000000099669221000000004410363000000000007998440006451800110000041000001100000410000000000000000000000000000000000000000000000000000010000000000000060000000000000000001000000000000006000000000000000000000000000000000000                  
3030002MX94BI0000G30        0      94  BINTER 16U    0         0000000003670000005476172880000000020097554000000863269329000000003168198400000000002441250003081800410000061000005100500410040000000000000000000000000000000000000000000000000010000000000000003652185000000000001000000000000000365218500000000000000000000000000000                  
3030002USP3146DAB930        0      D2SPVESTB93330130 0         0000000016000000184005114250000002944081828000018477224123000000295635586000000000255586100026211800110370041037001103700410370000000000000000000000000000000000000000000000000100000000000000000500000000000000010000000000000000050000000000000000000000000000000000                  
3030003MX95CD0000770        0      95  CDVITOT14U    0         0000000001680000000151088690000000000253829000000024554730000000000041251900000000000037950060801800510000061000000000000000000000000000000000000000000000000000000000000000000000294242300000005541417000000000001000000000000000554141700000000000000000000000000000                  
3030011MX1RNI0100050        0      1R  NIKEPI 18     0         0000028326560000000047409940000001342960431000000006600500000000186969459300000000000000000047701800000000000000000000000000000000000000000000000000000000000000000000000000000000000000000000750823608000000000000000000000000000401780000000000000000000000000000000                  
3030011MX1RIG0700080        0      1R  IGS3CK 17     0         0000100292960000000000748740000000075093389000000000106728000000010704067000000000000000000005291800000000000000000000000000000000000000000000000000000000000000000000000000000000000000000062772097640000000000000000000000000000540000000000000000000000000000000000                  
3030003MX2USH0200040        0      2U  SHF0002280929 0         0000000003480000000690988790000000002404641000000165007610000000000574226500000000000408950010371800410000061000004100000610000000000000000000000000000000000000000000000000000001902090900000006040334000000000001000000000000000604033400000000000000000000000000000                  
3030002MX0MGO0000B20        0      M   BONOS  361120 0         0000000093510000001139974070000000106598976000000107596505000000010061349200000000045456250040111800110000041000001100000410000000000000000000000000000000000000000000000000000010000000000000941343545000000000001000000000000090943008700000000000000000000000000000                  
3030002MX0SGO0000N40SGO0000N0      S   UDIBONO431112 0         0000002273400000006556140860000014904730620000000725738413000001649893708100000003090285820065591800110000041000001100000410000000000000000000000000000000000000000000000000000010000000000000400403112000000000001000000000000028786219600000000000000000000000000000                  
3030002MXCDBA1C00L00        0      CD  BANOB  22-3   0         0000000168930000001000000000000000168930000000000104476493000000017649214000000000013746680023351800110000041000001100000410000000000000000000000000000000000000000000000000000010000000000000047000000000000000001000000000000004700000000000000000000000000000000000                  
3030002USP3691NBM130        0      D2SPLIVEM13370122 0         0000000000410000208187000000000000085356670000019650932960000000008056882500000000017386710040741800110360041035001103600410350000000000000000000000000000000000000000000000000100000000000000000500000000000000010000000000000000050000000000000000000000000000000000                  
3030002MX95FO0M00490        0      95  FONADIN21U    0         0000000004070000006803308990000000027689468000000761316081000000003098556400000000005430310038291800110000041000001100000410000000000000000000000000000000000000000000000000000010000000000000005109955000000000001000000000000000510995500000000000000000000000000000                  
3030006MXP4952112620        23924711   BIMBO  A      0         0000000483470000000572113690000000276599804000000057590000000000027843037300000000000000000000001800000000000000000000000000000000000000000000000000000000000000000000000000000000000000000004304744119000000000000000000000000432748233300000000000000000000000000000                  
3030011MX1RRR0000190        0      1R  RRGCK  21     0         0000000085610000000583797690000000049978920000000074044059000000006338911900000000000000000026861800000000000000000000000000000000000000000000000000000000000000000000000000000000000000000000011482384000000000000000000000000000192439300000000000000000000000000000                  
3030002MX0MGO0001I50MGO0001I0      M   BONOS  300228 0         0000001711280000000989809140000001693840579000000100978565000000172802598700000000339403810015541800110000041000001100000410000000000000000000000000000000000000000000000000000010000000000002858059581000000000001000000000000160000000000000000000000000000000000000                  
3030002MX95CF0500U40        0      95  CFE    24UX   0         0000000003930000008335986000000000032760425000000962223929000000003781540000000000010886040032911800110000041000004100000510000000000000000000000000000000000000000000000000000010000000000000004370744000000000001000000000000000437074400000000000000000000000000000                  
3030011MX1REX0G00000        0      1R  EXI2CK 17     0         0000007818050000000096127370000000751528614000000006519229000000050967658300000000000000000023741800000000000000000000000000000000000000000000000000000000000000000000000000000000000000000000728200818000000000000000000000000001113402100000000000000000000000000000                  
3030006MX01PI0000050        0      1   PINFRA *      0         0000000137310000001993729120000000273758945000000250550000000000034403020500000000000000000000001800000000000000000000000000000000000000000000000000000000000000000000000000000000000000000000380123523000000000000000000000000038012352300000000000000000000000000000                  
3030002MX0MGO0000J50        0      M   BONOS  381118 0         0000016015580000000928439760000014869501275000000095373605000001527463600800000006617547970047391800110000041000001100000410000000000000000000000000000000000000000000000000000010000000000002651289574000000000001000000000000211501128400000000000000000000000000000                  
3030002MX91DA0200300        0      91  DANHOS 23L    0         0000000033170000001000000000000000033170000000000104992524000000003482602000000000010224470017161800410000061000004100000610000000000000000000000000000000000000000000000000000010000000000000025000000000000000001000000000000002500000000000000000000000000000000000                  
3030002MXCDNA0R00780        0      CD  NAFF   22S    0         0000000118140000001000000000000000118140000000000101589474000000012001780500000000030852920024441800110000041000001100000410000000000000000000000000000000000000000000000000000010000000000000032740904000000000001000000000000003274090400000000000000000000000000000                  
3030006MXP5540914150        0      1   PE&OLES*      0         0000000220470000004635775490000001022049421000000779040000000000171754948800000000000000000000001800000000000000000000000000000000000000000000000000000000000000000000000000000000000000000000397475747000000000000000000000000041326474700000000000000000000000000000                  
3030002MX91HE0100B40        0      91  HERDEZ 22L    0         0000000225630000001000000000000000225630000000000102623407000000023154919300000000095009020023931800110020041002001100300410020000000000000000000000000000000000000000000000000010000000000000015000000000000000001000000000000001500000000000000000000000000000000000                  
3030011MX1RAR0Z00070        0      1R  ARTHACK10     0         0000000009100000000544406590000000004954100000000111190840000000001011836600000000000000000000001800000000000000000000000000000000000000000000000000000000000000000000000000000005444066000000024400000000000000001000000000000002440000000000000000000000000000000000                  
3030002MXCDBA0300O30        0      CD  BACMEXT24-4X  0         0000000516320000001000000000000000516320000000000106268545000000054868575200000000150085600031691800510000061000001100000410000000000000000000000000000000000000000000000000000010000000000000064063532000000000001000000000000006406353200000000000000000000000000000                  
3030002MX94BS0600500        0      94  BSMX   21-2   0         0000000124070000001000000000000000124070000000000099263638000000012315639600000000000556940010901800410000051000004100000510000000000000000000000000000000000000000000000000000010000000000000065000000000000000001000000000000006500000000000000000000000000000000000                  
3030011MX1RIN3A00050        0      1R  INDCK  18     0         0000001873580000000017609500000000032992810000000000600152000000001124432800000000000000000010571800000000000000000000000000000000000000000000000000000000000000000000000000000000000000000000918774911000000000000000000000000000320000000000000000000000000000000000                  
3030002MX91KO0000B90        0      91  KOF    17     0         0000000016840000001000000000000000016840000000000099497736000000001675541900000000005890260005681800110000051000001100000410000000000000000000000000000000000000000000000000000010000000000000085000000000000000001000000000000008500000000000000000000000000000000000                  
3030003USP60694AF680        0      D2SPKCMAF68310701 0         0000000002060000191261168930000000393998008000016716787418000000034436582100000000037255010020421800110340041033001103700410330000000000000000000000000000000000000000000000000100000000000000000500000000000000010000000000000000050000000000000000000000000000000000                  
3030002MX2UCB1D00042UCB1D0000      2U  CBIC006321125 0         0000000000350000006286881640000000002200409000000920801030000000000322280400000000000823440025551800110000041000001100000410000000000000000000000000000000000000000000000000000010000000000000021498080000000000001000000000000002149808000000000000000000000000000000                  
3030002MX0SGO0000P90SGO0000P0      S   UDIBONO340824 0         0000001223530000007992861190000009779505448000000827973169000001013050011500000000982551360031921800110000041000001100000410000000000000000000000000000000000000000000000000000010000000000000346714898000000000001000000000000018215743800000000000000000000000000000                  
3030007US46428720000        0      1ISPIVV    *      0         0000000025440000121709583610000003096291807000012529711110000000318755850600000000000000000000000800000000000000000000000000000000000000000000000000000000000000000000000000000000000000000001064450000000000000000000000000000100015000000000000000000000000000000000                  
3030011MX1RPL0400050        0      1R  PLANICK12     0         0000000013310000000077614280000000001033046000000001890000000000000025155900000000000000000000031800000000000000000000000000000000000000000000000000000000000000000000000000000010000000000000011545200000000000001000000000000002475200000000000000000000000000000000                  
3030002MX94BB1U00130        0      94  BBVAMX 23     0         0000000519930000001000000000000000519930000000000104648183000000054409729800000000139159260015371800110000041000001100000410000000000000000000000000000000000000000000000000000010000000000000061310000000000000001000000000000006131000000000000000000000000000000000                  
3030011MX1RCI0C00090        0      1R  CI3CK  11     0         0000000014660000000459409820000000006734948000000009556275000000000140095000000000000000000000001800000000000000000000000000000000000000000000000000000000000000000000000000000004594098200000015300000000000000001000000000000001530000000000000000000000000000000000                  
3030007IE00B4L5YX210        0      1ISPIJPA   N      0         0000000039990000011057553420000000442191561000001255429140000000050204611300000000000000000000001600000000000000000000000000000000000000000000000000000000000000000000000000000000000000000000100385796000000000000000000000000009627948300000000000000000000000000000                  
3030002MX91GC0000940        0      91  GCARSO 24-2   0         0000000425530000001000000000000000425530000000000107470179000000045731785300000000002486970020001800410000061000004100000610000000000000000000000000000000000000000000000000000010000000000000055000000000000000001000000000000005500000000000000000000000000000000000                  
3030011MXFHFH0200010        0      FH  FHIPO  14     0         0000000278530000000251456150000000070038083000000013650000000000003801934500000000000000000000001800000000000000000000000000000000000000000000000000000000000000000000000000000000000000000000373350259000000000000000000000000037335025900000000000000000000000000000                  
3030011MX1RPB0300080        0      1R  PBFF1CK12     0         0000000011150000000485233520000000005410354000000055175173000000000615203200000000000000000002481800000000000000000000000000000000000000000000000000000000000000000000000000000009306830400000026812471000000000001000000000000000422000000000000000000000000000000000                  
3030011MX1RFC0700050        0      1R  FCICK  16     0         0000000000860000049018176500000000042155632000005700446916000000004902384300000000000000000013441800000000000000000000000000000000000000000000000000000000000000000000000000000000000000000000000692997000000000000000000000000000000700000000000000000000000000000000                  
3030002MX95FO0M00230        0      95  FONADIN20U    0         0000000010200000006649139660000000067821225000000822331210000000008387778300000000009641580010991800110000041000001100000410000000000000000000000000000000000000000000000000000010000000000000011312340000000000001000000000000001131234000000000000000000000000000000                  
3030005MX90CB1400030        0      90  CBPF   48     0         0000000179400000001040128440000000186599042000000102664533000000018418017200000000000807300079731800410000051000000000000000000000000000000000000000000000000000000000000000000010000000000000070000000000000000001000000000000007000000000000000000000000000000000000                  
3030002MX0SGO0000150SGO000010      S   UDIBONO251204 0         0000001279050000008463656220000010825439494000000861659783000001102105945400000002407351290000071800110000041000001100000410000000000000000000000000000000000000000000000000000010000000000000113744042000000000001000000000000021008028400000000000000000000000000000                  
3030002MX91GR0600180        0      91  GRUMA  21     0         0000000036510000001000000000000000036510000000000097842286000000003572221900000000000922890008971800110000041000001100000410000000000000000000000000000000000000000000000000000010000000000000020000000000000000001000000000000002000000000000000000000000000000000000                  
