00000314343030000443000001020251126                                                                                                                                                                                                                                                                                                                    
301MXBIGO000X350        0      BI  CETES  260108 0         0000010000000000464970690000046092023732007300000000009912888000004610137017000000000093464380000046101370170000000000101000000001000000040044                    00110000041000000000000000                                                                                                
301MXBIGO000YD80        0      BI  CETES  260514 0         0000010000000000298739140000028867267656007280000000009663035000002887310525900000000058376030000028873105259000000000101000000001000000040012                    00110000041000000000000000                                                                                                
301MX0MGO0000P20        0      M   BONOS  310529 0         0000010000000000024736700000024914601693007280000000100719181000002491963997900000000050382860000024919639979000000000101000000001000000040014                    00410000051000000000000000                                                                                                
302001000106MX54BM1700440        0      54  BMRPREVD2     0         2025112600000000000100000000266588500000000266588500000000000002670000000000000100000000100000018801160                    000000001000                    0                                                                                                                       
3020021201100           0        0      EF  EFECTIV990101 00000000002025112600000530309500000000100000000000000000000000000005303095360000000000000100000000000000018000000                    000000001000                    0                                                                                                                       
302501010102MX0MGO0000P20        0      M   BONOS  310529 0         2025112600000298453800000010061011700000010063063000000300335938820020100073400100000000100000018040014                    000000001000                    0                                                                                                                       
302502010102MX0MGO0001C80MGO0001C0      M   BONOS  270304 0         2025112600000216925100000009887372100000009889388000000214525648630004630073400100000000100000018040012                    000000001000                    0                                                                                                                       
302503010101MXBIGO000XZ30        0      BI  CETES  260723 0         2025112600005000458200000000952617100000000952811900000476449586480002390073600100000000100000018040044                    000000001000                    0                                                                                                                       
302504000106MX54BM1700440        0      54  BMRPREVD2     0         2025112600000014892000000000266588500000000266588500000000397003590000000000000100000000100000018801160                    000000001000                    0                                                                                                                       
3025051301100           0        0      EF  EFECTIV990101 00000000002025112600000023125000000000100000000000000000000000000000231250850000000000000100000000000000018000000                    000000001000                    0                                                                                                                       
302003010101MXBIGO000X350        0      BI  CETES  260108 0         2025112600004649706900000000991288800000000991288800000460920237320000430073000100000000100000018040044                    074702062000                    0                                                                                                                       
302004010101MXBIGO000YD80        0      BI  CETES  260514 0         2025112600002987391400000000966303500000000966303500000288672676560001690072800100000000100000018040012                    074702062000                    0                                                                                                                       
302005010102MX0MGO0000P20        0      M   BONOS  310529 0         2025112600000247367000000009697334800000010071918100000249146016930020100072800100000000100000018040014                    074702062000                    0                                                                                                                       
3020061202100           0        0      *CSPMXPUSD SPOT   0         2025112700000000162500000001834350000000000000000000000000029808190000000000000200000001834350008801197                    090000002000                    0                                                                                                                       
3020071202100           0        0      *CSPMXPUSD SPOT   0         2025112700000047895000000001834350000000000000000000000008785619330000000000000200000001834350008801197                    090000002000                    0                                                                                                                       
3020081202100           0        0      *CSPMXPUSD SPOT   0         2025112700000002092500000001834350000000000000000000000000383837740000000000000200000001834350008801197                    090000002000                    0                                                                                                                       
3025061302100           0        0      *CSPMXPUSD SPOT   0         2025112700000000048000000001834350000000000000000000000000008804880000000000000200000001834350008801197                    090000002000                    0                                                                                                                       
3025071302100           0        0      *CSPMXPUSD SPOT   0         2025112700000000137500000001834350000000000000000000000000025222310000000000000200000001834350008801197                    090000002000                    0                                                                                                                       
3030002MX95CF0500V20        0      95  CFE    25-2X  0         0000000347070000001000000000000000347070000000000105300456000000036546629300000000051964080030451800110000041000004100000510000000000000000000000000000000000000000000000000000010000000000000043383750000000000001000000000000004338375000000000000000000000000000000                  
3030002MX91LI0500620        0      91  LIVEPOL17     0         0000000160000000000924616470000000147938635000000099204501000000015872720200000000036700450006241800110000041000001100000410000000000000000000000000000000000000000000000000000010000000000000035000000000000000001000000000000003500000000000000000000000000000000000                  
3030006MXP3706410130        28223981   GFINBURO      0         0000001774800000000430288390000000763675839000000044150000000000078357420000000000000000000000001800000000000000000000000000000000000000000000000000000000000000000000000000000000000000000006050956195000000000000000000000000608312390200000000000000000000000000000                  
3030006MX01VE0M00030        0      1   VESTA  *      0         0000001480510000000420601640000000622704941000000057520000000000085158935200000000000000000000001800000000000000000000000000000000000000000000000000000000000000000000000000000000000000000000882613451000000000000000000000000088248722500000000000000000000000000000                  
3030006MX01Q00000080        0      1   Q      *      0         0000000139170000001501145670000000208914443000000180660000000000025142452200000000000000000000001800000000000000000000000000000000000000000000000000000000000000000000000000000000000000000000400000000000000000000000000000000040000000000000000000000000000000000000                  
3030003MX95TF0300730        0      95  TFOVICB20U    0         0000000099750000004034654900000000402456826000000503815227000000050255568900000000016587590087081800410000061000001100000000000000000000000000000000000000000000000000000000000006234543400000009271489000000000001000000000000000927148900000000000000000000000000000                  
3030002MX91FI0V00150        0      91  FINN   18     0         0000000118600000001000000000000000118600000000000099601954000000011812791700000000036966640007971800410060061004004100600610040000000000000000000000000000000000000000000000000010000000000000032000000000000000001000000000000003200000000000000000000000000000000000                  
3030002MXCDNA0R00600        0      CD  NAFF   21X    0         0000000129770000001000000000000000129770000000000097199145000000012613533000000000002527270021741800110000041000001100000410000000000000000000000000000000000000000000000000000010000000000000065000000000000000001000000000000006500000000000000000000000000000000000                  
3030006MX01GC2M00060        29466631   GCC    *      0         0000000270140000001556200170000000420391915000000180420000000000048738658800000000000000000000001800000000000000000000000000000000000000000000000000000000000000000000000000000000000000000000337400000000000000000000000000000033740000000000000000000000000000000000                  
3030003MX95CI0Y00020        0      95  CIENCB 15     0         0000000335200000000801442740000000268643605000000081940689000000027466519000000000088933790047921800110000041000004100300000000000000000000000000000000000000000000000000000000008528000000000400000000000000000001000000000000040000000000000000000000000000000000000                  
3030002MX91GA0000960        0      91  GAP    21-2   0         0000001320000000000977857500000001290771903000000099683871000000131582709700000000078309000008831800110000051000001100000510000000000000000000000000000000000000000000000000000010000000000000030000000000000000001000000000000003000000000000000000000000000000000000                  
3030002MX0MGO0000Y40MGO0000Y0      M   BONOS  260305 0         0000000000200000000907017240000000000181403000000099581886000000000019916400000000000026830000981800110000041000001100000410000000000000000000000000000000000000000000000000000010000000000002414072787000000000001000000000000357118221900000000000000000000000000000                  
3030007US92204286610        0      1ISPVPL    *      0         0000002127930000012753076400000027137653855000001666140105000003545429513600000000000000000000000800000000000000000000000000000000000000000000000000000000000000000000000000000000000000000000092081871000000000000000000000000009386821900000000000000000000000000000                  
3030002MX91HE0100820        0      91  HERDEZ 20     0         0000000692250000000948947490000000656908899000000091565468000000063386195200000000149602910017201800110020041002001100300410020000000000000000000000000000000000000000000000000010000000000000025000000000000000001000000000000002500000000000000000000000000000000000                  
3030006MXP4952112620        23924711   BIMBO  A      0         0000001130440000000516980420000000584415346000000057590000000000065102039600000000000000000000001800000000000000000000000000000000000000000000000000000000000000000000000000000000000000000004304744119000000000000000000000000432748233300000000000000000000000000000                  
3030002MXCDBA1C00H80        0      CD  BANOB  21-5X  0         0000000739200000001000000000000000739200000000000094053255000000069524166100000000119257580021041800110000041000001100000410000000000000000000000000000000000000000000000000000010000000000000028000000000000000001000000000000002800000000000000000000000000000000000                  
3030007US46434G77230        0      1ISPEWT    *      0         0000001304880000009407588990000012275774720000001167747210000001523769979400000000000000000000000800000000000000000000000000000000000000000000000000000000000000000000000000000000000000000000107100000000000000000000000000000010140000000000000000000000000000000000                  
3030002MXCDBA1C01290        0      CD  BANOB  25-2   0         0000001050000000001000000000000001050000000000000103697679000000108882563000000000044100000023501800110000041000001100000410000000000000000000000000000000000000000000000000000010000000000000101500000000000000001000000000000010150000000000000000000000000000000000                  
3030002MX91BI0Y00B80        0      91  BIMBO  23L    0         0000002145300000001000000000000002145300000000000101612816000000217989974200000000996634940027311800110000041000005100200110000000000000000000000000000000000000000000000000000010000000000000120000000000000000001000000000000012000000000000000000000000000000000000                  
3030006MXP6069411790        24919141   KIMBER A      0         0000001445820000000296252480000000428327758000000036740000000000053119426800000000000000000000001800000000000000000000000000000000000000000000000000000000000000000000000000000000000000000001564014737000000000000000000000000158418257300000000000000000000000000000                  
3030002MX91AC1000720        0      91  AC     24-2   0         0000000023030000001000000000000000023030000000000103467902000000002382865800000000007724650029691800410000051000001100000410000000000000000000000000000000000000000000000000000010000000000000030500000000000000001000000000000003050000000000000000000000000000000000                  
3030002MX91ST2700090        0      91  STORAGE21V    0         0000000383500000001000000000000000383500000000000096988979000000037195273400000000162910800009151800410030061001004100300610010000000000000000000000000000000000000000000000000010000000000000011710000000000000001000000000000001171000000000000000000000000000000000                  
3030002MXCDBA1C00P10        0      CD  BANOB  23-2X  0         0000002324700000001000000000000002324700000000000104065390000000241920812100000000464759140015621800410000051000001100000410000000000000000000000000000000000000000000000000000010000000000000036900000000000000001000000000000003690000000000000000000000000000000000                  
3030006MXP2256115670        24064571   CEMEX  CPO    0         0000015307680000000128924430000001973533919000000019340000000000296050531200000000000000000000001800000000000000000000000000000000000000000000000000000000000000000000000000000000000000000015137459907000000000000000000000001513745990700000000000000000000000000000                  
3030003MX95MX0E00120        0      95  MXPUCB 18U    0         0000000060440000005136278090000000310436648000000743541131000000044939626000000000078162770044421800410000061000000000000000000000000000000000000000000000000000000000000000000008538000000000027376210000000000001000000000000002737621000000000000000000000000000000                  
3030002MX91AC1J00060        0      91  ACBE   17     0         0000000425530000000938162190000000399216158000000099669221000000042412243600000000076916930006451800110000041000001100000410000000000000000000000000000000000000000000000000000010000000000000060000000000000000001000000000000006000000000000000000000000000000000000                  
3030007FR00134167160        0      1ISPAMGOLD N      0         0000000683130000030276965530000020683103462000003027617604000002068256413800000000000000000000002100000000000000000000000000000000000000000000000000000000000000000000000000000000000000000000066219758000000000000000000000000005068715500000000000000000000000000000                  
3030002MX91GP0200220        0      91  GPH    20     0         0000000443160000001000000000000000443160000000000098386356000000043600897500000000056650610006631800410000061000004100000610000000000000000000000000000000000000000000000000000010000000000000025000000000000000001000000000000002500000000000000000000000000000000000                  
3030002MXCDBA1C00L00        0      CD  BANOB  22-3   0         0000002540000000001000000000000002540000000000000104476493000000265370292200000000206692500023351800110000041000001100000410000000000000000000000000000000000000000000000000000010000000000000047000000000000000001000000000000004700000000000000000000000000000000000                  
3030007US35473P76930        0      1ISPFLIN   *      0         0000000988870000006715195620000006640455491000000717414285000000709429464000000000000000000000000800000000000000000000000000000000000000000000000000000000000000000000000000000000000000000000066650000000000000000000000000000004515000000000000000000000000000000000                  
3030007US92290836320        0      1ISPVOO    *      0         0000000761010000082393893500000062702576891000011463770325000008724043855000000000000000000000000800000000000000000000000000000000000000000000000000000000000000000000000000000000000000000001300259089000000000000000000000000106621269100000000000000000000000000000                  
3030002MX91TL0000310        0      91  TLEVISA17     0         0000000424000000001001221550000000424517936000000098479433000000041755279600000000061080720006691800410010011000005100200410010000000000000000000000000000000000000000000000000010000000000000045000000000000000001000000000000004500000000000000000000000000000000000                  
3030011MXFFIN3800000        0      FF  INFRAEX18     0         0000004882330000000185000000000000903231050000000011695797000000057102740600000000000000000000001800000000000000000000000000000000000000000000000000000000000000000000000000000000000000000000472698639000000000000000000000000047269863900000000000000000000000000000                  
3030006MXP0016610180        26393491   ASUR   B      0         0000000268320000003967139900000001064462978000000552050000000000148126056000000000000000000000001800000000000000000000000000000120251126000001000000000000000000015000000000000000000000000000277050000000000000000000000000000030000000000000000000000000000000000000                  
3030002MX91DA0200300        0      91  DANHOS 23L    0         0000000204190000001000000000000000204190000000000104992524000000021438423500000000062940420017161800410000061000004100000610000000000000000000000000000000000000000000000000000010000000000000025000000000000000001000000000000002500000000000000000000000000000000000                  
3030006MX01VO0000090        0      1   VOLAR  A      0         0000000870460000000166320860000000144775653000000013190000000000011481367400000000000000000000001800000000000000000000000000000000000000000000000000000000000000000000000000000000000000000001165976677000000000000000000000000116597667700000000000000000000000000000                  
3030002MX0MGO0001F10MGO0001F0      M   BONOS  290301 0         0000124616560000000968680190000120713592489000000101463755000012644064112800000024715613580011901800110000041000001100000410000000000000000000000000000000000000000000000000000010000000000004379558151000000000001000000000000350893113900000000000000000000000000000                  
3030006MXP4611810850        23934521   GCARSO A1     0         0000000414880000001258308650000000522047094000000125810000000000052196052800000000000000000000001800000000000000000000000000000000000000000000000000000000000000000000000000000000000000000002254549737000000000000000000000000274500000000000000000000000000000000000                  
3030002MXCDNA0R00860        0      CD  NAFF   23S    0         0000002394550000001000000000000002394550000000000102199001000000244720617800000000102673040016211800110000041000001100000410000000000000000000000000000000000000000000000000000010000000000000054670000000000000001000000000000005467000000000000000000000000000000000                  
3030006MX01GE0E00040        0      1   GENTERA*      0         0000002080040000000226795040000000471742751000000044200000000000091937768000000000000000000000001800000000000000000000000000000000000000000000000000000000000000000000000000000000000000000001579243876000000000000000000000000164821153600000000000000000000000000000                  
3030007US92290873690        0      1ISPVUG    *      0         0000000079830000056148428340000004482329034000008958598530000000715164920600000000000000000000000800000000000000000000000000000000000000000000000000000000000000000000000000000000000000000000413109599000000000000000000000000037873615900000000000000000000000000000                  
3030006MX01KO0000020        0      1   KOF    UBL    0         0000000738160000001484876730000001096076609000000161090000000000118910194400000000000000000000001800000000000000000000000000000000000000000000000000000000000000000000000000000000000000000000525207645000000000000000000000000052520764500000000000000000000000000000                  
3030002MX95CF0500C20        0      95  CFE    20-2   0         0000000582250000001000000000000000582250000000000099993932000000058221466900000000054243050003231800110000041000004100000510000000000000000000000000000000000000000000000000000010000000000000032750000000000000001000000000000003275000000000000000000000000000000000                  
3030002MX0MGO0001I50MGO0001I0      M   BONOS  300228 0         0000089336240000000963421880000086068488076000000100978565000009021045317700000017718351290015541800110000041000001100000410000000000000000000000000000000000000000000000000000010000000000002858059581000000000001000000000000160000000000000000000000000000000000000                  
3030006MX01AM0500190        0      1   AMX    B      0         0000021974240000000142390500000003128922958000000021020000000000461898524800000000000000000000001800000000000000000000000000000000000000000000000000000000000000000000000000000000000000000060305400000000000000000000000000006103600000000000000000000000000000000000                  
3030003MX91CA1100140        0      91  CASCB  22U    0         0000000529620000007368805570000003902666804000000842059267000000445971429000000000071076380096661800410000061000004100000610000000000000000000000000000000000000000000000000000009703000000000006847188000000000001000000000000000684718800000000000000000000000000000                  
3030007IE00B9F5YL180        0      1ISPVDPX   N      0         0000000076280000004148277650000000316430619000000570345274000000043505937500000000000000000000000800000000000000000000000000000000000000000000000000000000000000000000000000000000000000000000046898090000000000000000000000000004484778700000000000000000000000000000                  
3030002MX95CF0501040        0      95  CFE    252UX  0         0000000309300000008556659000000002646574629000000866363522000000267966237400000000219108650054081800110000041000004100000510000000000000000000000000000000000000000000000000000010000000000000008765103000000000001000000000000000876510300000000000000000000000000000                  
3030006MX01PI0000050        0      1   PINFRA *      0         0000000221910000001816895920000000403187374000000250550000000000055599550500000000000000000000001800000000000000000000000000000000000000000000000000000000000000000000000000000000000000000000380123523000000000000000000000000038012352300000000000000000000000000000                  
3030002MX0SGO0000F00        0      S   UDIBONO281130 0         0000015516080000007568509770000117433603069000000866303619000013441636256700000025958609760010991800110000041000001100000410000000000000000000000000000000000000000000000000000010000000000000453980590000000000001000000000000048756982600000000000000000000000000000                  
3030002MX95CF0500P40        0      95  CFE    22UV   0         0000000026210000007596650020000000199108197000000920688427000000024131243700000000005130410026571800110000041000004100000510000000000000000000000000000000000000000000000000000010000000000000007701097000000000001000000000000000770109700000000000000000000000000000                  
3030002XS26457370030        0      JE  AMX    0131X  0         0000000024570000100117174560000002459878979000010250222003000000251847954600000000778050000018871800110000041000001100000410000000000000000000000000000000000000000000000000001000000000000000002300000000000000100000000000000000170000000000000000000000000000000000                  
3030002MXCDBA1C00O40        0      CD  BANOB  22-2X  0         0000000299180000001000000000000000299180000000000107371804000000032123496300000000034959180014151800110000041000001100000410000000000000000000000000000000000000000000000000000010000000000000024720000000000000001000000000000002472000000000000000000000000000000000                  
3030002MX0SGO0000H60        0      S   UDIBONO501103 0         0000000511040000007264697120000003712550817000000806945353000000412381353200000000854976770091071800110000041000001100000410000000000000000000000000000000000000000000000000000010000000000000665309292000000000001000000000000067568909900000000000000000000000000000                  
3030002MX91BI0Y00C60        0      91  BIMBO  25     0         0000002660000000001000000000000002660000000000000105512909000000280664337900000000773055050022621800110000041000005100200110000000000000000000000000000000000000000000000000000010000000000000127620000000000000001000000000000012762000000000000000000000000000000000                  
3030002MX91LI0500880        0      91  LIVEPOL19     0         0000001093220000001000000000000001093220000000000096410866000000105398286900000000050761810014351800110000041000001100000410000000000000000000000000000000000000000000000000000010000000000000050000000000000000001000000000000005000000000000000000000000000000000000                  
3030002MX91GP0200140        0      91  GPH    19-2   0         0000001975680000001000000000000001975680000000000096784978000000191216145300000000206524350014081800410000061000004100000610000000000000000000000000000000000000000000000000000010000000000000040000000000000000001000000000000004000000000000000000000000000000000000                  
3030006MXP3707110140        24210411   GFNORTEO      0         0000003169960000001167512820000003700968933000000176700000000000560131932000000000000000000000001800000000000000000000000000000000000000000000000000000000000000000000000000000000000000000002813156594000000000000000000000000288345659400000000000000000000000000000                  
3030002MX0MGO0000R80        0      M   BONOS  421113 0         0000052126750000000835315540000043542284115000000086742108000004521584178200000019638028500061951800110000041000001100000410000000000000000000000000000000000000000000000000000010000000000004416163464000000000001000000000000386431503400000000000000000000000000000                  
3030002MX91HE0100660        0      91  HERDEZ 17     0         0000000037210000000965294220000000035918598000000101016534000000003758825200000000000667090005391800110020041002001100300410020000000000000000000000000000000000000000000000000010000000000000020000000000000000001000000000000002000000000000000000000000000000000000                  
3030002MX94BB1U00470        0      94  BBVAMX 23-3   0         0000001368000000001000000000000001368000000000000105874961000000144836946600000000081715150017991800110000041000001100000410000000000000000000000000000000000000000000000000000010000000000000036000000000000000001000000000000003600000000000000000000000000000000000                  
3030002MX91AM0500P30        0      91  AMX    22X    0         0000004513840000001000000000000004513840000000000102831845000000464166495200000000035809650025451800110000041000001100000410000000000000000000000000000000000000000000000000000010000000000000146791657000000000001000000000000014679165700000000000000000000000000000                  
3030002MXCDBA1C01520        0      CD  BANOB  25-2X  0         0000000374100000001000000000000000374100000000000101208907000000037862252100000000015828580043521800110000041000001100000410000000000000000000000000000000000000000000000000000010000000000000102000000000000000001000000000000010200000000000000000000000000000000000                  
3030002MX95FO0M00490        0      95  FONADIN21U    0         0000000098540000006747578840000000664906419000000761316081000000075020086600000000131474850038291800110000041000001100000410000000000000000000000000000000000000000000000000000010000000000000005109955000000000001000000000000000510995500000000000000000000000000000                  
3030002MX91OM0000350        0      91  OMA    21-2   0         0000000843600000001000000000000000843600000000000099428905000000083878224300000000088071840008621800410000051000004100000510000000000000000000000000000000000000000000000000000010000000000000025000000000000000001000000000000002500000000000000000000000000000000000                  
3030002MX0SGO0000E30        0      S   UDIBONO461108 0         0000000735960000007119628160000005239761540000000809798869000000595979575600000001231270940076511800110000041000001100000410000000000000000000000000000000000000000000000000000010000000000000423454300000000000001000000000000040612403900000000000000000000000000000                  
3030007US46428720000        0      1ISPIVV    *      0         0000000250670000066368814540000016636670741000012529711110000003140822683900000000000000000000000800000000000000000000000000000000000000000000000000000000000000000000000000000000000000000001064450000000000000000000000000000100015000000000000000000000000000000000                  
3030011MXCFFU0000010        0      CF  FUNO   11     0         0000032257470000000238782410000007702516429000000026800000000000864500196000000000000000000000001800000000000000000000000000000000000000000000000000000000000000000000000000000000000000000003810649852000000000000000000000000381445806400000000000000000000000000000                  
3030006MX01OM0000180        B1KFX131   OMA    B      0         0000000501420000001542581030000000773480982000000244550000000000122622261000000000000000000000001800000000000000000000000000000120251126000001000000000000000000005770000000000000000000000000340345556000000000000000000000000034131410000000000000000000000000000000                  
3030004MX91ME0900040        0      91  MEGA   22     0         0000001880530000001000000000000001880530000000000100061744000000188169111400000000113678040005891800410000061000004100000610000000000000000000000000000000000000000000000000000010000000000000025276000000000000001000000000000002527600000000000000000000000000000000                  
3030002MX0MGO0000D80        0      M   BONOS  270603 0         0000048640690000000970601700000047210736206000000100125822000004870189068900000017733583270005531800110000041000001100000410000000000000000000000000000000000000000000000000000010000000000003176002453000000000001000000000000392843235900000000000000000000000000000                  
3030011MXCFFI1700080        0      CF  FIBRAPL14     0         0000008680520000000599404030000005203138702000000076540000000000664407000800000000000000000000001800000000000000000000000000000000000000000000000000000000000000000000000000000000000000000001605627494000000000000000000000000159521731600000000000000000000000000000                  
3030007IE00B4L5YX210        0      1ISPIJPA   N      0         0000005914050000009040244730000053464459370000001255429140000007424670705400000000000000000000001600000000000000000000000000000000000000000000000000000000000000000000000000000000000000000000100385796000000000000000000000000009627948300000000000000000000000000000                  
3030004MX91FU0000F70        0      91  FUNO   23-2L  0         0000001483500000001000000000000001483500000000000099995044000000148342647800000000045374480004631800410000061000004100000610000000000000000000000000000000000000000000000000000010000000000000017300000000000000001000000000000001730000000000000000000000000000000000                  
3030002MX91ED0900050        0      91  EDUCA  23-2L  0         0000000165810000001000000000000000165810000000000111988606000000018568830800000000054744940017151800510010061000005100100610000000000000000000000000000000000000000000000000000010000000000000007070769000000000001000000000000000707076900000000000000000000000000000                  
3030002USP3691NBL300        0      D2SPLIVEL30320122 0         0000000004720000208187000000000000982642640000019513815300000000092105208200000000188043800022471800110360041035001103600410350000000000000000000000000000000000000000000000000100000000000000000500000000000000010000000000000000050000000000000000000000000000000000                  
3030002MX95CF0500X80        0      95  CFE    25UX   0         0000000286510000008429136000000002415031755000000893418409000000255973308400000000205682690041371800110000041000004100000510000000000000000000000000000000000000000000000000000010000000000000008269108000000000001000000000000000826910800000000000000000000000000000                  
3030002MX0MGO0000J50        0      M   BONOS  381118 0         0000051830770000000885790140000045911185252000000095373605000004943287384800000021416183910047391800110000041000001100000410000000000000000000000000000000000000000000000000000010000000000002651289574000000000001000000000000211501128400000000000000000000000000000                  
3030002MX95FO0M00560        0      95  FONADIN22U    0         0000000200770000007471363000000001500025550000000787054774000000158016987000000000347647090065591800110000041000001100000410000000000000000000000000000000000000000000000000000010000000000000009369107000000000001000000000000000936910700000000000000000000000000000                  
3030002MXCDBA0300H70        0      CD  BACMEXT23-2X  0         0000002672540000001000000000000002672540000000000104252282000000278618393700000000728059230015341800410000051000001100000410000000000000000000000000000000000000000000000000000010000000000000060000000000000000001000000000000006000000000000000000000000000000000000                  
3030007MX1BNA0600140        0      1B  NAFTRACISHRS  0         0000013814660000000422931770000005842658593000000063200000000000873086512000000000000000000000001800000000000000000000000000000000000000000000000000000000000000000000000000000000000000000001574600000000000000000000000000000750000000000000000000000000000000000000                  
3030011MXCFED0900040        0      CF  EDUCA  18     0         0000004000000000000200000000000000800000000000000049870000000000199480000000000000000000000000001800000000000000000000000000000000000000000000000000000000000000000000000000000000000000000001227724832000000000000000000000000150000000000000000000000000000000000000                  
3030002MXCDNA0R00A90        0      CD  NAFF   24-2S  0         0000001614890000001000000000000001614890000000000105895757000000171009999000000000371949540033751800410000061000001100000410000000000000000000000000000000000000000000000000000010000000000000068138975000000000001000000000000006813897500000000000000000000000000000                  
3030002MX91AM0500T50        0      91  AMX    23-2   0         0000001870000000001000000000000001870000000000000103197685000000192979671000000000320549230008441800110000041000001100000410000000000000000000000000000000000000000000000000000010000000000000110160860000000000001000000000000011016086000000000000000000000000000000                  
3030002MX95FO0M00640        0      95  FONADIN22-2U  0         0000001079590000006936753410000007488849613000000772629371000000834122942600000001896477000098351800110000041000001100000410000000000000000000000000000000000000000000000000000010000000000000022448775000000000001000000000000002244877500000000000000000000000000000                  
3030011MXCFFI0T00050        0      CF  FIHO   12     0         0000003654030000000115000000000000420213450000000008300000000000030328449000000000000000000000001800000000000000000000000000000000000000000000000000000000000000000000000000000000000000000000789194295000000000000000000000000078722245900000000000000000000000000000                  
3030003MX95FO0C00330        0      95  FOVISCB18U    0         0000000140140000002083357390000000291961704000000301523190000000042255459800000000016494740078861800510000061000001100000000000000000000000000000000000000000000000000000000000003453524100000019892100000000000001000000000000001989210000000000000000000000000000000                  
3030006MX01WA0000380        0      1   WALMEX *      0         0000006785440000000506494240000003436786276000000061810000000000419408046400000000000000000000001800000000000000000000000000000000000000000000000000000000000000000000000000000000000000000017299727303000000000000000000000001744632217700000000000000000000000000000                  
3030002XS26160755730        0      JI  CABEI  2-23S  0         0000001342570000000955924970000001283396181000000101210566000000135882269600000000621151150027351800110000051000001100000410000000000000000000000000000000000000000000000000000010000000000000035000000000000000001000000000000003500000000000000000000000000000000000                  
3030004MX94CO0H00F20        0      94  COMPART23S    0         0000000542260000001000000000000000542260000000000100264815000000054369598600000000007365680004701800410020051002001100200410020000000000000000000000000000000000000000000000000010000000000000030000000000000000001000000000000003000000000000000000000000000000000000                  
3030002MX91CE0200P30        0      91  CEMEX  23-2L  0         0000003506250000001038249600000003640362671000000108070161000000378921002000000000626138410017641800410010011000004100100110000000000000000000000000000000000000000000000000000010000000000000085000000000000000001000000000000008500000000000000000000000000000000000                  
3030002MX94BS0600760        0      94  BSMX   22-2   0         0000004752000000001000000000000004752000000000000101019782000000480046004100000000679113550012151800410000051000004100000510000000000000000000000000000000000000000000000000000010000000000000027900000000000000001000000000000002790000000000000000000000000000000000                  
3030002MXCDBA0300E40        0      CD  BACMEXT22-3X  0         0000000191610000001000000000000000191610000000000101488656000000019446241400000000030098730023011800410000051000001100000410000000000000000000000000000000000000000000000000000010000000000000081140000000000000001000000000000008114000000000000000000000000000000000                  
3030006MXP0005110160        20434231   ALFA   A      0         0000004405810000000110534020000000486991872000000014250000000000062782792500000000000000000000001800000000000000000000000000000000000000000000000000000000000000000000000000000000000000000005558536508000000000000000000000000555853650800000000000000000000000000000                  
3030002MX91BB1R00140        0      91  BBPEN  21-2   0         0000000234550000001000000000000000234550000000000097911656000000022965178900000000088085250011001800410010061001004100100610010000000000000000000000000000000000000000000000000010000000000000020000000000000000001000000000000002000000000000000000000000000000000000                  
3030006MX01SI0C00020        0      1   SITES1 A-1    0         0000000677520000000135559080000000091843985000000015030000000000010183125600000000000000000000001800000000000000000000000000000000000000000000000000000000000000000000000000000000000000000002980967275000000000000000000000000313372271100000000000000000000000000000                  
3030002MX91ME0900120        0      91  MEGA   22-2   0         0000003479000000001000000000000003479000000000000104034422000000361935754100000001319101470024091800410000061000004100000610000000000000000000000000000000000000000000000000000010000000000000044724000000000000001000000000000004472400000000000000000000000000000000                  
3030002MX95CF0500880        0      95  CFE    17     0         0000000600000000000946994890000000568196934000000099441318000000059664790800000000209953320007561800110000041000004100000510000000000000000000000000000000000000000000000000000010000000000000125500000000000000001000000000000012550000000000000000000000000000000000                  
3030002MX94BB1U00620        0      94  BBVAMX 24-2   0         0000000567000000000995719230000000564572804000000105720752000000059943666400000000078246000019541800110000041000001100000410000000000000000000000000000000000000000000000000000010000000000000128860000000000000001000000000000012886000000000000000000000000000000000                  
3030002MX0SGO0000230        0      S   UDIBONO351122 0         0000010838750000007523938990000081550093695000000859012443000009310621116600000020400046010036471800110000041000001100000410000000000000000000000000000000000000000000000000000010000000000000520582129000000000001000000000000046773419600000000000000000000000000000                  
3030002MX91FE0100760        0      91  FERROMX21     0         0000000734330000001000000000000000734330000000000096814870000000071094063500000000023465960008941800110000041000001100000410000000000000000000000000000000000000000000000000000010000000000000016920000000000000001000000000000001692000000000000000000000000000000000                  
3030002MX91FU0000I10        0      91  FUNO   25-2L  0         0000000719290000001000000000000000719290000000000104457719000000075135392700000000410826510023671800410000061000004100000610000000000000000000000000000000000000000000000000000010000000000000090000000000000000001000000000000009000000000000000000000000000000000000                  
3030002MXCDBA0300O30        0      CD  BACMEXT24-4X  0         0000001903870000001000000000000001903870000000000106268545000000202321494800000000553423210031691800510000061000001100000410000000000000000000000000000000000000000000000000000010000000000000064063532000000000001000000000000006406353200000000000000000000000000000                  
3030002MX95CF0500H10        0      95  CFE    21U    0         0000000182790000006811071000000001244995668000000872520849000000159488086000000000016666650019951800110000041000004100000510000000000000000000000000000000000000000000000000000010000000000000003725726000000000001000000000000000372572600000000000000000000000000000                  
3030007US46428677290        0      1ISPEWY    *      0         0000000194420000016387039110000003185968143000001679347425000000326498726400000000000000000000000800000000000000000000000000000000000000000000000000000000000000000000000000000000000000000000076850000000000000000000000000000006205000000000000000000000000000000000                  
3030002MX94SC3O00L60        0      94  SCOTIAB24-3   0         0000000178630000001000000000000000178630000000000104548383000000018675477700000000037295960021081800110000041000001100000410000000000000000000000000000000000000000000000000000010000000000000039696111000000000001000000000000003969611100000000000000000000000000000                  
3030003MX91TO0000G90        0      91  TOYOTA 24-2   0         0000000612510000001000000000000000612510000000000105158881000000064410866200000000025391970010781800110000041000001100000410000000000000000000000000000000000000000000000000000010000000000000010000000000000000001000000000000001000000000000000000000000000000000000                  
3030002MX91FE0200670        0      91  FEMSA  22-2L  0         0000001232000000001000000000000001232000000000000103481902000000127489703300000000052839120025321800110000041000001100000410000000000000000000000000000000000000000000000000000010000000000000084463846000000000001000000000000008446384600000000000000000000000000000                  
3030006MX01ME0900030        B292SM81   MEGA   CPO    0         0000000962810000000428447460000000412513495000000051430000000000049517318300000000000000000000001800000000000000000000000000000000000000000000000000000000000000000000000000000000000000000000471262594000000000000000000000000172135567300000000000000000000000000000                  
3030002MX95FE0402I40        0      95  FEFA   24V    0         0000005103000000001000000000000005103000000000000106237380000000542129350100000001264055450020971800110000061000001100000610000000000000000000000000000000000000000000000000000010000000000000067653839000000000001000000000000006765383900000000000000000000000000000                  
3030002MXCDBA0300990        0      CD  BACMEXT21-3   0         0000000690000000001000000000000000690000000000000093598892000000064583235500000000023916160019851800110000051000001100000410000000000000000000000000000000000000000000000000000010000000000000045360000000000000001000000000000004536000000000000000000000000000000000                  
3030011MXCFNE0400150        0      CF  NEXT   25     0         0000002295000000001000000000000002295000000000000098950000000000227090250000000000000000000000001800000000000000000000000000000000000000000000000000000000000000000000000000000000000000000000271567713000000000000000000000000019815000000000000000000000000000000000                  
3030002XS24171102150        0      JI  CABEI  2-21   0         0000002496000000001000000000000002496000000000000094563606000000236030760600000000896376000021973600110000051000001100000410000000000000000000000000000000000000000000000000000010000000000000034285710000000000001000000000000003428571000000000000000000000000000000                  
3030006MX01AC1000060        28238851   AC     *      0         0000000810160000001622406410000001314408780000000182890000000000148170162400000000000000000000001800000000000000000000000000000000000000000000000000000000000000000000000000000000000000000001698192061000000000000000000000000169819206100000000000000000000000000000                  
3030002MX91AG0500180        0      91  AGUA   17-2X  0         0000000960000000001042464250000001000765679000000098959947000000095001549100000000373680000005661800110040041003001100400410030000000000000000000000000000000000000000000000000010000000000000040000000000000000001000000000000004000000000000000000000000000000000000                  
3030002MX91TR0H00070        0      91  TRAXION20     0         0000000671650000001000000000000000671650000000000096971237000000065130731300000000140733040006441800410040061002004100400610020000000000000000000000000000000000000000000000000010000000000000025000000000000000001000000000000002500000000000000000000000000000000000                  
3030002XS28007201090        0      JI  CABEI  2-24S  0         0000001193270000001008824400000001203799890000000105524999000000125919815600000000003414060030931800110000051000001100000410000000000000000000000000000000000000000000000000000010000000000000030000000000000000001000000000000003000000000000000000000000000000000000                  
3030011MXFEFC0C00030        0      FE  FCFE   18     0         0000021212780000000214646060000004553239593000000021800000000000462438604000000000000000000000001800000000000000000000000000000000000000000000000000000000000000000000000000000000000000000000853195411000000000000000000000000085319541100000000000000000000000000000                  
3030002MXCDBA1C00Z00        0      CD  BANOB  24-3   0         0000000668320000001000000000000000668320000000000109872565000000073430032600000000332372240040151800110000041000001100000410000000000000000000000000000000000000000000000000000010000000000000089000000000000000001000000000000008900000000000000000000000000000000000                  
3030002MXCDBA0300Q80        0      CD  BACMEXT25-2X  0         0000003000000000001000000000000003000000000000000106318078000000318954234000000000657999900033781800410000061000001100000410000000000000000000000000000000000000000000000000000010000000000000110427671000000000001000000000000011042767100000000000000000000000000000                  
3030702MX0SGO0000M60        0      S   UDIBONO261203 0         0000000042300000007794221730000000329695579000000859191025000000036343780400000000053076350003711800110000041000001100000410000000000000000000000000000000000000000000000000000010000000000000407413571000000000001000000000000048988557000000000000000000000000000000                  
3030002MX0MGO0001D60        0      M   BONOS  330526 0         0000005056100000000899083200000004545854563000000093950574000000475023497200000001843369620027371800110000041000001100000410000000000000000000000000000000000000000000000000000010000000000003342836866000000000001000000000000318682022000000000000000000000000000000                  
3030003MX91CP0300090        0      91  CPXACB 24U    0         0000000104010000008150167410000000847698912000000939149131000000097680901100000000274276470104271800410000061000000000000000000000000000000000000000000000000000000000000000000009967000000000005778295000000000001000000000000000577829500000000000000000000000000000                  
3030002MX0MGO0000U20        0      M   BONOS  341123 0         0000032113620000000911081760000029258133345000000093981501000003018086210100000012098359960032831800110000041000001100000410000000000000000000000000000000000000000000000000000010000000000003789305249000000000001000000000000283488899700000000000000000000000000000                  
3030006MX01LA0500100        0      1   LACOMERUBC    0         0000000514540000000299110820000000153904480000000040750000000000020967505000000000000000000000001800000000000000000000000000000000000000000000000000000000000000000000000000000000000000000000500679496000000000000000000000000049990540000000000000000000000000000000                  
3030002MX91AC1J00300        0      91  ACBE   21-2V  0         0000001564500000001000000000000001564500000000000096836195000000151500227100000000067469060008871800110000041000001100000410000000000000000000000000000000000000000000000000000010000000000000030000000000000000001000000000000003000000000000000000000000000000000000                  
3030002MX95FE0402L80        0      95  FEFA   24B    0         0000002792400000001000000000000002792400000000000106253378000000296701932700000001397642830018251800110000061000001100000610000000000000000000000000000000000000000000000000000010000000000000045000000000000000001000000000000004500000000000000000000000000000000000                  
3030006MXP3708410190        26436741   GMEXICOB      0         0000003372360000000767727810000002589054547000000158270000000000533743417200000000000000000000001800000000000000000000000000000000000000000000000000000000000000000000000000000000000000000007785000000000000000000000000000000778500000000000000000000000000000000000                  
3030002MX91OR0100210        0      91  ORBIA  22-2L  0         0000001984790000000998946700000001982699426000000102938924000000204312147000000001025612640025551800410010061000001100200410010000000000000000000000000000000000000000000000000010000000000000155600000000000000001000000000000015560000000000000000000000000000000000                  
3030002MX91GA0000H30        0      91  GAP    24-2L  0         0000000076980000001000000000000000076980000000000102298952000000007874973300000000015091070019311800110000051000001100000510000000000000000000000000000000000000000000000000000010000000000000016151317000000000001000000000000001615131700000000000000000000000000000                  
3030002MX95FN0000J50        0      95  FNCOT  25-3   0         0000002400000000001000000000000002400000000000000099391025000000238538460000000000244360080017791800510000061000005100000000000000000000000000000000000000000000000000000000000010000000000000046660000000000000001000000000000004666000000000000000000000000000000000                  
3030007US46428Q10940        0      1ISPSLV    *      0         0000001301990000004471715340000005822128658000000887825400000001155939792500000000000000000000000800000000000000000000000000000000000000000000000000000000000000000000000000000000000000000000549700000000000000000000000000000050885000000000000000000000000000000000                  
3030006MXP5540914150        0      1   PE&OLES*      0         0000000252060000003501348160000000882549817000000779040000000000196364822400000000000000000000001800000000000000000000000000000000000000000000000000000000000000000000000000000000000000000000397475747000000000000000000000000041326474700000000000000000000000000000                  
3030002MX91AM0500R90        0      91  AMX    22UX   0         0000000377010000007660136140000002887947926000000884673849000000333530887800000000013083420043651800110000041000001100000410000000000000000000000000000000000000000000000000000010000000000000013262478000000000001000000000000001326247800000000000000000000000000000                  
3030002MX91FU0000G50        0      91  FUNO   23L    0         0000001786400000001000000000000001786400000000000103270827000000184483005400000000465406860026471800410000061000004100000610000000000000000000000000000000000000000000000000000010000000000000049700000000000000001000000000000004970000000000000000000000000000000000                  
3030002MX94BI0100Z10        0      94  BINBUR 24-2   0         0000003740380000001000000000000003740380000000000105352255000000394057467600000000944445950020941800110000061000001100000410000000000000000000000000000000000000000000000000000010000000000000054000000000000000001000000000000005400000000000000000000000000000000000                  
3030003MX91TO0000C80        0      91  TOYOTA 22-2   0         0000000650000000001000000000000000650000000000000101296744000000065842883600000000242117790004141800110000041000001100000410000000000000000000000000000000000000000000000000000010000000000000010000000000000000001000000000000001000000000000000000000000000000000000                  
3030002MX95CF0500A60        0      95  CFE    17U    0         0000000089810000005831077800000000523689097000000831421448000000074669960200000000047750510024991800110000041000004100000510000000000000000000000000000000000000000000000000000010000000000000022864142000000000001000000000000002286414200000000000000000000000000000                  
3030002MX91ED0900210        0      91  EDUCA  23UL   0         0000000353650000007855905180000002778240866000000936719424000000331270824300000000585744590028071800510010061000005100100610000000000000000000000000000000000000000000000000000010000000000000006505847000000000001000000000000000650584700000000000000000000000000000                  
3030002MX0MGO0000P20        0      M   BONOS  310529 0         0000100609690000000934704360000094040316346000000097191338000009778390386900000037903302230020091800110000041000001100000410000000000000000000000000000000000000000000000000000010000000000004771900237000000000001000000000000381893550600000000000000000000000000000                  
3030002MX95CF0500D00        0      95  CFE    20U    0         0000000067870000006554856000000000444878077000000866489914000000058808670500000000032322080010511800110000041000004100000510000000000000000000000000000000000000000000000000000010000000000000005682979000000000001000000000000000568297900000000000000000000000000000                  
3030002MX91KO0000F00        0      91  KOF    21L    0         0000000012700000001000000000000000012700000000000098188243000000001246990700000000001817510010221800510000061000001100000410000000000000000000000000000000000000000000000000000010000000000000069650000000000000001000000000000006965000000000000000000000000000000000                  
3030002MXCDBA1C00X50        0      CD  BANOB  24X    0         0000002580000000001000000000000002580000000000000107159289000000276470965600000000174751910030701800110000041000001100000410000000000000000000000000000000000000000000000000000010000000000000083000000000000000001000000000000008300000000000000000000000000000000000                  
3030002MX91BW0200360        0      91  BWMX   23-2   0         0000000095000000001000000000000000095000000000000102902405000000009775728500000000043266700016741800410020061002004100200610020000000000000000000000000000000000000000000000000010000000000000005000000000000000001000000000000000500000000000000000000000000000000000                  
3030002MXCDNA0R00780        0      CD  NAFF   22S    0         0000000130960000001000000000000000130960000000000101589474000000013304157500000000034200940024441800110000041000001100000410000000000000000000000000000000000000000000000000000010000000000000032740904000000000001000000000000003274090400000000000000000000000000000                  
3030006MXP3203213100        22420591   FEMSA  UBD    0         0000002235270000001650248750000003688751516000000172570000000000385740543900000000000000000000001800000000000000000000000000000000000000000000000000000000000000000000000000000000000000000002021336251000000000000000000000000864471108000000000000000000000000000000                  
3030002MXCDBA0300S40        0      CD  BACMEXT25-2   0         0000000500000000001000000000000000500000000000000100926782000000050463391000000000136066650035361800410000051000001100000410000000000000000000000000000000000000000000000000000010000000000000062887000000000000001000000000000006288700000000000000000000000000000000                  
3030002MX0MGO0001E40MGO0001E0      M   BONOS  530731 0         0000031945780000000862011200000027537620239000000087088033000002782095142900000005963213330101081800110000041000001100000410000000000000000000000000000000000000000000000000000010000000000004355900795000000000001000000000000344441494800000000000000000000000000000                  
3030002MX94BS0600500        0      94  BSMX   21-2   0         0000002005730000001000000000000002005730000000000099263638000000199096056600000000009003520010901800410000051000004100000510000000000000000000000000000000000000000000000000000010000000000000065000000000000000001000000000000006500000000000000000000000000000000000                  
3030002XS27015594400        0      JE  AMX    0134X  0         0000000025250000102288980360000002582796754000010578740132000000267113188300000000845243750029861800110000041000001100000410000000000000000000000000000000000000000000000000001000000000000000003000000000000000100000000000000000200000000000000000000000000000000000                  
3030002MX91SA1R00100        0      91  SAKLY  25-2   0         0000000849510000001000000000000000849510000000000100444038000000085328214700000000032144520025341800410000061000000000000000000000000000000000000000000000000000000000000000000010000000000000022000000000000000001000000000000002200000000000000000000000000000000000                  
3030002MX94BB1U00130        0      94  BBVAMX 23     0         0000004737600000001000000000000004737600000000000104648183000000495781231800000001268018640015371800110000041000001100000410000000000000000000000000000000000000000000000000000010000000000000061310000000000000001000000000000006131000000000000000000000000000000000                  
3030002MXCDNA0R00520        0      CD  NAFF   310620 0         0000002341500000001000000000000002341500000000000093859663000000219772400900000000731426060020311800110000041000001100000410000000000000000000000000000000000000000000000000000010000000000000075000000000000000001000000000000007500000000000000000000000000000000000                  
3030002MX94BS0600A20        0      94  BSMX   23-2   0         0000001327080000001000000000000001327080000000000103118873000000136846994000000000218724950026681800410000051000004100000510000000000000000000000000000000000000000000000000000010000000000000032300000000000000001000000000000003230000000000000000000000000000000000                  
3030002MX91OM0000760        0      91  OMA    23-2L  0         0000000900000000001000000000000000900000000000000105930460000000095337414000000000212895000015551800110000041000004100000510000000000000000000000000000000000000000000000000000010000000000000025600000000000000001000000000000002560000000000000000000000000000000000                  
3030002MX0MGO0001020        0      M   BONOS  471107 0         0000001314660000000954677890000001255076841000000087782049000000115403548500000000511256680080151800110000041000001100000410000000000000000000000000000000000000000000000000000010000000000002623898085000000000001000000000000261989518000000000000000000000000000000                  
3030006MXP4948K10560        23925451   GRUMA  B      0         0000000242020000002949608420000000713864231000000316890000000000076693717800000000000000000000001800000000000000000000000000000000000000000000000000000000000000000000000000000000000000000000345268815000000000000000000000000056335670900000000000000000000000000000                  
3030006MX41BB0000000        0      41  BBAJIO O      0         0000000751090000000288414230000000216625041000000047150000000000035413893500000000000000000000001800000000000000000000000000000000000000000000000000000000000000000000000000000000000000000001189931687000000000000000000000000118993168700000000000000000000000000000                  
3030007US46432F38810        0      1ISPVLUE   *      0         0000000420240000022412682860000009418705846000002422259175000001017930195700000000000000000000000800000000000000000000000000000000000000000000000000000000000000000000000000000000000000000000065900000000000000000000000000000006540000000000000000000000000000000000                  
3030011MXCFDA0200050        0      CF  DANHOS 13     0         0000016721440000000224839840000003759645919000000028650000000000479069256000000000000000000000001800000000000000000000000000000000000000000000000000000000000000000000000000000000000000000001604073701000000000000000000000000158230934300000000000000000000000000000                  
3030002MX0SGO0000Q70        0      S   UDIBONO541029 0         0000000059180000007136737020000000422352097000000801313889000000047421756000000000099008930105631800110000041000001100000410000000000000000000000000000000000000000000000000000010000000000000393729686000000000001000000000000015667792300000000000000000000000000000                  
3030011MXCFFM0100000        0      CF  FMTY   14     0         0000017664730000000129124610000002280951330000000014300000000000252605639000000000000000000000001800000000000000000000000000000000000000000000000000000000000000000000000000000000000000000002437674664000000000000000000000000063802478500000000000000000000000000000                  
3030002MX91LI0500960        0      91  LIVEPOL20     0         0000000845000000001000000000000000845000000000000095403326000000080615810500000000201675640017131800110000041000001100000410000000000000000000000000000000000000000000000000000010000000000000050000000000000000001000000000000005000000000000000000000000000000000000                  
3030004MX95FE0402850        0      95  FEFA   23V    0         0000001083000000001000000000000001083000000000000099988130000000108287144800000000048076210001751800110000061000001100000610000000000000000000000000000000000000000000000000000010000000000000029850000000000000001000000000000002985000000000000000000000000000000000                  
3030002MX0SGO0000150SGO000010      S   UDIBONO251204 0         0000003739660000007678059060000028713330362000000861659783000003222314624100000007038564050000071800110000041000001100000410000000000000000000000000000000000000000000000000000010000000000000113744042000000000001000000000000021008028400000000000000000000000000000                  
3030002MX95CF0500Z30        0      95  CFE    25-4X  0         0000000500000000001000000000000000500000000000000099406067000000049703033500000000074172200037701800110000041000004100000510000000000000000000000000000000000000000000000000000010000000000000048000000000000000001000000000000004800000000000000000000000000000000000                  
3030002MXCDBA0300C80        0      CD  BACMEXT21-3X  0         0000000140000000001000000000000000140000000000000097398995000000013635859300000000010353000021501800410000051000001100000410000000000000000000000000000000000000000000000000000010000000000000060000000000000000001000000000000006000000000000000000000000000000000000                  
3030002MX91XI0000710        0      91  XIGNUX 24-2   0         0000000200000000001107643220000000221528643000000109464450000000021892890000000000027375000039591800510000061000001100400410040000000000000000000000000000000000000000000000000010000000000000062500000000000000001000000000000006250000000000000000000000000000000000                  
3030002MX91GC0000940        0      91  GCARSO 24-2   0         0000001574350000001000000000000001574350000000000107470179000000169195676300000000009201130020001800410000061000004100000610000000000000000000000000000000000000000000000000000010000000000000055000000000000000001000000000000005500000000000000000000000000000000000                  
3030002MX94HS0M00F30        0      94  HSBC   24-2   0         0000000642820000001000000000000000642820000000000105484619000000067807622800000000029541180012581800410000051000001100000410000000000000000000000000000000000000000000000000000010000000000000025000000000000000001000000000000002500000000000000000000000000000000000                  
3030006MX01GA0600080        0      1   GAV    A      0         0000000108500000001588655490000000172369121000000175679639000000019061240800000000000000000000001800000000000000000000000000000000000000000000000000000000000000000000000000000000000000000000060033332000000000000000000000000006003333200000000000000000000000000000                  
3030002MXCDBA1C00V90        0      CD  BANOB  23-5   0         0000001915000000001000000000000001915000000000000104146381000000199440319600000000893187980029201800110000041000001100000410000000000000000000000000000000000000000000000000000010000000000000074600000000000000001000000000000007460000000000000000000000000000000000                  
3030002MX91FU0000850        0      91  FUNO   17     0         0000000262810000000977477000000000256890730000000099979033000000026275489700000000119549350007321800410000061000004100000610000000000000000000000000000000000000000000000000000010000000000000047996000000000000001000000000000004799600000000000000000000000000000000                  
3030002MX94HS0M00C00        0      94  HSBC   20-2   0         0000000918000000001000000000000000918000000000000094095062000000086379266900000000326285290016571800410000051000001100000410000000000000000000000000000000000000000000000000000010000000000000060000000000000000001000000000000006000000000000000000000000000000000000                  
3030002MX0MGO0000B20        0      M   BONOS  361120 0         0000001157410000001193604460000001381489743000000107596505000000124533270900000000562629850040111800110000041000001100000410000000000000000000000000000000000000000000000000000010000000000000941343545000000000001000000000000090943008700000000000000000000000000000                  
3030002MX95FO0M00230        0      95  FONADIN20U    0         0000000066660000006600248000000000439972532000000822331210000000054816598500000000063010540010991800110000041000001100000410000000000000000000000000000000000000000000000000000010000000000000011312340000000000001000000000000001131234000000000000000000000000000000                  
3030006MX01GA0000040        B0ZV1041   GAP    B      0         0000000561330000002939341230000001649940412000000434790000000000244060670700000000000000000000001800000000000000000000000000000000000000000000000000000000000000000000000000000000000000000000429485845000000000000000000000000056100000000000000000000000000000000000                  
3030011MXCFFI0V00010        0      CF  FINN   13     0         0000011191470000000089035950000000996443154000000004710000000000052711823700000000000000000000001800000000000000000000000000001120251125000001000000100000000000000090000000000000000000000000735760773000000000000000000000000074900082600000000000000000000000000000                  
3030007US46428520440        0      1ISPIAU    *      0         0000002209200000010588911800000023393023945000001438864140000003178738658100000000000000000000000800000000000000000000000000000000000000000000000000000000000000000000000000000000000000000000826000000000000000000000000000000066845000000000000000000000000000000000                  
3030002MX91BS0700030        0      91  BSMXCB 25     0         0000000735440000001000000000000000735440000000000099871764000000073449690100000000073617540031961800410000061000000000000000000000000000000000000000000000000000000000000000000010000000000000027900000000000000001000000000000002790000000000000000000000000000000000                  
3030006MX01R00000060        0      1   R      A      0         0000000443190000001136714600000000503780542000000139130000000000061661024700000000000000000000001800000000000000000000000000000120251126000001000000000000000000003350000000000000000000000000327931333000000000000000000000000038924841900000000000000000000000000000                  
3030003MX91LE0100030        0      91  LEPCB  18     0         0000000281250000000747251470000000210164477000000073943247000000020796538200000000018025120076311800410000061000000000000000000000000000000000000000000000000000000000000000000007472514700000045000000000000000001000000000000004500000000000000000000000000000000000                  
3030002MX0SGO0000M60        0      S   UDIBONO261203 0         0000042518180000007872326450000334716993221000000859191025000036531238655300000053350115790003711800110000041000001100000410000000000000000000000000000000000000000000000000000010000000000000407413571000000000001000000000000048988557000000000000000000000000000000                  
3030007US46429B67190        0      1ISPMCHI   *      0         0000001403210000009608362340000013482550120000001135646085000001593549942900000000000000000000000800000000000000000000000000000000000000000000000000000000000000000000000000000000000000000000128200000000000000000000000000000011580000000000000000000000000000000000                  
3030002MX91BW0200100        0      91  BWMX   21-2X  0         0000000053050000001000000000000000053050000000000097488433000000005171761400000000011566370009981800410020061002004100200610020000000000000000000000000000000000000000000000000010000000000000010000000000000000001000000000000001000000000000000000000000000000000000                  
3030004MX91GR0600260        0      91  GRUMA  22     0         0000001696500000001000000000000001696500000000000100230904000000170041728600000000079862740006791800110000041000001100000410000000000000000000000000000000000000000000000000000010000000000000045000000000000000001000000000000004500000000000000000000000000000000000                  
3030002MX91SI0100770        0      91  SIGMA  24-2   0         0000002800000000001000000000000002800000000000000103657828000000290241918400000000609777840030141800410000051000001100000410000000000000000000000000000000000000000000000000000010000000000000084800000000000000001000000000000008480000000000000000000000000000000000                  
3030002MX0SGO0000P90SGO0000P0      S   UDIBONO340824 0         0000014316270000007716419190000110470340614000000827973169000011853487440200000011496629080031921800110000041000001100000410000000000000000000000000000000000000000000000000000010000000000000346714898000000000001000000000000018215743800000000000000000000000000000                  
3030002MX0SGO0000N40SGO0000N0      S   UDIBONO431112 0         0000003531500000007074414490000024983294759000000725738413000002562945205500000004800450590065591800110000041000001100000410000000000000000000000000000000000000000000000000000010000000000000400403112000000000001000000000000028786219600000000000000000000000000000                  
3030002MX0SGO0000K00        0      S   UDIBONO311127 0         0000017725130000006816578540000120824740811000000786190693000013935332238200000020387386030021911800110000041000001100000410000000000000000000000000000000000000000000000000000010000000000000612692245000000000001000000000000062285455300000000000000000000000000000                  
3030002MXCDBA0300J30        0      CD  BACMEXT23-4X  0         0000000892290000001000000000000000892290000000000110271746000000098394376200000000105788390028711800410000051000001100000410000000000000000000000000000000000000000000000000000010000000000000059486108000000000001000000000000005948610800000000000000000000000000000                  
3030006MXP0013910120        25630171   ALSEA  *      0         0000000168320000000512938600000000086337825000000049900000000000008399168000000000000000000000001800000000000000000000000000000000000000000000000000000000000000000000000000000000000000000000802139384000000000000000000000000080955847000000000000000000000000000000                  
3030002MX95FO0M00800        0      95  FONADIN23U    0         0000000489330000007914336000000003872722035000000875299379000000428310245100000001037646040047391800110000041000001100000410000000000000000000000000000000000000000000000000000010000000000000002375423000000000001000000000000000237542300000000000000000000000000000                  
3030002MX91GA0000D20        0      91  GAP    22-2   0         0000001230390000001000000000000001230390000000000103358604000000127171392800000000254482300022891800110000051000001100000510000000000000000000000000000000000000000000000000000010000000000000060000000000000000001000000000000003000000000000000000000000000000000000                  
3030002MX95CF0500T60        0      95  CFE    23UX   0         0000000169770000007974487000000001353828658000000909050454000000154329495600000000423241530036511800110000041000004100000510000000000000000000000000000000000000000000000000000010000000000000005823507000000000001000000000000000582350700000000000000000000000000000                  
3030004MX91LA0100640        0      91  LAB    23-2   0         0000001027330000000999986310000001027315935000000100379432000000103122801900000000038079730004881800410010061001004100100610010000000000000000000000000000000000000000000000000010000000000000022000000000000000001000000000000002200000000000000000000000000000000000                  
3030002MXCDBA1C00C90        0      CD  BANOB  21-3X  0         0000001604360000001000000000000001604360000000000093641318000000150234384900000000230007310019291800110000041000001100000410000000000000000000000000000000000000000000000000000010000000000000043000000000000000001000000000000004300000000000000000000000000000000000                  
3030002XS27932639350        0      JE  AMX    0129   0         0000000020000000099823000000000001996460000000010461720986000000209234419700000000703125000011521800110000041000001100000410000000000000000000000000000000000000000000000000001000000000000000002700000000000000100000000000000000175000000000000000000000000000000000                  
3030002MX91GR0600180        0      91  GRUMA  21     0         0000000567720000001000000000000000567720000000000097842286000000055547022600000000014350710008971800110000041000001100000410000000000000000000000000000000000000000000000000000010000000000000020000000000000000001000000000000002000000000000000000000000000000000000                  
3030006MX01OR0100040        0      1   ORBIA  *      0         0000001040260000000181616370000000188928246000000017020000000000017705225200000000000000000000001800000000000000000000000000000000000000000000000000000000000000000000000000000000000000000001968000000000000000000000000000000196800000000000000000000000000000000000                  
3030002MX95CF0500S80        0      95  CFE    23-3X  0         0000001244350000000991828160000001234181373000000108135694000000134558650800000000643080080015581800110000041000004100000510000000000000000000000000000000000000000000000000000010000000000000059928782000000000001000000000000005992878200000000000000000000000000000                  
3030002MX91SI0100850        0      91  SIGMA  24-3   0         0000002068920000001000000000000002068920000000000105163777000000217575441500000000089653130038071800410000051000001100000410000000000000000000000000000000000000000000000000000010000000000000048000000000000000001000000000000004800000000000000000000000000000000000                  
3030006MX01ES0500190        0      1   ESENTIAII     0         0000002826590000000450000000000001271965500000000046620000000000131775625800000000000000000000001800000000000000000000000000000000000000000000000000000000000000000000000000000000000000000000534016903000000000000000000000000053401690300000000000000000000000000000                  
3030006MX01TR0H00060        0      1   TRAXIONA      0         0000001724310000000215479960000000371554250000000013870000000000023916179700000000000000000000001800000000000000000000000000000000000000000000000000000000000000000000000000000000000000000000555689835000000000000000000000000056195218000000000000000000000000000000                  
3030702MX0SGO0000230        0      S   UDIBONO351122 0         0000001136340000007523938990000008549752828000000859012443000000976130199500000002138751080036471800110000041000001100000410000000000000000000000000000000000000000000000000000010000000000000520582129000000000001000000000000046773419600000000000000000000000000000                  
3030002MX91KO0000H60        0      91  KOF    22S    0         0000000220000000001000000000000000220000000000000105279461000000023161481400000000031618880014041800110000051000001100000410000000000000000000000000000000000000000000000000000010000000000000055000000000000000001000000000000005500000000000000000000000000000000000                  
3030003MX91KI0000B10        0      91  KIMBER 22     0         0000006916000000001000000000000006916000000000000101013570000000698609850100000002161826100031551800110000041000001100000410000000000000000000000000000000000000000000000000000010000000000000077500000000000000001000000000000007750000000000000000000000000000000000                  
3030006MX01CT0G00090        0      1   CTALPEKA      0         0000004205500000000031852730000000133956672000000002810000000000011817455000000000000000000000001800000000000000000000000000000000000000000000000000000000000000000000000000000000000000000005558536508000000000000000000000000555853650800000000000000000000000000000                  
3030002USP3691NBM130        0      D2SPLIVEM13370122 0         0000000006360000208187000000000001324069320000019650932960000000124979933600000000269706010040741800110360041035001103600410350000000000000000000000000000000000000000000000000100000000000000000500000000000000010000000000000000050000000000000000000000000000000000                  
3030002MX0MGO0000H90        0      M   BONOS  290531 0         0000053114790000000992704510000052727291535000000101426613000005387253249900000021946733790012811800110000041000001100000410000000000000000000000000000000000000000000000000000010000000000003745922151000000000001000000000000352560293800000000000000000000000000000                  
3030002MX91ME0900460        0      91  MEGA   24-2X  0         0000000822370000001000000000000000822370000000000103821948000000085380055400000000148483510019371800410000061000004100000610000000000000000000000000000000000000000000000000000010000000000000023230714000000000001000000000000002323071400000000000000000000000000000                  
3030007US46434V73850        0      1ISPIEUR   *      0         0000002641070000011651383440000030772119254000001267168980000003346681978000000000000000000000000100000000000000000000000000000000000000000000000000000000000000000000000000000000000000000000098000000000000000000000000000000007660000000000000000000000000000000000                  
3030002MX0SGO0000980        0      S   UDIBONO401115 0         0000001465410000006697239080000009814201118000000815256376000001194684846000000002451650570054671800110000041000001100000410000000000000000000000000000000000000000000000000000010000000000000446926530000000000001000000000000045639201700000000000000000000000000000                  
3030006MX01CH1700020        B457NQ01   CHDRAUIB      0         0000000421560000001317282970000000555313808000000133470000000000056265613200000000000000000000001800000000000000000000000000000000000000000000000000000000000000000000000000000000000000000000960282670000000000000000000000000096391721100000000000000000000000000000                  
3030003MX95MX0E00040        0      95  MXPUCB 18     0         0000000204840000000853800000000000174892392000000085993625000000017614934100000000055382590044421800410000061000000000000000000000000000000000000000000000000000000000000000000008538000000000049523945000000000001000000000000004952394500000000000000000000000000000                  
3030002MX91HE0100B40        0      91  HERDEZ 22L    0         0000000241500000001000000000000000241500000000000102623407000000024783552800000000101691620023931800110020041002001100300410020000000000000000000000000000000000000000000000000010000000000000015000000000000000001000000000000001500000000000000000000000000000000000                  
3030002MX91OR0100470        0      91  ORBIA  25-2   0         0000001517060000001000000000000001517060000000000107550763000000163160960500000000237268180034101800410010061000001100200410010000000000000000000000000000000000000000000000000010000000000000030341250000000000001000000000000003034125000000000000000000000000000000                  
3030003MX95TF0300990        0      95  TFOVICB21U    0         0000001058080000004178863010000004421571378000000500848543000000529937826400000000149024640091941800410000061000001100000000000000000000000000000000000000000000000000000000000006015745600000014395651000000000001000000000000001439565100000000000000000000000000000                  
3030101MXBIGO000YD80        0      BI  CETES  260514 0         0000298739140000000096630350000028867267656000000009665831000002887562040300000000000000000001681800110000041000001100000410000000000000000000000000000000000000000000000000000001000000000003996860956000000000000100000000000161000000000000000000000000000000000000                  
3030101MXBIGO000X350        0      BI  CETES  260108 0         0000464970690000000099128880000046092023732000000009916490000004610877197700000000000000000000421800110000041000001100000410000000000000000000000000000000000000000000000000000001000000000009283857130000000000000100000000000165000000000000000000000000000000000000                  
3030102MX0MGO0000P20        0      M   BONOS  310529 0         0000024736700000001007191810000024914601693000000097191338000002404192970700000009319207880020091800110000041000001100000410000000000000000000000000000000000000000000000000000010000000000004771900237000000000001000000000000381893550600000000000000000000000000000                  
304000235924263642400023592426364240000000000000000008815729887000000002676174                                                                                                                                                                                                                                                                         
307000100JI  CABEI  2-24S  0         XS28007201090        0      01                              025014                    202511260000001193270101000000001000000100000000621362180000000062136218                                                                                                                                                    
3070002001   ASUR   B      0         MXP0016610180        263934903                              025014                    202511270000000268320101000000001000000100000000402480000000000040248000                                                                                                                                                    
3070003001   OMA    B      0         MX01OM0000180        B1KFX1303                              025014                    202511270000000501420101000000001000000100000000289198050000000028919805                                                                                                                                                    
3070004001   R      A      0         MX01R00000060        0      03                              025014                    202511270000000443190101000000001000000100000000148468650000000014846865                                                                                                                                                    
307000512EF  EFECTIV990101 0         0           0        0      07EXCEDENTES                    040044                    202511260000031805140101000000001000000100000003180514000000000318051400                                                                                                                                                    
307000612EF  EFECTIV990101 0         0           0        0      07EXCEDENTES                    040014                    202511260000057202250101000000001000000100000005720225000000000572022500                                                                                                                                                    
307000712*CSPMXPUSD SPOT   0         0           0        0      07EXCEDENTES                    801197                    202511260000006362350202000000018383200100000000636235000000001169603525                                                                                                                                                    
307000813EF  EFECTIV990101 0         0           0        0      07AIMS                          040014                    202511260000024400220101000000001000000200000002440022290000000244002229                                                                                                                                                    
307000912*CSPMXPUSD SPOT   0         0           0        0      07AIMS                          801197                    202511260000000040640202000000018383200100000000004064890000000007472568                                                                                                                                                    
307001012EF  EFECTIV990101 0         0           0        0      07INTERESES AIMS                040014                    202511260000000000000101000000001000000100000000009853910000000000985391                                                                                                                                                    
307001113EF  EFECTIV990101 0         0           0        0      08COMISION SCOTIA               040044                    202511260000000000000101000000001000000200000000001338670000000000133867                                                                                                                                                    
307001200FD  DEUA   SP26   00018911100           0        0      08COMISION FUTUROS              040044                    202511260000017000000101000000001000000200000000000936700000000000093670                                                                                                                                                    
307001300FD  DEUA   JN26   V2200001  0           0        0      06                              040044                    202511270000003600000101000000001000000100000000015804000000000001580400                                                                                                                                                    
307001400FD  DEUA   SP26   V2200001  0           0        0      06                              040014                    202511270000038400000101000000001000000100000000181632000000000018163200                                                                                                                                                    
307001500FD  DEUA   SP26   V2200001  0           0        0      06                              040044                    202511270000007500000101000000001000000100000000035475000000000003547500                                                                                                                                                    
307001600FD  DEUA   SP26   V2200001  0           0        0      06                              040014                    202511270000174400000101000000001000000100000000824912000000000082491200                                                                                                                                                    
307001700FD  DEUA   SP26   V2200001  0           0        0      06                              040044                    202511270000129000000101000000001000000100000000610170000000000061017000                                                                                                                                                    
307001800FCSPJY     Z5     V2000001  0           0        0      06                              801197                    202511270000625000000202000000018343500100000000001625000000000002980819                                                                                                                                                    
307001900FD  DEUA   MR26   V2100001  0           0        0      06                              040014                    202511270000005900000101000000001000000200000000024603000000000002460300                                                                                                                                                    
307002000FD  DEUA   MR26   V2100001  0           0        0      06                              040044                    202511270000002500000101000000001000000200000000010425000000000001042500                                                                                                                                                    
307002100FD  DEUA   DC26   V2200001  0           0        0      06                              040014                    202511270000021800000101000000001000000100000000109000000000000010900000                                                                                                                                                    
307002200FD  DEUA   DC26   V2200001  0           0        0      06                              040044                    202511270000014600000101000000001000000100000000073000000000000007300000                                                                                                                                                    
307002300FD  DEUA   SP26   V2200001  0           0        0      06                              040014                    202511270000069300000101000000001000000100000000327789000000000032778900                                                                                                                                                    
307002400FD  DEUA   SP26   00018911100           0        0      06                              040044                    202511270000017000000101000000001000000200000000008840000000000000884000                                                                                                                                                    
307002500FD  DEUA   SP26   V2200001  0           0        0      06                              040044                    202511270000017500000101000000001000000100000000082775000000000008277500                                                                                                                                                    
307002600FCSPES     Z5     V2100001  0           0        0      06                              801197                    202511270000000004500202000000018343500100000000020925000000000038383774                                                                                                                                                    
307002700FD  DEUA   DC26   V2200001  0           0        0      06                              040044                    202511270000014600000101000000001000000100000000073000000000000007300000                                                                                                                                                    
307002800FD  DEUA   DC26   V2200001  0           0        0      06                              040014                    202511270000022000000101000000001000000100000000110000000000000011000000                                                                                                                                                    
307002900FD  DEUA   DC26   V2200001  0           0        0      06                              040014                    202511270000030000000101000000001000000100000000150000000000000015000000                                                                                                                                                    
307003000FD  DEUA   DC26   V2200001  0           0        0      06                              040044                    202511270000020000000101000000001000000100000000100000000000000010000000                                                                                                                                                    
307003100FD  DEUA   SP26   V2200001  0           0        0      06                              040014                    202511270000006800000101000000001000000100000000032164000000000003216400                                                                                                                                                    
307003200FD  DEUA   SP26   V2200001  0           0        0      06                              040044                    202511270000004600000101000000001000000100000000021758000000000002175800                                                                                                                                                    
307003300FD  DEUA   SP26   V2200001  0           0        0      06                              040014                    202511270000007000000101000000001000000100000000033110000000000003311000                                                                                                                                                    
307003400FD  DEUA   SP26   V2200001  0           0        0      06                              040044                    202511270000006500000101000000001000000100000000030745000000000003074500                                                                                                                                                    
307003500FD  DEUA   SP26   V2200001  0           0        0      06                              040014                    202511270000009700000101000000001000000100000000045881000000000004588100                                                                                                                                                    
307003600FD  DEUA   SP26   V2200001  0           0        0      06                              040014                    202511270000026300000101000000001000000100000000124399000000000012439900                                                                                                                                                    
307003700FCSPPE     Z5     V2400001  0           0        0      06                              801197                    202511270000040000000202000000018343500200000000000480000000000000880488                                                                                                                                                    
307003800FCSPEC     Z5     V2000001  0           0        0      06                              801197                    202511270000013750000202000000018343500200000000001375000000000002522231                                                                                                                                                    
307003900FD  DEUA   SP26   V2200001  0           0        0      06                              040044                    202511270000013300000101000000001000000100000000062909000000000006290900                                                                                                                                                    
307004000FD  DEUA   SP26   V2200001  0           0        0      06                              040014                    202511270000020000000101000000001000000100000000094600000000000009460000                                                                                                                                                    
307004100FCSPES     Z5     V2100001  0           0        0      06                              801197                    202511270000000103000202000000018343500100000000478950000000000878561933                                                                                                                                                    
307004200FD  DEUA   SP26   V2200001  0           0        0      06                              040044                    202511270000004600000101000000001000000100000000021758000000000002175800                                                                                                                                                    
307004300SWP 6SMXMXP270209 V2500001CU0           0        0      06                              801197                    202511270002398000000101000000001000000200000000072419600000000007241960                                                                                                                                                    
307004400SWP 6SMXMXP270209 V2500002CU0           0        0      06                              801197                    202511270001452000000101000000001000000200000000043850400000000004385040                                                                                                                                                    
307004500SWP 6SMXMXP270209 V2500003CU0           0        0      06                              801197                    202511270003102000000101000000001000000200000000093990600000000009399060                                                                                                                                                    
307004600SWP 6SMXMXP270223 V2500001CU0           0        0      06                              801197                    202511270000701000000101000000001000000100000000022081500000000002208150                                                                                                                                                    
307004700SWP 6SMXMXP270223 V2500002CU0           0        0      06                              801197                    202511270002707000000101000000001000000100000000085270500000000008527050                                                                                                                                                    
307004800SWP 6SMXMXP270223 V2500004CU0           0        0      06                              801197                    202511270001111000000101000000001000000100000000035107600000000003510760                                                                                                                                                    
