00000558343030000253000197520251126                                                                                                                                                                                                                                                                                                                    
301MXBIGO000X350        0      BI  CETES  260108 0         0000010000000001137478180000112756938007007300000000009912888000011277980260800000000228646010000112779802608000000000101000000001000000040044                    00110000041000000000000000                                                                                                
301MXBIGO000YD80        0      BI  CETES  260514 0         0000010000000000730818670000070619263869007280000000009663035000007063354465300000000142807840000070633544653000000000101000000001000000040012                    00110000041000000000000000                                                                                                
301MX0MGO0000P20        0      M   BONOS  310529 0         0000010000000000060514480000060949688757007280000000100719181000006096201413900000000123253820000060962014139000000000101000000001000000040014                    00410000051000000000000000                                                                                                
302001000106MX54XX0G00220        0      54  XXI7579B2     0         2025112600000398769700000001623924800000001623924800000064757200530000000000000100000000100000018801160                    000000001000                    0                                                                                                                       
3020021201100           0        0      EF  EFECTIV990101 00000000002025112600001689123100000000100000000000000000000000000016891231430000000000000100000000000000018000000                    000000001000                    0                                                                                                                       
302501010102MX0MGO0000P20        0      M   BONOS  310529 0         2025112600000739978200000010061011700000010063063000000744644723590020100073400100000000100000018040014                    000000001000                    0                                                                                                                       
302502010101MXBIGO000X350        0      BI  CETES  260108 0         2025112600011916690300000000991092600000000991295200001181295817270000430073600100000000100000018040044                    000000001000                    0                                                                                                                       
302503010102MX0MGO0001L90MGO0001L0      M   BONOS  360221 0         2025112600000558560400000009520558000000009522499100000531889092640037390073400100000000100000018040012                    000000001000                    0                                                                                                                       
302504000106MX54XX0G00220        0      54  XXI7579B2     0         2025112600000029148100000001623924800000001623924800000004733432250000000000000100000000100000018801160                    000000001000                    0                                                                                                                       
3025051301100           0        0      EF  EFECTIV990101 00000000002025112600000285792200000000100000000000000000000000000002857922810000000000000100000000000000018000000                    000000001000                    0                                                                                                                       
302003010101MXBIGO000X350        0      BI  CETES  260108 0         2025112600011374781800000000991288800000000991288800001127569380070000430073000100000000100000018040044                    074702062000                    0                                                                                                                       
302004010101MXBIGO000YD80        0      BI  CETES  260514 0         2025112600007308186700000000966303500000000966303500000706192638690001690072800100000000100000018040012                    074702062000                    0                                                                                                                       
302005010102MX0MGO0000P20        0      M   BONOS  310529 0         2025112600000605144800000009697334800000010071918100000609496887570020100072800100000000100000018040014                    074702062000                    0                                                                                                                       
3020061202100           0        0      *CSPMXPUSD SPOT   0         2025112700000003152500000001834350000000000000000000000000578278840000000000000200000001834350008801197                    090000002000                    0                                                                                                                       
3020071202100           0        0      *CSPMXPUSD SPOT   0         2025112700000670762500000001834350000000000000000000000123041319190000000000000200000001834350008801197                    090000002000                    0                                                                                                                       
3020081202100           0        0      *CSPMXPUSD SPOT   0         2025112700000066960000000001834350000000000000000000000012282807600000000000000200000001834350008801197                    090000002000                    0                                                                                                                       
3020091202100           0        0      *CSPMXPUSD SPOT   0         2025112700000030225000000001834350000000000000000000000005544322880000000000000200000001834350008801197                    090000002000                    0                                                                                                                       
3020101202100           0        0      *CSPMXPUSD SPOT   0         2025112700000021157500000001834350000000000000000000000003881026010000000000000200000001834350008801197                    090000002000                    0                                                                                                                       
3020111202100           0        0      *CSPMXPUSD SPOT   0         2025112700000026272500000001834350000000000000000000000004819296040000000000000200000001834350008801197                    090000002000                    0                                                                                                                       
3020121202100           0        0      *CSPMXPUSD SPOT   0         2025112700000039525000000001834350000000000000000000000007250268380000000000000200000001834350008801197                    090000002000                    0                                                                                                                       
302506000111MXFEFI2900020        0      FESPFIEMEX 25-2D  0         2025112600000000000100000000000000000000000000000000000000000000000000000000000200000001838320018025002                    090002061000                    0                                                                                                                       
3025071302100           0        0      *CSPMXPUSD SPOT   0         2025112700000002937500000001834350000000000000000000000000538840310000000000000200000001834350008801197                    090000002000                    0                                                                                                                       
302508000306MX01VI0C00060        0      1   VISTA  A      0         2025112800000000901700000088617000000000088617000000000007985960340000000000000100000000100000018013001                    145302061000                    0                                                                                                                       
302013000206MX01AC1000060        28238851   AC     *      0         2025112700000000142500000018321350200000018321350200000000261230670000000000000100000000100000018013001                    145402062000                    0                                                                                                                       
302014000206MXP0005110160        20434231   ALFA   A      0         2025112700000000769900000001425260000000001425260000000000109794420000000000000100000000100000018013001                    145402062000                    0                                                                                                                       
302015000206MXP0013910120        25630171   ALSEA  *      0         2025112700000000025700000004971501900000004971501900000000012784170000000000000100000000100000018013001                    145402062000                    0                                                                                                                       
302016000206MX01AM0500190        0      1   AMX    B      0         2025112700000003530400000002113200000000002113200000000000746476830000000000000100000000100000018013001                    145402062000                    0                                                                                                                       
302017000206MXP0016610180        26393491   ASUR   B      0         2025112700000000037300000054931670200000054931670200000000205013970000000000000100000000100000018013001                    145402062000                    0                                                                                                                       
302018000206MXP4952112620        23924711   BIMBO  A      0         2025112700000000106000000005770400000000005770400000000000061201710000000000000100000000100000018013001                    145402062000                    0                                                                                                                       
302019000206MXP3708410190        26436741   GMEXICOB      0         2025112700000000667300000015694579900000015694579900000001047906750000000000000100000000100000018013001                    145402062000                    0                                                                                                                       
302020000206MXP3707110140        24210411   GFNORTEO      0         2025112700000000567800000017827240000000017827240000000001012817790000000000000100000000100000018013001                    145402062000                    0                                                                                                                       
302021000206MXP4948K10560        23925451   GRUMA  B      0         2025112700000000032600000031620438700000031620438700000000103142420000000000000100000000100000018013001                    145402062000                    0                                                                                                                       
302022000206MX01SI0C00020        0      1   SITES1 A-1    0         2025112700000000096600000001524690500000001524690500000000014737050000000000000100000000100000018013001                    145402062000                    0                                                                                                                       
302023000206MX01TR0H00060        0      1   TRAXIONA      0         2025112700000000189400000001395160000000001395160000000000026439650000000000000100000000100000018013001                    145402062000                    0                                                                                                                       
302024000206MXP5540914150        0      1   PE&OLES*      0         2025112700000000040400000077878569300000077878569300000000314811900000000000000100000000100000018013001                    145402062000                    0                                                                                                                       
302025000206MX01LA0500100        0      1   LACOMERUBC    0         2025112700000000147000000004096189800000004096189800000000060248920000000000000100000000100000018013001                    145402062000                    0                                                                                                                       
302026000206MX01VO0000090        0      1   VOLAR  A      0         2025112700000000126300000001317440200000001317440200000000016648920000000000000100000000100000018013001                    145402062000                    0                                                                                                                       
302027000206MXP6069411790        24919141   KIMBER A      0         2025112700000000162000000003679590100000003679590100000000059643930000000000000100000000100000018013001                    145402062000                    0                                                                                                                       
302028000206MX01OM0000180        B1KFX131   OMA    B      0         2025112700000000078100000024394320100000024394320100000000190630140000000000000100000000100000018013001                    145402062000                    0                                                                                                                       
302029000206MX01GC2M00060        29466631   GCC    *      0         2025112700000000065300000018020379800000018020379800000000117741330000000000000100000000100000018013001                    145402062000                    0                                                                                                                       
302030000206MX01ME0900030        B292SM81   MEGA   CPO    0         2025112700000000163200000005075800200000005075800200000000082885110000000000000100000000100000018013001                    145402062000                    0                                                                                                                       
302031000206MX01VE0M00030        0      1   VESTA  *      0         2025112700000000199300000005765280000000005765280000000000114968670000000000000100000000100000018013001                    145402062000                    0                                                                                                                       
302032000206MXP3203213100        22420591   FEMSA  UBD    0         2025112700000000359900000017422569900000017422569900000000627401970000000000000100000000100000018013001                    145402062000                    0                                                                                                                       
302033000206MX01WA0000380        0      1   WALMEX *      0         2025112700000001160500000006182640000000006182640000000000717911520000000000000100000000100000018013001                    145402062000                    0                                                                                                                       
302034000206MXP2256115670        24064571   CEMEX  CPO    0         2025112700000003392700000001924100000000001924100000000000653168020000000000000100000000100000018013001                    145402062000                    0                                                                                                                       
302035000206MX01CT0G00090        0      1   CTALPEKA      0         2025112700000000651600000000278950000000000278950000000000018186920000000000000100000000100000018013001                    145402062000                    0                                                                                                                       
302036000206MX01Q00000080        0      1   Q      *      0         2025112700000000014300000018144818200000018144818200000000025962140000000000000100000000100000018013001                    145402062000                    0                                                                                                                       
302037000206MX01GE0E00040        0      1   GENTERA*      0         2025112700000000370800000004388370000000004388370000000000162815140000000000000100000000100000018013001                    145402062000                    0                                                                                                                       
302038000206MX01PI0000050        0      1   PINFRA *      0         2025112700000000033500000025065961200000025065961200000000084019680000000000000100000000100000018013001                    145402062000                    0                                                                                                                       
302039000206MX01GA0000040        B0ZV1041   GAP    B      0         2025112700000000101000000043243229700000043243229700000000437009940000000000000100000000100000018013001                    145402062000                    0                                                                                                                       
302040000206MX01CH1700020        B457NQ01   CHDRAUIB      0         2025112700000000083400000013340820100000013340820100000000111326970000000000000100000000100000018013001                    145402062000                    0                                                                                                                       
302041000206MX01KO0000020        0      1   KOF    UBL    0         2025112700000000138400000016149200100000016149200100000000223634560000000000000100000000100000018013001                    145402062000                    0                                                                                                                       
302042000206MX01ES0500190        0      1   ESENTIAII     0         2025112700000000081000000004627609900000004627609900000000037505380000000000000100000000100000018013001                    145402062000                    0                                                                                                                       
302043000206MXP4611810850        23934521   GCARSO A1     0         2025112700000000056700000012681790100000012681790100000000071947450000000000000100000000100000018013001                    145402062000                    0                                                                                                                       
302044000206MXP3706410130        28223981   GFINBURO      0         2025112700000000255000000004397820000000004397820000000000112209450000000000000100000000100000018013001                    145402062000                    0                                                                                                                       
302045000206MX41BB0000000        0      41  BBAJIO O      0         2025112700000000059400000004705730600000004705730600000000027968260000000000000100000000100000018013001                    145402062000                    0                                                                                                                       
302509000206MX01R00000060        0      1   R      A      0         2025112700000004737000000013947370000000013947370000000006603037190000000000000100000000100000018013109                    151902061000                    0                                                                                                                       
3030011MX1RTH0000010        0      1R  THERMCK17     0         0000231498880000000105375960000024394416819000000007535761000001744520231400000000000000000005541800000000000000000000000000000000000000000000000000000000000000000000000000000000000000000000307739691000000000000000000000000000661250000000000000000000000000000000                  
3030011MXCFDA0200050        0      CF  DANHOS 13     0         0000096452780000000265610500000025618871135000000028650000000002763372147000000000000000000000001800000000000000000000000000000000000000000000000000000000000000000000000000000000000000000001604073701000000000000000000000000158230934300000000000000000000000000000                  
3030011MX1RMO0R00090        0      1R  MOTAPI 18     0         0000171904430000000274421650000047174297514000000031397982000005397452198900000000000000000156921800000000000000000000000000000000000000000000000000000000000000000000000000000000000000000000074523989000000000000000000000000000600000000000000000000000000000000000                  
3030002MX91ME0900120        0      91  MEGA   22-2   0         0000012617500000001000000000000012617500000000000104034422000001312654319600000004784065180024091800410000061000004100000610000000000000000000000000000000000000000000000000000010000000000000044724000000000000001000000000000004472400000000000000000000000000000000                  
3030007US78463X20270        0      1ISPFEZ    *      0         0000001418700000005190079670000007363166026000001150687755000001632480718000000000000000000000000800000000000000000000000000000000000000000000000000000000000000000000000000000000000000000000075500967000000000000000000000000006500096700000000000000000000000000000                  
3030011MX1RBL0300020        0      1RSPBLKAGPI18D    0         0000491929520000000075727460000037252574485000000010380518000005106483237100000000000000000029311800000000000000000000000000000000000000000000000000000000000000000000000000000000000000000000234451959000000000000000000000000000023000000000000000000000000000000000                  
3030007US46429B67190        0      1ISPMCHI   *      0         0000010638970000010352035160000110134991498000001135646085000012082104628900000000000000000000000800000000000000000000000000000000000000000000000000000000000000000000000000000000000000000000128200000000000000000000000000000011580000000000000000000000000000000000                  
3030011MX1RKK0100380        0      1RSPKKRPI  18D    0         0000001793480000020342189230000036483309539000002717039220000004872955500300000000000000000157131800000000000000000000000000000000000000000000000000000000000000000000000000000000000000000000000799978000000000000000000000000000020000000000000000000000000000000000                  
3030002MX94HS0M00F30        0      94  HSBC   24-2   0         0000005479460000001000000000000005479460000000000105484619000000577998750400000000251811870012581800410000051000001100000410000000000000000000000000000000000000000000000000000010000000000000025000000000000000001000000000000002500000000000000000000000000000000000                  
3030003MX95TF0300080        0      95  TFOVICB15U    0         0000002358400000001087975230000002565880772000000175787791000000414577926300000000114807860070011800110000041000001100000000000000000000000000000000000000000000000000000000000002046851900000019259506000000000001000000000000001925950600000000000000000000000000000                  
3030002MX95CF0500880        0      95  CFE    17     0         0000009308550000000961855900000008953483709000000099441318000000925654480700000003257268290007561800110000041000004100000510000000000000000000000000000000000000000000000000000010000000000000125500000000000000001000000000000012550000000000000000000000000000000000                  
3030002MX91AM0500R90        0      91  AMX    22UX   0         0000004232200000007610446000000032208929561000000884673849000003744116663700000000146870460043651800110000041000001100000410000000000000000000000000000000000000000000000000000010000000000000013262478000000000001000000000000001326247800000000000000000000000000000                  
3030002MX91SI0100850        0      91  SIGMA  24-3   0         0000023378860000001000000000000023378860000000000105163777000002458609219600000001013083150038071800410000051000001100000410000000000000000000000000000000000000000000000000000010000000000000048000000000000000001000000000000004800000000000000000000000000000000000                  
3030002MX91GR0600180        0      91  GRUMA  21     0         0000009394820000001000000000000009394820000000000097842286000000919210665400000000237480380008971800110000041000001100000410000000000000000000000000000000000000000000000000000010000000000000020000000000000000001000000000000002000000000000000000000000000000000000                  
3030004MX91ME0900040        0      91  MEGA   22     0         0000005914580000001000000000000005914580000000000100061744000000591823189800000000357536360005891800410000061000004100000610000000000000000000000000000000000000000000000000000010000000000000025276000000000000001000000000000002527600000000000000000000000000000000                  
3030002XS09310637790        0      JE  TLEVISA0443   0         0000000096000000095149018060000009134305734000006144649492000000589886351200000000251333340063771800510020041001005100200410010000000000000000000000000000000000000000000000001000000000000000000650000000000000100000000000000000065000000000000000000000000000000000                  
3030003MX95CI0Y00020        0      95  CIENCB 15     0         0000044606140000000826191690000036853222107000000081940689000003655057845200000011834704800047921800110000041000004100300000000000000000000000000000000000000000000000000000000008528000000000400000000000000000001000000000000040000000000000000000000000000000000000                  
3030003XS10032651510        0      D2  CONM151351215 0         0000000285530000104424866230000029816432054000017947253038000005124479159900000013399359350036701800110000041000000000000000000000000000000000000000000000000000000000000000000200000000000000000816812000000000020000000000000000081681200000000000000000000000000000                  
3030002MX91KO0000H60        0      91  KOF    22S    0         0000008800000000001000000000000008800000000000000105279461000000926459256800000001264755360014041800110000051000001100000410000000000000000000000000000000000000000000000000000010000000000000055000000000000000001000000000000005500000000000000000000000000000000000                  
3030002MX91OR0100210        0      91  ORBIA  22-2L  0         0000019757940000000998608260000019730442173000000102938924000002033861084100000010209640860025551800410010061000001100200410010000000000000000000000000000000000000000000000000010000000000000155600000000000000001000000000000015560000000000000000000000000000000000                  
3030002MX91AM0500T50        0      91  AMX    23-2   0         0000016750000000001000000000000016750000000000000103197685000001728561223800000002871229730008441800110000041000001100000410000000000000000000000000000000000000000000000000000010000000000000110160860000000000001000000000000011016086000000000000000000000000000000                  
3030002MXCDBA1C00Z00        0      CD  BANOB  24-3   0         0000010274250000001000000000000010274250000000000109872565000001128858201000000005109641380040151800110000041000001100000410000000000000000000000000000000000000000000000000000010000000000000089000000000000000001000000000000008900000000000000000000000000000000000                  
3030002MX0SGO0000F00        0      S   UDIBONO281130 0         0000023649050000007823733100000185023855212000000866303619000020487257600900000039565177550010991800110000041000001100000410000000000000000000000000000000000000000000000000000010000000000000453980590000000000001000000000000048756982600000000000000000000000000000                  
3030002MXCDBA1C00S50        0      CD  BANOB  23-3   0         0000039370000000001000000000000039370000000000000100650396000003962606090500000014705352480034941800410000051000001100000410000000000000000000000000000000000000000000000000000010000000000000080000000000000000001000000000000008000000000000000000000000000000000000                  
3030002MX91OM0000760        0      91  OMA    23-2L  0         0000009835000000001000000000000009835000000000000105930460000001041826074100000002326469250015551800110000041000004100000510000000000000000000000000000000000000000000000000000010000000000000025600000000000000001000000000000002560000000000000000000000000000000000                  
3030002MX0MGO0001L90MGO0001L0      M   BONOS  360221 0         0000035834150000000931891770000033393549632000000093896627000003364705816400000006689042530037381800110000041000001100000410000000000000000000000000000000000000000000000000000010000000000001113079650000000000001000000000000150000000000000000000000000000000000000                  
3030011MX1RLE0300170        0      1RSPLEXPI  22D    0         0000003137100000018130011800000056875660003000002177762564000006831858939500000000000000000041411800000000000000000000000000000000000000000000000000000000000000000000000000000000000000000000001112717000000000000000000000000000000260000000000000000000000000000000                  
3030002XS03295796000        0      D2  AMXL600181236 0         0000000045110001002874630240000045239674570000087623082710000003952677261000000017173377000040391800510350011034005103500410340000000000000000000000000000000000000000000000010000000000000000000073555000000001000000000000000000007355500000000000000000000000000000                  
3030011MX1RAM2000010        0      1R  AMICK  18     0         0000539535410000000100969290000054476506226000000009739557000005254835879200000000000000000081001800000000000000000000000000000000000000000000000000000000000000000000000000000000000000000000247600034000000000000000000000000000500000000000000000000000000000000000                  
3030006MXP3708410190        26436741   GMEXICOB      0         0000111108240000000616225970000068467782714000000158270000000017585101144800000000000000000000001800000000000000000000000000000000000000000000000000000000000000000000000000000000000000000007785000000000000000000000000000000778500000000000000000000000000000000000                  
3030011MX1RPM0500110        0      1R  PMCAPCK20     0         0000530154510000000068128130000036118436810000000005504920000002918458165200000000000000000015101800000000000000000000000000000000000000000000000000000000000000000000000000000000000000000000880638703000000000000000000000000000012000000000000000000000000000000000                  
3030003MX91PR1C00170        0      91  PROIN  10     0         0000009685240000000431063530000004174953744000000042292214000000409610242700000000829493350017351800110000041000001100400410040000000000000000000000000000000000000000000000000004310635300000027650000000000000001000000000000002765000000000000000000000000000000000                  
3030011MX1RRR0000190        0      1R  RRGCK  21     0         0000015314700000000583797590000008940685000000000074044059000001133962550400000000000000000026861800000000000000000000000000000000000000000000000000000000000000000000000000000000000000000000011482384000000000000000000000000000192439300000000000000000000000000000                  
3030011MX1RGA0500160        0      1RSPGAPI   18-D   0         0000041445930000001055779890000043757779470000000104069628000004313262517200000000000000000051221800000000000000000000000000000000000000000000000000000000000000000000000000000000000000000000041399999000000000000000000000000000045000000000000000000000000000000000                  
3030002MX0SGO0000S30        0      S   UDIBONO290830 0         0000052886460000008311434500000439562348093000000858256629000045390154879300000042470281310013721800110000041000001100000410000000000000000000000000000000000000000000000000000010000000000000157820169000000000001000000000000000950000000000000000000000000000000000                  
3030002MX91AL2F00750        0      91  ALSEA  17-2   0         0000000683860000000953871190000000652314353000000098538527000000067386557100000000107593950006641800610040041003006100400410030000000000000000000000000000000000000000000000000010000000000000020000000000000000001000000000000002000000000000000000000000000000000000                  
3030011MX1RIN3100250        0      1R  INFRACK17     0         0000000030490000469315315120000014309423958000050769742780000001547969457400000000000000000145091800000000000000000000000000000000000000000000000000000000000000000000000000000000000000000000000031141000000000000000000000000000000389800000000000000000000000000000                  
3030002MXCDBA0300H70        0      CD  BACMEXT23-2X  0         0000030413500000001000000000000030413500000000000104252282000003170676778600000008285312580015341800410000051000001100000410000000000000000000000000000000000000000000000000000010000000000000060000000000000000001000000000000006000000000000000000000000000000000000                  
3030011MX1RF10000030        0      1R  F1CC   15     0         0000009407900000000327586210000003081898275000000059965327000000564147799900000000000000000002091800000000000000000000000000000000000000000000000000000000000000000000000000000010000000000000115999985000000000001000000000000001200000000000000000000000000000000000                  
3030002MX91BI0Y00C60        0      91  BIMBO  25     0         0000046637500000001000000000000046637500000000000105512909000004920858293500000013553892850022621800110000041000005100200110000000000000000000000000000000000000000000000000000010000000000000127620000000000000001000000000000012762000000000000000000000000000000000                  
3030011MX1REX0I00160        0      1R  EXICPI 19     0         0000001178830000010000000000000011788300000000001715672409000002022486105900000000000000000028551800000000000000000000000000000000000000000000000000000000000000000000000000000000000000000000000550000000000000000000000000000000055000000000000000000000000000000000                  
3030011MX1RCA2600070        0      1R  CATMRCK17     0         0000157160230000000167018550000026248673119000000009690134000001522903688200000000000000000006201800000000000000000000000000000000000000000000000000000000000000000000000000000000000000000000378286039000000000000000000000000001151850000000000000000000000000000000                  
3030011MXFEFI2900020        0      FESPFIEMEX 25-2D  0         0000003162940000009755501730000030856066632000001893046485000005987592449300000000000000000000001800000000000000000000000000000000000000000000000000000000000000000000000000000000000000000000021393045000000000000000000000000002139304500000000000000000000000000000                  
3030003MX91MA0B00040        0      91  MAYACB 12U    0         0000000223490000001252057800000000279822398000000205342777000000045892057200000000109883620031371800410000051000000000000000000000000000000000000000000000000000000000000000000002364581300000006855130000000000001000000000000000685513000000000000000000000000000000                  
3030011MX1RIN3100170        0      1R  INFRACK16     0         0000000000810009999990000000000008099991900000011941417005000000009672547800000000000000000145091800000000000000000000000000000000000000000000000000000000000000000000000000000000000000000000000001289000000000000000000000000000000128900000000000000000000000000000                  
3030005MX90CB1400030        0      90  CBPF   48     0         0000012396140000001040128440000012893577761000000102664533000001272643924100000000055782630079731800410000051000000000000000000000000000000000000000000000000000000000000000000010000000000000070000000000000000001000000000000007000000000000000000000000000000000000                  
3030002MX0MGO0001N50MGO0001N0      M   BONOS  550429 0         0000217980030000000861105530000187703808588000000086768103000018913713695000000084770014090107451800110000041000001100000410000000000000000000000000000000000000000000000000000010000000000000274911011000000000001000000000000180000000000000000000000000000000000000                  
3030002MX95FO0M00640        0      95  FONADIN22-2U  0         0000005366490000007471363000000040094994826000000772629371000004146307793200000009427120330098351800110000041000001100000410000000000000000000000000000000000000000000000000000010000000000000022448775000000000001000000000000002244877500000000000000000000000000000                  
3030002MXCDBA0300O30        0      CD  BACMEXT24-4X  0         0000038039330000001000000000000038039330000000000106268545000004042384251900000011057397970031691800510000061000001100000410000000000000000000000000000000000000000000000000000010000000000000064063532000000000001000000000000006406353200000000000000000000000000000                  
3030002US91086QBB320        0      D1SPUMS44F 2044F  0         0000000001260000268469020630000000338270966000030569404222000000038517449300000000048183790066761800410370011036004103700110360000000000000000000000000000000000000000000000000200000000000000001857696000000000020000000000000000185769600000000000000000000000000000                  
3030002MX91FE0200670        0      91  FEMSA  22-2L  0         0000028308000000001000000000000028308000000000000103481902000002929365681800000001214098980025321800110000041000001100000410000000000000000000000000000000000000000000000000000010000000000000084463846000000000001000000000000008446384600000000000000000000000000000                  
3030011MX1RPB0300080        0      1R  PBFF1CK12     0         0000006356110000000485233520000003084197656000000055175173000000350699468900000000000000000002481800000000000000000000000000000000000000000000000000000000000000000000000000000009306830400000026812471000000000001000000000000000422000000000000000000000000000000000                  
3030002MX91TE0000710        0      91  TELMEX 07     0         0000028742950000001002352800000028810576409000000089903169000002584082291400000003938103200041271800510010011000005100100110000000000000000000000000000000000000000000000000000010000000000000050000000000000000001000000000000005000000000000000000000000000000000000                  
3030002MX94SC3O00L60        0      94  SCOTIAB24-3   0         0000007145300000001000000000000007145300000000000104548383000000747029561000000001491859330021081800110000041000001100000410000000000000000000000000000000000000000000000000000010000000000000039696111000000000001000000000000003969611100000000000000000000000000000                  
3030014LU22150862940        0      56SPGSEPPIJLX     0         0000004823360000022895624810000110433840899000002549296707000012296175764700000000000000000000001700000000000000000000000000000000000000000000000000000000000000000000000000000000000000000000000000000000000000000000000000000000000000000000000000000002000000000000                  
3030011MX1RAX0700050        0      1R  AXIS2CK14     0         0000179385490000000263791470000047320362034000000042818063000007680939212100000000000000000003281800000000000000000000000000000000000000000000000000000000000000000000000000000000000000000000098044705000000000000000000000000001200000000000000000000000000000000000                  
3030011MX1REX0J00070        0      1R  EXI3CK 20     0         0000330885000000000238216720000078822337900000000053778314000017794437427900000000000000000033491800000000000000000000000000000000000000000000000000000000000000000000000000000000000000000000116100000000000000000000000000000001922800000000000000000000000000000000                  
3030011MX1RCA1S00150        0      1R  CARZACK18     0         0013039977270000000001015390000013240699114000000000056543000000737319434800000000000000000007881800000000000000000000000000000000000000000000000000000000000000000000000000000000000000000024199495862000000000000000000000000000494000000000000000000000000000000000                  
3030006MX01AC1000060        28238851   AC     *      0         0000023719800000001598952130000037926824685000000182890000000004338114222000000000000000000000001800000000000000000000000000000000000000000000000000000000000000000000000000000000000000000001698192061000000000000000000000000169819206100000000000000000000000000000                  
3030011MXCFFU0000010        0      CF  FUNO   11     0         0000278872470000000286736950000079963042196000000026800000000007473782196000000000000000000000001800000000000000000000000000000000000000000000000000000000000000000000000000000000000000000003810649852000000000000000000000000381445806400000000000000000000000000000                  
3030011MX1RAR1B00040        0      1R  ARTH5CK17     0         0000006782600000000808467990000005483515000000000046755225000000317121989100000000000000000007431800000000000000000000000000000000000000000000000000000000000000000000000000000000000000000000014426125000000000000000000000000000890000000000000000000000000000000000                  
3030011MXCFFI0V00010        0      CF  FINN   13     0         0000140167710000000092576380000012976219299000000004710000000000660189914100000000000000000000001800000000000000000000000000001120251125000001000000100000000000000090000000000000000000000000735760773000000000000000000000000074900082600000000000000000000000000000                  
3030003USP23210AA820        0      D2SPCEOAA82311231 0         0000000040690000076747523620000003122856736000010259529008000000417460235300000001283769070022251800410370011036000000000000000000000000000000000000000000000000000000000000000058098400000000000235096000000000010000000000000000021473400000000000000000000000000000                  
3030011MX1RDE0800040        0      1R  DELTACK18     0         0000448435820000000062906700000028209616563000000006462513000002898022316400000000000000000010131800000000000000000000000000000000000000000000000000000000000000000000000000000000000000000000374316202000000000000000000000000000470940000000000000000000000000000000                  
3030011MX1RLO0800100        0      1RSPLOCKXPI22-2   0         0000011308680000018771813710000212284434271000002223455564000025144347467500000000000000000022411800000000000000000000000000000000000000000000000000000000000000000000000000000000000000000000002413568000000000000000000000000000001187700000000000000000000000000000                  
3030003MX91CP0300090        0      91  CPXACB 24U    0         0000002642130000008150167400000021533801788000000939149131000002481354093500000006967350180104271800410000061000000000000000000000000000000000000000000000000000000000000000000009967000000000005778295000000000001000000000000000577829500000000000000000000000000000                  
3030002XS02801442200        0      D8  MER    5-06   0         0000000009540001000000000000000009540000000000100240424159000000956293646500000003882515000003650800110340051032005103600000000000000000000000000000000000000000000000000000010000000000000000000015000000000001000000000000000000001500000000000000000000000000000000                  
3030006MX01GE0E00040        0      1   GENTERA*      0         0000061731170000000223307690000013785044981000000044200000000002728517714000000000000000000000001800000000000000000000000000000000000000000000000000000000000000000000000000000000000000000001579243876000000000000000000000000164821153600000000000000000000000000000                  
3030002USP57908AF580        0      D2SPMXCHF58440917 0         0000000026620000131516525960000003500969921000014052052856000000374065647000000000557819470068691800510380011037005103800110370000000000000000000000000000000000000000000000000100000000000000000750000000000000010000000000000000075000000000000000000000000000000000                  
3030006MX01SI0C00020        0      1   SITES1 A-1    0         0000016086110000000128998040000002075076626000000015030000000000241774233300000000000000000000001800000000000000000000000000000000000000000000000000000000000000000000000000000000000000000002980967275000000000000000000000000313372271100000000000000000000000000000                  
3030007US46428520440        0      1ISPIAU    *      0         0000024238280000011570772860000280455632444000001438864140000034875591907300000000000000000000000800000000000000000000000000000000000000000000000000000000000000000000000000000000000000000000826000000000000000000000000000000066845000000000000000000000000000000000                  
3030002MX91SA1R00100        0      91  SAKLY  25-2   0         0000013770470000001000000000000013770470000000000100444038000001383161612000000000521059440025341800410000061000000000000000000000000000000000000000000000000000000000000000000010000000000000022000000000000000001000000000000002200000000000000000000000000000000000                  
3030002MXMSGO000001MSGO000000      MS  BONOS  350524 0         0000043700000000000937755940000040979934596000000094014127000004108417349900000016994444930034651800110000041000001100000410000000000000000000000000000000000000000000000000000010000000000000230000000000000000001000000000000023000000000000000000000000000000000000                  
3030002MXCDBA0300E40        0      CD  BACMEXT22-3X  0         0000010352150000001000000000000010352150000000000101488656000001050625790200000001626149880023011800410000051000001100000410000000000000000000000000000000000000000000000000000010000000000000081140000000000000001000000000000008114000000000000000000000000000000000                  
3030007US46434V73850        0      1ISPIEUR   *      0         0000018535830000012112237090000224510367578000001267168980000023488028794600000000000000000000000100000000000000000000000000000000000000000000000000000000000000000000000000000000000000000000098000000000000000000000000000000007660000000000000000000000000000000000                  
3030002MX95FO0M00490        0      95  FONADIN21U    0         0000003509260000006772719080000023767232170000000761316081000002671656070400000004682153650038291800110000041000001100000410000000000000000000000000000000000000000000000000000010000000000000005109955000000000001000000000000000510995500000000000000000000000000000                  
3030002MX91DA0200300        0      91  DANHOS 23L    0         0000003651910000001000000000000003651910000000000104992524000000383423248300000001125680810017161800410000061000004100000610000000000000000000000000000000000000000000000000000010000000000000025000000000000000001000000000000002500000000000000000000000000000000000                  
3030003MX91ZO0000480        0      91  ZONALCB06-3U  0         0000000213800000008288659360000001772115371000001037046543000000221720550900000000745471700033041800610200041015000000000000000000000000000000000000000000000000000000000000000016274971100000000708715000000000001000000000000000077034500000000000000000100000000000                  
3030002MX91KO0000F00        0      91  KOF    21L    0         0000002718610000001000000000000002718610000000000098188243000000266935539300000000389063270010221800510000061000001100000410000000000000000000000000000000000000000000000000000010000000000000069650000000000000001000000000000006965000000000000000000000000000000000                  
3030002MX2UCB1700012UCB170000      2U  CBIC002300117 0         0000000004190000005538885200000000023207929000000979832981000000004105500200000000007097550015121800110000041000001100000410000000000000000000000000000000000000000000000000000010000000000000034826576000000000001000000000000003482657600000000000000000000000000000                  
3030006MXP3707110140        24210411   GFNORTEO      0         0000094530330000000970122910000091706038450000000176700000000016703509311000000000000000000000001800000000000000000000000000000000000000000000000000000000000000000000000000000000000000000002813156594000000000000000000000000288345659400000000000000000000000000000                  
3030011MXCFAG0600160        0      CF  AGRO   22     0         0000004265640000000400000000000001706256000000000021190000000000090388911600000000000000000000001800000000000000000000000000000000000000000000000000000000000000000000000000000000000000000000028082400000000000000000000000000002808240000000000000000000000000000000                  
3030002MX95FO0M00070        0      95  FONADIN20-2U  0         0000003333200000006600248000000021999946634000000721236590000002404025801800000003372660090055161800110000041000001100000410000000000000000000000000000000000000000000000000000010000000000000014204714000000000001000000000000001420471400000000000000000000000000000                  
3030002MX94BB1U00130        0      94  BBVAMX 23     0         0000032768400000001000000000000032768400000000000104648183000003429153519800000008770462260015371800110000041000001100000410000000000000000000000000000000000000000000000000000010000000000000061310000000000000001000000000000006131000000000000000000000000000000000                  
3030002XS03169895230        0      D2  TELV523110537 0         0000000028030001018079172600000028536759208000070731659351000001982608411600000000991561250041831800410010011000005100200410010000000000000000000000000000000000000000000000010000000000000000000044691000000001000000000000000000004469100000000000000000000000000000                  
3030006MX01LA0500100        0      1   LACOMERUBC    0         0000024479660000000318528810000007797476978000000040750000000000997546145000000000000000000000001800000000000000000000000000000000000000000000000000000000000000000000000000000000000000000000500679496000000000000000000000000049990540000000000000000000000000000000                  
3030002MX91KO0000B90        0      91  KOF    17     0         0000005024880000001000000000000005024880000000000099497736000000499964183700000001757591470005681800110000051000001100000410000000000000000000000000000000000000000000000000000010000000000000085000000000000000001000000000000008500000000000000000000000000000000000                  
3030006MX01GA0000040        B0ZV1041   GAP    B      0         0000016813260000002760657350000046415649749000000434790000000007310237315400000000000000000000001800000000000000000000000000000000000000000000000000000000000000000000000000000000000000000000429485845000000000000000000000000056100000000000000000000000000000000000                  
3030002XS27015594400        0      JE  AMX    0134X  0         0000000420400000101369246710000042615631316000010578740132000004447302351500000014072890000029861800110000041000001100000410000000000000000000000000000000000000000000000000001000000000000000003000000000000000100000000000000000200000000000000000000000000000000000                  
3030003MX91ZO0000300        0      91  ZONALCB06-2U  0         0000000297000000001878910350000000558036373000000438382917000000130199726300000000337051220033041800410040061004000000000000000000000000000000000000000000000000000000000000000005297076400000000846958000000000001000000000000000084695800000000000000000000000000000                  
3030002MXCDBA0300C80        0      CD  BACMEXT21-3X  0         0000011500000000001000000000000011500000000000000097398995000001120088442500000000850425000021501800410000051000001100000410000000000000000000000000000000000000000000000000000010000000000000060000000000000000001000000000000006000000000000000000000000000000000000                  
3030002MX95FE0402L80        0      95  FEFA   24B    0         0000021480000000001000000000000021480000000000000106253378000002282322559400000010751098720018251800110000061000001100000610000000000000000000000000000000000000000000000000000010000000000000045000000000000000001000000000000004500000000000000000000000000000000000                  
3030006MX01AM0500190        0      1   AMX    B      0         0000587699040000000126075000000074094157273000000021020000000012353433820800000000000000000000001800000000000000000000000000000000000000000000000000000000000000000000000000000000000000000060305400000000000000000000000000006103600000000000000000000000000000000000                  
3030011MX1RMR0100050        0      1R  MRP2CK 16     0         0004228624330000000008367740000035384045788000000000691544000002924279783700000000000000000021041800000000000000000000000000000000000000000000000000000000000000000000000000000000000000000008358879659000000000000000000000000001700000000000000000000000000000000000                  
3030007US81369Y60590        0      1ISPXLF    *      0         0000018407220000010017494390000184394222996000000971288325000017878717881700000000000000000000000800000000000000000000000000000000000000000000000000000000000000000000000000000000000000000000986345427000000000000000000000000099794542700000000000000000000000000000                  
3030003MX95FO0C00330        0      95  FOVISCB18U    0         0000003498880000002083357390000007289417494000000301523190000001054993459000000000411824820078861800510000061000001100000000000000000000000000000000000000000000000000000000000003453524100000019892100000000000001000000000000001989210000000000000000000000000000000                  
3030002MX91AM0500P30        0      91  AMX    22X    0         0000067487450000001000000000000067487450000000000102831845000006939858997800000000535398190025451800110000041000001100000410000000000000000000000000000000000000000000000000000010000000000000146791657000000000001000000000000014679165700000000000000000000000000000                  
3030002MX91FS0000220        0      91  FSHOP  17-2   0         0000006251310000001000000000000006251310000000000098539407000000616000380400000002140292260005931800410040061002004100400610020000000000000000000000000000000000000000000000000010000000000000016000000000000000001000000000000001600000000000000000000000000000000000                  
3030002MX91LI0500960        0      91  LIVEPOL20     0         0000008950000000001000000000000008950000000000000095403326000000853859767700000002136091130017131800110000041000001100000410000000000000000000000000000000000000000000000000000010000000000000050000000000000000001000000000000005000000000000000000000000000000000000                  
3030002MX95CF0500O70        0      95  CFE    222UV  0         0000000244260000008597406080000002100002410000001004384099000000245330860000000000050999560061751800410000051000004100000510000000000000000000000000000000000000000000000000000010000000000000004344727000000000001000000000000000434472700000000000000000000000000000                  
3030011MX1RDA0800080        0      1R  DAIVCK 16     0         0003720319660000000005200680000019348192272000000000695797000002588587258500000000000000000003281800000000000000000000000000000000000000000000000000000000000000000000000000000000000000000008650352932000000000000000000000000000900000000000000000000000000000000000                  
3030002MX0SGO0000H60        0      S   UDIBONO501103 0         0000106712640000007280020100000776870164389000000806945353000086111268954400000178531676670091071800110000041000001100000410000000000000000000000000000000000000000000000000000010000000000000665309292000000000001000000000000067568909900000000000000000000000000000                  
3030011MX1RLO0800440        0      1RSPLOCKXPI22-5   0         0000007189210000018375719460000132106906124000002088843682000015017135887100000000000000000022411800000000000000000000000000000000000000000000000000000000000000000000000000000000000000000000001471750000000000000000000000000000000178100000000000000000000000000000                  
3030002MXCDBA1C01520        0      CD  BANOB  25-2X  0         0000005182470000001000000000000005182470000000000101208907000000524512124300000000219276010043521800110000041000001100000410000000000000000000000000000000000000000000000000000010000000000000102000000000000000001000000000000010200000000000000000000000000000000000                  
3030011MX1RVM0000000        0      1R  VMZCK  17     0         0000231878960000000037671110000008735137266000000001346567000000312240555500000000000000000007531800000000000000000000000000000000000000000000000000000000000000000000000000000000000000000000367243700000000000000000000000000000034000000000000000000000000000000000                  
3030002MX91AC1J00300        0      91  ACBE   21-2V  0         0000021000000000001000000000000021000000000000000096836195000002033560095000000000905625000008871800110000041000001100000410000000000000000000000000000000000000000000000000000010000000000000030000000000000000001000000000000003000000000000000000000000000000000000                  
3030011MX1RNG0000080        0      1R  NGCFICK15     0         0000001406940000020911068300000029420618429000000232425815000000327009176200000000000000000006661800000000000000000000000000000000000000000000000000000000000000000000000000000000000000000000001765669000000000000000000000000000000800000000000000000000000000000000                  
3030011MX1REX0G00000        0      1R  EXI2CK 17     0         0000472461880000000096127320000045416495053000000006519229000003080087189500000000000000000023741800000000000000000000000000000000000000000000000000000000000000000000000000000000000000000000728200818000000000000000000000000001113402100000000000000000000000000000                  
3030002US91086QAZ190        0      D1SPUMS110F2110F  0         0000000018860000306450339870000005779653410000031589124905000000595770895700000000497315210309991800410370011036004103700110360000000000000000000000000000000000000000000000000200000000000000001338997000000000020000000000000000133899700000000000000000000000000000                  
3030002MX0SGO0000980        0      S   UDIBONO401115 0         0000105677670000006330274190000668968626498000000815256376000086154394268300000176800157990054671800110000041000001100000410000000000000000000000000000000000000000000000000000010000000000000446926530000000000001000000000000045639201700000000000000000000000000000                  
3030011MXFFIN3800000        0      FF  INFRAEX18     0         0000170333250000000185000000000031511651250000000011695797000001992183114400000000000000000000001800000000000000000000000000000000000000000000000000000000000000000000000000000000000000000000472698639000000000000000000000000047269863900000000000000000000000000000                  
3030002MX0MGO0000P20        0      M   BONOS  310529 0         0000027945240000000985130470000027529707546000000097191338000002716035266300000010527980730020091800110000041000001100000410000000000000000000000000000000000000000000000000000010000000000004771900237000000000001000000000000381893550600000000000000000000000000000                  
3030006MX01ME0900030        B292SM81   MEGA   CPO    0         0000027166940000000434766500000011811275286000000051430000000001397195724200000000000000000000001800000000000000000000000000000000000000000000000000000000000000000000000000000000000000000000471262594000000000000000000000000172135567300000000000000000000000000000                  
3030011MXCFFI1700080        0      CF  FIBRAPL14     0         0000037154900000000483949290000017981087436000000076540000000002843836046000000000000000000000001800000000000000000000000000000000000000000000000000000000000000000000000000000000000000000001605627494000000000000000000000000159521731600000000000000000000000000000                  
3030002USP3691NBF610        0      D2SPLIVEF61261006 0         0000000115240000190818576180000021989932719000018295836242000002108412168500000001160445730003131800110360041035001103600410350000000000000000000000000000000000000000000000000100000000000000000525144000000000010000000000000000052514400000000000000000000000000000                  
3030002MX90GD0000520        0      90  GDFCB  07     0         0000002059420000001000000000000002059420000000000101467502000000208964203000000000014844920007251800110000041000004100000510000000000000000000000000000000000000000000000000000010000000000000005750000000000000001000000000000000575000000000000000000000000000000000                  
3030003MX91FI1700090        0      91SPFIBRAPL20DV   0         0000001326940000019845500000000026333787770000001684954527000002235833560100000004930619240025531800410000061000001100000410000000000000000000000000000000000000000000000000000010000000000000003750000000000000001000000000000000375000000000000000000000000000000000                  
3030002MXCDBA1C01290        0      CD  BANOB  25-2   0         0000005800000000001000000000000005800000000000000103697679000000601446538200000000243600000023501800110000041000001100000410000000000000000000000000000000000000000000000000000010000000000000101500000000000000001000000000000010150000000000000000000000000000000000                  
3030011MX1RBX0C00260        0      1RSPBXMXPI 18-3D  0         0000001271700000019918664180000025330565232000002942445542000003741907995800000000000000000084151800000000000000000000000000000000000000000000000000000000000000000000000000000000000000000000000559281000000000000000000000000000020000000000000000000000000000000000                  
3030002MX95CF0500V20        0      95  CFE    25-2X  0         0000012633350000001000000000000012633350000000000105300456000001330297515800000001891492960030451800110000041000004100000510000000000000000000000000000000000000000000000000000010000000000000043383750000000000001000000000000004338375000000000000000000000000000000                  
3030002MX91BI0Y00940        0      91  BIMBO  17     0         0000020581110000001000000000000020581110000000000100569964000002069841491800000002899421500006661800110000041000005100200110000000000000000000000000000000000000000000000000000010000000000000100000000000000000001000000000000010000000000000000000000000000000000000                  
3030006MXP3203213100        22420591   FEMSA  UBD    0         0000059928030000001395609110000083636104616000000172570000000010341780137100000000000000000000001800000000000000000000000000000000000000000000000000000000000000000000000000000000000000000002021336251000000000000000000000000864471108000000000000000000000000000000                  
3030002USP13296AM370        0      D2SPBINBM37270411 0         0000000080820000184034890150000014873699822000018366397274000001484372227700000000828770800005001800410370011036004103700110360000000000000000000000000000000000000000000000000100000000000000000750000000000000010000000000000000075000000000000000000000000000000000                  
3030002MXCDBA0300990        0      CD  BACMEXT21-3   0         0000010150000000001000000000000010150000000000000093598892000000950028753800000000351810170019851800110000051000001100000410000000000000000000000000000000000000000000000000000010000000000000045360000000000000001000000000000004536000000000000000000000000000000000                  
3030011MX1RAC1700080        0      1R  ACONCK 14     0         0000000127330000123827261780000015766925243000008523793097000001085334575000000000000000000003611800000000000000000000000000000000000000000000000000000000000000000000000000000000000000000000000161501000000000000000000000000000000400000000000000000000000000000000                  
3030004MX91GR0600260        0      91  GRUMA  22     0         0000003375000000001000000000000003375000000000000100230904000000338279301000000000158878130006791800110000041000001100000410000000000000000000000000000000000000000000000000000010000000000000045000000000000000001000000000000004500000000000000000000000000000000000                  
3030002USP3146DAB930        0      D2SPVESTB93330130 0         0000000007490000184005114290000001378198306000018477224123000000138394408700000000119646240026211800110370041037001103700410370000000000000000000000000000000000000000000000000100000000000000000500000000000000010000000000000000050000000000000000000000000000000000                  
3030002MX91ED0900210        0      91  EDUCA  23UL   0         0000003217970000007850012390000025261104362000000936719424000003014335004800000005329869970028071800510010061000005100100610000000000000000000000000000000000000000000000000000010000000000000006505847000000000001000000000000000650584700000000000000000000000000000                  
3030002MX95CF0500D00        0      95  CFE    20U    0         0000000583370000006554856000000003823906345000000866489914000000505484221100000000277821330010511800110000041000004100000510000000000000000000000000000000000000000000000000000010000000000000005682979000000000001000000000000000568297900000000000000000000000000000                  
3030002MX91GA0000D20        0      91  GAP    22-2   0         0000012704000000001000000000000012704000000000000103358604000001313067705200000002627575940022891800110000051000001100000510000000000000000000000000000000000000000000000000000010000000000000060000000000000000001000000000000003000000000000000000000000000000000000                  
3030002MX90GD0200010        0      90  GDFECB 12     0         0000007887050000001001263690000007897016778000000099818740000000787275393300000000195094860007151800410000051000004100000510000000000000000000000000000000000000000000000000000010000000000000025000000000000000001000000000000002500000000000000000000000000000000000                  
3030003MX91AP1Y00090        0      91  APPCVCB17     0         0000008092380000000237000000000001917894060000000023149184000000187331993600000000469404980003371800110090061002000000000000000000000000000000000000000000000000000000000000000002370000000000019500000000000000001000000000000001950000000000000000000000000000000000                  
3030002MXCDNA0R00520        0      CD  NAFF   310620 0         0000045806250000001000000000000045806250000000000093859663000004299359188300000014308727340020311800110000041000001100000410000000000000000000000000000000000000000000000000000010000000000000075000000000000000001000000000000007500000000000000000000000000000000000                  
3030003MX95CF1600A30        0      95  CFECB  12     0         0000038256660000000566665770000021678739843000000051935663000001986885001300000003709480520061081800410000051000004100000510000000000000000000000000000000000000000000000000000005666666700000135000000000000000001000000000000013500000000000000000000000000000000000                  
3030003MX91AC0P00170        0      91  ACOSTCB15     0         0000010981010000000637274270000006997915094000000060343630000000662634004500000000186611280033671800410000061000000000000000000000000000000000000000000000000000000000000000000006372742600000030000000000000000001000000000000003000000000000000000000000000000000000                  
3030011MX1RCL0100110        0      1R  CLNYCK 15-2   0         0000039679300000000606928260000024082488366000000000528095000000020954439900000000000000000003071800000000000000000000000000000000000000000000000000000000000000000000000000000000000000000000045713126000000000000000000000000000609400000000000000000000000000000000                  
3030002MX91GP0200140        0      91  GPH    19-2   0         0000018778900000001000000000000018778900000000000096784978000001817515423400000001963020390014081800410000061000004100000610000000000000000000000000000000000000000000000000000010000000000000040000000000000000001000000000000004000000000000000000000000000000000000                  
3030006MX01VI0C00060        0      1   VISTA  A      0         0000009732340000001730541850000016842221672000000888250000000008644751005000000000000000000000001800000000000000000000000000000000000000000000000000000000000000000000000000000000000000000000104256410000000000000000000000000009519588500000000000000000000000000000                  
3030006MXP3706410130        28223981   GFINBURO      0         0000042463230000000396438830000016834073420000000044150000000001874751604500000000000000000000001800000000000000000000000000000000000000000000000000000000000000000000000000000000000000000006050956195000000000000000000000000608312390200000000000000000000000000000                  
3030006MX01VO0000090        0      1   VOLAR  A      0         0000021020660000000216028750000004541066819000000013190000000000277262505400000000000000000000001800000000000000000000000000000000000000000000000000000000000000000000000000000000000000000001165976677000000000000000000000000116597667700000000000000000000000000000                  
3030002MX94BB1U00470        0      94  BBVAMX 23-3   0         0000013226400000001000000000000013226400000000000105874961000001400344584200000000790056520017991800110000041000001100000410000000000000000000000000000000000000000000000000000010000000000000036000000000000000001000000000000003600000000000000000000000000000000000                  
3030011MX1RCI0C00090        0      1R  CI3CK  11     0         0000010727480000000459409820000004928309674000000009556275000000102514748900000000000000000000001800000000000000000000000000000000000000000000000000000000000000000000000000000004594098200000015300000000000000001000000000000001530000000000000000000000000000000000                  
3030002MX91OR0100470        0      91  ORBIA  25-2   0         0000011180750000001000000000000011180750000000000107550763000001202498193400000001748669300034101800410010061000001100200410010000000000000000000000000000000000000000000000000010000000000000030341250000000000001000000000000003034125000000000000000000000000000000                  
3030007US92290873690        0      1ISPVUG    *      0         0000000439770000088463842200000038903743883000008958598530000003939722875500000000000000000000000800000000000000000000000000000000000000000000000000000000000000000000000000000000000000000000413109599000000000000000000000000037873615900000000000000000000000000000                  
3030006MX01R00000060        0      1   R      A      0         0000014757680000001120110100000016530226452000000139130000000002053236018400000000000000000000001800000000000000000000000000000120251126000001000000000000000000003350000000000000000000000000327931333000000000000000000000000038924841900000000000000000000000000000                  
3030002MX91DA0200060        0      91  DANHOS 16     0         0000010866990000001000000000000010866990000000000099567738000001082001613200000003531771750002141800410000061000004100000610000000000000000000000000000000000000000000000000000010000000000000030000000000000000001000000000000003000000000000000000000000000000000000                  
3030002MX0SGO0000E30        0      S   UDIBONO461108 0         0000022898290000006690133670000153192620895000000809798869000018543009344000000038309146010076511800110000041000001100000410000000000000000000000000000000000000000000000000000010000000000000423454300000000000001000000000000040612403900000000000000000000000000000                  
3030011MX1RLO0800850        0      1RSPLOCKXPI23-3   0         0000009647390000018994010630000183242628233000001876701070000018105267135700000000000000000022411800000000000000000000000000000000000000000000000000000000000000000000000000000000000000000000000964739000000000000000000000000000000078800000000000000000000000000000                  
3030003MX90CH1C00000        0      90  CHIACB 07U    0         0000003123870000002404986620000007512865552000000554350819000001731719892900000002582452410042281800110000041000005100500110040000000000000000000000000000000000000000000000000006224065300000010999149000000000001000000000000001099914900000000000000000000000000000                  
3030002MX91LI0500880        0      91  LIVEPOL19     0         0000016039040000001000000000000016039040000000000096410866000001546337736200000000744745560014351800110000041000001100000410000000000000000000000000000000000000000000000000000010000000000000050000000000000000001000000000000005000000000000000000000000000000000000                  
3030002MX91GC0000940        0      91  GCARSO 24-2   0         0000027880780000001000000000000027880780000000000107470179000002996352417300000000162946430020001800410000061000004100000610000000000000000000000000000000000000000000000000000010000000000000055000000000000000001000000000000005500000000000000000000000000000000000                  
3030011MX1RGA0500400        0      1RSPGAPI   21-3D  0         0000423957960000000193789340000082158534377000000022203641000009413410342900000000000000000060401800000000000000000000000000000000000000000000000000000000000000000000000000000000000000000000111566690000000000000000000000000000006000000000000000000000000000000000                  
3030007US46432F38810        0      1ISPVLUE   *      0         0000010335460000022521275280000232767739819000002422259175000025035162812800000000000000000000000800000000000000000000000000000000000000000000000000000000000000000000000000000000000000000000065900000000000000000000000000000006540000000000000000000000000000000000                  
3030002MX91OM0000350        0      91  OMA    21-2   0         0000007104000000001000000000000007104000000000000099428905000000706342941100000000741657600008621800410000051000004100000510000000000000000000000000000000000000000000000000000010000000000000025000000000000000001000000000000002500000000000000000000000000000000000                  
3030006MXP2256115670        24064571   CEMEX  CPO    0         0000564763300000000128717010000072694643600000000019340000000010922522222000000000000000000000001800000000000000000000000000000000000000000000000000000000000000000000000000000000000000000015137459907000000000000000000000001513745990700000000000000000000000000000                  
3030002MX91BS0700030        0      91  BSMXCB 25     0         0000011414020000001000000000000011414020000000000099871764000001139938311700000001142543400031961800410000061000000000000000000000000000000000000000000000000000000000000000000010000000000000027900000000000000001000000000000002790000000000000000000000000000000000                  
3030011MX1RRR0000010        0      1R  RRGCK  18     0         0001982451650000000026962290000053451440405000000002889038000005727378150000000000000000000026861800000000000000000000000000000000000000000000000000000000000000000000000000000000000000000001483553325000000000000000000000000000800000000000000000000000000000000000                  
3030011MX1RTU0500090        0      1R  TUCK   18     0         0000315993920000000067861020000021443670375000000005342861000001688311591400000000000000000081101800000000000000000000000000000000000000000000000000000000000000000000000000000000000000000000368399958000000000000000000000000000500000000000000000000000000000000000                  
3030002XS26457370030        0      JE  AMX    0131X  0         0000000451500000099846210310000045080563954000010250222003000004627975234400000014297500020018871800110000041000001100000410000000000000000000000000000000000000000000000000001000000000000000002300000000000000100000000000000000170000000000000000000000000000000000                  
30314120           0        0      MDT BLACKRK00000012         0000000000010000000000000000000203456030564000000000000000000031521700372500000000000000000000000800000000000000000000000000000000000000000000000000000000000000000000000000000000000000000000000000000000000000000000000000000000000000000000000000000002000165232633                  
3030007IE00B9F5YL180        0      1ISPVDPX   N      0         0000010572140000004151815050000043893569917000000570345274000006029770085100000000000000000000000800000000000000000000000000000000000000000000000000000000000000000000000000000000000000000000046898090000000000000000000000000004484778700000000000000000000000000000                  
3030011MX1RFC0700050        0      1R  FCICK  16     0         0000000425850000048625104960000020707000948000005700446916000002427535319200000000000000000013441800000000000000000000000000000000000000000000000000000000000000000000000000000000000000000000000692997000000000000000000000000000000700000000000000000000000000000000                  
3030011MXCFFI0T00050        0      CF  FIHO   12     0         0000104848140000000183723930000019263112381000000008300000000000870239562000000000000000000000001800000000000000000000000000000000000000000000000000000000000000000000000000000000000000000000789194295000000000000000000000000078722245900000000000000000000000000000                  
3030002MXCDKE0500010        0      CD  KEXIM  19     0         0000033336340000001000000000000033336340000000000100063201000003335740890000000008738474810002454300510000061000006100000000000000000000000000000000000000000000000000000000000010000000000000070000000000000000001000000000000007000000000000000000000000000000000000                  
3030002MXCDBA1C00H80        0      CD  BANOB  21-5X  0         0000010136000000001000000000000010136000000000000094053255000000953323792700000001635274330021041800110000041000001100000410000000000000000000000000000000000000000000000000000010000000000000028000000000000000001000000000000002800000000000000000000000000000000000                  
3030002MX91CE0200P30        0      91  CEMEX  23-2L  0         0000022121250000001038249600000022967379037000000108070161000002390647049000000003950364160017641800410010011000004100100110000000000000000000000000000000000000000000000000000010000000000000085000000000000000001000000000000008500000000000000000000000000000000000                  
3030002XS28007201090        0      JI  CABEI  2-24S  0         0000020658040000001009286650000020849883940000000105524999000002179939650300000000059104720030931800110000051000001100000410000000000000000000000000000000000000000000000000000010000000000000030000000000000000001000000000000003000000000000000000000000000000000000                  
3030011MX1RPL0Q00090        0      1R  PLA2CK 17     0         0000833884300000000027881680000023250092314000000000764231000000637280232500000000000000000005231800000000000000000000000000000000000000000000000000000000000000000000000000000000000000000001521485188000000000000000000000000000884400000000000000000000000000000000                  
3030003USP60694AF680        0      D2SPKCMAF68310701 0         0000000002660000191261169170000000508754710000016716787418000000044466654500000000048105990020421800110340041033001103700410330000000000000000000000000000000000000000000000000100000000000000000500000000000000010000000000000000050000000000000000000000000000000000                  
3030002MX91AC1000720        0      91  AC     24-2   0         0000001413810000001000000000000001413810000000000103467902000000146283954500000000474215480029691800410000051000001100000410000000000000000000000000000000000000000000000000000010000000000000030500000000000000001000000000000003050000000000000000000000000000000000                  
3030002MXCDNA0R00600        0      CD  NAFF   21X    0         0000010238670000001000000000000010238670000000000097199145000000995189969900000000199398100021741800110000041000001100000410000000000000000000000000000000000000000000000000000010000000000000065000000000000000001000000000000006500000000000000000000000000000000000                  
3030002MX0MGO0001D60        0      M   BONOS  330526 0         0000281038670000000897313970000252179923878000000093950574000026403744362700000102462005740027371800110000041000001100000410000000000000000000000000000000000000000000000000000010000000000003342836866000000000001000000000000318682022000000000000000000000000000000                  
3030002MX0SGO0000P90SGO0000P0      S   UDIBONO340824 0         0000035637200000007631573680000271967917630000000827973169000029506645418300000028618325170031921800110000041000001100000410000000000000000000000000000000000000000000000000000010000000000000346714898000000000001000000000000018215743800000000000000000000000000000                  
3030011MX1RWS0000030        0      1R  WSMXCK 13     0         0000000546280000063985834190000034954181504000004210628905000002300182358200000000000000000003161800000000000000000000000000000000000000000000000000000000000000000000000000000000000000000000000676886000000000000000000000000000000874000000000000000000000000000000                  
3030002MXCDBA1C00L00        0      CD  BANOB  22-3   0         0000007435000000001000000000000007435000000000000104476493000000776782725500000000605023130023351800110000041000001100000410000000000000000000000000000000000000000000000000000010000000000000047000000000000000001000000000000004700000000000000000000000000000000000                  
3030003MX2USH0200040        0      2U  SHF0002280929 0         0000002818410000000699528000000001971556704000000165007610000000465059098100000000331205450010371800410000061000004100000610000000000000000000000000000000000000000000000000000001902090900000006040334000000000001000000000000000604033400000000000000000000000000000                  
3030003MX95TF0300160        0      95  TFOVICB15-2U  0         0000004744410000001612618600000007650923820000000263538209000001250333314200000000359720220071201800110000041000001100000000000000000000000000000000000000000000000000000000000003054743600000010887119000000000001000000000000001088711900000000000000000000000000000                  
3030007US46428720000        0      1ISPIVV    *      0         0000000929360000121709583940000113112018927000012529711110000011644612317200000000000000000000000800000000000000000000000000000000000000000000000000000000000000000000000000000000000000000001064450000000000000000000000000000100015000000000000000000000000000000000                  
3030011MX1RLO0800F30        0      1RSPLOCKXPI24-3   0         0000002360800000019542768760000046136568480000001831281978000004323290493700000000000000000022411800000000000000000000000000000000000000000000000000000000000000000000000000000000000000000000000236080000000000000000000000000000000046000000000000000000000000000000                  
3030002MX95CF0500U40        0      95  CFE    24UX   0         0000001470320000008335986000000012256566936000000962223929000001414777087300000004072763460032911800110000041000004100000510000000000000000000000000000000000000000000000000000010000000000000004370744000000000001000000000000000437074400000000000000000000000000000                  
3030002MX95CF0500X80        0      95  CFE    25UX   0         0000001038070000008429136000000008750033208000000893418409000000927430847800000000745220180041371800110000041000004100000510000000000000000000000000000000000000000000000000000010000000000000008269108000000000001000000000000000826910800000000000000000000000000000                  
3030002XS13693231490        0      D1SPMEX149 310223 0         0000000001900000202306183160000000384381748000021002679116000000039905090300000000103488560019141800410370011036004103700110360000000000000000000000000000000000000000000000000100000000000000001700000000000000010000000000000000170000000000000000000000000000000000                  
3030002MX94BS0600A20        0      94  BSMX   23-2   0         0000011202860000001000000000000011202860000000000103118873000001155226297600000001846418420026681800410000051000004100000510000000000000000000000000000000000000000000000000000010000000000000032300000000000000001000000000000003230000000000000000000000000000000000                  
3030002MX91GA0000960        0      91  GAP    21-2   0         0000015660000000000977857500000015313248484000000099683871000001561049419900000000929029500008831800110000051000001100000510000000000000000000000000000000000000000000000000000010000000000000030000000000000000001000000000000003000000000000000000000000000000000000                  
3030006MX01OM0000180        B1KFX131   OMA    B      0         0000013011400000001320551950000017182229633000000244550000000003181937870000000000000000000000001800000000000000000000000000000120251126000001000000000000000000005770000000000000000000000000340345556000000000000000000000000034131410000000000000000000000000000000                  
3030011MX1RNI0100050        0      1R  NIKEPI 18     0         0001665436240000000047409920000078958206180000000006600500000010992711902100000000000000000047701800000000000000000000000000000000000000000000000000000000000000000000000000000000000000000000750823608000000000000000000000000000401780000000000000000000000000000000                  
3030011MXFFXF0000050        0      FF  XFRA   22     0         0000153883360000000200000000000030776672000000000019629121000003020595093300000000000000000000001800000000000000000000000000000000000000000000000000000000000000000000000000000000000000000000679104513000000000000000000000000042167980900000000000000000000000000000                  
3030006MXP0016610180        26393491   ASUR   B      0         0000006217950000003473733870000021599503530000000552050000000003432619297500000000000000000000001800000000000000000000000000000120251126000001000000000000000000015000000000000000000000000000277050000000000000000000000000000030000000000000000000000000000000000000                  
3030002MX0MGO0001020        0      M   BONOS  471107 0         0000378031490000000947856580000358319634626000000087782049000033184378778700000147012250310080151800110000041000001100000410000000000000000000000000000000000000000000000000000010000000000002623898085000000000001000000000000261989518000000000000000000000000000000                  
3030002MX95CF0500T60        0      95  CFE    23UX   0         0000000555470000007938577780000004409641799000000909050454000000504950255700000001384802820036511800110000041000004100000510000000000000000000000000000000000000000000000000000010000000000000005823507000000000001000000000000000582350700000000000000000000000000000                  
3030002MX95CF0500P40        0      95  CFE    22UV   0         0000001213850000007822580250000009495439042000000920688427000001117577647100000000237602160026571800110000041000004100000510000000000000000000000000000000000000000000000000000010000000000000007701097000000000001000000000000000770109700000000000000000000000000000                  
3030006MX01GA0600080        0      1   GAV    A      0         0000005496000000001588655490000008731250552000000175679639000000965535295900000000000000000000001800000000000000000000000000000000000000000000000000000000000000000000000000000000000000000000060033332000000000000000000000000006003333200000000000000000000000000000                  
3030003MX90ED0A00080        0      90  EDOMEX 22X    0         0000000500000000000934862160000000467431079000000097080500000000048540250000000000035079700043261800410000051000005100300410010000000000000000000000000000000000000000000000000009103724600000028900000000000000001000000000000002890000000000000000000000000000000000                  
3030011MXCFNE0400150        0      CF  NEXT   25     0         0000028050000000001000000000000028050000000000000098950000000002775547500000000000000000000000001800000000000000000000000000000000000000000000000000000000000000000000000000000000000000000000271567713000000000000000000000000019815000000000000000000000000000000000                  
3030002MXCDNA0R00A90        0      CD  NAFF   24-2S  0         0000044971720000001000000000000044971720000000000105895757000004762314333000000010358111410033751800410000061000001100000410000000000000000000000000000000000000000000000000000010000000000000068138975000000000001000000000000006813897500000000000000000000000000000                  
3030002MX95FN0000J50        0      95  FNCOT  25-3   0         0000015252000000001000000000000015252000000000000099391025000001515911913300000001552908310017791800510000061000005100000000000000000000000000000000000000000000000000000000000010000000000000046660000000000000001000000000000004666000000000000000000000000000000000                  
3030006MX01CT0G00090        0      1   CTALPEKA      0         0000108485560000000032211410000003494473316000000002810000000000304844423600000000000000000000001800000000000000000000000000000000000000000000000000000000000000000000000000000000000000000005558536508000000000000000000000000555853650800000000000000000000000000000                  
3030001XS17746945970        0      D8  IFCN38 2-20   0         0000000053130000345087300000000018334488249000034075170921000001810413831000000000000000000044700800110280051028001102800510280000000000000000000000000000000000000000000000010000000000000000000120000000000001000000000000000000016750000000000000000000000000000000                  
3030007US46434G77230        0      1ISPEWT    *      0         0000010770530000009941640540000107076737719000001167747210000012577256357700000000000000000000000800000000000000000000000000000000000000000000000000000000000000000000000000000000000000000000107100000000000000000000000000000010140000000000000000000000000000000000                  
3030002MX91BW0200100        0      91  BWMX   21-2X  0         0000005894970000001000000000000005894970000000000097488433000000574691387900000001285267340009981800410020061002004100200610020000000000000000000000000000000000000000000000000010000000000000010000000000000000001000000000000001000000000000000000000000000000000000                  
3030011MX1RLE0300090        0      1RSPLEXPI  18D    0         0000106125580000000687031900000072911658411000000068814460000007302974479900000000000000000065741800000000000000000000000000000000000000000000000000000000000000000000000000000000000000000000072926987000000000000000000000000000032800000000000000000000000000000000                  
3030003MX95MX0E00120        0      95  MXPUCB 18U    0         0000008875590000005136278090000045587498425000000743541131000006599366226900000011478172160044421800410000061000000000000000000000000000000000000000000000000000000000000000000008538000000000027376210000000000001000000000000002737621000000000000000000000000000000                  
3030006MXP4611810850        23934521   GCARSO A1     0         0000009436940000001294657470000012217604836000000125810000000001187261421400000000000000000000001800000000000000000000000000000000000000000000000000000000000000000000000000000000000000000002254549737000000000000000000000000274500000000000000000000000000000000000                  
3030002XS27932639350        0      JE  AMX    0129   0         0000000160800000099823000000000016051538400000010461720986000001682244734500000005653125000011521800110000041000001100000410000000000000000000000000000000000000000000000000001000000000000000002700000000000000100000000000000000175000000000000000000000000000000000                  
3030011MX1RIC0P00040        0      1R  ICUA2CK14     0         0000213445350000000139990310000029880279837000000010714702000002287003318500000000000000000013481800000000000000000000000000000000000000000000000000000000000000000000000000000000000000000000413599949000000000000000000000000002000000000000000000000000000000000000                  
3030002US91086QAV050        0      D1SPUMS40F 2040F  0         0000000003530000430745455240000001520531457000036747498697000000129718670400000000295991120051581800410370011036004103700110360000000000000000000000000000000000000000000000000200000000000000001408998000000000020000000000000000140899800000000000000000000000000000                  
3030002MX0MGO0001F10MGO0001F0      M   BONOS  290301 0         0000231004780000000991197080000228971264497000000101463755000023438612401700000045815940330011901800110000041000001100000410000000000000000000000000000000000000000000000000000010000000000004379558151000000000001000000000000350893113900000000000000000000000000000                  
3030002MXCDBA0300S40        0      CD  BACMEXT25-2   0         0000007585000000001000000000000007585000000000000100926782000000765529641500000002064131080035361800410000051000001100000410000000000000000000000000000000000000000000000000000010000000000000062887000000000000001000000000000006288700000000000000000000000000000000                  
3030006MXP5540914150        0      1   PE&OLES*      0         0000006729640000003714231770000024995442722000000779040000000005242658745600000000000000000000001800000000000000000000000000000000000000000000000000000000000000000000000000000000000000000000397475747000000000000000000000000041326474700000000000000000000000000000                  
3030002MX91TL0000310        0      91  TLEVISA17     0         0000011031050000000996898390000010996836009000000098479433000001086331549400000001589114310006691800410010011000005100200410010000000000000000000000000000000000000000000000000010000000000000045000000000000000001000000000000004500000000000000000000000000000000000                  
3030006MX01GC2M00060        29466631   GCC    *      0         0000010870460000001332408310000014483891248000000180420000000001961248393200000000000000000000001800000000000000000000000000000000000000000000000000000000000000000000000000000000000000000000337400000000000000000000000000000033740000000000000000000000000000000000                  
3030002MX94HS0M00C00        0      94  HSBC   20-2   0         0000011280000000001000000000000011280000000000000094095062000001061392299400000004009257170016571800410000051000001100000410000000000000000000000000000000000000000000000000000010000000000000060000000000000000001000000000000006000000000000000000000000000000000000                  
3030002USP9406GAB430        0      D8SPFUN0144695C   0         0000000121980000146447327650000017863645027000018292882021000002231365748900000005054043770066381800410370051037004103700510370000000000000000000000000000000000000000000000000100000000000000000700000000000000010000000000000000070000000000000000000000000000000000                  
3030002MX0SGO0000N40SGO0000N0      S   UDIBONO431112 0         0000111526570000006566114290000732296204889000000725738413000080939115919100000151600676320065591800110000041000001100000410000000000000000000000000000000000000000000000000000010000000000000400403112000000000001000000000000028786219600000000000000000000000000000                  
3030011MX1RTH0000190        0      1R  THERMCK19     0         0000000048180000328520651720000015828125000000028747664734000001385062486900000000000000000005541800000000000000000000000000000000000000000000000000000000000000000000000000000000000000000000000036521000000000000000000000000000000600200000000000000000000000000000                  
3030002MX91ST2700090        0      91  STORAGE21V    0         0000006235560000001000000000000006235560000000000096988979000000604780597900000002648865890009151800410030061001004100300610010000000000000000000000000000000000000000000000000010000000000000011710000000000000001000000000000001171000000000000000000000000000000000                  
3030002MX95FE0402I40        0      95  FEFA   24V    0         0000058800000000001000000000000058800000000000000106237380000006246757944000000014565248040020971800110000061000001100000610000000000000000000000000000000000000000000000000000010000000000000067653839000000000001000000000000006765383900000000000000000000000000000                  
3030002MX91BW0200360        0      91  BWMX   23-2   0         0000002189000000001000000000000002189000000000000102902405000000225253364500000000996955750016741800410020061002004100200610020000000000000000000000000000000000000000000000000010000000000000005000000000000000001000000000000000500000000000000000000000000000000000                  
3030002MX95CF0500C20        0      95  CFE    20-2   0         0000003667500000001000000000000003667500000000000099993932000000366727745600000000341668330003231800110000041000004100000510000000000000000000000000000000000000000000000000000010000000000000032750000000000000001000000000000003275000000000000000000000000000000000                  
3030002MX94BB1U00620        0      94  BBVAMX 24-2   0         0000053987620000000999218120000053945408140000000105720752000005707611785100000007450291560019541800110000041000001100000410000000000000000000000000000000000000000000000000000010000000000000128860000000000000001000000000000012886000000000000000000000000000000000                  
3030002MX94BI0000G30        0      94  BINTER 16U    0         0000001369110000005476173000000007497483216000000863269329000001181910671000000000910718420003081800410000061000005100500410040000000000000000000000000000000000000000000000000010000000000000003652185000000000001000000000000000365218500000000000000000000000000000                  
3030002MX95FO0M00560        0      95  FONADIN22U    0         0000003902900000007471363000000029159982653000000787054774000003071796077400000006758140260065591800110000041000001100000410000000000000000000000000000000000000000000000000000010000000000000009369107000000000001000000000000000936910700000000000000000000000000000                  
3030002MX95CF0500A60        0      95  CFE    17U    0         0000001971750000005831077800000011497427657000000831421448000001639355240100000001048347340024991800110000041000004100000510000000000000000000000000000000000000000000000000000010000000000000022864142000000000001000000000000002286414200000000000000000000000000000                  
3030002MX95CF0500700        0      95  CFE    15U    0         0000000903330000005351251000000004833945566000000856363976000000773579270400000000141520920007131800110000041000004100000510000000000000000000000000000000000000000000000000000010000000000000009343609000000000001000000000000000934360900000000000000000000000000000                  
3030003MX95CD0000770        0      95  CDVITOT14U    0         0000000981250000000151088890000000148255971000000024554730000000024094328800000000022165360060801800510000061000000000000000000000000000000000000000000000000000000000000000000000294242300000005541417000000000001000000000000000554141700000000000000000000000000000                  
3030003MX91TO0000C80        0      91  TOYOTA 22-2   0         0000002500000000001000000000000002500000000000000101296744000000253241860000000000931222250004141800110000041000001100000410000000000000000000000000000000000000000000000000000010000000000000010000000000000000001000000000000001000000000000000000000000000000000000                  
3030006MX01Q00000080        0      1   Q      *      0         0000002374800000001334006240000003167998011000000180660000000000429031368000000000000000000000001800000000000000000000000000000000000000000000000000000000000000000000000000000000000000000000400000000000000000000000000000000040000000000000000000000000000000000000                  
3030011MX1RIG0700080        0      1R  IGS3CK 17     0         0031980120320000000000748740000023944804685000000000106728000003413174281500000000000000000005291800000000000000000000000000000000000000000000000000000000000000000000000000000000000000000062772097640000000000000000000000000000540000000000000000000000000000000000                  
3030002XS02823825880        0      D8  JPM    1-07   0         0000000067520000099888462710000006744469002000010007201578000000675686250500000002063373690004150800110330051032001103300510320000000000000000000000000000000000000000000000001000000000000000000144500000000000100000000000000000014450000000000000000000000000000000                  
3030002MX91FE0100760        0      91  FERROMX21     0         0000010452330000001000000000000010452330000000000096814870000001011940970100000000334010480008941800110000041000001100000410000000000000000000000000000000000000000000000000000010000000000000016920000000000000001000000000000001692000000000000000000000000000000000                  
3030006MXP4948K10560        23925451   GRUMA  B      0         0000005424660000002469041030000013393708114000000316890000000001719020507400000000000000000000001800000000000000000000000000000000000000000000000000000000000000000000000000000000000000000000345268815000000000000000000000000056335670900000000000000000000000000000                  
