00000175738031400443000001020251126                                                                                                                                                                                                                                                                                                                                                                                                                                                                                                                                                                                                                                                                                                                               
3010           0        0      FWD CHFUSD 260318V2500002CU0        529900H31AYI6WA1J53                                                   001001*CSPMXPUSD SPOT   00210000020250826202508262026031820260318000000017104000000000000000001002000000000000007849640CHFUSDF                 000000000100040124                    00110000051000                                                                                                                                                      25238CNHSX          0000000000000000000000                    00000000                    00000000                    00000000                    00000000000000                                                                                                
3010           0        0      FWD CHFUSD 260318V2500003CU0        529900H31AYI6WA1J53                                                   001001*CSPMXPUSD SPOT   00210000020250828202508282026031820260318000000010962410000000000000001002000000000000007829770CHFUSDF                 000000000100040124                    00110000051000                                                                                                                                                      25240CNIDP          0000000000000000000000                    00000000                    00000000                    00000000                    00000000000000                                                                                                
3010           0        0      FWD CNYUSD 260320V2500002CU0        549300TMH5W90U8OTT5                                                   001001*CSPMXPUSD SPOT   00202000020250826202508262026032020260320000000017982000000000000000001002000000000000070485000CNYUSDD                 000000000100040129                    00110000041000                                                                                                                                                      1073763             0000000000000000000000                    00000000                    00000000                    00000000                    00000000000000                                                                                                
3010           0        0      FWD CNYUSD 260320V2500003CU0        R0MUWSFPU8MPRO8K5P8                                                   001001*CSPMXPUSD SPOT   00202000020250828202508282026032020260320000000014766000000000000000001002000000000000070243200CNYUSDD                 000000000100701011                    00110320041032                                                                                                                                                      1015260560          0000000000000000000000                    00000000                    00000000                    00000000                    00000000000000                                                                                                
3010           0        0      FWD CNYUSD 260320V2500004CU0        549300TMH5W90U8OTT5                                                   001001*CSPMXPUSD SPOT   00202000020250902202509022026032020260320000000013290000000000000000001002000000000000070455000CNYUSDD                 000000000100040129                    00110000041000                                                                                                                                                      1073852             0000000000000000000000                    00000000                    00000000                    00000000                    00000000000000                                                                                                
3010           0        0      FWD CNYUSD 260320V2500005CU0        549300TMH5W90U8OTT5                                                   001001*CSPMXPUSD SPOT   00202000020250904202509042026032020260320000000013169000000000000000001002000000000000070447000CNYUSDD                 000000000100040129                    00110000041000                                                                                                                                                      1073914             0000000000000000000000                    00000000                    00000000                    00000000                    00000000000000                                                                                                
3010           0        0      FWD INRUSD 260318V2500002CU0        R0MUWSFPU8MPRO8K5P8                                                   001001*CSPMXPUSD SPOT   00202000020250828202508282026031820260318000000013687000000000000000001002000000000000885580000INRUSDD                 000000000100701011                    00110320041032                                                                                                                                                      1015256510          0000000000000000000000                    00000000                    00000000                    00000000                    00000000000000                                                                                                
3010           0        0      FWD INRUSD 260318V2500003CU0        R0MUWSFPU8MPRO8K5P8                                                   001001*CSPMXPUSD SPOT   00202000020250902202509022026031820260318000000012775000000000000000001002000000000000890450000INRUSDD                 000000000100701011                    00110320041032                                                                                                                                                      1015986002          0000000000000000000000                    00000000                    00000000                    00000000                    00000000000000                                                                                                
3010           0        0      FWD INRUSD 260318V2500004CU0        254900HSS82AHMTPAD9                                                   001001*CSPMXPUSD SPOT   00202000020250904202509042026031820260318000000011838000000000000000001002000000000000891430000INRUSDD                 000000000100801155                    00110320051031                                                                                                                                                      E68JNZ              0000000000000000000000                    00000000                    00000000                    00000000                    00000000000000                                                                                                
3010           0        0      FWD JPYUSD 251217V2400002CU0        5493001KJTIIGC8Y1R1                                                   001002*CSPMXPUSD SPOT   00202000020240909202409092025121720251217000000039500000000000000000001002000000000001360950000JPYUSDF                 000000000100801155                    00110320051031                                                                                                                                                      98GKRX              0000000000000000000000                    00000000                    00000000                    00000000                    00000000000000                                                                                                
3010           0        0      FWD JPYUSD 251217V2400005CU0        5493001KJTIIGC8Y1R1                                                   001001*CSPMXPUSD SPOT   00206000020241203202412032025121720251217000000090029800000000000000001002000000000001433187000JPYUSDF                 000000000100701011                    00110320041032                                                                                                                                                      735615705           0000000000000000000000                    00000000                    00000000                    00000000                    00000000000000                                                                                                
3010           0        0      FWD JPYUSD 251217V2400006CU0        O2RNE8IBXP4R0TD8PU4                                                   001002*CSPMXPUSD SPOT   00202000020241218202412182025121720251217000000027790180000000000000001002000000000001478745400JPYUSDF                 000000000100701041                    00110330041033                                                                                                                                                      FXX8642507          0000000000000000000000                    00000000                    00000000                    00000000                    00000000000000                                                                                                
3010           0        0      FWD JPYUSD 251217V2500001CU0        529900H31AYI6WA1J53                                                   001001*CSPMXPUSD SPOT   00206000020250827202508272025121720251217000000160494000000000000000001002000000000001460706000JPYUSDF                 000000000100040124                    00110000051000                                                                                                                                                      25239CNI01          0000000000000000000000                    00000000                    00000000                    00000000                    00000000000000                                                                                                
3010           0        0      FWD JPYUSD 251217V2500002CU0        254900HSS82AHMTPAD9                                                   001001*CSPMXPUSD SPOT   00206000020250828202508282025121720251217000000132620000000000000000001002000000000001450633200JPYUSDF                 000000000100801155                    00110320051031                                                                                                                                                      E4YQYY              0000000000000000000000                    00000000                    00000000                    00000000                    00000000000000                                                                                                
3010           0        0      FWD JPYUSD 251217V2500003CU0        549300ALY1LDVQGKWL1                                                   001001*CSPMXPUSD SPOT   00206000020250829202508292025121720251217000000131797390000000000000001002000000000001452132400JPYUSDF                 000000000100040021                    00110000041000                                                                                                                                                      EWD252419973        0000000000000000000000                    00000000                    00000000                    00000000                    00000000000000                                                                                                
3010           0        0      FWD JPYUSD 251217V2500005CU0        549300WIWQK5Q9MCUN9                                                   001001*CSPMXPUSD SPOT   00206000020251022202510222025121720251217000000065740000000000000000001002000000000001509362910JPYUSDF                 000000000100040012                    00110000041000                                                                                                                                                      FXP7906MX66389998   0000000000000000000000                    00000000                    00000000                    00000000                    00000000000000                                                                                                
3010           0        0      FWD JPYUSD 251217V2500006CU0        SDBB7MM3334PJZJTHS0                                                   001001*CSPMXPUSD SPOT   00206000020251022202510222025121720251217000000029260000000000000000001002000000000001508842000JPYUSDF                 000000000100013130                    00110000041000                                                                                                                                                      SDBB7MM3334PJZJTHS  0000000000000000000000                    00000000                    00000000                    00000000                    00000000000000                                                                                                
3010           0        0      FWD JPYUSD 251217V2500007CU0        549300ALY1LDVQGKWL1                                                   001002*CSPMXPUSD SPOT   00202000020251118202511182025121720251217000000079897760000000000000001002000000000001551575200JPYUSDF                 000000000100040021                    00110000041000                                                                                                                                                      EWD253229996        0000000000000000000000                    00000000                    00000000                    00000000                    00000000000000                                                                                                
3010           0        0      FWD JPYUSD 251217V2500008CU0        SDBB7MM3334PW647LD0                                                   001002*CSPMXPUSD SPOT   00202000020251119202511192025121720251217000000099872210000000000000001002000000000001562186600JPYUSDF                 000000000100013130                    00110000041000                                                                                                                                                      SDBB7MM3334PW647LDI00000000000000000000000                    00000000                    00000000                    00000000                    00000000000000                                                                                                
3010           0        0      FWD JPYUSD 251217V2500009CU0        549300ALY1LDVQGKWL1                                                   001002*CSPMXPUSD SPOT   00202000020251120202511202025121720251217000000099872200000000000000001002000000000001570041000JPYUSDF                 000000000100040021                    00110000041000                                                                                                                                                      EWD253249996        0000000000000000000000                    00000000                    00000000                    00000000                    00000000000000                                                                                                
3010           0        0      FWD JPYUSD 251217V2500010CU0        254900HSS82AHMTPAD9                                                   001002*CSPMXPUSD SPOT   00202000020251121202511212025121720251217000000099872210000000000000001002000000000001562018900JPYUSDF                 000000000100801155                    00110320051031                                                                                                                                                      IO3JSN              0000000000000000000000                    00000000                    00000000                    00000000                    00000000000000                                                                                                
3010           0        0      FWD JPYUSD 260318V2500001CU0        549300ALY1LDVQGKWL1                                                   001001*CSPMXPUSD SPOT   00206000020251118202511182026031820260318000000079897760000000000000001002000000000001538058800JPYUSDF                 000000000100040021                    00110000041000                                                                                                                                                      EWD253229976        0000000000000000000000                    00000000                    00000000                    00000000                    00000000000000                                                                                                
3010           0        0      FWD JPYUSD 260318V2500002CU0        SDBB7MM3334PW647QJ0                                                   001001*CSPMXPUSD SPOT   00206000020251119202511192026031820260318000000099872210000000000000001002000000000001548627000JPYUSDF                 000000000100013130                    00110000041000                                                                                                                                                      SDBB7MM3334PW647QJ.J0000000000000000000000                    00000000                    00000000                    00000000                    00000000000000                                                                                                
3010           0        0      FWD JPYUSD 260318V2500003CU0        549300ALY1LDVQGKWL1                                                   001001*CSPMXPUSD SPOT   00206000020251120202511202026031820260318000000099872200000000000000001002000000000001556346000JPYUSDF                 000000000100040021                    00110000041000                                                                                                                                                      EWD253249976        0000000000000000000000                    00000000                    00000000                    00000000                    00000000000000                                                                                                
3010           0        0      FWD JPYUSD 260318V2500004CU0        254900HSS82AHMTPAD9                                                   001001*CSPMXPUSD SPOT   00206000020251121202511212026031820260318000000099872210000000000000001002000000000001548448100JPYUSDF                 000000000100801155                    00110320051031                                                                                                                                                      IO3JTZ              0000000000000000000000                    00000000                    00000000                    00000000                    00000000000000                                                                                                
3010           0        0      FWD JPYUSD 260617V2500002CU0        R0MUWSFPU8MPRO8K5P8                                                   001002*CSPMXPUSD SPOT   00202000020250327202503272026061720260617000000006400000000000000000001002000000000001447275000JPYUSDF                 000000000100701011                    00110320041032                                                                                                                                                      330665087           0000000000000000000000                    00000000                    00000000                    00000000                    00000000000000                                                                                                
3010           0        0      FWD JPYUSD 260617V2500003CU0        549300TMH5W90U8OTT5                                                   001002*CSPMXPUSD SPOT   00202000020250407202504072026061720260617000000039200000000000000000001002000000000001419300000JPYUSDF                 000000000100040129                    00110000041000                                                                                                                                                      1072421             0000000000000000000000                    00000000                    00000000                    00000000                    00000000000000                                                                                                
3010           0        0      FWD JPYUSD 260617V2500004CU0        SCRYQ25DTVRHYYMM6P8                                                   001001*CSPMXPUSD SPOT   00206000020250605202506052026061720260617000000021000000000000000000001002000000000001384100000JPYUSDF                 000000000100040014                    00410000051000                                                                                                                                                      4277297625          0000000000000000000000                    00000000                    00000000                    00000000                    00000000000000                                                                                                
3010           0        0      FWD M2USSNQ251219V2500002CU0        FW0196DIG                                                             001001*I  M2USSNQIND    00202000020250527202505272025121920251219000000000000240000000000000001002000000000096135632000USD   D                 000000000100701011                    00110320041032                                                                                                                                                      FW0196DIG           0000000000000000000000                    00000000                    00000000                    00000000                    00000000000000                                                                                                
3010           0        0      FWD NDEUCHF251219V2500003CU0        FW0277DIG                                                             001002*I  NDEUCHFIND    00202000020250606202506062025121920251219000000000012520000000000000001002000000000006039091000USD   D                 000000000100701011                    00110320041032                                                                                                                                                      FW0277DIG           0000000000000000000000                    00000000                    00000000                    00000000                    00000000000000                                                                                                
3010           0        0      FWD SPX    251219V2500002CU0        FW0180DIG                                                             001001*I  SPX    IND    00202000020250527202505272025121920251219000000000021640000000000000001002000000000060347788000USD   D                 000000000100701011                    00110320041032                                                                                                                                                      FW0180DIG           0000000000000000000000                    00000000                    00000000                    00000000                    00000000000000                                                                                                
3010           0        0      FWD SX5E   251219V2500002CU0        549300WIWQK5Q9MCUN9                                                   001001*I  SX5E   IND    00707000020250610202506102025121920251219000000000030830000000000000001007000000000054495900000EUR   D                 000000000100040012                    00110000041000                                                                                                                                                      EQW7906MX63613394   0000000000000000000000                    00000000                    00000000                    00000000                    00000000000000                                                                                                
3010           0        0      FWD SX5E   251219V2500005CU0        B134F7G8                                                              001001*I  SX5E   IND    00707000020251014202510142025121920251219000000000003050000000000000001007000000000055628320000EUR   D                 000000000100801155                    00110320051031                                                                                                                                                      B134F7G8            0000000000000000000000                    00000000                    00000000                    00000000                    00000000000000                                                                                                
3010           0        0      FWD SX5E   260320V2500002CU0        B133G9FZ                                                              001001*I  SX5E   IND    00707000020250902202509022026032020260320000000000015630000000000000001007000000000053272307000EUR   D                 000000000100801155                    00110320051031                                                                                                                                                      B133G9FS            0000000000000000000000                    00000000                    00000000                    00000000                    00000000000000                                                                                                
3010           0        0      FWD TWDUSD 260320V2500002CU0        254900HSS82AHMTPAD9                                                   001001*CSPMXPUSD SPOT   00202000020250825202508252026032020260320000000020363000000000000000001002000000000000297615560TWDUSDD                 000000000100701041                    00110330041033                                                                                                                                                      FAA3637535          0000000000000000000000                    00000000                    00000000                    00000000                    00000000000000                                                                                                
3010           0        0      FWD TWDUSD 260320V2500003CU0        254900HSS82AHMTPAD9                                                   001001*CSPMXPUSD SPOT   00202000020250827202508272026032020260320000000017453000000000000000001002000000000000299000000TWDUSDD                 000000000100801155                    00110320051031                                                                                                                                                      E4PI3D              0000000000000000000000                    00000000                    00000000                    00000000                    00000000000000                                                                                                
3010           0        0      FWD TWDUSD 260320V2500004CU0        254900HSS82AHMTPAD9                                                   001001*CSPMXPUSD SPOT   00202000020250828202508282026032020260320000000004884000000000000000001002000000000000297973920TWDUSDD                 000000000100701041                    00110330041033                                                                                                                                                      FAA4154310          0000000000000000000000                    00000000                    00000000                    00000000                    00000000000000                                                                                                
3010           0        0      FWD TWDUSD 260320V2500006CU0        254900HSS82AHMTPAD9                                                   001001*CSPMXPUSD SPOT   00202000020251121202511212026032020260320000000014420000000000000000001002000000000000309900000TWDUSDD                 000000000100801155                    00110320051031                                                                                                                                                      IO40YM              0000000000000000000000                    00000000                    00000000                    00000000                    00000000000000                                                                                                
3010           0        0      FWD TWDUSD 260320V2500007CU0        549300N4N8Z6E2PYR08                                                   001001*CSPMXPUSD SPOT   00202000020251124202511242026032020260320000000021880000000000000000001002000000000000310950000TWDUSDD                 000000000100013130                    00110000041000                                                                                                                                                      SDBB7MM3334PXPX6SQ900000000000000000000000                    00000000                    00000000                    00000000                    00000000000000                                                                                                
3010           0        0      FWD UKX    251219V2500002CU0        SDBBCWL333C3TB3P4P                                                    001001*I  UKX    IND    01111000020250604202506042025121920251219000000000001410000000000000001011000000000088797144000GBP   D                 000000000100013130                    00110000041000                                                                                                                                                      SDBBCWL333C3TB3P4P  0000000000000000000000                    00000000                    00000000                    00000000                    00000000000000                                                                                                
3010           0        0      FWD USDAUD 260318V2500002CU0        254900HSS82AHMTPAD9                                                   001002*CSPMXPAUD V48    00808000020250826202508262026031820260318000000013282000000000000000001008000000000000006517106USDAUDF                 000000000100801155                    00110320051031                                                                                                                                                      E4G87R              0000000000000000000000                    00000000                    00000000                    00000000                    00000000000000                                                                                                
3010           0        0      FWD USDAUD 260318V2500003CU0        254900HSS82AHMTPAD9                                                   001002*CSPMXPAUD V48    00808000020250827202508272026031820260318000000015389000000000000000001008000000000000006525666USDAUDF                 000000000100801155                    00110320051031                                                                                                                                                      E4PZZB              0000000000000000000000                    00000000                    00000000                    00000000                    00000000000000                                                                                                
3010           0        0      FWD USDAUD 260318V2500004CU0        254900HSS82AHMTPAD9                                                   001002*CSPMXPAUD V48    00808000020250828202508282026031820260318000000010709000000000000000001008000000000000006554829USDAUDF                 000000000100801155                    00110320051031                                                                                                                                                      E4Z5VV              0000000000000000000000                    00000000                    00000000                    00000000                    00000000000000                                                                                                
3010           0        0      FWD USDEUR 251217V2400002CU0        O2RNE8IBXP4R0TD8PU4                                                   001001*CSPMXPEUR V48    00702000020241219202412192025121720251217000000025514320000000000000001007000000000000010578092USDEURF                 000000000100701041                    00110330041033                                                                                                                                                      FXX8804353          0000000000000000000000                    00000000                    00000000                    00000000                    00000000000000                                                                                                
3010           0        0      FWD USDEUR 251217V2500003CU0        549300ALY1LDVQGKWL1                                                   001002*CSPMXPEUR V48    00707000020250528202505282025121720251217000000033700000000000000000001007000000000000011452957USDEURF                 000000000100040021                    00110000041000                                                                                                                                                      EWD251489930        0000000000000000000000                    00000000                    00000000                    00000000                    00000000000000                                                                                                
3010           0        0      FWD USDEUR 251217V2500005CU0        549300OA79DKM2EKBT5                                                   001002*CSPMXPEUR V48    00707000020250825202508252025121720251217000000025377000000000000000001007000000000000011735230USDEURF                 000000000100040110                    00110000041000                                                                                                                                                      ZOB5VL26IA2D000001  0000000000000000000000                    00000000                    00000000                    00000000                    00000000000000                                                                                                
3010           0        0      FWD USDEUR 251217V2500006CU0        549300ALY1LDVQGKWL1                                                   001002*CSPMXPEUR V48    00707000020250828202508282025121720251217000000018923000000000000000001007000000000000011765459USDEURF                 000000000100040021                    00110000041000                                                                                                                                                      EWD252409978        0000000000000000000000                    00000000                    00000000                    00000000                    00000000000000                                                                                                
3010           0        0      FWD USDEUR 251217V2500008CU0        254900HSS82AHMTPAD9                                                   001001*CSPMXPEUR V48    00702000020251118202511182025121720251217000000010335030000000000000001007000000000000011601068USDEURF                 000000000100801155                    00110320051031                                                                                                                                                      IJAK0F              0000000000000000000000                    00000000                    00000000                    00000000                    00000000000000                                                                                                
3010           0        0      FWD USDEUR 251217V2500009CU0        SCRYQ25DTVRHYYMM6P8                                                   001001*CSPMXPEUR V48    00702000020251119202511192025121720251217000000012918790000000000000001007000000000000011553570USDEURF                 000000000100040014                    00410000051000                                                                                                                                                      4534852425          0000000000000000000000                    00000000                    00000000                    00000000                    00000000000000                                                                                                
3010           0        0      FWD USDEUR 251217V2500010CU0        SCRYQ25DTVRHYYMM6P8                                                   001001*CSPMXPEUR V48    00702000020251120202511202025121720251217000000012918790000000000000001007000000000000011545690USDEURF                 000000000100040014                    00410000051000                                                                                                                                                      4536668725          0000000000000000000000                    00000000                    00000000                    00000000                    00000000000000                                                                                                
3010           0        0      FWD USDEUR 251217V2500011CU0        SCRYQ25DTVRHYYMM6P8                                                   001001*CSPMXPEUR V48    00702000020251121202511212025121720251217000000016313070000000000000001007000000000000011519010USDEURF                 000000000100040014                    00410000051000                                                                                                                                                      4539710425          0000000000000000000000                    00000000                    00000000                    00000000                    00000000000000                                                                                                
3010           0        0      FWD USDEUR 260318V2500001CU0        R0MUWSFPU8MPRO8K5P8                                                   001002*CSPMXPEUR V48    00707000020250124202501242026031820260318000000019300000000000000000001007000000000000010729409USDEURF                 000000000100701011                    00110320041032                                                                                                                                                      745030378           0000000000000000000000                    00000000                    00000000                    00000000                    00000000000000                                                                                                
3010           0        0      FWD USDEUR 260318V2500002CU0        R0MUWSFPU8MPRO8K5P8                                                   001002*CSPMXPEUR V48    00707000020250212202502122026031820260318000000076000000000000000000001007000000000000010640803USDEURF                 000000000100701011                    00110320041032                                                                                                                                                      320827026           0000000000000000000000                    00000000                    00000000                    00000000                    00000000000000                                                                                                
3010           0        0      FWD USDEUR 260318V2500003CU0        254900HSS82AHMTPAD9                                                   001002*CSPMXPEUR V48    00707000020251118202511182026031820260318000000010335030000000000000001007000000000000011657764USDEURF                 000000000100801155                    00110320051031                                                                                                                                                      IJAK1D              0000000000000000000000                    00000000                    00000000                    00000000                    00000000000000                                                                                                
3010           0        0      FWD USDEUR 260318V2500004CU0        SCRYQ25DTVRHYYMM6P8                                                   001002*CSPMXPEUR V48    00707000020251119202511192026031820260318000000012918790000000000000001007000000000000011609820USDEURF                 000000000100040014                    00410000051000                                                                                                                                                      4534850425          0000000000000000000000                    00000000                    00000000                    00000000                    00000000000000                                                                                                
3010           0        0      FWD USDEUR 260318V2500005CU0        SCRYQ25DTVRHYYMM6P8                                                   001002*CSPMXPEUR V48    00707000020251120202511202026031820260318000000012918790000000000000001007000000000000011602240USDEURF                 000000000100040014                    00410000051000                                                                                                                                                      4536666925          0000000000000000000000                    00000000                    00000000                    00000000                    00000000000000                                                                                                
3010           0        0      FWD USDEUR 260318V2500006CU0        SCRYQ25DTVRHYYMM6P8                                                   001002*CSPMXPEUR V48    00707000020251121202511212026031820260318000000016313070000000000000001007000000000000011574160USDEURF                 000000000100040014                    00410000051000                                                                                                                                                      4539706425          0000000000000000000000                    00000000                    00000000                    00000000                    00000000000000                                                                                                
3010           0        0      FWD USDEUR 260617V2500002CU0        254900HSS82AHMTPAD9                                                   001001*CSPMXPEUR V48    00702000020250305202503052026061720260617000000035700800000000000000001007000000000000011020711USDEURF                 000000000100801155                    00110320051031                                                                                                                                                      12L889              0000000000000000000000                    00000000                    00000000                    00000000                    00000000000000                                                                                                
3010           0        0      FWD USDEUR 260617V2500003CU0        549300ALY1LDVQGKWL1                                                   001001*CSPMXPEUR V48    00702000020250325202503252026061720260617000000008783350000000000000001007000000000000011064562USDEURF                 000000000100040021                    00110000041000                                                                                                                                                      EWD250849993        0000000000000000000000                    00000000                    00000000                    00000000                    00000000000000                                                                                                
3010           0        0      FWD USDEUR 261216V2500002CU0        549300ALY1LDVQGKWL1                                                   001001*CSPMXPEUR V48    00702000020250908202509082026121620261216000000035000000000000000000001007000000000000012000992USDEURF                 000000000100040021                    00110000041000                                                                                                                                                      EWD252519994        0000000000000000000000                    00000000                    00000000                    00000000                    00000000000000                                                                                                
3010           0        0      FWD USDEUR 261216V2500005CU0        FXCFAA0000000000000                                                   001001*CSPMXPEUR V48    00702000020251014202510142026121620261216000000039000000000000000000001007000000000000011819853USDEURF                 000000000100701041                    00110330041033                                                                                                                                                      FAA9980048          0000000000000000000000                    00000000                    00000000                    00000000                    00000000000000                                                                                                
3010           0        0      FWD USDEUR 261216V2500006CU0        SCRYQ25DTVRHYYMM6P8                                                   001001*CSPMXPEUR V48    00702000020251015202510152026121620261216000000039050000000000000000001007000000000000011857812USDEURF                 000000000100040014                    00410000051000                                                                                                                                                      4476994925          0000000000000000000000                    00000000                    00000000                    00000000                    00000000000000                                                                                                
3010           0        0      FWD USDEUR 261216V2500007CU0        SDBB7MM3334PLNLW6W0                                                   001001*CSPMXPEUR V48    00702000020251028202510282026121620261216000000039050000000000000000001007000000000000011872985USDEURF                 000000000100013130                    00110000041000                                                                                                                                                      SDBB7MM3334PLNLW6W  0000000000000000000000                    00000000                    00000000                    00000000                    00000000000000                                                                                                
3010           0        0      FWD USDGBP 260318V2500002CU0        549300TMH5W90U8OTT5                                                   001002*CSPMXPGBP V48    01111000020250827202508272026031820260318000000021832000000000000000001011000000000000013473680USDGBPF                 000000000100040129                    00110000041000                                                                                                                                                      1073811             0000000000000000000000                    00000000                    00000000                    00000000                    00000000000000                                                                                                
3010           0        0      FWD USDGBP 260318V2500003CU0        529900H31AYI6WA1J53                                                   001002*CSPMXPGBP V48    01111000020250828202508282026031820260318000000017314710000000000000001011000000000000013520390USDGBPF                 000000000100040124                    00110000051000                                                                                                                                                      25240CNIHW          0000000000000000000000                    00000000                    00000000                    00000000                    00000000000000                                                                                                
3020           0        0      FCSPEC     Z5    V2000001  0        0                                                                     00100200701051                    *CSPMXPEUR V48    02007000020250902202509022025121720251215000000001250000000000000000011007000000000000011710100USDEURF                 000000000                                                                                                                                                      20000000000000000801197                    00801197                    00801203                    00000000000000                                                                                                                                                              
3020           0        0      FCSPES     Z5    V2100001  0        0                                                                     00100100701051                    *I  SPX    IND    02002000020250912202509122025121920251219000000000000500000000000000206002000000000066488964120USD   D                 000000000                                                                                                                                                      20000000000000000801197                    00801197                    00801203                    00000000000000                                                                                                                                                              
3020           0        0      FCSPES     Z5    V2100001  0        0                                                                     00100100701051                    *I  SPX    IND    02002000020251014202510142025121920251219000000000000500000000000000009002000000000066939980690USD   D                 000000000                                                                                                                                                      20000000000000000801197                    00801197                    00801203                    00000000000000                                                                                                                                                              
3020           0        0      FCSPJY     Z5    V2000001  0        0                                                                     00100200701051                    *CSPMXPJPY V48    02006000020250902202509022025121720251215000000125000000000000000000005006000000000000000068130USDJPYF                 000000000                                                                                                                                                      20000000000000000801197                    00801197                    00801203                    00000000000000                                                                                                                                                              
3020           0        0      FCSPPE     Z5    V2400001  0        0                                                                     00100200701051                    *CSPMXPUSD SPOT   02002000020250902202509022025121720251215000000005000000000000000000008001000000000000000528600USDMXPF                 000000000                                                                                                                                                      20000000000000000801197                    00801197                    00801203                    00000000000000                                                                                                                                                              
3020           0        0      FD  DEUA   DC26  V2200001  0        0                                                                     00100200025007                    *CSPMXPUSD SPOT   01002000020251014202510142026121620261214000000000100000000000000000146002000000000000193840000MXPUSDF                 000000000                                                                                                                                                      20000000000000000076010                    00040044                    00701275                    00000000000000                                                                                                                                                              
3020           0        0      FD  DEUA   DC26  V2200001  0        0                                                                     00100200025007                    *CSPMXPUSD SPOT   01002000020251014202510142026121620261214000000000100000000000000000220002000000000000193840000MXPUSDF                 000000000                                                                                                                                                      20000000000000000040014                    00040014                    00701275                    00000000000000                                                                                                                                                              
3020           0        0      FD  DEUA   DC26  V2200001  0        0                                                                     00100200025007                    *CSPMXPUSD SPOT   01002000020251028202510282026121620261214000000000100000000000000000300002000000000000192460000MXPUSDF                 000000000                                                                                                                                                      20000000000000000040014                    00040014                    00701275                    00000000000000                                                                                                                                                              
3020           0        0      FD  DEUA   DC26  V2200001  0        0                                                                     00100200025007                    *CSPMXPUSD SPOT   01002000020251028202510282026121620261214000000000100000000000000000200002000000000000192460000MXPUSDF                 000000000                                                                                                                                                      20000000000000000076010                    00040044                    00701275                    00000000000000                                                                                                                                                              
3020           0        0      FD  DEUA   DC26  V2200001  0        0                                                                     00100200025007                    *CSPMXPUSD SPOT   01002000020251119202511192026121620261214000000000100000000000000000218002000000000000191550000MXPUSDF                 000000000                                                                                                                                                      20000000000000000040014                    00040014                    00701275                    00000000000000                                                                                                                                                              
3020           0        0      FD  DEUA   DC26  V2200001  0        0                                                                     00100200025007                    *CSPMXPUSD SPOT   01002000020251119202511192026121620261214000000000100000000000000000146002000000000000191550000MXPUSDF                 000000000                                                                                                                                                      20000000000000000076010                    00040044                    00701275                    00000000000000                                                                                                                                                              
3020           0        0      FD  DEUA   JN26  V2200001  0        0                                                                     00100200025007                    *CSPMXPUSD SPOT   01002000020250611202506112026061720260615000000000100000000000000000036002000000000000196689000MXPUSDF                 000000000                                                                                                                                                      20000000000000000076010                    00040044                    00701275                    00000000000000                                                                                                                                                              
3020           0        0      FD  DEUA   MR26  V2100001  0        0                                                                     00100100025007                    *CSPMXPUSD SPOT   01002000020251118202511182026031820260313000000000100000000000000000059002000000000000185804000MXPUSDF                 000000000                                                                                                                                                      20000000000000000040014                    00040014                    00701275                    00000000000000                                                                                                                                                              
3020           0        0      FD  DEUA   MR26  V2100001  0        0                                                                     00100100025007                    *CSPMXPUSD SPOT   01002000020251119202511192026031820260313000000000100000000000000000025002000000000000185900000MXPUSDF                 000000000                                                                                                                                                      20000000000000000076010                    00040044                    00701275                    00000000000000                                                                                                                                                              
3020           0        0      FD  DEUA   SP26  00018911100        0                                                                     00100200025007                    *CSPMXPUSD SPOT   01002000020251126202511262026091720260914000000000100000000000000000170002000000000000189111000MXPUSDF                 000000000                                                                                                                                                      20000000000000000076010                    00040044                    00701275                    00000000000000                                                                                                                                                              
3020           0        0      FD  DEUA   SP26  V2200001  0        0                                                                     00100200025007                    *CSPMXPUSD SPOT   01002000020250722202507222026091720260914000000000100000000000000000075002000000000000195495000MXPUSDF                 000000000                                                                                                                                                      20000000000000000076010                    00040044                    00701275                    00000000000000                                                                                                                                                              
3020           0        0      FD  DEUA   SP26  V2200001  0        0                                                                     00100200025007                    *CSPMXPUSD SPOT   01002000020250808202508082026091720260914000000000100000000000000000384002000000000000194672000MXPUSDF                 000000000                                                                                                                                                      20000000000000000040014                    00040014                    00701275                    00000000000000                                                                                                                                                              
3020           0        0      FD  DEUA   SP26  V2200001  0        0                                                                     00100200025007                    *CSPMXPUSD SPOT   01002000020250825202508252026091720260914000000000100000000000000001744002000000000000194360000MXPUSDF                 000000000                                                                                                                                                      20000000000000000040014                    00040014                    00701275                    00000000000000                                                                                                                                                              
3020           0        0      FD  DEUA   SP26  V2200001  0        0                                                                     00100200025007                    *CSPMXPUSD SPOT   01002000020250828202508282026091720260914000000000100000000000000001290002000000000000194070000MXPUSDF                 000000000                                                                                                                                                      20000000000000000076010                    00040044                    00701275                    00000000000000                                                                                                                                                              
3020           0        0      FD  DEUA   SP26  V2200001  0        0                                                                     00100200025007                    *CSPMXPUSD SPOT   01002000020250909202509092026091720260914000000000100000000000000000133002000000000000194021000MXPUSDF                 000000000                                                                                                                                                      20000000000000000076010                    00040044                    00701275                    00000000000000                                                                                                                                                              
3020           0        0      FD  DEUA   SP26  V2200001  0        0                                                                     00100200025007                    *CSPMXPUSD SPOT   01002000020250909202509092026091720260914000000000100000000000000000200002000000000000194021000MXPUSDF                 000000000                                                                                                                                                      20000000000000000040014                    00040014                    00701275                    00000000000000                                                                                                                                                              
3020           0        0      FD  DEUA   SP26  V2200001  0        0                                                                     00100200025007                    *CSPMXPUSD SPOT   01002000020250922202509222026091720260914000000000100000000000000000046002000000000000190732000MXPUSDF                 000000000                                                                                                                                                      20000000000000000076010                    00040044                    00701275                    00000000000000                                                                                                                                                              
3020           0        0      FD  DEUA   SP26  V2200001  0        0                                                                     00100200025007                    *CSPMXPUSD SPOT   01002000020250922202509222026091720260914000000000100000000000000000068002000000000000190732000MXPUSDF                 000000000                                                                                                                                                      20000000000000000040014                    00040014                    00701275                    00000000000000                                                                                                                                                              
3020           0        0      FD  DEUA   SP26  V2200001  0        0                                                                     00100200025007                    *CSPMXPUSD SPOT   01002000020250923202509232026091720260914000000000100000000000000000046002000000000000190255000MXPUSDF                 000000000                                                                                                                                                      20000000000000000076010                    00040044                    00701275                    00000000000000                                                                                                                                                              
3020           0        0      FD  DEUA   SP26  V2200001  0        0                                                                     00100200025007                    *CSPMXPUSD SPOT   01002000020250923202509232026091720260914000000000100000000000000000070002000000000000190255000MXPUSDF                 000000000                                                                                                                                                      20000000000000000040014                    00040014                    00701275                    00000000000000                                                                                                                                                              
3020           0        0      FD  DEUA   SP26  V2200001  0        0                                                                     00100200025007                    *CSPMXPUSD SPOT   01002000020250924202509242026091720260914000000000100000000000000000065002000000000000191322000MXPUSDF                 000000000                                                                                                                                                      20000000000000000076010                    00040044                    00701275                    00000000000000                                                                                                                                                              
3020           0        0      FD  DEUA   SP26  V2200001  0        0                                                                     00100200025007                    *CSPMXPUSD SPOT   01002000020250924202509242026091720260914000000000100000000000000000097002000000000000191322000MXPUSDF                 000000000                                                                                                                                                      20000000000000000040014                    00040014                    00701275                    00000000000000                                                                                                                                                              
3020           0        0      FD  DEUA   SP26  V2200001  0        0                                                                     00100200025007                    *CSPMXPUSD SPOT   01002000020250925202509252026091720260914000000000100000000000000000263002000000000000191473000MXPUSDF                 000000000                                                                                                                                                      20000000000000000040014                    00040014                    00701275                    00000000000000                                                                                                                                                              
3020           0        0      FD  DEUA   SP26  V2200001  0        0                                                                     00100200025007                    *CSPMXPUSD SPOT   01002000020250925202509252026091720260914000000000100000000000000000175002000000000000191473000MXPUSDF                 000000000                                                                                                                                                      20000000000000000076010                    00040044                    00701275                    00000000000000                                                                                                                                                              
3020           0        0      FD  DEUA   SP26  V2200001  0        0                                                                     00100200025007                    *CSPMXPUSD SPOT   01002000020251124202511242026091720260914000000000100000000000000000693002000000000000190960000MXPUSDF                 000000000                                                                                                                                                      20000000000000000040014                    00040014                    00701275                    00000000000000                                                                                                                                                              
3040           0        0      SWP 6SMXMXP270209V2500001CU0        MBNUM2BPBDO7JBLYG310CCCIRS22314849                                    00120250207220250211011011202512162025121600280028000-010260260000023980000000000000000239800000000000000000000001000000MXP   00100101SWP 6SMXMXP270209 SWP 6SMXMXP270209 MXP   MXP   000000000854000000000000090300000000000000001002ACT/360   ACT/360   000000701051                    00000000                    00000000000000122314849            00000000000000                                                                                                                     00801197                    00801197                    00801203                    000000000000000000239800000              
3040           0        0      SWP 6SMXMXP270209V2500002CU0        MBNUM2BPBDO7JBLYG310CCCIRS22329715                                    00120250212220250213011011202512162025121600280028000-010260260000014520000000000000000145200000000000000000000001000000MXP   00100101SWP 6SMXMXP270209 SWP 6SMXMXP270209 MXP   MXP   000000000863000000000000090300000000000000001002ACT/360   ACT/360   000000701051                    00000000                    00000000000000122329715            00000000000000                                                                                                                     00801197                    00801197                    00801203                    000000000000000000145200000              
3040           0        0      SWP 6SMXMXP270209V2500003CU0        MBNUM2BPBDO7JBLYG310CCCIRS22331931                                    00120250212220250213011011202512162025121600280028000-010260260000031020000000000000000310200000000000000000000001000000MXP   00100101SWP 6SMXMXP270209 SWP 6SMXMXP270209 MXP   MXP   000000000862400000000000090300000000000000001002ACT/360   ACT/360   000000701051                    00000000                    00000000000000122331931            00000000000000                                                                                                                     00801197                    00801197                    00801203                    000000000000000000310200000              
3040           0        0      SWP 6SMXMXP270209V2500006CU0        MBNUM2BPBDO7JBLYG310CCCIRS22610899                                    00120250319220250320010010202512162025121600280028000-010250250000117878000000000000001178780000000000000000000001000000MXP   00100101SWP 6SMXMXP270209 SWP 6SMXMXP270209 MXP   MXP   000000000801000000000000090300000000000000001002ACT/360   ACT/360   000000701051                    00000000                    00000000000000122610899            00000000000000                                                                                                                     00801197                    00801197                    00801203                    000000000000000001178780000              
3040           0        0      SWP 6SMXMXP270223V2500001CU0        MBNUM2BPBDO7JBLYG310CCCIRS22400200                                    00120250221120250225010010202512022025120200280028-010000260260000007010000000000000000070100000000000000000000001000000MXP   00100101SWP 6SMXMXP270223 SWP 6SMXMXP270223 MXP   MXP   000000000902000000000000082850000000000000002001ACT/360   ACT/360   000000701051                    00000000                    00000000000000122400200            00000000000000                                                                                                                     00801197                    00801197                    00801203                    000000000000000000070100000              
3040           0        0      SWP 6SMXMXP270223V2500002CU0        MBNUM2BPBDO7JBLYG310CCCIRS22399886                                    00120250221120250225010010202512022025120200280028-010000260260000027070000000000000000270700000000000000000000001000000MXP   00100101SWP 6SMXMXP270223 SWP 6SMXMXP270223 MXP   MXP   000000000902000000000000082950000000000000002001ACT/360   ACT/360   000000701051                    00000000                    00000000000000122399886            00000000000000                                                                                                                     00801197                    00801197                    00801203                    000000000000000000270700000              
3040           0        0      SWP 6SMXMXP270223V2500003CU0        MBNUM2BPBDO7JBLYG310CCCIRS22410682                                    00120250225120250227010010202512022025120200280028-010000260260000011170000000000000000111700000000000000000000001000000MXP   00100101SWP 6SMXMXP270223 SWP 6SMXMXP270223 MXP   MXP   000000000902000000000000082201000000000000002001ACT/360   ACT/360   000000701051                    00000000                    00000000000000122410682            00000000000000                                                                                                                     00801197                    00801197                    00801203                    000000000000000000111700000              
3040           0        0      SWP 6SMXMXP270223V2500004CU0        MBNUM2BPBDO7JBLYG310CCCIRS22410614                                    00120250225120250227010010202512022025120200280028-010000260260000011110000000000000000111100000000000000000000001000000MXP   00100101SWP 6SMXMXP270223 SWP 6SMXMXP270223 MXP   MXP   000000000902000000000000082200000000000000002001ACT/360   ACT/360   000000701051                    00000000                    00000000000000122410614            00000000000000                                                                                                                     00801197                    00801197                    00801203                    000000000000000000111100000              
3040           0        0      SWP 6SMXMXP270223V2500005CU0        MBNUM2BPBDO7JBLYG310CCCIRS22411440                                    00120250225120250227010010202512022025120200280028-010000260260000011110000000000000000111100000000000000000000001000000MXP   00100101SWP 6SMXMXP270223 SWP 6SMXMXP270223 MXP   MXP   000000000902000000000000082210000000000000002001ACT/360   ACT/360   000000701051                    00000000                    00000000000000122411440            00000000000000                                                                                                                     00801197                    00801197                    00801203                    000000000000000000111100000              
3040           0        0      SWP 6SMXMXP270223V2500006CU0        MBNUM2BPBDO7JBLYG310CCCIRS23353740                                    00120250702120250704006006202512022025120200280028-010000220220000051170000000000000000511700000000000000000000001000000MXP   00100101SWP 6SMXMXP270223 SWP 6SMXMXP270223 MXP   MXP   000000000814000000000000075100000000000000002001ACT/360   ACT/360   000000701051                    00000000                    00000000000000123353740            00000000000000                                                                                                                     00801197                    00801197                    00801203                    000000000000000000511700000              
3040           0        0      SWP 6SMXMXP270223V2500007CU0        MBNUM2BPBDO7JBLYG310CCCIRS23358524                                    00120250703120250707006006202512022025120200280028-010000220220000060710000000000000000607100000000000000000000001000000MXP   00100101SWP 6SMXMXP270223 SWP 6SMXMXP270223 MXP   MXP   000000000803000000000000075300000000000000002001ACT/360   ACT/360   000000701051                    00000000                    00000000000000123358524            00000000000000                                                                                                                     00801197                    00801197                    00801203                    000000000000000000607100000              
3040           0        0      SWP 6SMXMXP280809V2500001CU0        MBNUM2BPBDO7JBLYG310CCCIRS23535592                                    00120250811120250812004004202512032025120300280028-010000390390000011045000000000000000110450000000000000000000001000000MXP   00100101SWP 6SMXMXP280809 SWP 6SMXMXP280809 MXP   MXP   000000000799000000000000073591000000000000002001ACT/360   ACT/360   000000701051                    00000000                    00000000000000123535592            00000000000000                                                                                                                     00801197                    00801197                    00801203                    000000000000000000110450000              
3040           0        0      SWP 6SMXMXP280809V2500002CU0        MBNUM2BPBDO7JBLYG310CCCIRS23535886                                    00120250811120250812004004202512032025120300280028-010000390390000008801000000000000000088010000000000000000000001000000MXP   00100101SWP 6SMXMXP280809 SWP 6SMXMXP280809 MXP   MXP   000000000799000000000000073686000000000000002001ACT/360   ACT/360   000000701051                    00000000                    00000000000000123535886            00000000000000                                                                                                                     00801197                    00801197                    00801203                    000000000000000000088010000              
3040           0        0      SWP 6SMXMXP280809V2500003CU0        MBNUM2BPBDO7JBLYG310CCCIRS23539642                                    00120250812120250814004004202512032025120300280028-010000390390000009992000000000000000099920000000000000000000001000000MXP   00100101SWP 6SMXMXP280809 SWP 6SMXMXP280809 MXP   MXP   000000000775000000000000073100000000000000002001ACT/360   ACT/360   000000701051                    00000000                    00000000000000123539642            00000000000000                                                                                                                     00801197                    00801197                    00801203                    000000000000000000099920000              
3040           0        0      SWP 6SMXMXP280824V2500001CU0        MBNUM2BPBDO7JBLYG310CCCIRS23655803                                    00120250826220250827004004202512182025121800280028000-010390390000026261138000000000000262611380000000000000000001000000MXP   00100101SWP 6SMXMXP280824 SWP 6SMXMXP280824 MXP   MXP   000000000729500000000000077500000000000000001002ACT/360   ACT/360   000000701051                    00000000                    00000000000000123655803            00000000000000                                                                                                                     00801197                    00801197                    00801203                    000000000000000000262611380              
3040           0        0      SWP 6SUSUSD300731V2500002CU0        MBNUM2BPBDO7JBLYG310CCCIRS23490350                                    008202507301202508010010012026073120260731036403640000000050050000000988100000000000000009881000000000000000000001000000USD   00200202SWP 6SUSUSD300731 SWP 6SUSUSD300731 USD   USD   000000000436000000000000035680000000000000002001ACT/360   ACT/360   000000701051                    00000000                    00000000000000123490350            00000000000000                                                                                                                     00801197                    00801197                    00801203                    000000000000000000009881000              
3040           0        0      SWP 6SUSUSD300731V2500003CU0        MBNUM2BPBDO7JBLYG310CCCIRS23506712                                    008202508041202508060010012026073120260731035903590000000050050000000379170000000000000003791700000000000000000001000000USD   00200202SWP 6SUSUSD300731 SWP 6SUSUSD300731 USD   USD   000000000439000000000000033965000000000000002001ACT/360   ACT/360   000000701051                    00000000                    00000000000000123506712            00000000000000                                                                                                                     00801197                    00801197                    00801203                    000000000000000000003791700              
3040           0        0      SWP 6SUSUSD300918V2500003CU0        MBNUM2BPBDO7JBLYG310CCCIRS23888465                                    008202509302202510020010012026091820260918035103510000000050050000001547440000000000000015474400000000000000000001000000USD   00200202SWP 6SUSUSD300918 SWP 6SUSUSD300918 USD   USD   000000000337400000000000041600000000000000001002ACT/360   ACT/360   000000701051                    00000000                    00000000000000123888465            00000000000000                                                                                                                     00801197                    00801197                    00801203                    000000000000000000015474400              
3050           0        0      SWP 6SUSUSD300731V2500002CU0        MBNUM2BPBDO7JBLYG310CCCIRS23490350                                    100220260731202707303640000000000000000000000000009881000000000SWP 6SUSUSD300731 00000                                                  2026073120300731                                                                                                                                                                                                                                                                                                                                                                                                                                                                 
3050           0        0      SWP 6SUSUSD300731V2500002CU0        MBNUM2BPBDO7JBLYG310CCCIRS23490350                                    100320270730202807313670000000000000000000000000009881000000000SWP 6SUSUSD300731 00000                                                  2026073120300731                                                                                                                                                                                                                                                                                                                                                                                                                                                                 
3050           0        0      SWP 6SUSUSD300731V2500002CU0        MBNUM2BPBDO7JBLYG310CCCIRS23490350                                    100420280731202907313650000000000000000000000000009881000000000SWP 6SUSUSD300731 00000                                                  2026073120300731                                                                                                                                                                                                                                                                                                                                                                                                                                                                 
3050           0        0      SWP 6SUSUSD300731V2500002CU0        MBNUM2BPBDO7JBLYG310CCCIRS23490350                                    100520290731203007313650000000000000000000000000009881000000000SWP 6SUSUSD300731 00000                                                  2026073120300731                                                                                                                                                                                                                                                                                                                                                                                                                                                                 
3050           0        0      SWP 6SUSUSD300731V2500002CU0        MBNUM2BPBDO7JBLYG310CCCIRS23490350                                    200220260731202707303640000000000000000000000000009881000000000SWP 6SUSUSD300731 00000                                                  2026073120300731                                                                                                                                                                                                                                                                                                                                                                                                                                                                 
3050           0        0      SWP 6SUSUSD300731V2500002CU0        MBNUM2BPBDO7JBLYG310CCCIRS23490350                                    200320270730202807313670000000000000000000000000009881000000000SWP 6SUSUSD300731 00000                                                  2026073120300731                                                                                                                                                                                                                                                                                                                                                                                                                                                                 
3050           0        0      SWP 6SUSUSD300731V2500002CU0        MBNUM2BPBDO7JBLYG310CCCIRS23490350                                    200420280731202907313650000000000000000000000000009881000000000SWP 6SUSUSD300731 00000                                                  2026073120300731                                                                                                                                                                                                                                                                                                                                                                                                                                                                 
3050           0        0      SWP 6SUSUSD300731V2500002CU0        MBNUM2BPBDO7JBLYG310CCCIRS23490350                                    200520290731203007313650000000000000000000000000009881000000000SWP 6SUSUSD300731 00000                                                  2026073120300731                                                                                                                                                                                                                                                                                                                                                                                                                                                                 
3050           0        0      SWP 6SUSUSD300731V2500003CU0        MBNUM2BPBDO7JBLYG310CCCIRS23506712                                    100220260731202707303640000000000000000000000000003791700000000SWP 6SUSUSD300731 00000                                                  2026073120300731                                                                                                                                                                                                                                                                                                                                                                                                                                                                 
3050           0        0      SWP 6SUSUSD300731V2500003CU0        MBNUM2BPBDO7JBLYG310CCCIRS23506712                                    100320270730202807313670000000000000000000000000003791700000000SWP 6SUSUSD300731 00000                                                  2026073120300731                                                                                                                                                                                                                                                                                                                                                                                                                                                                 
3050           0        0      SWP 6SUSUSD300731V2500003CU0        MBNUM2BPBDO7JBLYG310CCCIRS23506712                                    100420280731202907313650000000000000000000000000003791700000000SWP 6SUSUSD300731 00000                                                  2026073120300731                                                                                                                                                                                                                                                                                                                                                                                                                                                                 
3050           0        0      SWP 6SUSUSD300731V2500003CU0        MBNUM2BPBDO7JBLYG310CCCIRS23506712                                    100520290731203007313650000000000000000000000000003791700000000SWP 6SUSUSD300731 00000                                                  2026073120300731                                                                                                                                                                                                                                                                                                                                                                                                                                                                 
3050           0        0      SWP 6SUSUSD300731V2500003CU0        MBNUM2BPBDO7JBLYG310CCCIRS23506712                                    200220260731202707303640000000000000000000000000003791700000000SWP 6SUSUSD300731 00000                                                  2026073120300731                                                                                                                                                                                                                                                                                                                                                                                                                                                                 
3050           0        0      SWP 6SUSUSD300731V2500003CU0        MBNUM2BPBDO7JBLYG310CCCIRS23506712                                    200320270730202807313670000000000000000000000000003791700000000SWP 6SUSUSD300731 00000                                                  2026073120300731                                                                                                                                                                                                                                                                                                                                                                                                                                                                 
3050           0        0      SWP 6SUSUSD300731V2500003CU0        MBNUM2BPBDO7JBLYG310CCCIRS23506712                                    200420280731202907313650000000000000000000000000003791700000000SWP 6SUSUSD300731 00000                                                  2026073120300731                                                                                                                                                                                                                                                                                                                                                                                                                                                                 
3050           0        0      SWP 6SUSUSD300731V2500003CU0        MBNUM2BPBDO7JBLYG310CCCIRS23506712                                    200520290731203007313650000000000000000000000000003791700000000SWP 6SUSUSD300731 00000                                                  2026073120300731                                                                                                                                                                                                                                                                                                                                                                                                                                                                 
3050           0        0      SWP 6SUSUSD300918V2500003CU0        MBNUM2BPBDO7JBLYG310CCCIRS23888465                                    100220260918202709203670000000000000000000000000015474400000000SWP 6SUSUSD300918 00000                                                  2026091820300918                                                                                                                                                                                                                                                                                                                                                                                                                                                                 
3050           0        0      SWP 6SUSUSD300918V2500003CU0        MBNUM2BPBDO7JBLYG310CCCIRS23888465                                    100320270920202809183640000000000000000000000000015474400000000SWP 6SUSUSD300918 00000                                                  2026091820300918                                                                                                                                                                                                                                                                                                                                                                                                                                                                 
3050           0        0      SWP 6SUSUSD300918V2500003CU0        MBNUM2BPBDO7JBLYG310CCCIRS23888465                                    100420280918202909183650000000000000000000000000015474400000000SWP 6SUSUSD300918 00000                                                  2026091820300918                                                                                                                                                                                                                                                                                                                                                                                                                                                                 
3050           0        0      SWP 6SUSUSD300918V2500003CU0        MBNUM2BPBDO7JBLYG310CCCIRS23888465                                    100520290918203009183650000000000000000000000000015474400000000SWP 6SUSUSD300918 00000                                                  2026091820300918                                                                                                                                                                                                                                                                                                                                                                                                                                                                 
3050           0        0      SWP 6SUSUSD300918V2500003CU0        MBNUM2BPBDO7JBLYG310CCCIRS23888465                                    200220260918202709203670000000000000000000000000015474400000000SWP 6SUSUSD300918 00000                                                  2026091820300918                                                                                                                                                                                                                                                                                                                                                                                                                                                                 
