00000502343030000254400198020250801                                                                                                                                                                                                                                                                                                                    
301MX0SGO0000M60        0      S   UDIBONO261203 0         0000030000000000038955290000327999974473007950000000841990843000032821727445600000002172999820000328217274455000000000301000000001000000040014                    00510000041000000000000000                                                                                                
301MX0MGO0000Y40        0      M   BONOS  260305 0         0000030000000000022657740000022891999733007950000000101033906000002290716568300000000151659490000022907165683000000000101000000001000000040014                    00510000041000000000000000                                                                                                
301MXLFGO0001F10        0      LF  BONDESF310320 0         0000030000000000022395910000022248155855007980000000099340263000002226295087900000000147950250000022262950880000000000101000000001000000037009                    00510000041000000000000000                                                                                                
301MXLFGO0001D60        0      LF  BONDESF300321 0         0000030000000000207514620000206551843885007980000000099536044000020668920086100000001373569770000206689200862000000000101000000001000000037009                    00510000041000000000000000                                                                                                
302501010102MX0SGO0000980        0      S   UDIBONO401115 0         2025080100000032917100000074728136300000074744763400000246038085000055850080100100000000100000018040014                    000000001000                    0                                                                                                                       
302502010102MX0MGO0000Y40        0      M   BONOS  260305 0         2025080100001699867400000010100274200000010102521500001717294698450002160080100100000000100000018040014                    000000001000                    0                                                                                                                       
302503010102MX0MGO0000P20        0      M   BONOS  310529 0         2025080100000009148300000009618543000000009620683100000008801289540021270080100100000000100000018040014                    000000001000                    0                                                                                                                       
302504010102MX0MGO0000P20        0      M   BONOS  310529 0         2025080100000260651400000009625113200000009627254800000250935743660021270080100100000000100000018040014                    000000001000                    0                                                                                                                       
302505010102MX0MGO0000R80        0      M   BONOS  421113 0         2025080100001539730300000008496972600000008498863200001308595720990063130080100100000000100000018040014                    000000001000                    0                                                                                                                       
302506010104MXLFGO0000Y40        0      LF  BONDESF260226 0         2025080100002283630900000010019131900000010021372300002288511547490002090080500100000000100000018037009                    000000001000                    0                                                                                                                       
302001010102MX0MGO0000Y40        0      M   BONOS  260305 0         2025080100000226577400000009867001700000010103390600000228919997330002160079500100000000100000018040014                    075302011000                    0                                                                                                                       
302002010102MX0SGO0000M60        0      S   UDIBONO261203 0         2025080100000389552900000083794092800000084199084300003279999744730004890079500100000000100000018040014                    075302011000                    0                                                                                                                       
302003010104MXLFGO0001D60        0      LF  BONDESF300321 0         2025080100002075146200000009920312700000009953604400002065518438850016930079800100000000100000018037009                    075302011000                    0                                                                                                                       
302004010104MXLFGO0001F10        0      LF  BONDESF310320 0         2025080100000223959100000009900734600000009934026300000222481558550020570079800100000000100000018037009                    075302011000                    0                                                                                                                       
302507000207US464286772946428677225925611ISPEWY    *      0         2025080400000013147300000133469590500000133469590500000175406284080000000000000200000001886800008701032                    090502061000                    0                                                                                                                       
3020051202100           0        0      *C  MXPUSD V48    0         2025080400000929649500000001886800000000000000000000000175406284080000000000000200000001886800008701032                    090502061000                    0                                                                                                                       
302508000207US464286772946428677225925611ISPEWY    *      0         2025080400000013917400000133328835200000133328835200000185484849480000000000000200000001886800008701032                    131102061000                    0                                                                                                                       
3020061202100           0        0      *C  MXPUSD V48    0         2025080400000983065700000001886800000000000000000000000185484849480000000000000200000001886800008701032                    131102061000                    0                                                                                                                       
302007000414IE00048964310        0      56SPPBIGEGIIE     0         2025080600000000819500000907131175700000907131175700000074339399810000000000000200000001886800008076000PINEBRIDGE IRELAND L123002991000ME                  0                                                                                                                       
3025091304100           0        0      *C  MXPUSD V48    0         2025080600000393997200000001886800000000000000000000000074339399810000000000000200000001886800008076000PINEBRIDGE IRELAND L123002991000ME                  0                                                                                                                       
3025101301100           0        0      EF  EFECTIV990101 00000000002025080100003033977000000000100000000000000000000000000030339770710000000000000100000000000000018000000                    000000001000                    0                                                                                                                       
3020081201100           0        0      EF  EFECTIV990101 00000000002025080100005897597600000000100000000000000000000000000058975976280000000000000100000000000000018000000                    000000001000                    0                                                                                                                       
3020091203100           0        0      *C  MXPUSD V48    0         2025080500000150106800000001886800000000000000000000000028322158010000000000000200000001886800018040129                    090000002000                    0                                                                                                                       
302010000106MX54SS0C00260        0      54  SSB8084B2     0         2025080100000052537600000001539972800000001539972800000008090647500000000000000100000000100000018801160                    000000001000                    0                                                                                                                       
302511000106MX54SS0C00260        0      54  SSB8084B2     0         2025080100000035302300000001539972800000001539972800000005436458180000000000000100000000100000018801160                    000000001000                    0                                                                                                                       
3030006MX01AC1000060        28238851   AC     *      0         0000027894020000001348638970000037618962438000000195780000000005461091235600000000000000000000001800000000000000000000000000000000000000000000000000000000000000000000000000000000000000000001698192061000000000000000000000000080696350100000000000000000000000000000                  
3030006MX01AC0Q00070        B3QR6F21   ACTINVRB      0         0000032667780000000100727900000003290556766000000018510000000000604680607800000000000000000000001800000000000000000000000000000000000000000000000000000000000000000000000000000000000000000000529900000000000000000000000000000052251950600000000000000000000000000000                  
3030006MXP0005110160        20434231   ALFA   A      0         0000244141180000000129489590000031613742228000000013790000000003366706872200000000000000000000001800000000000000000000000000000000000000000000000000000000000000000000000000000000000000000005558536508000000000000000000000000059921900000000000000000000000000000000                  
3030006MX01AL0C00040        B85H8C91   ALPEK  A      0         0000027541670000000134234420000003697039996000000009090000000000250353780300000000000000000000001800000000000000000000000000000000000000000000000000000000000000000000000000000000000000000002100804135000000000000000000000000211866363500000000000000000000000000000                  
3030006MXP0013910120        25630171   ALSEA  *      0         0000075865220000000565139050000042874398200000000055170000000004185484187400000000000000000000001800000000000000000000000000000000000000000000000000000000000000000000000000000000000000000000803372646000000000000000000000000012169222700000000000000000000000000000                  
3030006MX01AM0500190        0      1   AMX    B      0         0000312383700000000138377280000043226805691000000016920000000005285532204000000000000000000000001800000000000000000000000000000000000000000000000000000000000000000000000000000000000000000060384000000000000000000000000000006323200000000000000000000000000000000000                  
3030006MXP0016610180        26393491   ASUR   B      0         0000014397260000003936616820000056676495843000000575280000000008282455732800000000000000000000001800000000000000000000000000000000000000000000000000000000000000000000000000000000000000000000277050000000000000000000000000000025500000000000000000000000000000000000                  
3030006MXP4952112620        23924711   BIMBO  A      0         0000041986680000000723445500000030375074870000000054870000000002303809131600000000000000000000001800000000000000000000000000000000000000000000000000000000000000000000000000000000000000000004305652842000000000000000000000000142113500000000000000000000000000000000                  
3030006MX01CA1300290        0      1   CADU   A      0         0000025868200000000125027420000003234234231000000003370000000000087175834000000000000000000000001800000000000000000000000000000000000000000000000000000000000000000000000000000000000000000000310875668000000000000000000000000036345837600000000000000000000000000000                  
3030006MXP2256115670        24064571   CEMEX  CPO    0         0000512661620000000115069300000058991611546000000015810000000008105180212200000000000000000000001800000000000000000000000000000000000000000000000000000000000000000000000000000000000000000015137459907000000000000000000000000142083446800000000000000000000000000000                  
3030006MX01CH1700020        B457NQ01   CHDRAUIB      0         0000001195410000001214100280000001451347616000000152780000000000182634739800000000000000000000001800000000000000000000000000000000000000000000000000000000000000000000000000000000000000000000960619212000000000000000000000000095678522100000000000000000000000000000                  
3030006MX01CU0100030        BYM40631   CUERVO *      0         0000067056260000000280085600000018781492541000000023420000000001570457609200000000000000000000001800000000000000000000000000000000000000000000000000000000000000000000000000000000000000000003591176301000000000000000000000000365403969100000000000000000000000000000                  
3030006MXP3203213100        22420591   FEMSA  UBD    0         0000071101010000001649723510000117297007732000000168160000000011956345841600000000000000000000001800000000000000000000000000000000000000000000000000000000000000000000000000000000000000000002022672509000000000000000000000000063989259000000000000000000000000000000                  
3030006MX01GA0000040        B0ZV1041   GAP    B      0         0000003221740000003742459410000012057231184000000430790000000001387893374600000000000000000000001800000000000000000000000000000000000000000000000000000000000000000000000000000000000000000000429485845000000000000000000000000047685000000000000000000000000000000000                  
3030006MX01GC2M00060        29466631   GCC    *      0         0000019618830000001469028030000028820611103000000175720000000003447420807600000000000000000000001800000000000000000000000000000000000000000000000000000000000000000000000000000000000000000000337400000000000000000000000000000014919000700000000000000000000000000000                  
3030006MX01GE0E00040        BHWQZW11   GENTERA*      0         0000109928480000000135804920000014928828443000000042520000000004674158969600000000000000000000001800000000000000000000000000000000000000000000000000000000000000000000000000000000000000000001582743876000000000000000000000000161507145200000000000000000000000000000                  
3030006MXP3707110140        24210411   GFNORTEO      0         0000078745880000000977187850000076949517142000000165120000000013002519705600000000000000000000001800000000000000000000000000000000000000000000000000000000000000000000000000000000000000000002813156594000000000000000000000000048692894800000000000000000000000000000                  
3030006MX01GI0200040        BYYTST51   GICSA  B      0         0000157589970000000141071040000022231380268000000002400000000000378215928000000000000000000000001800000000000000000000000000000000000000000000000000000000000000000000000000000000000000000001500123094000000000000000000000000156819468800000000000000000000000000000                  
3030006MXP3708410190        26436741   GMEXICOB      0         0000101642560000000728117280000074007704126000000118350000000012029396976000000000000000000000001800000000000000000000000000000000000000000000000000000000000000000000000000000000000000000007785000000000000000000000000000000062921501500000000000000000000000000000                  
3030006MX01GM1Z00190        BFLXFS51   GMXT   *      0         0000001125600000000361500000000000406904400000000032120000000000036154272000000000000000000000001800000000000000000000000000000000000000000000000000000000000000000000000000000000000000000004369940022000000000000000000000000412658730200000000000000000000000000000                  
3030006MXP4948K10560        23925451   GRUMA  B      0         0000019711860000002859596140000056367958786000000325720000000006420547039200000000000000000000001800000000000000000000000000000000000000000000000000000000000000000000000000000000000000000000350547122000000000000000000000000042406058600000000000000000000000000000                  
3030006MX01HC0000010        BBL51961   HCITY  *      0         0000126344190000000127262810000016078916735000000004790000000000605188670100000000000000000000001800000000000000000000000000000000000000000000000000000000000000000000000000000000000000000000412327262000000000000000000000000029095712700000000000000000000000000000                  
3030006MXP6069411790        24919141   KIMBER A      0         0000039171150000000299922480000011748308425000000035430000000001387833844500000000000000000000001800000000000000000000000000000000000000000000000000000000000000000000000000000000000000000001571039737000000000000000000000000065119284100000000000000000000000000000                  
3030006MX01KO0000020        0      1   KOF    UBL    0         0000042283740000001339891640000056655629941000000157770000000006671105659800000000000000000000001800000000000000000000000000000000000000000000000000000000000000000000000000000000000000000000525207645000000000000000000000000052520764500000000000000000000000000000                  
3030006MX01LA0100060        B3B1C731   LAB    B      0         0000033737110000000212000000000007152267320000000021260000000000717250958600000000000000000000001800000000000000000000000000000000000000000000000000000000000000000000000000000000000000000001000000000000000000000000000000000053215191300000000000000000000000000000                  
3030006MXP3691813770        23068141   LIVEPOLC-1    0         0000008001350000000951701350000007614895622000000091510000000000732203538500000000000000000000001800000000000000000000000000000000000000000000000000000000000000000000000000000000000000000000197446100000000000000000000000000019744610000000000000000000000000000000                  
3030006MXP5101212150        24495261   MEDICA B      0         0000005083810000000000000000000000000000001000000044000000000000223687640000000000000000000000001800000000000000000000000000000000000000000000000000000000000000000000000000000000000000000000107938972000000000000000000000000001624585700000000000000000000000000000                  
3030006MX01ME0900030        B292SM81   MEGA   CPO    0         0000032929290000000405844650000013364176172000000052670000000001734385704300000000000000000000001800000000000000000000000000000000000000000000000000000000000000000000000000000000000000000000471269508000000000000000000000000019795590300000000000000000000000000000                  
3030006MX01OM0000180        B1KFX131   OMA    B      0         0000012081140000001186470220000014333912836000000248450000000003001559233000000000000000000000001800000000000000000000000000000000000000000000000000000000000000000000000000000000000000000000340345556000000000000000000000000034120000000000000000000000000000000000                  
3030006MX01OR0100040        24347601   ORBIA  *      0         0000044787500000000274100430000012276273018000000012610000000000564770375000000000000000000000001800000000000000000000000000000000000000000000000000000000000000000000000000000000000000000001968000000000000000000000000000000042701741600000000000000000000000000000                  
3030006MX01PI0000050        23933881   PINFRA *      0         0000006253740000001563056650000009774949893000000230210000000001439673485400000000000000000000001800000000000000000000000000000000000000000000000000000000000000000000000000000000000000000000380123523000000000000000000000000038012352300000000000000000000000000000                  
3030006MX01R00000060        BG1Z6X01   R      A      0         0000008094310000001243129520000010062275702000000143650000000001162747631500000000000000000000001800000000000000000000000000000000000000000000000000000000000000000000000000000000000000000000327931333000000000000000000000000032793133300000000000000000000000000000                  
3030006MX01RL0000160        0      1   RLH    A      0         0000143316060000000139069880000019930947797000000016978319000002433265784500000000000000000000001800000000000000000000000000000000000000000000000000000000000000000000000000000000000000000001249145002000000000000000000000000002976897700000000000000000000000000000                  
3030006MX01SP0200010        0      1   SPORT  S      0         0000038819960000000061154470000002374013901000000006600000000000256211736000000000000000000000001800000000000000000000000000000000000000000000000000000000000000000000000000000000000000000000242285867000000000000000000000000008740305700000000000000000000000000000                  
3030006MX01TE0A00010        0      1   TEAK   CPO    0         0000095814220000000107627820000010312276084000000000290000000000027786123800000000000000000000001800000000000000000000000000000000000000000000000000000000000000000000000000000000000000000000374359656000000000000000000000000007710184900000000000000000000000000000                  
3030006MX01TR0H00060        0      1   TRAXIONA      0         0000086417040000000212013630000018321590180000000016090000000001390450173600000000000000000000001800000000000000000000000000000000000000000000000000000000000000000000000000000000000000000000560361270000000000000000000000000030434782600000000000000000000000000000                  
3030006MX01VE0M00030        B8F6ZF81   VESTA  *      0         0000155325060000000421862940000065525886157000000052930000000008221355425800000000000000000000001800000000000000000000000000000000000000000000000000000000000000000000000000000000000000000000882613451000000000000000000000000039795441700000000000000000000000000000                  
3030006MX01VI0500020        0      1   VINTE  *      0         0000044854880000000230182580000010324812044000000030000000000001345646400000000000000000000000001800000000000000000000000000000000000000000000000000000000000000000000000000000000000000000000279148124000000000000000000000000018956597700000000000000000000000000000                  
3030006MX01VI0C00060        0      1   VISTA  A      0         0000005870410000003478461650000020419996055000000820000000000004813736200000000000000000000000001800000000000000000000000000000000000000000000000000000000000000000000000000000000000000000000105448223000000000000000000000000012247066700000000000000000000000000000                  
3030006MX01VO0000090        BDZDPH61   VOLAR  A      0         0000089970870000000092190910000008294496784000000010780000000000969885978600000000000000000000001800000000000000000000000000000000000000000000000000000000000000000000000000000000000000000001165976677000000000000000000000000087785621900000000000000000000000000000                  
3030006MX01WA0000380        BW1YVH81   WALMEX *      0         0000245120710000000577577850000141576292084000000055300000000013555175263000000000000000000000001800000000000000000000000000000000000000000000000000000000000000000000000000000000000000000017343972303000000000000000000000000390912472400000000000000000000000000000                  
3030006MX41BB0000000        BYSX0F341  BBAJIO O      0         0000026045100000000412989980000010756365271000000042380000000001103791338000000000000000000000001800000000000000000000000000000000000000000000000000000000000000000000000000000000000000000001189931687000000000000000000000000109381742500000000000000000000000000000                  
3030006MX01CT0G00090        0      1   CTALPEKA      0         0000086112990000000025721970000002214995410000000002700000000000232505073000000000000000000000001800000000000000000000000000000000000000000000000000000000000000000000000000000000000000000005558536508000000000000000000000000555853650800000000000000000000000000000                  
3030007US46641Q225946641Q225BDR8GT81ISPBBCA   *      0         0000002555610000010168049440000025985568832000001511088000000003861751603700000000000000000000000800000000000000000000000000000000000000000000000000000000000000000000000000000000000000000000102049000000000000000000000000000009810000000000000000000000000000000000                  
3030007US97717X719497717X719B8FJDP31ISPCXSE   *      0         0000007027580000010203083560000071702985990000000688457359000004838189167000000000000000000000000800000000000000000000000000000000000000000000000000000000000000000000000000000000000000000000012300000000000000000000000000000000187500000000000000000000000000000000                  
3030007US4642866408464286640B29FC811ISPECH    *      0         0000012398280000005004159390000062042969317000000566280228000007020900825200000000000000000000000800000000000000000000000000000000000000000000000000000000000000000000000000000000000000000000019750000000000000000000000000000000145000000000000000000000000000000000                  
3030007US46429B523246429B523B58PLP31ISPEDEN   *      0         0000000769950000016749351940000012896163527000001976416216000001521741665500000000000000000000000800000000000000000000000000000000000000000000000000000000000000000000000000000000000000000000001700000000000000000000000000000000120000000000000000000000000000000000                  
3030007US464286806546428680623737111ISPEWG    *      0         0000000549190000007605069350000004176628035000000769710450000000422717282000000000000000000000000800000000000000000000000000000000000000000000000000000000000000000000000000000000000000000000067800000000000000000000000000000003360000000000000000000000000000000000                  
3030007US464286871946428687123737771ISPEWH    *      0         0000001365250000003161276050000004315932128000000384005238000000524263151200000000000000000000000800000000000000000000000000000000000000000000000000000000000000000000000000000000000000000000032625000000000000000000000000000005355000000000000000000000000000000000                  
3030007US46434G822646434G822BDR7G841ISPEWJ    *      0         0000010951970000013468871590000147510677626000001399078602000015322666876700000000000000000000000800000000000000000000000000000000000000000000000000000000000000000000000000000000000000000000207600000000000000000000000000000097440000000000000000000000000000000000                  
3030007US464286814946428681423738291ISPEWN    *      0         0000001179290000008868875200000010458975830000000960485310000001132690721200000000000000000000000800000000000000000000000000000000000000000000000000000000000000000000000000000000000000000000004850000000000000000000000000000000455000000000000000000000000000000000                  
3030007US46434G772346434G772BDR79W91ISPEWT    *      0         0000002982190000008273305390000024672568614000001102905354000003289073317600000000000000000000000800000000000000000000000000000000000000000000000000000000000000000000000000000000000000000000105300000000000000000000000000000015820000000000000000000000000000000000                  
3030007US464286772946428677225925611ISPEWY    *      0         0000010524670000011353924110000119496304507000001334479590000014044957306500000000000000000000000800000000000000000000000000000000000000000000000000000000000000000000000000000000000000000000071750000000000000000000000000000003940000000000000000000000000000000000                  
3030007US464286400746428640027260141ISPEWZ    *      0         0000022872810000004956751960000113374845752000000503381190000011513742316400000000000000000000000800000000000000000000000000000000000000000000000000000000000000000000000000000000000000000000186050000000000000000000000000000006290000000000000000000000000000000000                  
3030007US35473P744635473P744BZ5Z6M81ISPFLJP   *      0         0000010886210000005474749300000059599270591000000603490770000006569727255300000000000000000000000800000000000000000000000000000000000000000000000000000000000000000000000000000000000000000000067200000000000000000000000000000000900000000000000000000000000000000000                  
3030007US78463X541878463X541B67PZT31ISPGNR    *      0         0000006606960000009924569680000065571234894000001024328778000006767699263100000000000000000000000800000000000000000000000000000000000000000000000000000000000000000000000000000000000000000000058550000000000000000000000000000006002500000000000000000000000000000000                  
3030007US46429B598446429B598B6XGR721ISPINDA   *      0         0000000815660000010200831380000008320410122000000995806992000000812239931100000000000000000000000800000000000000000000000000000000000000000000000000000000000000000000000000000000000000000000189050000000000000000000000000000001780000000000000000000000000000000000                  
3030007US464287200046428720025930251ISPIVV    *      0         0000000092890000115781840810000010754975193000011798763990000001095987187000000000000000000000000800000000000000000000000000000000000000000000000000000000000000000000000000000000000000000001007300000000000000000000000000000011585000000000000000000000000000000000                  
3030007US46429B671946429B671B5LX1Z41ISPMCHI   *      0         0000033178470000009795765890000325008524834000001067583672000035420792833900000000000000000000000800000000000000000000000000000000000000000000000000000000000000000000000000000000000000000000122400000000000000000000000000000000120000000000000000000000000000000000                  
3030007IE00BZCQB1850        BZCQB181ISPNDIA   N      0         0000004770120000001358128240000006478434701000000178459493000000851273196700000000000000000000001400000000000000000000000000000000000000000000000000000000000000000000000000000000000000000000565200000000000000000000000000000001620000000000000000000000000000000000                  
3030007US46434G855646434G855BD73LP41ISPRING   *      0         0000021390190000006511232450000139276499220000000839976042000017967247133800000000000000000000000800000000000000000000000000000000000000000000000000000000000000000000000000000000000000000000034000000000000000000000000000000001570000000000000000000000000000000000                  
3030007US92204A801892204A80123542881ISPVAW    *      0         0000000438520000031637743050000013873783082000003649466406000001600364008400000000000000000000000800000000000000000000000000000000000000000000000000000000000000000000000000000000000000000000013918700000000000000000000000000000400662000000000000000000000000000000                  
3030007US92204A108892204A10823555261ISPVCR    *      0         0000000426350000046940714250000020013173519000006792529446000002895994929300000000000000000000000800000000000000000000000000000000000000000000000000000000000000000000000000000000000000000000016624300000000000000000000000000000260221000000000000000000000000000000                  
3030007US92204A405892204A40523540391ISPVFH    *      0         0000002712020000021225662080000057564420074000002365419378000006415064661500000000000000000000000800000000000000000000000000000000000000000000000000000000000000000000000000000000000000000000098495600000000000000000000000000000671332000000000000000000000000000000                  
3030007US92204A702892204A70223542661ISPVGT    *      0         0000000954350000087907350270000083894379731000012738471840000012156960600500000000000000000000000800000000000000000000000000000000000000000000000000000000000000000000000000000000000000000000142839000000000000000000000000000000940451000000000000000000000000000000                  
3030007US92204A504892204A50423542001ISPVHT    *      0         0000000636330000046009997720000029277541850000004578785526000002913618593800000000000000000000000800000000000000000000000000000000000000000000000000000000000000000000000000000000000000000000061270700000000000000000000000000000820263000000000000000000000000000000                  
3030007US92204A603892204A603B031N991ISPVIS    *      0         0000000921710000033676105620000031039603308000005390806440000004968760203800000000000000000000000800000000000000000000000000000000000000000000000000000000000000000000000000000000000000000000021025100000000000000000000000000000320130000000000000000000000000000000                  
3030007US46432F388146432F388B8PLRM41ISPVLUE   *      0         0000000352970000017175119850000006062302052000002107023330000000743716024800000000000000000000000800000000000000000000000000000000000000000000000000000000000000000000000000000000000000000000058550000000000000000000000000000001040000000000000000000000000000000000                  
3030007US92204A884492204A884B031NG61ISPVOX    *      0         0000003148170000029750684350000093660211964000003239206014000010197571197100000000000000000000000800000000000000000000000000000000000000000000000000000000000000000000000000000000000000000000030691700000000000000000000000000000310000000000000000000000000000000000                  
3030007US92204A876092204A87623543071ISPVPU    *      0         0000000338470000027292092570000009237554571000003500057580000001184664489100000000000000000000000800000000000000000000000000000000000000000000000000000000000000000000000000000000000000000000039768600000000000000000000000000000361930000000000000000000000000000000                  
3030007US922908744392290874423536381ISPVTV    *      0         0000000910130000030396183910000027664478858000003315138186000003017206717200000000000000000000000800000000000000000000000000000000000000000000000000000000000000000000000000000000000000000000785901000000000000000000000000000002796970000000000000000000000000000000                  
3030007US81369Y852781369Y852BFXHC511ISPXLC    *      0         0000000022900000011733577860000000268698933000002004458232000000045902093500000000000000000000000800000000000000000000000000000000000000000000000000000000000000000000000000000000000000000000221850000000000000000000000000000003820000000000000000000000000000000000                  
3030007US81369Y803081369Y80323697091ISPXLK    *      0         0000000029830000016403069130000000489303552000004855692402000000144845304400000000000000000000000800000000000000000000000000000000000000000000000000000000000000000000000000000000000000000000319706000000000000000000000000000008850360000000000000000000000000000000                  
3030007US81369Y308081369Y30823693891ISPXLP    *      0         0000001069100000012964341110000013860177077000001514110176000001618735189200000000000000000000000800000000000000000000000000000000000000000000000000000000000000000000000000000000000000000000198922000000000000000000000000000006115540000000000000000000000000000000                  
3030007FR00133806070        0      1ISPCACC   N      0         0000004277960000006473626530000027693915341000000810234950000003466152706700000000000000000000001000000000000000000000000000000000000000000000000000000000000000000000000000000000000000000000014840800000000000000000000000000000148984000000000000000000000000000000                  
3030007US46138G649246138G6490      1ISPQQQM   *      0         0000004268680000041822060510000178524993272000004306978572000018385113290700000000000000000000000800000000000000000000000000000000000000000000000000000000000000000000000000000000000000000000240100000000000000000000000000000006879000000000000000000000000000000000                  
3030007US33737A108833737A1080      1ISPGRID   *      0         0000000682030000026228324160000017888503924000002666125890000001818377840800000000000000000000000800000000000000000000000000000000000000000000000000000000000000000000000000000000000000000000020650000000000000000000000000000000070000200000000000000000000000000000                  
3030002MX2UCB1700010        0      2U  CBIC002300117 0         0000007132730000006937426330000049482788880000000923511569000006587158673600000001045546950016271800510000041000004103700510360000000000000000000000000000000000000000000000000010000000000000034826576000000000001000000000000003500000000000000000000000000000000000                  
3030002MX2UCB1900090        0      2U  CBIC004310116 0         0000024454980000007519262250000183883408049000000907314066000022188347337700000003584718570019911800510000041000005100000410000000000000000000000000000000000000000000000000000010000000000000053191253000000000001000000000000007000000000000000000000000000000000000                  
3030002MX2UCB1D00040        0      2U  CBIC006321125 0         0000013109050000006996263390000091714366548000000889295962000011657825230700000010481357970026701800510000041000004103700510360000000000000000000000000000000000000000000000000010000000000000021500000000000000001000000000000003500000000000000000000000000000000000                  
3030002MX2UCB1J00160        0      2U  CBIC009331124 0         0000032355120000006466736320000209232029593000000794490613000025705839122500000018396144110030341800510000041000004103700510360000000000000000000000000000000000000000000000000010000000000000032750000000000000001000000000000006000000000000000000000000000000000000                  
3030002MX0SGO0000M60        0      S   UDIBONO261203 0         0000000055590000007318286800000000406823563000000840023241000000046696892000000000023705100004861800410030051000004103700510360000000000000000000000000000000000000000000000000010000000000000442826000000000000001000000000000000200000000000000000000000000000000000                  
3030002MX0SGO0000F00        0      S   UDIBONO281130 0         0000065339420000006739794080000440374236218000000838039759000054757031790000000037150020960012141800610000051000004103700510360000000000000000000000000000000000000000000000000010000000000000464040000000000000001000000000000003000000000000000000000000000000000000                  
3030702MX0SGO0000F00        0      S   UDIBONO281130 0         0000005948770000006739794080000040093484831000000838039759000004985305777100000003382290970012141800610000051000004103700510360000000000000000000000000000000000000000000000000010000000000000464040000000000000001000000000000003000000000000000000000000000000000000                  
3030002MX0SGO0000K00        0      S   UDIBONO311127 0         0000110629130000006757605680000747588036930000000756962051000083742053145100000043244008700023061800410030061000004103700510360000000000000000000000000000000000000000000000000010000000000000636705000000000000001000000000000002500000000000000000000000000000000000                  
3030002MX0SGO0000P90        0      S   UDIBONO340824 0         0000039605130000007549633620000299004220937000000797198103000031573134505100000056671008240033071800510000041000004103700510360000000000000000000000000000000000000000000000000010000000000000297765000000000000001000000000000001800000000000000000000000000000000000                  
3030002MX0SGO0000230        0      S   UDIBONO351122 0         0000107678790000007816757630000841699003117000000829581752000089328359261400000068875768910037621800510000041000004103700510360000000000000000000000000000000000000000000000000010000000000000539089000000000000001000000000000000200000000000000000000000000000000000                  
3030702MX0SGO0000230        0      S   UDIBONO351122 0         0000004634440000007793034200000036116349413000000829581752000003844646854700000002964377840037621800510000041000004103700510360000000000000000000000000000000000000000000000000010000000000000539089000000000000001000000000000000200000000000000000000000000000000000                  
3030002MX0SGO0000980        0      S   UDIBONO401115 0         0000006993540000006994972550000048919620336000000775311910000005422174855100000003976315640055821800510000041000004103700510360000000000000000000000000000000000000000000000000010000000000000467617000000000000001000000000000003500000000000000000000000000000000000                  
3030002MX0SGO0000N40        0      S   UDIBONO431112 0         0000067390830000006420120150000432657225541000000683599969000046068369298900000031132070000066741800510000041000004103700510360000000000000000000000000000000000000000000000000010000000000000358583000000000000001000000000000001700000000000000000000000000000000000                  
3030002MX0SGO0000E30        0      S   UDIBONO461108 0         0000019355740000007148586000000138366172067000000766003661000014826567701400000011005089220077661800610000051000004103700510360000000000000000000000000000000000000000000000000010000000000000425969000000000000001000000000000003000000000000000000000000000000000000                  
3030002MX0SGO0000H60        0      S   UDIBONO501103 0         0000088610320000007251023670000642515527983000000756296659000067015688968900000050381151920092221800510000041000004103700510360000000000000000000000000000000000000000000000000010000000000000678392000000000000001000000000000003000000000000000000000000000000000000                  
3030002MX0SGO0000Q70        0      S   UDIBONO541029 0         0000041475550000006720875230000278751996480000000748539483000031046086754100000023581745170106781800510000041000004103700510360000000000000000000000000000000000000000000000000010000000000000285173000000000000001000000000000001200000000000000000000000000000000000                  
3030001MXSPGO0000650        0      SP  UDIBONO351122 0         0000015643120000000429515710000006718965779000000051650522000000807975313700000000000000000037621800510000041000004103700510360000000000000000000000000000000000000000000000000001000000000000296016000000000000000100000000000000367200000000000000000000000000000000                  
3030001MXSCGO0001R80        0      SC  UDIBONO251204 0         0000000085510000000248786430000000021273728000000084105870000000007191892900000000000000000001221800510000041000004103700510360000000000000000000000000000000000000000000000000001000000000000009610510000000000000100000000000000014159600000000000000000000000000000                  
3030001MXSCGO0001S60        0      SC  UDIBONO260604 0         0000000085510000000241439260000000020645471000000082375411000000007043921400000000000000000003041800510000041000004103700510360000000000000000000000000000000000000000000000000001000000000000009481654000000000000100000000000000008353800000000000000000000000000000                  
3030001MXSCGO0001T40        0      SC  UDIBONO261203 0         0000000085510000000235324480000000020122596000000080680153000000006898959900000000000000000004861800510000041000004103700510360000000000000000000000000000000000000000000000000001000000000000009481654000000000000100000000000000008353800000000000000000000000000000                  
3030001MXSCGO0001U20        0      SC  UDIBONO270603 0         0000000085510000000229271100000000019604972000000078872116000000006744354600000000000000000006681800510000041000004103700510360000000000000000000000000000000000000000000000000001000000000000009258704000000000000100000000000000008353800000000000000000000000000000                  
3030001MXSCGO0001V00        0      SC  UDIBONO271202 0         0000000085510000000223282770000000019092910000000077022923000000006586230100000000000000000008501800510000041000004103700510360000000000000000000000000000000000000000000000000001000000000000009258704000000000000100000000000000008353800000000000000000000000000000                  
3030001MXSCGO0001W80        0      SC  UDIBONO280601 0         0000000085510000000217362800000000018586693000000075139237000000006425156200000000000000000010321800510000041000004103700510360000000000000000000000000000000000000000000000000001000000000000009258704000000000000100000000000000008353800000000000000000000000000000                  
3030001MXSCGO0001X60        0      SC  UDIBONO281130 0         0000000085510000000211514610000000018086614000000073225870000000006261544100000000000000000012141800510000041000004103700510360000000000000000000000000000000000000000000000000001000000000000009258704000000000000100000000000000008353800000000000000000000000000000                  
3030001MXSCGO0001Y40        0      SC  UDIBONO290531 0         0000000085510000000205741190000000017592929000000071571059000000006120041300000000000000000013961800510000041000004103700510360000000000000000000000000000000000000000000000000001000000000000009255610000000000000100000000000000008353800000000000000000000000000000                  
3030001MXSCGO0001Z10        0      SC  UDIBONO291129 0         0000000085510000000200045450000000017105886000000069872637000000005974809200000000000000000015781800510000041000004103700510360000000000000000000000000000000000000000000000000001000000000000009255610000000000000100000000000000008353800000000000000000000000000000                  
3030001MXSCGO0002010        0      SC  UDIBONO300530 0         0000000085510000000194429940000000016625704000000068096205000000005822906500000000000000000017601800510000041000004103700510360000000000000000000000000000000000000000000000000001000000000000009255610000000000000100000000000000008353800000000000000000000000000000                  
3030001MXSCGO0002190        0      SC  UDIBONO301128 0         0000000085510000000188897250000000016152604000000066327141000000005671633800000000000000000019421800510000041000004103700510360000000000000000000000000000000000000000000000000001000000000000009255610000000000000100000000000000008353800000000000000000000000000000                  
3030001MXSCGO0002270        0      SC  UDIBONO310529 0         0000000085510000000183449660000000015686780000000064567276000000005521147800000000000000000021241800510000041000004103700510360000000000000000000000000000000000000000000000000001000000000000009255610000000000000100000000000000008353800000000000000000000000000000                  
3030001MXSCGO0002350        0      SC  UDIBONO311127 0         0000000085510000000178089150000000015228403000000062818370000000005371598800000000000000000023061800510000041000004103700510360000000000000000000000000000000000000000000000000001000000000000009255610000000000000100000000000000008353800000000000000000000000000000                  
3030001MXSCGO0002430        0      SC  UDIBONO320527 0         0000000085510000000172817820000000014777652000000061247289000000005237255700000000000000000024881800510000041000004103700510360000000000000000000000000000000000000000000000000001000000000000008290646000000000000100000000000000008353800000000000000000000000000000                  
3030001MXSCGO0002500        0      SC  UDIBONO321125 0         0000000085510000000167637260000000014334662000000059707963000000005105627900000000000000000026701800510000041000004103700510360000000000000000000000000000000000000000000000000001000000000000008290646000000000000100000000000000008353800000000000000000000000000000                  
3030001MXSCGO0002680        0      SC  UDIBONO330526 0         0000000085510000000165987920000000014193627000000058197539000000004976471600000000000000000028521800510000041000004103700510360000000000000000000000000000000000000000000000000001000000000000008290646000000000000100000000000000008353800000000000000000000000000000                  
3030001MXSCGO0002760        0      SC  UDIBONO331124 0         0000000085510000000164471980000000014063999000000056715789000000004849767100000000000000000030341800510000041000004103700510360000000000000000000000000000000000000000000000000001000000000000008290646000000000000100000000000000008353800000000000000000000000000000                  
3030001MXSCGO0002840        0      SC  UDIBONO340525 0         0000000085510000000159641280000000013650926000000055262477000000004725494400000000000000000032161800510000041000004103700510360000000000000000000000000000000000000000000000000001000000000000008290646000000000000100000000000000008353800000000000000000000000000000                  
3030001MXSCGO0002920        0      SC  UDIBONO341123 0         0000000085510000000154855030000000013241654000000053944338000000004612780300000000000000000033981800510000041000004103700510360000000000000000000000000000000000000000000000000001000000000000008290646000000000000100000000000000008353800000000000000000000000000000                  
3030001MXSCGO0002A20        0      SC  UDIBONO350524 0         0000000085510000000150153490000000012839625000000052777784000000004513028300000000000000000035801800510000041000004103700510360000000000000000000000000000000000000000000000000001000000000000008290646000000000000100000000000000008353800000000000000000000000000000                  
3030001MXSCGO0002B00        0      SC  UDIBONO351122 0         0000000085510000000146338870000000012513437000000051650522000000004416636100000000000000000037621800610000051000004103700510360000000000000000000000000000000000000000000000000001000000000000008290646000000000000100000000000000008353800000000000000000000000000000                  
3030002MX95FO0M00070        0      95  FONADIN20-2U  0         0000007786640000006633615790000051653578055000000684301704000005328411020400000000681795860056311800000000000000004103700510360000000000000000000000000000000000000000000000000010000000000000014204714000000000001000000000000000440286000000000000000000000000000000                  
3030002MX95FO0M00150        0      95  FONADIN20-3U  0         0000012305340000006660149790000081955407635000000638434955000007856159189200000006034434140092221800000000000000004103700510360000000000000000000000000000000000000000000000000010000000000000017359153000000000001000000000000000630278900000000000000000000000000000                  
3030002MX95FO0M00310        0      95  FONADIN21-2U  0         0000002161500000006803309000000014705352404000000675540942000001460181746100000000202778960076331800000000000000004103700510360000000000000000000000000000000000000000000000000010000000000000014945663000000000001000000000000001494566300000000000000000000000000000                  
3030002MX95FO0M00640        0      95  FONADIN22-2U  0         0000004025560000007471363000000030076420038000000723513956000002912548840700000002403252480099501800000000000000005100000410000000000000000000000000000000000000000000000000000010000000000000022448775000000000001000000000000000869988500000000000000000000000000000                  
3030002MX95FO0M00560        0      95  FONADIN22U    0         0000006195420000007471363000000046288231757000000747453295000004630787092900000003645816950066741800000000000000005100000410000000000000000000000000000000000000000000000000000010000000000000009369107000000000001000000000000000936910700000000000000000000000000000                  
3030002MX95FO0M00720        0      95  FONADIN23-2U  0         0000005458430000007914336000000043199849053000000841218534000004591732482500000003972477780070381800510000041000004103700510360000000000000000000000000000000000000000000000000010000000000000004286964000000000001000000000000000428696400000000000000000000000000000                  
3030002MX0SGO0000S30        0      S   UDIBONO290830 0         0000002206210000008049639850000017759195929000000835031601000001842255068400000003156867430014871800000000000000004103700510360000000000000000000000000000000000000000000000000010000000000000101775000000000000001000000000000001300000000000000000000000000000000000                  
3030003MX2USH0200040        0      2U  SHF0002280929 0         0000000893830000000775969400000000693584733000000183814628000000164299028900000000266377790011521800610000041000004100000000000000000000000000000000000000000000000000000000000002193880200000006040334000000000001000000000000000604033400000000000000000000000000000                  
3030002MX94BA0A0010EG16303180      94  BACOMER07U    0         0000002365200000003981918040000009418032543000000850188167000002010865052600000000610754950003391800510000041000005100000410000000000000000000000000000000000000000000000000000010000000000000022403077000000000001000000000000001718696800000000000000000000000000000                  
3030002MX94BA0700A80        0      94  BANORTE23U    0         0000000240000000007791609000000001869986160000000825052921000000198012701000000000196907090028381800610000011000000000000000000000000000000000000000000000000000000000000000000010000000000000002758022000000000001000000000000000275802200000000000000000000000000000                  
3030002MX94BA0700E00        0      94  BANORTE24UX   0         0000001250000000008100843000000010126053750000000835938475000001044923093800000002437743000031081800510000041000000000000000000000000000000000000000000000000000000000000000000010000000000000006479693000000000001000000000000000647969300000000000000000000000000000                  
3030002MXCDBA1C00610        0      CD  BANOB  19UX   0         0000000862080000006260395990000005396962179000000797391197000000687415003100000000493338640032151800510000041000005100000410000000000000000000000000000000000000000000000000000010000000000000004153091000000000001000000000000000415309100000000000000000000000000000                  
3030002MXCDBA1C00I60        0      CD  BANOB  21U    0         0000001000000000006902550000000006902550000000000727290471000000727290471000000001131809300040391800510000041000005100000410000000000000000000000000000000000000000000000000000010000000000000003621849000000000001000000000000000362184900000000000000000000000000000                  
3030002MXCDBA1C01030        0      CD  BANOB  24U    0         0000001559500000008336024000000013000029428000000891588632000001390432471600000001160670200034021800510000041000005103100410310000000000000000000000000000000000000000000000000010000000000000002159302000000000001000000000000000215930200000000000000000000000000000                  
3030003MX91CA1500020        0      91  CAMSCB 13U    0         0000004718400000004973746720000023468126538000000670567896000003164007560500000001772854810045301800610000041000004100300110030000000000000000000000000000000000000000000000000007680434300000008540986000000000001000000000000000854098600000000000000000000000000000                  
3030002MX91CA1100140        0      91  CASCB  22U    0         0000002500000000007425003820000018562509541000000825612024000002064030060000000003015880750097811800610000041000005103100410310000000000000000000000000000000000000000000000000009777000000000006847188000000000001000000000000000684718800000000000000000000000000000                  
3030002MX91FU0000280        0      91  FUNO   13U    0         0000001779360000005050367000000008986421028000000808108364000001437915698600000001351744740012111800610000041000000000000000000000000000000000000000000000000000000000000000000010000000000000004257000000000000001000000000000000425700000000000000000000000000000000                  
3030002MX91FU0000770        0      91  FUNO   16U    0         0000000501320000005449838000000002732112788000000827970255000000415078048200000000671970980006051800610000041000000000000000000000000000000000000000000000000000000000000000000010000000000000004578783000000000001000000000000000457878300000000000000000000000000000                  
3030003MX91IP3A00160        0      91  IPORCB 19U    0         0000000360000000005781117530000002081202309000000520434778000000187356520100000000324178490165591800610000041000004100300110030000000000000000000000000000000000000000000000000007238533100000002867454000000000001000000000000000286745400000000000000000000000000000                  
3030003MX91MA0B00040        0      91  MAYACB 12U    0         0000001184330000001401081210000001659342508000000189454877000000224377094500000000134677630032521800510010041000000000000000000000000000000000000000000000000000000000000000000002364581300000006855130000000000001000000000000000685513000000000000000000000000000000                  
3030003MX91OP0900090        0      91  OPI    15U    0         0000000589980000004596886540000002712071121000000667812516000000393996028200000001051085300035101800110020061001004102600000000000000000000000000000000000000000000000000000000007620000000000007739080000000000001000000000000000849983800000000000000000000000000000                  
3030003MX91RC0900190        0      91  RCO    12U    0         0000000225510000002849945010000000642691100000000500412616000000112848049000000000290230850025631800410000011000001103400410330000000000000000000000000000000000000000000000000005913000000000004107494000000000001000000000000001102518200000000000000000000000000000                  
3030003MX91RC0900350        0      91  RCO    18U    0         0000006819290000006503309460000044347953194000000853384462000005819476127900000016878120540053031800410000011000001103400410330000000000000000000000000000000000000000000000000009950000000000024914510000000000001000000000000001341055700000000000000000000000000000                  
3030002MX95CF0500I90        0      95  CFE    21-2U  0         0000001500000000007081298000000010621947000000000819845531000001229768296500000000980569650023121800510000041000004103700510360000000000000000000000000000000000000000000000000010000000000000005931115000000000001000000000000000593111500000000000000000000000000000                  
3030003MX95MX0E00120        0      95  MXPUCB 18U    0         0000001734000000006460523170000011202547178000000697936128000001210221246000000000177822050045571800610000041000004102600000000000000000000000000000000000000000000000000000000008538000000000027376210000000000001000000000000002117794600000000000000000000000000000                  
3030003MX95TF0300810        0      95  TFOVICB20-2U  0         0000000400000000002919385770000001167754307000000340702213000000136280885200000000007415080089741800610000041000001100000000000000000000000000000000000000000000000000000000000004349624200000012108569000000000001000000000000001210856900000000000000000000000000000                  
3030005MX95TF0300990        0      95  TFOVICB21U    0         0000000700000000004346193760000003042335630000000519016630000000363311641000000000022950690093091800610000041000001100000000000000000000000000000000000000000000000000000000000006256629200000014395651000000000001000000000000001439565100000000000000000000000000000                  
3030003XS10032651510        0      D2  CONM151351215 0         0000000240550000122348659040000029430969932000016451457318000003957398057800000003390743010037851700410360011036004103600110360000000000000000000000000000000000000000000000000200000000000000000816812000000000020000000000000000081681200000000000000000000000000000                  
3030003MX90CH1800780        0      90  CHIHCB 13U    0         0000001850000000006654453710000012310739369000000695804673000001287238645100000003513846530047601800610000041000004100600000000000000000000000000000000000000000000000000000000008020700000000024256800000000000001000000000000002425680000000000000000000000000000000                  
3030003MX90MY0100170        0      90  MYCTACB18-2U  0         0000007102380000005733253710000040719746517000000753416298000005351048846600000005941576250083371800610000011000004100300110020000000000000000000000000000000000000000000000000009548750800000007927006000000000001000000000000000792700600000000000000000000000000000                  
3030003MX90MY0100090        0      90  MYCTACB18U    0         0000001460710000005729443040000008369054736000000671324224000000980610007200000000979914380046841800610000011000004100300110020000000000000000000000000000000000000000000000000008098750800000004163343000000000001000000000000000416334300000000000000000000000000000                  
3030003MX90PA0D00070        0      90  PAMMCB 14U    0         0000002803470000003188765750000008939609104000000383899121000001076249668700000002234209720068141800610000011000004100300110020000000000000000000000000000000000000000000000000004449730000000012487407000000000001000000000000001248740700000000000000000000000000000                  
3030003MX95CD0000020        0      95  CDVITOT11U    0         0000000500890000000230017930000000115213681000000040186729000000020129130700000000003778410050981800510000011000001100000000000000000000000000000000000000000000000000000000000000505425100000004381081000000000001000000000000000438108100000000000000000000000000000                  
3030003MX95CD0000770        0      95  CDVITOT14U    0         0000000248160000000164425600000000040803856000000023846192000000005917671000000000000603030061951800610000051000001100000000000000000000000000000000000000000000000000000000000000294242300000005541417000000000001000000000000000554141700000000000000000000000000000                  
3030003MX95CD0000930        0      95  CDVITOT15U    0         0000000549170000000490546990000000269393690000000073326181000000040268538800000000043026700066221800610000011000001100000000000000000000000000000000000000000000000000000000000000862144200000007583978000000000001000000000000000758397800000000000000000000000000000                  
3030003MX95CE0901350        0      95  CEDEVIS13U    0         0000000497720000000482685010000000240241982000000083989610000000041803308700000000063361050056791800610000051000001100000000000000000000000000000000000000000000000000000000000000986885300000006333531000000000001000000000000000633353100000000000000000000000000000                  
3030002MX95CF0500A60        0      95  CFE    17U    0         0000002916440000005776550880000016846964036000000786751830000002294514507100000003638643000026141800410000011000004103700510360000000000000000000000000000000000000000000000000010000000000000022864142000000000001000000000000000944092800000000000000000000000000000                  
3030002MX95CF0500D00        0      95  CFE    20U    0         0000001800000000006554856000000011798740800000000834577034000001502238661200000002176058700011661800410000011000004103700510360000000000000000000000000000000000000000000000000010000000000000005682979000000000001000000000000000568297900000000000000000000000000000                  
3030002MX95CF0500T60        0      95  CFE    23UX   0         0000000400000000007974487000000003189794800000000872965099000000349186039600000000323705720037661800510000041000004103700510360000000000000000000000000000000000000000000000000010000000000000005823507000000000001000000000000000582350700000000000000000000000000000                  
3030003MX95FH0300020        0      95  FHIPOCB17U    0         0000002507920000001900856760000004767196675000000270840679000000679246755700000000510557840080081800610000041000001100500410030000000000000000000000000000000000000000000000000003302693100000005842773000000000001000000000000000584277300000000000000000000000000000                  
3030003MX95FO0C00250        0      95  FOVISCB17-2U  0         0000000885630000002010475920000001780537791000000289223837000000256145306800000000021454210078161800610000051000001100000000000000000000000000000000000000000000000000000000000003429093100000005379700000000000001000000000000000537970000000000000000000000000000000                  
3030003MX95FO0C00170        0      95  FOVISCB17U    0         0000001857910000001720638630000003196791722000000248229476000000461188025800000000036290370078191800610000041000001100000000000000000000000000000000000000000000000000000000000002981938300000011864115000000000001000000000000001186411500000000000000000000000000000                  
3030003MX95FO0C00580        0      95  FOVISCB19-2U  0         0000002333920000003725945480000008696058677000000463726498000001082300548200000000096791630085781800510000041000001100000000000000000000000000000000000000000000000000000000000005856699400000006287476000000000001000000000000000628747600000000000000000000000000000                  
3030002MX95PE1X00E60        0      95  PEMEX  12U    0         0000001202540000004867790590000005853712898000000780583839000000938683289800000000696889730010111800510010061000005104300410390000000000000000000000000000000000000000000000000010000000000000007215640000000000001000000000000000721564000000000000000000000000000000                  
3030003MX95TF0300080        0      95  TFOVICB15U    0         0000000319130000001369547540000000437063707000000188919582000000060289906200000000003783160071161800510000041000001100000000000000000000000000000000000000000000000000000000000002226958900000019259506000000000001000000000000001925950600000000000000000000000000000                  
3030003MX95TF0300240        0      95  TFOVICB16U    0         0000002099090000001508491400000003166459204000000210046390000000440906276800000000032839420074231800610000041000001100000000000000000000000000000000000000000000000000000000000002502372200000012781236000000000001000000000000001278123600000000000000000000000000000                  
3030003MX95TF0300730        0      95  TFOVICB20U    0         0000001030000000004165485530000004290450100000000496585245000000511482802400000000039108590088231800610000041000001100000000000000000000000000000000000000000000000000000000000006360069000000009271489000000000001000000000000000927148900000000000000000000000000000                  
3030003MX95TF0000I40        0      95  TFOVIS 14-2U  0         0000004812890000000509880050000002453996578000000080819653000000388976099700000000022483420068101800610000051000001100000000000000000000000000000000000000000000000000000000000000948492000000010551956000000000001000000000000001055195600000000000000000000000000000                  
3030001MXBIGO000WF70        0      BI  CETES  260806 0         0000893711890000000084232050000075279186391000000009233323000008251930549300000000000000000003671800000000000000004103700510360000000000000000000000000000000000000000000000000001000000000010291230000000000000000100000000000154000000000000000000000000000000000000                  
3030001MXBIGO000WO90        0      BI  CETES  261001 0         0000444475870000000083441200000037087599253000000009121175000004054142193500000000000000000004231800000000000000004103700510360000000000000000000000000000000000000000000000000001000000000014955510000000000000000100000000000130000000000000000000000000000000000000                  
3030002MX0MGO0001930        0      M   BONOS  260903 0         0000000522380000000960177060000000501577293000000099061884000000051747947000000000153376570003951800510000041000004103700510360000000000000000000000000000000000000000000000000010000000000001481221000000000000001000000000000015000000000000000000000000000000000000                  
3030002MX0MGO0001C80        0      M   BONOS  270304 0         0000000472400000000915942690000000432691328000000096264981000000045475577000000000108980030005771800610000051000004103700510360000000000000000000000000000000000000000000000000010000000000002889396000000000000001000000000000012500000000000000000000000000000000000                  
3030002MX0MGO0000D80        0      M   BONOS  270603 0         0000005498520000001022271240000005620978866000000099136999000000545106771700000000687315000006681800510000041000004103700510360000000000000000000000000000000000000000000000000010000000000003359001000000000000001000000000000004650000000000000000000000000000000000                  
3030602MX0MGO0000D80        0      M   BONOS  270603 0         0000036705210000001022271240000037522680593000000099136999000003638844367100000004588151250006681800510000041000004103700510360000000000000000000000000000000000000000000000000010000000000003359001000000000000001000000000000004650000000000000000000000000000000000                  
3030002MX0MGO0001G90        0      M   BONOS  280302 0         0000085184460000000963511270000082076187358000000100529874000008563583030600000030370628100009411800510000041000004103700510360000000000000000000000000000000000000000000000000010000000000002568933000000000000001000000000000014000000000000000000000000000000000000                  
3030002MX0MGO0001F10        0      M   BONOS  290301 0         0000193656000000000954287620000184803523765000000100079179000019380933488400000069043747640013051800510000041000004103700510360000000000000000000000000000000000000000000000000010000000000004534084000000000000001000000000000013000000000000000000000000000000000000                  
3030002MX0MGO0000H90        0      M   BONOS  290531 0         0000734044650000001029082740000755392681026000000100012550000073413677260400000103989683220013961800510000041000004103700510360000000000000000000000000000000000000000000000000010000000000004065614000000000000001000000000000002000000000000000000000000000000000000                  
3030002MX0MGO0000P20        0      M   BONOS  310529 0         0000718423310000000955497780000686451880248000000095537030000068636029320200000092796368160021241800510000041000004103700510360000000000000000000000000000000000000000000000000010000000000004787753000000000000001000000000000025000000000000000000000000000000000000                  
3030002MX0MGO0001D60        0      M   BONOS  330526 0         0000218196680000000892258180000194687772230000000091508397000019966828417500000027274585000028521800510000041000004103700510360000000000000000000000000000000000000000000000000010000000000003312237000000000000001000000000000012500000000000000000000000000000000000                  
3030002MX0MGO0000U20        0      M   BONOS  341123 0         0000026993400000000873056850000023566772640000000091433549000002468102361600000003486648400033981800510000041000004103700510360000000000000000000000000000000000000000000000000010000000000004398651000000000000001000000000000015000000000000000000000000000000000000                  
3030002MX0MGO0000B20        0      M   BONOS  361120 0         0000011319210000001339774810000015165192469000000105531585000001194534172200000001886535380041261800510000041000004103700510360000000000000000000000000000000000000000000000000010000000000001009503000000000000001000000000000002347000000000000000000000000000000000                  
3030002MX0MGO0000J50        0      M   BONOS  381118 0         0000419860360000000999296200000419564862908000000092250937000038732511619200000059480231660048541800510000041000004103700510360000000000000000000000000000000000000000000000000010000000000002205321000000000000001000000000000012795423400000000000000000000000000000                  
3030002MX0MGO0000R80        0      M   BONOS  421113 0         0000486992510000000864364670000420939122098000000083153655000040495207164100000062903215440063101800510000041000004103700510360000000000000000000000000000000000000000000000000010000000000004230527000000000000001000000000000015000000000000000000000000000000000000                  
3030702MX0MGO0000R80        0      M   BONOS  421113 0         0000005433370000000864364670000004696413088000000083153655000000451804574500000000701810470063101800510000041000004103700510360000000000000000000000000000000000000000000000000010000000000004230527000000000000001000000000000015000000000000000000000000000000000000                  
3030002MX0MGO0001020        0      M   BONOS  471107 0         0000430780960000000888835170000382893266824000000083416998000035934454478800000057437446980081301800610000051000004103700510360000000000000000000000000000000000000000000000000010000000000002624614000000000000001000000000000015000000000000000000000000000000000000                  
3030702MX0MGO0001020        0      M   BONOS  471107 0         0000060563100000000888835170000053830613145000000083416998000005051991991600000008075077980081301800610000051000004103700510360000000000000000000000000000000000000000000000000010000000000002624614000000000000001000000000000015000000000000000000000000000000000000                  
3030002MX0MGO0001E40        0      M   BONOS  530731 0         0000418501720000000840038530000351557570215000000082469816000034513759844100000140430595760102231800610000051000004103700510360000000000000000000000000000000000000000000000000010000000000004080183000000000000001000000000000012500000000000000000000000000000000000                  
3030002MXMSGO0000010        0      MS  BONOS  350524 0         0000030754000000000891102910000027404979042000000092882163000002856498040900000004100532310035801800510000041000004103700510360000000000000000000000000000000000000000000000000010000000000000230000000000000000001000000000000023000000000000000000000000000000000000                  
3030002MX0MGO0001I50        0      M   BONOS  300228 0         0000031429980000000956892380000030075108513000000099573788000003129602165400000011205661620016691800000000000000004103700510360000000000000000000000000000000000000000000000000010000000000002242169000000000000001000000000000016000000000000000000000000000000000000                  
3030001MXBIGO000XI90        0      BI  CETES  260401 0         0000162000000000000092190800000014934909454000000009493070000001537877340000000000000000000002401800000000000000004103700510360000000000000000000000000000000000000000000000000001000000000004935060000000000000000100000000000154000000000000000000000000000000000000                  
3030002MX0MGO0001L90        0      M   BONOS  360221 0         0000032554960000000902889660000029393536844000000091324681000002973071337000000010923999140038531800000000000000004103700510360000000000000000000000000000000000000000000000000010000000000000530183000000000000001000000000000015000000000000000000000000000000000000                  
3030002MX94BA0A00H00        0      94  BACOMER19-2   0         0000006956030000000988306930000006874692647000000100181221000000696863578700000000853040910006761800510000041000005100000410000000000000000000000000000000000000000000000000000010000000000000050000000000000000001000000000000005000000000000000000000000000000000000                  
3030002MX94BA0700B60        0      94  BANORTE23-5   0         0000007240000000000993100880000007190050382000000100269470000000725950962800000001400417270017461800610000011000000000000000000000000000000000000000000000000000000000000000000010000000000000023872825000000000001000000000000002387282500000000000000000000000000000                  
3030002MX94BA0700D20        0      94  BANORTE24-2X  0         0000009240000000000990947360000009156353651000000103430717000000955699825100000004199887690020161800510000041000000000000000000000000000000000000000000000000000000000000000000010000000000000036424427000000000001000000000000003642442700000000000000000000000000000                  
3030004MX94BB1U00620        0      94  BBVAMX 24-2   0         0000054773000000000997264580000054623173048000000103368108000005661781379500000018109323130020691800410000011000005100000410000000000000000000000000000000000000000000000000000010000000000000128860000000000000001000000000000006561000000000000000000000000000000000                  
3030002MX94BI0100Z10        0      94  BINBUR 24-2   0         0000056211240000001000000000000056211240000000000103969345000005844245804400000024759488550022091800610000011000005103100410310000000000000000000000000000000000000000000000000010000000000000054000000000000000001000000000000005400000000000000000000000000000000000                  
3030002MX94BL0100860        0      94  BLADEX 22-2   0         0000022460000000001000000000000022460000000000000102325836000002298238276600000009872418780007381800410000011000005103600410360000000000000000000000000000000000000000000000000010000000000000042371424000000000001000000000000004237142400000000000000000000000000000                  
3030002MX94BL0100C40        0      94  BLADEX 23-2   0         0000003620000000001000000000000003620000000000000103843158000000375912232000000000196083450010721800410000011000005103600410360000000000000000000000000000000000000000000000000010000000000000015000000000000000001000000000000001500000000000000000000000000000000000                  
3030004MX94BM0100100        0      94  BMIFEL 23V    0         0000009000000000001000000000000009000000000000000100037199000000900334791000000000254099700004371800410010061000005103100410310000000000000000000000000000000000000000000000000010000000000000015000000000000000001000000000000001500000000000000000000000000000000000                  
3030002MX94BS0600350        0      94  BSMX   19-2   0         0000003450000000000995492280000003434448351000000100269424000000345929512800000001080712500002381800510000041000005100000410000000000000000000000000000000000000000000000000000010000000000000071500000000000000001000000000000004600000000000000000000000000000000000                  
3030002MX94BS0600500        0      94  BSMX   21-2   0         0000005710000000000942030730000005378995474000000097102727000000554456571200000000884288860012051800510000041000005100000410000000000000000000000000000000000000000000000000000010000000000000065000000000000000001000000000000006500000000000000000000000000000000000                  
3030002MX94HS0M00310        0      94  HSBC   17-2   0         0000011774400000001003121440000011811153113000000099846950000001175637928100000003658339050007771800510000041000001103600410350000000000000000000000000000000000000000000000000010000000000000025000000000000000001000000000000002500000000000000000000000000000000000                  
3030002MX94HS0M00C00        0      94  HSBC   20-2   0         0000016055000000001000000000000016055000000000000092491406000001484949523300000001680423870017721800510000041000001103600410350000000000000000000000000000000000000000000000000010000000000000060000000000000000001000000000000006000000000000000000000000000000000000                  
3030002MX94HS0M00F30        0      94  HSBC   24-2   0         0000001500000000001000000000000001500000000000000104379504000000156569256000000000357591600013731800510000041000001103600410350000000000000000000000000000000000000000000000000010000000000000025000000000000000001000000000000002500000000000000000000000000000000000                  
3030002MX94SC3O00K80        0      94  SCOTIAB24-2   0         0000032348520000001000000000000032348520000000000103747052000003356063586600000014090834160020231800410000011000005103100410310000000000000000000000000000000000000000000000000010000000000000048106098000000000001000000000000004810609800000000000000000000000000000                  
3030002XS24171102150        0      JI  CABEI  2-21   0         0000001730000000000893152930000001545154569000000092772540000000160496494200000000198517500023121800510000011000005103100110300000000000000000000000000000000000000000000000000010000000000000034285710000000000001000000000000003428571000000000000000000000000000000                  
3030002XS26160755730        0      JI  CABEI  2-23S  0         0000006740000000001000000000000006740000000000000098940120000000666856408800000001092291810028501800510000011000005103100110300000000000000000000000000000000000000000000000000010000000000000035000000000000000001000000000000001500000000000000000000000000000000000                  
3030002MXCDBA0300650        0      CD  BACMEXT20-2   0         0000022940000000001000000000000022940000000000000094120530000002159124958200000001882098540008581800610000041000004103700510360000000000000000000000000000000000000000000000000010000000000000070000000000000000001000000000000010000000000000000000000000000000000000                  
3030002MXCDBA0300C80        0      CD  BACMEXT21-3X  0         0000035775000000001000000000000035775000000000000094997260000003398526976500000007858873130022651800610000051000004103700510360000000000000000000000000000000000000000000000000010000000000000060000000000000000001000000000000006000000000000000000000000000000000000                  
3030002MXCDBA0300J30        0      CD  BACMEXT23-4X  0         0000020000000000001000000000000020000000000000000107062257000002141245140000000006072500000029861800610000051000004103700510360000000000000000000000000000000000000000000000000010000000000000059486108000000000001000000000000005948610800000000000000000000000000000                  
3030002MXCDBA0300O30        0      CD  BACMEXT24-4X  0         0000030000000000001000000000000030000000000000000103078515000003092355450000000014181000000032841800610000051000005103100410310000000000000000000000000000000000000000000000000010000000000000064063532000000000001000000000000006406353200000000000000000000000000000                  
3030002MXCDBA1C00H80        0      CD  BANOB  21-5X  0         0000014000000000001000000000000014000000000000000091847400000001285863600000000004150300000022191800510000041000005100000410000000000000000000000000000000000000000000000000000010000000000000028000000000000000001000000000000002800000000000000000000000000000000000                  
3030002MXCDBA1C00S50        0      CD  BANOB  23-3   0         0000025740000000001000000000000025740000000000000100028730000002574739510200000002041395640036091800510000041000005100000410000000000000000000000000000000000000000000000000000010000000000000080000000000000000001000000000000008000000000000000000000000000000000000                  
3030002MXCDBA1C00V90        0      CD  BANOB  23-5   0         0000002980000000001000000000000002980000000000000101785834000000303321785300000000471295340030351800510000041000005103100410310000000000000000000000000000000000000000000000000010000000000000074600000000000000001000000000000007460000000000000000000000000000000000                  
3030002MXCDBA1C00Z00        0      CD  BANOB  24-3   0         0000040000000000001000000000000040000000000000000105575760000004223030400000000006514668000041301800510000041000005103100410310000000000000000000000000000000000000000000000000010000000000000089000000000000000001000000000000008900000000000000000000000000000000000                  
3030002MXCDBA1C00X50        0      CD  BANOB  24X    0         0000040000000000001000000000000040000000000000000104341649000004173665960000000010272888000031851800510000041000005103100410310000000000000000000000000000000000000000000000000010000000000000083000000000000000001000000000000008300000000000000000000000000000000000                  
3030002MXCDNA0R00600        0      CD  NAFF   21X    0         0000035000000000001000000000000035000000000000000094769641000003316937435000000005831679000022891800610000041000004100000110000000000000000000000000000000000000000000000000000010000000000000065000000000000000001000000000000006500000000000000000000000000000000000                  
3030002MXCDNA0R00860        0      CD  NAFF   23S    0         0000010390000000001000000000000010390000000000000100748894000001046781008700000002201295010017361800610000041000004100000110000000000000000000000000000000000000000000000000000010000000000000054670000000000000001000000000000005467000000000000000000000000000000000                  
3030002MXCDNA0R00A90        0      CD  NAFF   24-2S  0         0000005000000000001000000000000005000000000000000102913241000000514566205000000002081250000034901800610000041000005103100410310000000000000000000000000000000000000000000000000010000000000000068138975000000000001000000000000006813897500000000000000000000000000000                  
3030002MX95NA0R00050        0      CD  NAFF   260925 0         0000005060000000001001775920000005068986149000000097824656000000494992759400000001124163500004171800610000041000004100000110000000000000000000000000000000000000000000000000000010000000000000129500000000000000001000000000000005000000000000000000000000000000000000                  
3030002MXCDNA0R00520        0      CD  NAFF   310620 0         0000009033000000000980452450000008856427004000000092631773000000836742805500000000700809950021461800610000041000004100000110000000000000000000000000000000000000000000000000000010000000000000075000000000000000001000000000000007500000000000000000000000000000000000                  
3030001XS22641892050        0      JI  EBRD205301203 0         0000000003300005250000000000000017325000000000654403800636000002159532542100000000000000000019471800410280011028005102800410280000000000000000000000000000000000000000000000100000000000000000000007049000000010000000000000000000000105000000000000000000000000000000                  
3030002MXCDNA0R00B70        0      CD  NAFF   25X    0         0000007048300000001000000000000007048300000000000105252059000000741848087400000003411298960036501800610000041000005103100410310000000000000000000000000000000000000000000000000010000000000000061471786000000000001000000000000006147178600000000000000000000000000000                  
3030002MXCDBA0300Q80        0      CD  BACMEXT25-2X  0         0000048000000000001000000000000048000000000000000102308916000004910827968000000019345200000034931800610000041000004103700510360000000000000000000000000000000000000000000000000010000000000000110427671000000000001000000000000011042767100000000000000000000000000000                  
3030002MXCDBA1C01290        0      CD  BANOB  25-2   0         0000025136900000001000000000000025136900000000000102064877000002565594606700000005476702090024651800510000041000005100000410000000000000000000000000000000000000000000000000000010000000000000101500000000000000001000000000000010150000000000000000000000000000000000                  
3030002MXCDBA1C01370        0      CD  BANOB  25-3   0         0000022510200000001000000000000022510200000000000101481715000002284373701000000005158712060042851800510000041000005100000410000000000000000000000000000000000000000000000000000010000000000000043500000000000000001000000000000004350000000000000000000000000000000000                  
3030004MX94CO0H00I60        0      94  COMPART25-2S  0         0000017000000000001000000000000017000000000000000100000304000001700005168000000000516233900021441800510020041002005103100410310000000000000000000000000000000000000000000000000010000000000000010000000000000000001000000000000001000000000000000000000000000000000000                  
3030004MX94CO0H00J40        0      94  COMPART25S    0         0000017000000000001000000000000017000000000000000100000294000001700004998000000000513400000017801800510020041002005103100410310000000000000000000000000000000000000000000000000010000000000000010000000000000000001000000000000001000000000000000000000000000000000000                  
3030002MX91AC1000560        0      91  AC     22     0         0000004660000000001000000000000004660000000000000102400321000000477185495900000000663532270014011800510000041000004100000110000000000000000000000000000000000000000000000000000010000000000000011500000000000000001000000000000001150000000000000000000000000000000000                  
3030002MX91AC1J00060        0      91  ACBE   17     0         0000006088860000001000000000000006088860000000000098155653000000597656029300000001989027800007601800410000011000004100000110000000000000000000000000000000000000000000000000000010000000000000060000000000000000001000000000000007000000000000000000000000000000000000                  
3030003MX91AC0P00170        0      91  ACOSTCB15     0         0000007807770000000652315240000005093127394000000061851607000000482923121600000000229777210034821800610000041000001100500410030000000000000000000000000000000000000000000000000006621594100000030000000000000000001000000000000003000000000000000000000000000000000000                  
3030002MX91AG0500180        0      91  AGUA   17-2X  0         0000006531610000000967810800000006321362701000000097770993000000638601995600000000737618640006811800110040041002001100400410020000000000000000000000000000000000000000000000000010000000000000040000000000000000001000000000000001400000000000000000000000000000000000                  
3030002MX91AL2F00750        0      91  ALSEA  17-2   0         0000008540120000000966325760000008252537923000000097996050000000836898026500000002750274760007791800610040041004006100400410040000000000000000000000000000000000000000000000000010000000000000020000000000000000001000000000000002000000000000000000000000000000000000                  
3030002MX91AL2F00A10        0      91  ALSEA  19-2   0         0000005488510000001000000000000005488510000000000100149994000000549674243600000001342977470002761800610040041004006100400410040000000000000000000000000000000000000000000000000010000000000000026500000000000000001000000000000002650000000000000000000000000000000000                  
3030002MX91AM0500P30        0      91  AMX    22X    0         0000063500000000001000000000000063500000000000000102173310000006488005185000000011754554850026601800510000041000004100000110000000000000000000000000000000000000000000000000000010000000000000146791657000000000001000000000000014679165700000000000000000000000000000                  
3030002MX91AM0500T50        0      91  AMX    23-2   0         0000056240000000001000000000000056240000000000000102494125000005764269590000000019427016940009591800510000041000004100000110000000000000000000000000000000000000000000000000000010000000000000110160860000000000001000000000000011016086000000000000000000000000000000                  
3030003MX91AP1Y00090        0      91  APPCVCB17     0         0000011786800000000309811230000003651683043000000030406063000000358390183400000001495298200004521800110090061003004100300110030000000000000000000000000000000000000000000000000003110000000000019500000000000000001000000000000001950000000000000000000000000000000000                  
3030002MX91BI0Y00860        0      91  BIMBO  16     0         0000027876590000000990674660000027616631214000000099270918000002767334680000000008898207530003941800410000011000005103500000000000000000000000000000000000000000000000000000000010000000000000080000000000000000001000000000000008000000000000000000000000000000000000                  
3030002MX91BI0Y00940        0      91  BIMBO  17     0         0000028387950000000994038430000028218713345000000099758260000002831932497000000008320982220007811800410000011000005103500000000000000000000000000000000000000000000000000000000010000000000000100000000000000000001000000000000010000000000000000000000000000000000000                  
3030002MX91BI0Y00B80        0      91  BIMBO  23L    0         0000018500000000001000000000000018500000000000000099328938000001837585353000000003133900000028461800410000011000005103500000000000000000000000000000000000000000000000000000000010000000000000120000000000000000001000000000000012000000000000000000000000000000000000                  
3030002MX91BW0200360        0      91  BWMX   23-2   0         0000002940000000001000000000000002940000000000000100389384000000295144789000000000284306230017891800610020041002005103100410310000000000000000000000000000000000000000000000000010000000000000005000000000000000001000000000000000500000000000000000000000000000000000                  
3030002MX91CE0200P30        0      91  CEMEX  23-2L  0         0000018500000000001017574140000018825121629000000106656338000001973142253000000007256316050018791800410010011001004100100110010000000000000000000000000000000000000000000000000010000000000000085000000000000000001000000000000005000000000000000000000000000000000000                  
3030002MX91CE0E00B30        0      91  CETELEM21-4   0         0000003660000000001000000000000003660000000000000098589700000000360838302000000001036999880004101800410000011000004100000110000000000000000000000000000000000000000000000000000010000000000000010158335000000000001000000000000001015833500000000000000000000000000000                  
3030003MX91CE0E00C10        0      91  CETELEM22     0         0000013420000000000497300550000006673773380000000050359798000000675828489200000002307793110002321800410000011000004100000110000000000000000000000000000000000000000000000000000005000000000000031560190000000000001000000000000001930868000000000000000000000000000000                  
3030003MX91CE0E00F40        0      91  CETELEM22-4   0         0000000193400000001000000000000000193400000000000102184482000000019762478800000000069382250007871800410000011000004100000110000000000000000000000000000000000000000000000000000010000000000000014500000000000000001000000000000001450000000000000000000000000000000000                  
3030004MX91CY0000010        0      91  CYDSASA23     0         0000011000000000001000000000000011000000000000000099998860000001099987460000000000677600000004801800510030061001005103100410310000000000000000000000000000000000000000000000000010000000000000008500000000000000001000000000000000850000000000000000000000000000000000                  
3030002MX91DA0200060        0      91  DANHOS 16     0         0000010981510000001000000000000010981510000000000098845162000001085469135000000000832764140003291800610000041000004100000110000000000000000000000000000000000000000000000000000010000000000000030000000000000000001000000000000003000000000000000000000000000000000000                  
3030002MX91DA0200220        0      91  DANHOS 17     0         0000012526650000000994333570000012455668555000000098560846000001234637221500000001040060190006931800610000041000004100000110000000000000000000000000000000000000000000000000000010000000000000025000000000000000001000000000000002500000000000000000000000000000000000                  
3030002MX91DA0200300        0      91  DANHOS 23L    0         0000001040360000001000000000000001040360000000000104570325000000108790783300000000527280460018311800610000041000004100000110000000000000000000000000000000000000000000000000000010000000000000025000000000000000001000000000000002500000000000000000000000000000000000                  
3030004MX91DH0000270        0      91  DHIC   22B    0         0000002150000000000642857140000001382142858000000063981778000000137560822700000000046148250002981800610040041001004100400000000000000000000000000000000000000000000000000000000006428571400000014000000000000000001000000000000001400000000000000000000000000000000000                  
3030003MX91DM0300010        0      91  DMXI   15     0         0000003573250000000743794950000002657765318000000007729678000000027620071900000000000000000036421800110490061021001101800610020000000000000000000000000000000000000000000000000007729677800000021350000000000000001000000000000002135000000000000000000000000000000000                  
3030003MX91DO0700050        0      91  DOIHICB13     0         0000001939170000000732791330000001421006960000000066121761000000128221335300000000213624780032211800610000041000000000000000000000000000000000000000000000000000000000000000000007327913300000018450000000000000001000000000000001845000000000000000000000000000000000                  
3030004MX91EN0900030        0      91  ENGENCB24     0         0000019860000000001000000000000019860000000000000100118998000001988363300300000000572629340016051800610000051000005103100410310000000000000000000000000000000000000000000000000010000000000000027000000000000000001000000000000002700000000000000000000000000000000000                  
3030002MX91EN0900110        0      91  ENGENCB24-2   0         0000005000000000001000000000000005000000000000000108039669000000540198345000000000180278000016051800610000051000005103100410310000000000000000000000000000000000000000000000000010000000000000018000000000000000001000000000000001800000000000000000000000000000000000                  
3030002MX91FI0V00150        0      91  FINN   18     0         0000006920470000001061776180000007347990177000000098457713000000681373649100000003436013360009121800410060061004000000000000000000000000000000000000000000000000000000000000000010000000000000032000000000000000001000000000000002000000000000000000000000000000000000                  
3030002MX91FS0000220        0      91  FSHOP  17-2   0         0000008577250000001000000000000008577250000000000097260748000000834229750800000000435056990007081800410040061002004100200610010000000000000000000000000000000000000000000000000010000000000000016000000000000000001000000000000001600000000000000000000000000000000000                  
3030002MX91FU0000850        0      91  FUNO   17     0         0000006970980000001000000000000006970980000000000098822575000000688890193900000001122327780008471800610000041000000000000000000000000000000000000000000000000000000000000000000010000000000000047996000000000000001000000000000001000000000000000000000000000000000000                  
3030002MX91FU0000E00        0      91  FUNO   21X    0         0000004230000000001000000000000004230000000000000096839646000000409631702600000001150113310011651800610000041000000000000000000000000000000000000000000000000000000000000000000010000000000000029000000000000000001000000000000002900000000000000000000000000000000000                  
3030002MX91FU0000G50        0      91  FUNO   23L    0         0000007600000000001000000000000007600000000000000100128308000000760975140800000003578333080027621800610000041000000000000000000000000000000000000000000000000000000000000000000010000000000000049700000000000000001000000000000004970000000000000000000000000000000000                  
3030002MX91GA0000880        0      91  GAP    20-3   0         0000016442000000001001869850000016472744056000000099365932000001633774653900000001710150510006821800510000011000001100000000000000000000000000000000000000000000000000000000000010000000000000035980000000000000001000000000000003598000000000000000000000000000000000                  
3030002MX91GA0000960        0      91  GAP    21-2   0         0000003849000000001000000000000003849000000000000098046123000000377379527400000000794968230009981800510000011000001100000000000000000000000000000000000000000000000000000000000010000000000000030000000000000000001000000000000002000000000000000000000000000000000000                  
3030002MX91GA0000D20        0      91  GAP    22-2   0         0000000750000000001000000000000000750000000000000102138646000000076603984500000000290100000024041800510000011000001100000000000000000000000000000000000000000000000000000000000010000000000000060000000000000000001000000000000003000000000000000000000000000000000000                  
3030002MX91GA0000F70        0      91  GAP    23-2L  0         0000004430000000001000000000000004430000000000000102073926000000452187492200000001579356580016871800510000011000001100000000000000000000000000000000000000000000000000000000000010000000000000042800000000000000001000000000000004280000000000000000000000000000000000                  
3030004MX91GA0000J90        0      91  GAP    24     0         0000029400000000001000000000000029400000000000000100969167000002968493509800000001804833660014871800510000011000005103100410310000000000000000000000000000000000000000000000000010000000000000056481343000000000001000000000000005648134300000000000000000000000000000                  
3030002MX91GA0800150        0      91  GASA   24-2   0         0000010000000000001000000000000010000000000000000102519633000001025196330000000005747444000014651800610020071001005103100410310000000000000000000000000000000000000000000000000010000000000000007000000000000000001000000000000000700000000000000000000000000000000000                  
3030002MX91GC0000940        0      91  GCARSO 24-2   0         0000004000000000001000000000000004000000000000000106662412000000426649648000000000806533200021151800610000041000005103100410310000000000000000000000000000000000000000000000000010000000000000055000000000000000001000000000000005500000000000000000000000000000000000                  
3030002MX91GI0200050        0      91  GICSA  15     0         0000002040140000001225169550000002499517397000000102709807000000209542385700000000420655040008491800110140071013001102600000000000000000000000000000000000000000000000000000000012309807400000005000000000000000001000000000000000500000000000000000000000000000000000                  
3030004MX91GI0200390        0      91  GICSA  17     0         0000002571160000000982552050000002526298520000000075832864000000194978426600000000107642900012221800110140071013001102600000000000000000000000000000000000000000000000000000000009850706800000010000000000000000001000000000000001000000000000000000000000000000000000                  
